{
  "contractName": "AgorumFactory",
  "abi": [
    {
      "anonymous": false,
      "inputs": [
        {
          "indexed": false,
          "internalType": "uint256",
          "name": "agorumID",
          "type": "uint256"
        },
        {
          "indexed": false,
          "internalType": "string",
          "name": "name",
          "type": "string"
        },
        {
          "indexed": false,
          "internalType": "address payable[]",
          "name": "agorumCreators",
          "type": "address[]"
        }
      ],
      "name": "AgorumCreated",
      "type": "event"
    },
    {
      "anonymous": false,
      "inputs": [
        {
          "indexed": false,
          "internalType": "uint256",
          "name": "agorumID",
          "type": "uint256"
        },
        {
          "indexed": false,
          "internalType": "string",
          "name": "title",
          "type": "string"
        },
        {
          "indexed": false,
          "internalType": "address payable[]",
          "name": "courseCreators",
          "type": "address[]"
        }
      ],
      "name": "CourseAdded",
      "type": "event"
    },
    {
      "inputs": [
        {
          "internalType": "uint256",
          "name": "",
          "type": "uint256"
        }
      ],
      "name": "agorums",
      "outputs": [
        {
          "internalType": "string",
          "name": "name",
          "type": "string"
        }
      ],
      "stateMutability": "view",
      "type": "function"
    },
    {
      "inputs": [],
      "name": "numAgorums",
      "outputs": [
        {
          "internalType": "uint256",
          "name": "",
          "type": "uint256"
        }
      ],
      "stateMutability": "view",
      "type": "function"
    },
    {
      "inputs": [
        {
          "internalType": "string",
          "name": "_name",
          "type": "string"
        },
        {
          "internalType": "address payable[]",
          "name": "_creators",
          "type": "address[]"
        }
      ],
      "name": "createNewAgorum",
      "outputs": [],
      "stateMutability": "nonpayable",
      "type": "function"
    },
    {
      "inputs": [
        {
          "internalType": "uint256",
          "name": "_agorumID",
          "type": "uint256"
        },
        {
          "internalType": "string",
          "name": "_name",
          "type": "string"
        },
        {
          "internalType": "address payable[]",
          "name": "_courseCreators",
          "type": "address[]"
        }
      ],
      "name": "addNewCourse",
      "outputs": [],
      "stateMutability": "nonpayable",
      "type": "function"
    },
    {
      "inputs": [
        {
          "internalType": "uint256",
          "name": "_agorumID",
          "type": "uint256"
        }
      ],
      "name": "getAgorumMetadata",
      "outputs": [
        {
          "internalType": "string",
          "name": "",
          "type": "string"
        },
        {
          "internalType": "address payable[]",
          "name": "",
          "type": "address[]"
        },
        {
          "components": [
            {
              "internalType": "string",
              "name": "title",
              "type": "string"
            },
            {
              "internalType": "address payable[]",
              "name": "courseCreators",
              "type": "address[]"
            }
          ],
          "internalType": "struct AgorumFactory.Course[]",
          "name": "",
          "type": "tuple[]"
        }
      ],
      "stateMutability": "view",
      "type": "function"
    }
  ],
  "bytecode": "0x6080604052600060015534801561001557600080fd5b50611148806100256000396000f3fe608060405234801561001057600080fd5b50600436106100575760003560e01c806314690ba81461005c5780631655907d1461007a5780633840511f14610096578063f7e9fd45146100c6578063f80dc68e146100e2575b600080fd5b610064610114565b6040516100719190610e3a565b60405180910390f35b610094600480360381019061008f91906109ea565b61011a565b005b6100b060048036038101906100ab9190610a5f565b6101d2565b6040516100bd9190610dcc565b60405180910390f35b6100e060048036038101906100db9190610a88565b610278565b005b6100fc60048036038101906100f79190610a5f565b61034a565b60405161010b93929190610dee565b60405180910390f35b60015481565b60006001600081548092919061012f9061102c565b919050559050848460008084815260200190815260200160002060000191906101599291906106bf565b508282600080848152602001908152602001600020600101919061017e929190610745565b5061018c8186868686610278565b7f63842ce14e9db32f1d6590c10bed8be6950c3d5ba6219cd550a3f3711ec26ba281868686866040516101c3959493929190610e55565b60405180910390a15050505050565b60006020528060005260406000206000915090508060000180546101f590610ffa565b80601f016020809104026020016040519081016040528092919081815260200182805461022190610ffa565b801561026e5780601f106102435761010080835404028352916020019161026e565b820191906000526020600020905b81548152906001019060200180831161025157829003601f168201915b5050505050905081565b600080600087815260200190815260200160002090508060020161029e8686868661060c565b908060018154018082558091505060019003906000526020600020906002020160009091909190915060008201518160000190805190602001906102e39291906107e5565b50602082015181600101908051906020019061030092919061086b565b5050507ffd2460ade19a645be21837aae3f27f9894e25dbc372959960f483e385d9c739a868686868660405161033a959493929190610e55565b60405180910390a1505050505050565b60608060606000806000868152602001908152602001600020905080600001816001018260020182805461037d90610ffa565b80601f01602080910402602001604051908101604052809291908181526020018280546103a990610ffa565b80156103f65780601f106103cb576101008083540402835291602001916103f6565b820191906000526020600020905b8154815290600101906020018083116103d957829003601f168201915b505050505092508180548060200260200160405190810160405280929190818152602001828054801561047e57602002820191906000526020600020905b8160009054906101000a900473ffffffffffffffffffffffffffffffffffffffff1673ffffffffffffffffffffffffffffffffffffffff1681526020019060010190808311610434575b5050505050915080805480602002602001604051908101604052809291908181526020016000905b828210156105f857838290600052602060002090600202016040518060400160405290816000820180546104d990610ffa565b80601f016020809104026020016040519081016040528092919081815260200182805461050590610ffa565b80156105525780601f1061052757610100808354040283529160200191610552565b820191906000526020600020905b81548152906001019060200180831161053557829003601f168201915b50505050508152602001600182018054806020026020016040519081016040528092919081815260200182805480156105e057602002820191906000526020600020905b8160009054906101000a900473ffffffffffffffffffffffffffffffffffffffff1673ffffffffffffffffffffffffffffffffffffffff1681526020019060010190808311610596575b505050505081525050815260200190600101906104a6565b505050509050935093509350509193909250565b6106146108f5565b61061c6108f5565b85858080601f016020809104026020016040519081016040528093929190818152602001838380828437600081840152601f19601f820116905080830192505050505050508160000181905250838380806020026020016040519081016040528093929190818152602001838360200280828437600081840152601f19601f82011690508083019250505050505050816020018190525080915050949350505050565b8280546106cb90610ffa565b90600052602060002090601f0160209004810192826106ed5760008555610734565b82601f1061070657803560ff1916838001178555610734565b82800160010185558215610734579182015b82811115610733578235825591602001919060010190610718565b5b509050610741919061090f565b5090565b8280548282559060005260206000209081019282156107d4579160200282015b828111156107d357823573ffffffffffffffffffffffffffffffffffffffff168260006101000a81548173ffffffffffffffffffffffffffffffffffffffff021916908373ffffffffffffffffffffffffffffffffffffffff16021790555091602001919060010190610765565b5b5090506107e1919061090f565b5090565b8280546107f190610ffa565b90600052602060002090601f016020900481019282610813576000855561085a565b82601f1061082c57805160ff191683800117855561085a565b8280016001018555821561085a579182015b8281111561085957825182559160200191906001019061083e565b5b509050610867919061090f565b5090565b8280548282559060005260206000209081019282156108e4579160200282015b828111156108e35782518260006101000a81548173ffffffffffffffffffffffffffffffffffffffff021916908373ffffffffffffffffffffffffffffffffffffffff1602179055509160200191906001019061088b565b5b5090506108f1919061090f565b5090565b604051806040016040528060608152602001606081525090565b5b80821115610928576000816000905550600101610910565b5090565b60008135905061093b816110e4565b92915050565b60008083601f84011261095357600080fd5b8235905067ffffffffffffffff81111561096c57600080fd5b60208301915083602082028301111561098457600080fd5b9250929050565b60008083601f84011261099d57600080fd5b8235905067ffffffffffffffff8111156109b657600080fd5b6020830191508360018202830111156109ce57600080fd5b9250929050565b6000813590506109e4816110fb565b92915050565b60008060008060408587031215610a0057600080fd5b600085013567ffffffffffffffff811115610a1a57600080fd5b610a268782880161098b565b9450945050602085013567ffffffffffffffff811115610a4557600080fd5b610a5187828801610941565b925092505092959194509250565b600060208284031215610a7157600080fd5b6000610a7f848285016109d5565b91505092915050565b600080600080600060608688031215610aa057600080fd5b6000610aae888289016109d5565b955050602086013567ffffffffffffffff811115610acb57600080fd5b610ad78882890161098b565b9450945050604086013567ffffffffffffffff811115610af657600080fd5b610b0288828901610941565b92509250509295509295909350565b6000610b1d8383610b3d565b60208301905092915050565b6000610b358383610d79565b905092915050565b610b4681610f7c565b82525050565b6000610b588385610f21565b9350610b6382610e9e565b8060005b85811015610b9c57610b798284610f65565b610b838882610b11565b9750610b8e83610ee9565b925050600181019050610b67565b5085925050509392505050565b6000610bb482610ec8565b610bbe8185610f10565b9350610bc983610ea8565b8060005b83811015610bfa578151610be18882610b11565b9750610bec83610ef6565b925050600181019050610bcd565b5085935050505092915050565b6000610c1282610ec8565b610c1c8185610f21565b9350610c2783610ea8565b8060005b83811015610c58578151610c3f8882610b11565b9750610c4a83610ef6565b925050600181019050610c2b565b5085935050505092915050565b6000610c7082610ed3565b610c7a8185610f32565b935083602082028501610c8c85610eb8565b8060005b85811015610cc85784840389528151610ca98582610b29565b9450610cb483610f03565b925060208a01995050600181019050610c90565b50829750879550505050505092915050565b6000610ce68385610f54565b9350610cf3838584610fb8565b610cfc836110d3565b840190509392505050565b6000610d1282610ede565b610d1c8185610f43565b9350610d2c818560208601610fc7565b610d35816110d3565b840191505092915050565b6000610d4b82610ede565b610d558185610f54565b9350610d65818560208601610fc7565b610d6e816110d3565b840191505092915050565b60006040830160008301518482036000860152610d968282610d07565b91505060208301518482036020860152610db08282610ba9565b9150508091505092915050565b610dc681610fae565b82525050565b60006020820190508181036000830152610de68184610d40565b905092915050565b60006060820190508181036000830152610e088186610d40565b90508181036020830152610e1c8185610c07565b90508181036040830152610e308184610c65565b9050949350505050565b6000602082019050610e4f6000830184610dbd565b92915050565b6000606082019050610e6a6000830188610dbd565b8181036020830152610e7d818688610cda565b90508181036040830152610e92818486610b4c565b90509695505050505050565b6000819050919050565b6000819050602082019050919050565b6000819050602082019050919050565b600081519050919050565b600081519050919050565b600081519050919050565b6000602082019050919050565b6000602082019050919050565b6000602082019050919050565b600082825260208201905092915050565b600082825260208201905092915050565b600082825260208201905092915050565b600082825260208201905092915050565b600082825260208201905092915050565b6000610f74602084018461092c565b905092915050565b6000610f8782610f8e565b9050919050565b600073ffffffffffffffffffffffffffffffffffffffff82169050919050565b6000819050919050565b82818337600083830152505050565b60005b83811015610fe5578082015181840152602081019050610fca565b83811115610ff4576000848401525b50505050565b6000600282049050600182168061101257607f821691505b60208210811415611026576110256110a4565b5b50919050565b600061103782610fae565b91507fffffffffffffffffffffffffffffffffffffffffffffffffffffffffffffffff82141561106a57611069611075565b5b600182019050919050565b7f4e487b7100000000000000000000000000000000000000000000000000000000600052601160045260246000fd5b7f4e487b7100000000000000000000000000000000000000000000000000000000600052602260045260246000fd5b6000601f19601f8301169050919050565b6110ed81610f7c565b81146110f857600080fd5b50565b61110481610fae565b811461110f57600080fd5b5056fea264697066735822122092dce844806cc5d62bb2646e6d1e4231edce9bf8bc53869c8d12d1cf6fd0730a64736f6c63430008000033",
  "immutableReferences": {},
  "source": "// SPDX-License-Identifier: MIT\npragma solidity ^0.8.0;\n\n// import \"../node_modules/@openzeppelin/contracts/utils/math/SafeCast.sol\";\nimport \"../node_modules/@openzeppelin/contracts/utils/math/SafeCast.sol\";\n// import \"./Structs.sol\";\n\n/**\n * The main contract of the app\n */\ncontract AgorumFactory {\n  using SafeCast for uint256;\n\n  struct Agorum {\n    string name;\n    address payable[] agorumCreators;\n    Course[] courses;\n  }\n\n  // potentially don't need to store courses, just store in decentralized storage\n  struct Course {\n    string title;\n    address payable[] courseCreators;\n  }\n\n  // tracker of all agorums, mapping AgorumID to Agorum struct\n  mapping (uint => Agorum) public agorums;\n  uint public numAgorums = 0;\n\n  /**\n   * @dev Checks for message sender is one of the Agorum creators\n   * @param agorumCreators array of addresses of the creators\n   */\n  modifier onlyCreator(address payable[] memory agorumCreators) {\n    // loop through agorum's creators until one is found\n    bool creator = false;\n    uint index = 0;\n    while (!creator && index < agorumCreators.length) {\n      if (msg.sender == agorumCreators[index]) {\n        creator = true;\n      }\n      index++;\n    }\n\n    // if creator is found, execute the function body\n    if (creator) {\n      _;\n    }\n  }\n\n  /**\n   * @dev Creates a new agorum with given name and array of creators. Adds new Agorum to the mapping tracker.\n   * @dev Since an Agorum must be composed of at least one course, a course is also created and pushed to Agorum's courses.\n   * @param _name the agorum name\n   * @param _creators address of the creators\n   */\n  function createNewAgorum(string calldata _name, address payable[] calldata _creators) public {\n    // New Agorum receives ID of corresponding number of Agorums\n    uint agorumID = numAgorums++;\n    // Assign agorum to mapping, assigning name and creators\n    agorums[agorumID].name = _name;\n    agorums[agorumID].agorumCreators = _creators;\n    // create and add the corresponding course to the Agorum\n    addNewCourse(agorumID, _name, _creators);\n\n    // INITIALIZE CROWDFUND & PAYROLL???\n\n\n    emit AgorumCreated(agorumID, _name, _creators);\n  }\n\n  /**\n   * @dev Adds a new course to an Agorum\n   */\n  function addNewCourse(uint _agorumID, string calldata _name, address payable[] calldata _courseCreators) public {\n    Agorum storage a = agorums[_agorumID];\n    a.courses.push(_createNewCourse(_name, _courseCreators));\n\n    emit CourseAdded(_agorumID, _name, _courseCreators);\n  }\n\n  /**\n   * @dev Add a new course to an Agorum\n   * @param _title the course title\n   * @param _courseCreators the course creators\n   * @return the newly created course\n   */\n  function _createNewCourse(string calldata _title, address payable[] calldata _courseCreators) pure internal returns (Course memory) {\n    Course memory c;\n    c.title = _title;\n    c.courseCreators = _courseCreators;\n    return c;\n  }\n\n  /**\n   * @dev Retrieves the metadata of an Agorum, ie, name, creators, and courses\n   * @dev Does not return Crowdfund or Payroll information\n   * @param _agorumID the ID of the Agorum\n   * @return the Agorum name, creators, and courses\n   */\n  function getAgorumMetadata(uint _agorumID) public view returns (string memory, address payable[] memory, Course[] memory) {\n    Agorum storage a = agorums[_agorumID];\n    return (a.name, a.agorumCreators, a.courses);\n  }\n\n  event AgorumCreated(uint agorumID, string name, address payable[] agorumCreators);\n  event CourseAdded(uint agorumID, string title, address payable[] courseCreators);\n}\n\n",
  "sourcePath": "/home/victor/agora/blockchain/contracts/AgorumFactory.sol",
  "compiler": {
    "name": "solc",
    "version": "0.8.0+commit.c7dfd78e.Emscripten.clang"
  },
  "schemaVersion": "3.3.4",
  "updatedAt": "2021-06-22T13:53:53.689Z",
  "devdoc": {
    "kind": "dev",
    "methods": {
      "addNewCourse(uint256,string,address[])": {
        "details": "Adds a new course to an Agorum"
      },
      "createNewAgorum(string,address[])": {
        "details": "Creates a new agorum with given name and array of creators. Adds new Agorum to the mapping tracker.Since an Agorum must be composed of at least one course, a course is also created and pushed to Agorum's courses.",
        "params": {
          "_creators": "address of the creators",
          "_name": "the agorum name"
        }
      },
      "getAgorumMetadata(uint256)": {
        "details": "Retrieves the metadata of an Agorum, ie, name, creators, and coursesDoes not return Crowdfund or Payroll information",
        "params": {
          "_agorumID": "the ID of the Agorum"
        },
        "returns": {
          "_0": "the Agorum name, creators, and courses"
        }
      }
    },
    "version": 1
  },
  "userdoc": {
    "kind": "user",
    "methods": {},
    "notice": "The main contract of the app",
    "version": 1
  }
}