{
  "contractName": "AgorumTracker",
  "abi": [
    {
      "inputs": [],
      "stateMutability": "nonpayable",
      "type": "constructor"
    },
    {
      "anonymous": false,
      "inputs": [
        {
          "indexed": false,
          "internalType": "uint256",
          "name": "agorumID",
          "type": "uint256"
        },
        {
          "indexed": false,
          "internalType": "string",
          "name": "name",
          "type": "string"
        },
        {
          "indexed": false,
          "internalType": "address payable[]",
          "name": "agorumCreators",
          "type": "address[]"
        }
      ],
      "name": "AgorumCreated",
      "type": "event"
    },
    {
      "anonymous": false,
      "inputs": [
        {
          "indexed": true,
          "internalType": "address",
          "name": "owner",
          "type": "address"
        },
        {
          "indexed": true,
          "internalType": "address",
          "name": "spender",
          "type": "address"
        },
        {
          "indexed": false,
          "internalType": "uint256",
          "name": "value",
          "type": "uint256"
        }
      ],
      "name": "Approval",
      "type": "event"
    },
    {
      "anonymous": false,
      "inputs": [
        {
          "indexed": false,
          "internalType": "uint256",
          "name": "agorumID",
          "type": "uint256"
        },
        {
          "indexed": false,
          "internalType": "string",
          "name": "title",
          "type": "string"
        },
        {
          "indexed": false,
          "internalType": "address payable[]",
          "name": "courseCreators",
          "type": "address[]"
        }
      ],
      "name": "CourseAdded",
      "type": "event"
    },
    {
      "anonymous": false,
      "inputs": [
        {
          "indexed": true,
          "internalType": "address",
          "name": "from",
          "type": "address"
        },
        {
          "indexed": true,
          "internalType": "address",
          "name": "to",
          "type": "address"
        },
        {
          "indexed": false,
          "internalType": "uint256",
          "name": "value",
          "type": "uint256"
        }
      ],
      "name": "Transfer",
      "type": "event"
    },
    {
      "inputs": [
        {
          "internalType": "address",
          "name": "owner",
          "type": "address"
        },
        {
          "internalType": "address",
          "name": "spender",
          "type": "address"
        }
      ],
      "name": "allowance",
      "outputs": [
        {
          "internalType": "uint256",
          "name": "",
          "type": "uint256"
        }
      ],
      "stateMutability": "view",
      "type": "function"
    },
    {
      "inputs": [
        {
          "internalType": "address",
          "name": "spender",
          "type": "address"
        },
        {
          "internalType": "uint256",
          "name": "amount",
          "type": "uint256"
        }
      ],
      "name": "approve",
      "outputs": [
        {
          "internalType": "bool",
          "name": "",
          "type": "bool"
        }
      ],
      "stateMutability": "nonpayable",
      "type": "function"
    },
    {
      "inputs": [
        {
          "internalType": "address",
          "name": "account",
          "type": "address"
        }
      ],
      "name": "balanceOf",
      "outputs": [
        {
          "internalType": "uint256",
          "name": "",
          "type": "uint256"
        }
      ],
      "stateMutability": "view",
      "type": "function"
    },
    {
      "inputs": [],
      "name": "decimals",
      "outputs": [
        {
          "internalType": "uint8",
          "name": "",
          "type": "uint8"
        }
      ],
      "stateMutability": "pure",
      "type": "function"
    },
    {
      "inputs": [
        {
          "internalType": "address",
          "name": "spender",
          "type": "address"
        },
        {
          "internalType": "uint256",
          "name": "subtractedValue",
          "type": "uint256"
        }
      ],
      "name": "decreaseAllowance",
      "outputs": [
        {
          "internalType": "bool",
          "name": "",
          "type": "bool"
        }
      ],
      "stateMutability": "nonpayable",
      "type": "function"
    },
    {
      "inputs": [
        {
          "internalType": "address",
          "name": "spender",
          "type": "address"
        },
        {
          "internalType": "uint256",
          "name": "addedValue",
          "type": "uint256"
        }
      ],
      "name": "increaseAllowance",
      "outputs": [
        {
          "internalType": "bool",
          "name": "",
          "type": "bool"
        }
      ],
      "stateMutability": "nonpayable",
      "type": "function"
    },
    {
      "inputs": [],
      "name": "mintTokensOnIntroCourseCompletion",
      "outputs": [],
      "stateMutability": "nonpayable",
      "type": "function"
    },
    {
      "inputs": [],
      "name": "mintTokensOnNewLevel",
      "outputs": [],
      "stateMutability": "nonpayable",
      "type": "function"
    },
    {
      "inputs": [],
      "name": "name",
      "outputs": [
        {
          "internalType": "string",
          "name": "",
          "type": "string"
        }
      ],
      "stateMutability": "view",
      "type": "function"
    },
    {
      "inputs": [],
      "name": "numAgorums",
      "outputs": [
        {
          "internalType": "uint256",
          "name": "",
          "type": "uint256"
        }
      ],
      "stateMutability": "view",
      "type": "function"
    },
    {
      "inputs": [],
      "name": "owner",
      "outputs": [
        {
          "internalType": "address",
          "name": "",
          "type": "address"
        }
      ],
      "stateMutability": "view",
      "type": "function"
    },
    {
      "inputs": [],
      "name": "symbol",
      "outputs": [
        {
          "internalType": "string",
          "name": "",
          "type": "string"
        }
      ],
      "stateMutability": "view",
      "type": "function"
    },
    {
      "inputs": [],
      "name": "totalSupply",
      "outputs": [
        {
          "internalType": "uint256",
          "name": "",
          "type": "uint256"
        }
      ],
      "stateMutability": "view",
      "type": "function"
    },
    {
      "inputs": [
        {
          "internalType": "address",
          "name": "recipient",
          "type": "address"
        },
        {
          "internalType": "uint256",
          "name": "amount",
          "type": "uint256"
        }
      ],
      "name": "transfer",
      "outputs": [
        {
          "internalType": "bool",
          "name": "",
          "type": "bool"
        }
      ],
      "stateMutability": "nonpayable",
      "type": "function"
    },
    {
      "inputs": [
        {
          "internalType": "address",
          "name": "sender",
          "type": "address"
        },
        {
          "internalType": "address",
          "name": "recipient",
          "type": "address"
        },
        {
          "internalType": "uint256",
          "name": "amount",
          "type": "uint256"
        }
      ],
      "name": "transferFrom",
      "outputs": [
        {
          "internalType": "bool",
          "name": "",
          "type": "bool"
        }
      ],
      "stateMutability": "nonpayable",
      "type": "function"
    },
    {
      "inputs": [
        {
          "internalType": "uint256",
          "name": "_agorumID",
          "type": "uint256"
        }
      ],
      "name": "distributeFunds",
      "outputs": [],
      "stateMutability": "nonpayable",
      "type": "function"
    },
    {
      "inputs": [
        {
          "internalType": "string",
          "name": "_name",
          "type": "string"
        },
        {
          "internalType": "address payable[]",
          "name": "_creators",
          "type": "address[]"
        }
      ],
      "name": "createNewAgorum",
      "outputs": [],
      "stateMutability": "nonpayable",
      "type": "function"
    },
    {
      "inputs": [
        {
          "internalType": "uint256",
          "name": "_agorumID",
          "type": "uint256"
        },
        {
          "internalType": "string",
          "name": "_name",
          "type": "string"
        },
        {
          "internalType": "address payable[]",
          "name": "_courseCreators",
          "type": "address[]"
        }
      ],
      "name": "addNewCourse",
      "outputs": [],
      "stateMutability": "nonpayable",
      "type": "function"
    },
    {
      "inputs": [
        {
          "internalType": "uint256",
          "name": "_agorumID",
          "type": "uint256"
        }
      ],
      "name": "getAgorumMetadata",
      "outputs": [
        {
          "internalType": "string",
          "name": "",
          "type": "string"
        },
        {
          "internalType": "address payable[]",
          "name": "",
          "type": "address[]"
        },
        {
          "components": [
            {
              "internalType": "string",
              "name": "title",
              "type": "string"
            },
            {
              "internalType": "address payable[]",
              "name": "courseCreators",
              "type": "address[]"
            }
          ],
          "internalType": "struct Course[]",
          "name": "",
          "type": "tuple[]"
        }
      ],
      "stateMutability": "view",
      "type": "function"
    }
  ],
  "bytecode": "0x608060405260006005553480156200001657600080fd5b506040518060400160405280600a81526020017f41676f7261546f6b656e000000000000000000000000000000000000000000008152506040518060400160405280600381526020017f41474f000000000000000000000000000000000000000000000000000000000081525081600390805190602001906200009b929190620000fe565b508060049080519060200190620000b4929190620000fe565b50505033600760006101000a81548173ffffffffffffffffffffffffffffffffffffffff021916908373ffffffffffffffffffffffffffffffffffffffff16021790555062000213565b8280546200010c90620001ae565b90600052602060002090601f0160209004810192826200013057600085556200017c565b82601f106200014b57805160ff19168380011785556200017c565b828001600101855582156200017c579182015b828111156200017b5782518255916020019190600101906200015e565b5b5090506200018b91906200018f565b5090565b5b80821115620001aa57600081600090555060010162000190565b5090565b60006002820490506001821680620001c757607f821691505b60208210811415620001de57620001dd620001e4565b5b50919050565b7f4e487b7100000000000000000000000000000000000000000000000000000000600052602260045260246000fd5b61247480620002236000396000f3fe608060405234801561001057600080fd5b50600436106101215760003560e01c806370a08231116100ad578063d7b6f48911610071578063d7b6f48914610320578063dd62ed3e1461032a578063f726f7151461035a578063f7e9fd4514610376578063f80dc68e1461039257610121565b806370a08231146102545780638da5cb5b1461028457806395d89b41146102a2578063a457c2d7146102c0578063a9059cbb146102f057610121565b80631655907d116100f45780631655907d1461019c57806318160ddd146101b857806323b872dd146101d6578063313ce56714610206578063395093511461022457610121565b806306fdde0314610126578063095ea7b3146101445780630c86254a1461017457806314690ba81461017e575b600080fd5b61012e6103c4565b60405161013b9190611f11565b60405180910390f35b61015e60048036038101906101599190611786565b610456565b60405161016b9190611ef6565b60405180910390f35b61017c610474565b005b610186610481565b604051610193919061207f565b60405180910390f35b6101b660048036038101906101b191906117c2565b610487565b005b6101c0610535565b6040516101cd919061207f565b60405180910390f35b6101f060048036038101906101eb9190611737565b61053f565b6040516101fd9190611ef6565b60405180910390f35b61020e610640565b60405161021b91906120e3565b60405180910390f35b61023e60048036038101906102399190611786565b610649565b60405161024b9190611ef6565b60405180910390f35b61026e600480360381019061026991906116d2565b6106f5565b60405161027b919061207f565b60405180910390f35b61028c61073d565b6040516102999190611edb565b60405180910390f35b6102aa610763565b6040516102b79190611f11565b60405180910390f35b6102da60048036038101906102d59190611786565b6107f5565b6040516102e79190611ef6565b60405180910390f35b61030a60048036038101906103059190611786565b6108e9565b6040516103179190611ef6565b60405180910390f35b610328610907565b005b610344600480360381019061033f91906116fb565b610914565b604051610351919061207f565b60405180910390f35b610374600480360381019061036f9190611837565b61099b565b005b610390600480360381019061038b9190611860565b61099e565b005b6103ac60048036038101906103a79190611837565b610a71565b6040516103bb93929190611f33565b60405180910390f35b6060600380546103d39061230f565b80601f01602080910402602001604051908101604052809291908181526020018280546103ff9061230f565b801561044c5780601f106104215761010080835404028352916020019161044c565b820191906000526020600020905b81548152906001019060200180831161042f57829003601f168201915b5050505050905090565b600061046a610463610d34565b8484610d3c565b6001905092915050565b61047f336064610f07565b565b60055481565b60006005600081548092919061049c90612341565b919050559050600060066000838152602001908152602001600020905085858260000191906104cc929190611392565b5083838260010191906104e0929190611418565b506104ee828787878761099e565b7f63842ce14e9db32f1d6590c10bed8be6950c3d5ba6219cd550a3f3711ec26ba2828787878760405161052595949392919061209a565b60405180910390a1505050505050565b6000600254905090565b600061054c84848461105b565b6000600160008673ffffffffffffffffffffffffffffffffffffffff1673ffffffffffffffffffffffffffffffffffffffff1681526020019081526020016000206000610597610d34565b73ffffffffffffffffffffffffffffffffffffffff1673ffffffffffffffffffffffffffffffffffffffff16815260200190815260200160002054905082811015610617576040517f08c379a000000000000000000000000000000000000000000000000000000000815260040161060e90611fdf565b60405180910390fd5b61063485610623610d34565b858461062f9190612232565b610d3c565b60019150509392505050565b60006002905090565b60006106eb610656610d34565b848460016000610664610d34565b73ffffffffffffffffffffffffffffffffffffffff1673ffffffffffffffffffffffffffffffffffffffff16815260200190815260200160002060008873ffffffffffffffffffffffffffffffffffffffff1673ffffffffffffffffffffffffffffffffffffffff168152602001908152602001600020546106e691906121dc565b610d3c565b6001905092915050565b60008060008373ffffffffffffffffffffffffffffffffffffffff1673ffffffffffffffffffffffffffffffffffffffff168152602001908152602001600020549050919050565b600760009054906101000a900473ffffffffffffffffffffffffffffffffffffffff1681565b6060600480546107729061230f565b80601f016020809104026020016040519081016040528092919081815260200182805461079e9061230f565b80156107eb5780601f106107c0576101008083540402835291602001916107eb565b820191906000526020600020905b8154815290600101906020018083116107ce57829003601f168201915b5050505050905090565b60008060016000610804610d34565b73ffffffffffffffffffffffffffffffffffffffff1673ffffffffffffffffffffffffffffffffffffffff16815260200190815260200160002060008573ffffffffffffffffffffffffffffffffffffffff1673ffffffffffffffffffffffffffffffffffffffff168152602001908152602001600020549050828110156108c1576040517f08c379a00000000000000000000000000000000000000000000000000000000081526004016108b89061203f565b60405180910390fd5b6108de6108cc610d34565b8585846108d99190612232565b610d3c565b600191505092915050565b60006108fd6108f6610d34565b848461105b565b6001905092915050565b61091233600a610f07565b565b6000600160008473ffffffffffffffffffffffffffffffffffffffff1673ffffffffffffffffffffffffffffffffffffffff16815260200190815260200160002060008373ffffffffffffffffffffffffffffffffffffffff1673ffffffffffffffffffffffffffffffffffffffff16815260200190815260200160002054905092915050565b50565b6000600660008781526020019081526020016000209050806002016109c5868686866112da565b90806001815401808255809150506001900390600052602060002090600202016000909190919091506000820151816000019080519060200190610a0a9291906114b8565b506020820151816001019080519060200190610a2792919061153e565b5050507ffd2460ade19a645be21837aae3f27f9894e25dbc372959960f483e385d9c739a8686868686604051610a6195949392919061209a565b60405180910390a1505050505050565b60608060606000600660008681526020019081526020016000209050806000018160010182600201828054610aa59061230f565b80601f0160208091040260200160405190810160405280929190818152602001828054610ad19061230f565b8015610b1e5780601f10610af357610100808354040283529160200191610b1e565b820191906000526020600020905b815481529060010190602001808311610b0157829003601f168201915b5050505050925081805480602002602001604051908101604052809291908181526020018280548015610ba657602002820191906000526020600020905b8160009054906101000a900473ffffffffffffffffffffffffffffffffffffffff1673ffffffffffffffffffffffffffffffffffffffff1681526020019060010190808311610b5c575b5050505050915080805480602002602001604051908101604052809291908181526020016000905b82821015610d205783829060005260206000209060020201604051806040016040529081600082018054610c019061230f565b80601f0160208091040260200160405190810160405280929190818152602001828054610c2d9061230f565b8015610c7a5780601f10610c4f57610100808354040283529160200191610c7a565b820191906000526020600020905b815481529060010190602001808311610c5d57829003601f168201915b5050505050815260200160018201805480602002602001604051908101604052809291908181526020018280548015610d0857602002820191906000526020600020905b8160009054906101000a900473ffffffffffffffffffffffffffffffffffffffff1673ffffffffffffffffffffffffffffffffffffffff1681526020019060010190808311610cbe575b50505050508152505081526020019060010190610bce565b505050509050935093509350509193909250565b600033905090565b600073ffffffffffffffffffffffffffffffffffffffff168373ffffffffffffffffffffffffffffffffffffffff161415610dac576040517f08c379a0000000000000000000000000000000000000000000000000000000008152600401610da39061201f565b60405180910390fd5b600073ffffffffffffffffffffffffffffffffffffffff168273ffffffffffffffffffffffffffffffffffffffff161415610e1c576040517f08c379a0000000000000000000000000000000000000000000000000000000008152600401610e1390611f9f565b60405180910390fd5b80600160008573ffffffffffffffffffffffffffffffffffffffff1673ffffffffffffffffffffffffffffffffffffffff16815260200190815260200160002060008473ffffffffffffffffffffffffffffffffffffffff1673ffffffffffffffffffffffffffffffffffffffff168152602001908152602001600020819055508173ffffffffffffffffffffffffffffffffffffffff168373ffffffffffffffffffffffffffffffffffffffff167f8c5be1e5ebec7d5bd14f71427d1e84f3dd0314c0f7b2291e5b200ac8c7c3b92583604051610efa919061207f565b60405180910390a3505050565b600073ffffffffffffffffffffffffffffffffffffffff168273ffffffffffffffffffffffffffffffffffffffff161415610f77576040517f08c379a0000000000000000000000000000000000000000000000000000000008152600401610f6e9061205f565b60405180910390fd5b610f836000838361138d565b8060026000828254610f9591906121dc565b92505081905550806000808473ffffffffffffffffffffffffffffffffffffffff1673ffffffffffffffffffffffffffffffffffffffff1681526020019081526020016000206000828254610fea91906121dc565b925050819055508173ffffffffffffffffffffffffffffffffffffffff16600073ffffffffffffffffffffffffffffffffffffffff167fddf252ad1be2c89b69c2b068fc378daa952ba7f163c4a11628f55a4df523b3ef8360405161104f919061207f565b60405180910390a35050565b600073ffffffffffffffffffffffffffffffffffffffff168373ffffffffffffffffffffffffffffffffffffffff1614156110cb576040517f08c379a00000000000000000000000000000000000000000000000000000000081526004016110c290611fff565b60405180910390fd5b600073ffffffffffffffffffffffffffffffffffffffff168273ffffffffffffffffffffffffffffffffffffffff16141561113b576040517f08c379a000000000000000000000000000000000000000000000000000000000815260040161113290611f7f565b60405180910390fd5b61114683838361138d565b60008060008573ffffffffffffffffffffffffffffffffffffffff1673ffffffffffffffffffffffffffffffffffffffff168152602001908152602001600020549050818110156111cc576040517f08c379a00000000000000000000000000000000000000000000000000000000081526004016111c390611fbf565b60405180910390fd5b81816111d89190612232565b6000808673ffffffffffffffffffffffffffffffffffffffff1673ffffffffffffffffffffffffffffffffffffffff16815260200190815260200160002081905550816000808573ffffffffffffffffffffffffffffffffffffffff1673ffffffffffffffffffffffffffffffffffffffff168152602001908152602001600020600082825461126891906121dc565b925050819055508273ffffffffffffffffffffffffffffffffffffffff168473ffffffffffffffffffffffffffffffffffffffff167fddf252ad1be2c89b69c2b068fc378daa952ba7f163c4a11628f55a4df523b3ef846040516112cc919061207f565b60405180910390a350505050565b6112e26115c8565b6112ea6115c8565b85858080601f016020809104026020016040519081016040528093929190818152602001838380828437600081840152601f19601f820116905080830192505050505050508160000181905250838380806020026020016040519081016040528093929190818152602001838360200280828437600081840152601f19601f82011690508083019250505050505050816020018190525080915050949350505050565b505050565b82805461139e9061230f565b90600052602060002090601f0160209004810192826113c05760008555611407565b82601f106113d957803560ff1916838001178555611407565b82800160010185558215611407579182015b828111156114065782358255916020019190600101906113eb565b5b50905061141491906115e2565b5090565b8280548282559060005260206000209081019282156114a7579160200282015b828111156114a657823573ffffffffffffffffffffffffffffffffffffffff168260006101000a81548173ffffffffffffffffffffffffffffffffffffffff021916908373ffffffffffffffffffffffffffffffffffffffff16021790555091602001919060010190611438565b5b5090506114b491906115e2565b5090565b8280546114c49061230f565b90600052602060002090601f0160209004810192826114e6576000855561152d565b82601f106114ff57805160ff191683800117855561152d565b8280016001018555821561152d579182015b8281111561152c578251825591602001919060010190611511565b5b50905061153a91906115e2565b5090565b8280548282559060005260206000209081019282156115b7579160200282015b828111156115b65782518260006101000a81548173ffffffffffffffffffffffffffffffffffffffff021916908373ffffffffffffffffffffffffffffffffffffffff1602179055509160200191906001019061155e565b5b5090506115c491906115e2565b5090565b604051806040016040528060608152602001606081525090565b5b808211156115fb5760008160009055506001016115e3565b5090565b60008135905061160e816123f9565b92915050565b60008135905061162381612410565b92915050565b60008083601f84011261163b57600080fd5b8235905067ffffffffffffffff81111561165457600080fd5b60208301915083602082028301111561166c57600080fd5b9250929050565b60008083601f84011261168557600080fd5b8235905067ffffffffffffffff81111561169e57600080fd5b6020830191508360018202830111156116b657600080fd5b9250929050565b6000813590506116cc81612427565b92915050565b6000602082840312156116e457600080fd5b60006116f2848285016115ff565b91505092915050565b6000806040838503121561170e57600080fd5b600061171c858286016115ff565b925050602061172d858286016115ff565b9150509250929050565b60008060006060848603121561174c57600080fd5b600061175a868287016115ff565b935050602061176b868287016115ff565b925050604061177c868287016116bd565b9150509250925092565b6000806040838503121561179957600080fd5b60006117a7858286016115ff565b92505060206117b8858286016116bd565b9150509250929050565b600080600080604085870312156117d857600080fd5b600085013567ffffffffffffffff8111156117f257600080fd5b6117fe87828801611673565b9450945050602085013567ffffffffffffffff81111561181d57600080fd5b61182987828801611629565b925092505092959194509250565b60006020828403121561184957600080fd5b6000611857848285016116bd565b91505092915050565b60008060008060006060868803121561187857600080fd5b6000611886888289016116bd565b955050602086013567ffffffffffffffff8111156118a357600080fd5b6118af88828901611673565b9450945050604086013567ffffffffffffffff8111156118ce57600080fd5b6118da88828901611629565b92509250509295509295909350565b60006118f58383611915565b60208301905092915050565b600061190d8383611e79565b905092915050565b61191e81612278565b82525050565b61192d81612266565b82525050565b600061193f8385612181565b935061194a826120fe565b8060005b858110156119835761196082846121c5565b61196a88826118e9565b975061197583612149565b92505060018101905061194e565b5085925050509392505050565b600061199b82612128565b6119a58185612170565b93506119b083612108565b8060005b838110156119e15781516119c888826118e9565b97506119d383612156565b9250506001810190506119b4565b5085935050505092915050565b60006119f982612128565b611a038185612181565b9350611a0e83612108565b8060005b83811015611a3f578151611a2688826118e9565b9750611a3183612156565b925050600181019050611a12565b5085935050505092915050565b6000611a5782612133565b611a618185612192565b935083602082028501611a7385612118565b8060005b85811015611aaf5784840389528151611a908582611901565b9450611a9b83612163565b925060208a01995050600181019050611a77565b50829750879550505050505092915050565b611aca8161228a565b82525050565b6000611adc83856121b4565b9350611ae98385846122cd565b611af2836123e8565b840190509392505050565b6000611b088261213e565b611b1281856121a3565b9350611b228185602086016122dc565b611b2b816123e8565b840191505092915050565b6000611b418261213e565b611b4b81856121b4565b9350611b5b8185602086016122dc565b611b64816123e8565b840191505092915050565b6000611b7c6023836121b4565b91507f45524332303a207472616e7366657220746f20746865207a65726f206164647260008301527f65737300000000000000000000000000000000000000000000000000000000006020830152604082019050919050565b6000611be26022836121b4565b91507f45524332303a20617070726f766520746f20746865207a65726f20616464726560008301527f73730000000000000000000000000000000000000000000000000000000000006020830152604082019050919050565b6000611c486026836121b4565b91507f45524332303a207472616e7366657220616d6f756e742065786365656473206260008301527f616c616e636500000000000000000000000000000000000000000000000000006020830152604082019050919050565b6000611cae6028836121b4565b91507f45524332303a207472616e7366657220616d6f756e742065786365656473206160008301527f6c6c6f77616e63650000000000000000000000000000000000000000000000006020830152604082019050919050565b6000611d146025836121b4565b91507f45524332303a207472616e736665722066726f6d20746865207a65726f20616460008301527f64726573730000000000000000000000000000000000000000000000000000006020830152604082019050919050565b6000611d7a6024836121b4565b91507f45524332303a20617070726f76652066726f6d20746865207a65726f2061646460008301527f72657373000000000000000000000000000000000000000000000000000000006020830152604082019050919050565b6000611de06025836121b4565b91507f45524332303a2064656372656173656420616c6c6f77616e63652062656c6f7760008301527f207a65726f0000000000000000000000000000000000000000000000000000006020830152604082019050919050565b6000611e46601f836121b4565b91507f45524332303a206d696e7420746f20746865207a65726f2061646472657373006000830152602082019050919050565b60006040830160008301518482036000860152611e968282611afd565b91505060208301518482036020860152611eb08282611990565b9150508091505092915050565b611ec6816122b6565b82525050565b611ed5816122c0565b82525050565b6000602082019050611ef06000830184611924565b92915050565b6000602082019050611f0b6000830184611ac1565b92915050565b60006020820190508181036000830152611f2b8184611b36565b905092915050565b60006060820190508181036000830152611f4d8186611b36565b90508181036020830152611f6181856119ee565b90508181036040830152611f758184611a4c565b9050949350505050565b60006020820190508181036000830152611f9881611b6f565b9050919050565b60006020820190508181036000830152611fb881611bd5565b9050919050565b60006020820190508181036000830152611fd881611c3b565b9050919050565b60006020820190508181036000830152611ff881611ca1565b9050919050565b6000602082019050818103600083015261201881611d07565b9050919050565b6000602082019050818103600083015261203881611d6d565b9050919050565b6000602082019050818103600083015261205881611dd3565b9050919050565b6000602082019050818103600083015261207881611e39565b9050919050565b60006020820190506120946000830184611ebd565b92915050565b60006060820190506120af6000830188611ebd565b81810360208301526120c2818688611ad0565b905081810360408301526120d7818486611933565b90509695505050505050565b60006020820190506120f86000830184611ecc565b92915050565b6000819050919050565b6000819050602082019050919050565b6000819050602082019050919050565b600081519050919050565b600081519050919050565b600081519050919050565b6000602082019050919050565b6000602082019050919050565b6000602082019050919050565b600082825260208201905092915050565b600082825260208201905092915050565b600082825260208201905092915050565b600082825260208201905092915050565b600082825260208201905092915050565b60006121d46020840184611614565b905092915050565b60006121e7826122b6565b91506121f2836122b6565b9250827fffffffffffffffffffffffffffffffffffffffffffffffffffffffffffffffff038211156122275761222661238a565b5b828201905092915050565b600061223d826122b6565b9150612248836122b6565b92508282101561225b5761225a61238a565b5b828203905092915050565b600061227182612296565b9050919050565b600061228382612296565b9050919050565b60008115159050919050565b600073ffffffffffffffffffffffffffffffffffffffff82169050919050565b6000819050919050565b600060ff82169050919050565b82818337600083830152505050565b60005b838110156122fa5780820151818401526020810190506122df565b83811115612309576000848401525b50505050565b6000600282049050600182168061232757607f821691505b6020821081141561233b5761233a6123b9565b5b50919050565b600061234c826122b6565b91507fffffffffffffffffffffffffffffffffffffffffffffffffffffffffffffffff82141561237f5761237e61238a565b5b600182019050919050565b7f4e487b7100000000000000000000000000000000000000000000000000000000600052601160045260246000fd5b7f4e487b7100000000000000000000000000000000000000000000000000000000600052602260045260246000fd5b6000601f19601f8301169050919050565b61240281612266565b811461240d57600080fd5b50565b61241981612278565b811461242457600080fd5b50565b612430816122b6565b811461243b57600080fd5b5056fea26469706673582212205131173caa2a4d7349ebaf2915f83cee9db5a770c5ffdd97d6d890a3634367ee64736f6c63430008000033",
  "immutableReferences": {},
  "source": "// SPDX-License-Identifier: MIT\npragma solidity ^0.8.0;\n\n// import \"../node_modules/@openzeppelin/contracts/utils/math/SafeCast.sol\";\nimport \"../node_modules/@openzeppelin/contracts/utils/math/SafeCast.sol\";\nimport \"./AGOToken.sol\";\nimport \"./Payroll.sol\";\nimport \"./Structs.sol\";\n\n/**\n * The main contract of the app\n */\ncontract AgorumTracker is AGOToken {\n  using SafeCast for uint256;\n  // contract state variables\n  uint public numAgorums = 0;\n  // tracker of all agorums, mapping AgorumID to Agorum struct\n  mapping (uint => Agorum) agorums;\n  address public owner;\n\n  // set the contract owner to be the deployer\n  constructor () {\n    owner = msg.sender;\n  }\n\n  /**\n   * @dev Checks for message sender is one of the Agorum creators\n   * @param agorumCreators array of addresses of the creators\n   */\n  modifier onlyCreator(address payable[] memory agorumCreators) {\n    // loop through agorum's creators until one is found\n    bool creator = false;\n    uint index = 0;\n    while (!creator && index < agorumCreators.length) {\n      if (msg.sender == agorumCreators[index]) {\n        creator = true;\n      }\n      index++;\n    }\n\n    // if creator is found, execute the function body\n    if (creator) {\n      _;\n    }\n  }\n\n  /**\n   * PAYROLL SPECIFIC METHODS\n   */\n\n  // can we make this so it is automatically called at a certain time, say every x blocks?\n  // can maybe automatically call function on some specific event occurrance\n  // need to figure out payment model\n  function distributeFunds(uint _agorumID) public {\n    // AGOToken.mintTokensOnNewLevel();\n  }\n\n  // AGORUM SPECFIC METHODS\n  /**\n   * @dev Creates a new agorum with given name and array of creators. Adds new Agorum to the mapping tracker.\n   * @dev Since an Agorum must be composed of at least one course, a course is also created and pushed to Agorum's courses.\n   * @param _name the agorum name\n   * @param _creators address of the creators\n   */\n  function createNewAgorum(string calldata _name, address payable[] calldata _creators) public {\n    // New Agorum receives ID of corresponding number of Agorums\n    uint agorumID = numAgorums++;\n    // Assign agorum to mapping, assigning name and creators\n    Agorum storage a = agorums[agorumID];\n    a.name = _name;\n    a.agorumCreators = _creators;\n    // create and add the corresponding course to the Agorum\n    addNewCourse(agorumID, _name, _creators);\n\n    // INITIALIZE CROWDFUND & PAYROLL???\n\n    emit AgorumCreated(agorumID, _name, _creators);\n  }\n\n  /**\n   * @dev Add a new course to an Agorum\n   * @param _title the course title\n   * @param _courseCreators the course creators\n   * @return the newly created course\n   */\n  function _createNewCourse(string calldata _title, address payable[] calldata _courseCreators) pure internal returns (Course memory) {\n    Course memory c;\n    c.title = _title;\n    c.courseCreators = _courseCreators;\n    return c;\n  }\n\n  /**\n   * @dev Adds a new course to an Agorum\n   */\n  function addNewCourse(uint _agorumID, string calldata _name, address payable[] calldata _courseCreators) public {\n    Agorum storage a = agorums[_agorumID];\n    a.courses.push(_createNewCourse(_name, _courseCreators));\n\n    emit CourseAdded(_agorumID, _name, _courseCreators);\n  }\n\n  /**\n   * @dev Retrieves the metadata of an Agorum, ie, name, creators, and courses\n   * @dev Does not return Crowdfund or Payroll information\n   * @param _agorumID the ID of the Agorum\n   * @return the Agorum name, creators, and courses\n   */\n  function getAgorumMetadata(uint _agorumID) public view returns (string memory, address payable[] memory, Course[] memory) {\n    Agorum storage a = agorums[_agorumID];\n    return (a.name, a.agorumCreators, a.courses);\n  }\n\n  // function getAgorumPayroll(uint _agorumID) internal view returns (Payroll memory) {\n  //   return agorums[_agorumID].payroll;\n  // }\n\n  event AgorumCreated(uint agorumID, string name, address payable[] agorumCreators);\n  event CourseAdded(uint agorumID, string title, address payable[] courseCreators);\n}",
  "sourcePath": "/home/victor/agora/blockchain/contracts/AgorumTracker.sol",
  "compiler": {
    "name": "solc",
    "version": "0.8.0+commit.c7dfd78e.Emscripten.clang"
  },
  "schemaVersion": "3.3.4",
  "updatedAt": "2021-06-16T14:20:03.260Z",
  "devdoc": {
    "kind": "dev",
    "methods": {
      "addNewCourse(uint256,string,address[])": {
        "details": "Adds a new course to an Agorum"
      },
      "allowance(address,address)": {
        "details": "See {IERC20-allowance}."
      },
      "approve(address,uint256)": {
        "details": "See {IERC20-approve}. Requirements: - `spender` cannot be the zero address."
      },
      "balanceOf(address)": {
        "details": "See {IERC20-balanceOf}."
      },
      "createNewAgorum(string,address[])": {
        "details": "Creates a new agorum with given name and array of creators. Adds new Agorum to the mapping tracker.Since an Agorum must be composed of at least one course, a course is also created and pushed to Agorum's courses.",
        "params": {
          "_creators": "address of the creators",
          "_name": "the agorum name"
        }
      },
      "decimals()": {
        "details": "Sets the decimals to 2 such that token balances are displayed as (balance / 10 ** 2)"
      },
      "decreaseAllowance(address,uint256)": {
        "details": "Atomically decreases the allowance granted to `spender` by the caller. This is an alternative to {approve} that can be used as a mitigation for problems described in {IERC20-approve}. Emits an {Approval} event indicating the updated allowance. Requirements: - `spender` cannot be the zero address. - `spender` must have allowance for the caller of at least `subtractedValue`."
      },
      "getAgorumMetadata(uint256)": {
        "details": "Retrieves the metadata of an Agorum, ie, name, creators, and coursesDoes not return Crowdfund or Payroll information",
        "params": {
          "_agorumID": "the ID of the Agorum"
        },
        "returns": {
          "_0": "the Agorum name, creators, and courses"
        }
      },
      "increaseAllowance(address,uint256)": {
        "details": "Atomically increases the allowance granted to `spender` by the caller. This is an alternative to {approve} that can be used as a mitigation for problems described in {IERC20-approve}. Emits an {Approval} event indicating the updated allowance. Requirements: - `spender` cannot be the zero address."
      },
      "mintTokensOnIntroCourseCompletion()": {
        "details": "Mints tokens when user has complete the introductory course"
      },
      "mintTokensOnNewLevel()": {
        "details": "Mints tokens when user has reached a new level"
      },
      "name()": {
        "details": "Returns the name of the token."
      },
      "symbol()": {
        "details": "Returns the symbol of the token, usually a shorter version of the name."
      },
      "totalSupply()": {
        "details": "See {IERC20-totalSupply}."
      },
      "transfer(address,uint256)": {
        "details": "See {IERC20-transfer}. Requirements: - `recipient` cannot be the zero address. - the caller must have a balance of at least `amount`."
      },
      "transferFrom(address,address,uint256)": {
        "details": "See {IERC20-transferFrom}. Emits an {Approval} event indicating the updated allowance. This is not required by the EIP. See the note at the beginning of {ERC20}. Requirements: - `sender` and `recipient` cannot be the zero address. - `sender` must have a balance of at least `amount`. - the caller must have allowance for ``sender``'s tokens of at least `amount`."
      }
    },
    "version": 1
  },
  "userdoc": {
    "kind": "user",
    "methods": {
      "distributeFunds(uint256)": {
        "notice": "PAYROLL SPECIFIC METHODS"
      }
    },
    "notice": "The main contract of the app",
    "version": 1
  }
}