{
  "contractName": "Agorum",
  "abi": [
    {
      "anonymous": false,
      "inputs": [
        {
          "indexed": false,
          "internalType": "address",
          "name": "agorumCreator",
          "type": "address"
        },
        {
          "indexed": false,
          "internalType": "string",
          "name": "title",
          "type": "string"
        },
        {
          "indexed": false,
          "internalType": "string",
          "name": "description",
          "type": "string"
        },
        {
          "indexed": false,
          "internalType": "string[]",
          "name": "categoryTags",
          "type": "string[]"
        },
        {
          "indexed": false,
          "internalType": "uint256",
          "name": "createdAt",
          "type": "uint256"
        }
      ],
      "name": "AgorumCreated",
      "type": "event"
    },
    {
      "anonymous": false,
      "inputs": [
        {
          "indexed": false,
          "internalType": "address",
          "name": "changer",
          "type": "address"
        },
        {
          "indexed": false,
          "internalType": "string",
          "name": "description",
          "type": "string"
        }
      ],
      "name": "AgorumDescriptionChanged",
      "type": "event"
    },
    {
      "anonymous": false,
      "inputs": [
        {
          "indexed": false,
          "internalType": "address",
          "name": "changer",
          "type": "address"
        },
        {
          "indexed": false,
          "internalType": "string",
          "name": "name",
          "type": "string"
        }
      ],
      "name": "AgorumNameChanged",
      "type": "event"
    },
    {
      "anonymous": false,
      "inputs": [
        {
          "indexed": false,
          "internalType": "address",
          "name": "changer",
          "type": "address"
        },
        {
          "indexed": false,
          "internalType": "string",
          "name": "tag",
          "type": "string"
        }
      ],
      "name": "AgorumTagAdded",
      "type": "event"
    },
    {
      "anonymous": false,
      "inputs": [
        {
          "indexed": false,
          "internalType": "address",
          "name": "changer",
          "type": "address"
        },
        {
          "indexed": false,
          "internalType": "uint256",
          "name": "tagIndex",
          "type": "uint256"
        }
      ],
      "name": "AgorumTagRemoved",
      "type": "event"
    },
    {
      "anonymous": false,
      "inputs": [
        {
          "indexed": false,
          "internalType": "string",
          "name": "title",
          "type": "string"
        },
        {
          "indexed": false,
          "internalType": "address[]",
          "name": "creators",
          "type": "address[]"
        },
        {
          "indexed": false,
          "internalType": "string",
          "name": "description",
          "type": "string"
        },
        {
          "indexed": false,
          "internalType": "string[]",
          "name": "categoryTags",
          "type": "string[]"
        }
      ],
      "name": "CourseAdded",
      "type": "event"
    },
    {
      "inputs": [
        {
          "internalType": "uint256",
          "name": "",
          "type": "uint256"
        }
      ],
      "name": "categoryTags",
      "outputs": [
        {
          "internalType": "string",
          "name": "",
          "type": "string"
        }
      ],
      "stateMutability": "view",
      "type": "function",
      "constant": true
    },
    {
      "inputs": [
        {
          "internalType": "uint256",
          "name": "",
          "type": "uint256"
        }
      ],
      "name": "courses",
      "outputs": [
        {
          "internalType": "contract Course",
          "name": "",
          "type": "address"
        }
      ],
      "stateMutability": "view",
      "type": "function",
      "constant": true
    },
    {
      "inputs": [],
      "name": "createdAt",
      "outputs": [
        {
          "internalType": "uint256",
          "name": "",
          "type": "uint256"
        }
      ],
      "stateMutability": "view",
      "type": "function",
      "constant": true
    },
    {
      "inputs": [
        {
          "internalType": "uint256",
          "name": "",
          "type": "uint256"
        }
      ],
      "name": "creators",
      "outputs": [
        {
          "internalType": "address",
          "name": "",
          "type": "address"
        }
      ],
      "stateMutability": "view",
      "type": "function",
      "constant": true
    },
    {
      "inputs": [],
      "name": "crowdfund",
      "outputs": [
        {
          "internalType": "contract Crowdfund",
          "name": "",
          "type": "address"
        }
      ],
      "stateMutability": "view",
      "type": "function",
      "constant": true
    },
    {
      "inputs": [],
      "name": "description",
      "outputs": [
        {
          "internalType": "string",
          "name": "",
          "type": "string"
        }
      ],
      "stateMutability": "view",
      "type": "function",
      "constant": true
    },
    {
      "inputs": [],
      "name": "name",
      "outputs": [
        {
          "internalType": "string",
          "name": "",
          "type": "string"
        }
      ],
      "stateMutability": "view",
      "type": "function",
      "constant": true
    },
    {
      "inputs": [],
      "name": "payroll",
      "outputs": [
        {
          "internalType": "contract Payroll",
          "name": "",
          "type": "address"
        }
      ],
      "stateMutability": "view",
      "type": "function",
      "constant": true
    },
    {
      "inputs": [
        {
          "internalType": "string",
          "name": "_name",
          "type": "string"
        }
      ],
      "name": "editName",
      "outputs": [],
      "stateMutability": "nonpayable",
      "type": "function"
    },
    {
      "inputs": [
        {
          "internalType": "string",
          "name": "_description",
          "type": "string"
        }
      ],
      "name": "editDescription",
      "outputs": [],
      "stateMutability": "nonpayable",
      "type": "function"
    },
    {
      "inputs": [
        {
          "internalType": "string",
          "name": "_tag",
          "type": "string"
        }
      ],
      "name": "addCategoryTag",
      "outputs": [],
      "stateMutability": "nonpayable",
      "type": "function"
    },
    {
      "inputs": [
        {
          "internalType": "uint256",
          "name": "tagIndex",
          "type": "uint256"
        }
      ],
      "name": "removeCategoryTag",
      "outputs": [
        {
          "internalType": "string[]",
          "name": "",
          "type": "string[]"
        }
      ],
      "stateMutability": "nonpayable",
      "type": "function"
    },
    {
      "inputs": [
        {
          "internalType": "contract Agorum",
          "name": "agorumMerger",
          "type": "address"
        },
        {
          "internalType": "contract Agorum",
          "name": "agorumMergee",
          "type": "address"
        }
      ],
      "name": "mergeAgorums",
      "outputs": [],
      "stateMutability": "nonpayable",
      "type": "function"
    },
    {
      "inputs": [
        {
          "internalType": "contract Agorum",
          "name": "agorum",
          "type": "address"
        }
      ],
      "name": "deleteAgorum",
      "outputs": [],
      "stateMutability": "nonpayable",
      "type": "function"
    },
    {
      "inputs": [],
      "name": "getCreators",
      "outputs": [
        {
          "internalType": "address[]",
          "name": "",
          "type": "address[]"
        }
      ],
      "stateMutability": "view",
      "type": "function",
      "constant": true
    },
    {
      "inputs": [],
      "name": "getCourses",
      "outputs": [
        {
          "internalType": "contract Course[]",
          "name": "",
          "type": "address[]"
        }
      ],
      "stateMutability": "view",
      "type": "function",
      "constant": true
    },
    {
      "inputs": [
        {
          "internalType": "string",
          "name": "_title",
          "type": "string"
        },
        {
          "internalType": "string",
          "name": "_description",
          "type": "string"
        },
        {
          "internalType": "address[]",
          "name": "_creators",
          "type": "address[]"
        },
        {
          "internalType": "string[]",
          "name": "_categoryTags",
          "type": "string[]"
        }
      ],
      "name": "addCourse",
      "outputs": [],
      "stateMutability": "nonpayable",
      "type": "function"
    }
  ],
  "bytecode": "0x608060405234801561001057600080fd5b50612e11806100206000396000f3fe60806040523480156200001157600080fd5b5060043610620001245760003560e01c806396f979d211620000b1578063c47a6b6a116200007b578063c47a6b6a14620002dd578063cc1264791462000313578063cd53d08e1462000335578063cf09e0d0146200036b578063e6adc1ee146200038d5762000124565b806396f979d21462000247578063a6fedc70146200027d578063abb2d04b146200029d578063be29f81214620002bd5762000124565b80637284e41611620000f35780637284e41614620001ad578063799b3e8914620001cf57806379f912d414620002055780638342a9d914620002255762000124565b806306fdde0314620001295780633690be06146200014b57806352e84c5f146200016b578063562a5d06146200018b575b600080fd5b62000133620003af565b60405162000142919062001b5e565b60405180910390f35b62000169600480360381019062000163919062001390565b62000445565b005b620001896004803603810190620001839190620013d1565b6200056c565b005b62000195620005ed565b604051620001a4919062001a4f565b60405180910390f35b620001b762000613565b604051620001c6919062001b5e565b60405180910390f35b620001ed6004803603810190620001e79190620014fc565b620006a9565b604051620001fc9190620019f1565b60405180910390f35b6200022360048036038101906200021d919062001364565b62000922565b005b6200022f62000a79565b6040516200023e919062001a32565b60405180910390f35b6200026560048036038101906200025f9190620014fc565b62000a9f565b60405162000274919062001a15565b60405180910390f35b6200029b6004803603810190620002959190620013d1565b62000adf565b005b620002bb6004803603810190620002b59190620013d1565b62000b34565b005b620002db6004803603810190620002d591906200141a565b62000b89565b005b620002fb6004803603810190620002f59190620014fc565b62000c85565b6040516200030a919062001b5e565b60405180910390f35b6200031d62000d3a565b6040516200032c9190620019cd565b60405180910390f35b6200035360048036038101906200034d9190620014fc565b62000dca565b60405162000362919062001929565b60405180910390f35b6200037562000e0a565b60405162000384919062001b82565b60405180910390f35b6200039762000e10565b604051620003a69190620019a9565b60405180910390f35b60008054620003be9062001f54565b80601f0160208091040260200160405190810160405280929190818152602001828054620003ec9062001f54565b80156200043d5780601f1062000411576101008083540402835291602001916200043d565b820191906000526020600020905b8154815290600101906020018083116200041f57829003601f168201915b505050505081565b60008173ffffffffffffffffffffffffffffffffffffffff1663cc1264796040518163ffffffff1660e01b815260040160006040518083038186803b1580156200048e57600080fd5b505afa158015620004a3573d6000803e3d6000fd5b505050506040513d6000823e3d601f19601f82011682018060405250810190620004ce91906200131f565b905060008373ffffffffffffffffffffffffffffffffffffffff1663cc1264796040518163ffffffff1660e01b815260040160006040518083038186803b1580156200051957600080fd5b505afa1580156200052e573d6000803e3d6000fd5b505050506040513d6000823e3d601f19601f820116820180604052508101906200055991906200131f565b9050620005668362000922565b50505050565b6003828290918060018154018082558091505060019003906000526020600020016000909192909192909192909192509190620005ab92919062000ea0565b507fd853c17febd7cece35ead89b9f69a0b40eaaf393fb80ced9687c45552cdbc01d338383604051620005e19392919062001946565b60405180910390a15050565b600660009054906101000a900473ffffffffffffffffffffffffffffffffffffffff1681565b60028054620006229062001f54565b80601f0160208091040260200160405190810160405280929190818152602001828054620006509062001f54565b8015620006a15780601f106200067557610100808354040283529160200191620006a1565b820191906000526020600020905b8154815290600101906020018083116200068357829003601f168201915b505050505081565b6060600380549050821015620006be57600080fd5b60008290505b6001600380549050620006d8919062001df6565b811015620007aa576003600182620006f1919062001d99565b8154811062000729577f4e487b7100000000000000000000000000000000000000000000000000000000600052603260045260246000fd5b90600052602060002001600382815481106200076e577f4e487b7100000000000000000000000000000000000000000000000000000000600052603260045260246000fd5b90600052602060002001908054620007869062001f54565b6200079392919062000f31565b508080620007a19062001f8a565b915050620006c4565b506003805480620007e4577f4e487b7100000000000000000000000000000000000000000000000000000000600052603160045260246000fd5b60019003818190600052602060002001600062000802919062000fc9565b90557fbbda24be1191b40382a3aa20e398eb90ab01c1b8dc28c5c3b6e72e4f17d7e1e83383604051620008379291906200197c565b60405180910390a16003805480602002602001604051908101604052809291908181526020016000905b8282101562000917578382906000526020600020018054620008839062001f54565b80601f0160208091040260200160405190810160405280929190818152602001828054620008b19062001f54565b8015620009025780601f10620008d65761010080835404028352916020019162000902565b820191906000526020600020905b815481529060010190602001808311620008e457829003601f168201915b50505050508152602001906001019062000861565b505050509050919050565b8073ffffffffffffffffffffffffffffffffffffffff1663e6adc1ee6040518163ffffffff1660e01b815260040160006040518083038186803b1580156200096957600080fd5b505afa1580156200097e573d6000803e3d6000fd5b505050506040513d6000823e3d601f19601f82011682018060405250810190620009a99190620012da565b6000805b81158015620009bc5750825181105b1562000a5357828181518110620009fc577f4e487b7100000000000000000000000000000000000000000000000000000000600052603260045260246000fd5b602002602001015173ffffffffffffffffffffffffffffffffffffffff163373ffffffffffffffffffffffffffffffffffffffff16141562000a3d57600191505b808062000a4a9062001f8a565b915050620009ad565b811562000a73578373ffffffffffffffffffffffffffffffffffffffff16ff5b50505050565b600760009054906101000a900473ffffffffffffffffffffffffffffffffffffffff1681565b6005818154811062000ab057600080fd5b906000526020600020016000915054906101000a900473ffffffffffffffffffffffffffffffffffffffff1681565b81816002919062000af292919062000ea0565b507ff3edf762f44dafd4a0d01a421c80ead8786f4199032f24b0b20d8ddb6b2e105c33838360405162000b289392919062001946565b60405180910390a15050565b81816000919062000b4792919062000ea0565b507fdb67fd81aa9ff7366926ea254ddb9827183cc43b29351afd727267036cf2d08933838360405162000b7d9392919062001946565b60405180910390a15050565b6005888886868a8a88884260405162000ba2906200100f565b62000bb69998979695949392919062001add565b604051809103906000f08015801562000bd3573d6000803e3d6000fd5b509080600181540180825580915050600190039060005260206000200160009091909190916101000a81548173ffffffffffffffffffffffffffffffffffffffff021916908373ffffffffffffffffffffffffffffffffffffffff1602179055507fd5576266f8dd4a78f001397574cc7cbd04903edd94c000e897257d33ccbda86e888886868a8a888860405162000c7398979695949392919062001a6c565b60405180910390a15050505050505050565b6003818154811062000c9657600080fd5b90600052602060002001600091509050805462000cb39062001f54565b80601f016020809104026020016040519081016040528092919081815260200182805462000ce19062001f54565b801562000d325780601f1062000d065761010080835404028352916020019162000d32565b820191906000526020600020905b81548152906001019060200180831162000d1457829003601f168201915b505050505081565b6060600580548060200260200160405190810160405280929190818152602001828054801562000dc057602002820191906000526020600020905b8160009054906101000a900473ffffffffffffffffffffffffffffffffffffffff1673ffffffffffffffffffffffffffffffffffffffff168152602001906001019080831162000d75575b5050505050905090565b6001818154811062000ddb57600080fd5b906000526020600020016000915054906101000a900473ffffffffffffffffffffffffffffffffffffffff1681565b60045481565b6060600180548060200260200160405190810160405280929190818152602001828054801562000e9657602002820191906000526020600020905b8160009054906101000a900473ffffffffffffffffffffffffffffffffffffffff1673ffffffffffffffffffffffffffffffffffffffff168152602001906001019080831162000e4b575b5050505050905090565b82805462000eae9062001f54565b90600052602060002090601f01602090048101928262000ed2576000855562000f1e565b82601f1062000eed57803560ff191683800117855562000f1e565b8280016001018555821562000f1e579182015b8281111562000f1d57823582559160200191906001019062000f00565b5b50905062000f2d91906200101d565b5090565b82805462000f3f9062001f54565b90600052602060002090601f01602090048101928262000f63576000855562000fb6565b82601f1062000f76578054855562000fb6565b8280016001018555821562000fb657600052602060002091601f016020900482015b8281111562000fb557825482559160010191906001019062000f98565b5b50905062000fc591906200101d565b5090565b50805462000fd79062001f54565b6000825580601f1062000feb57506200100c565b601f0160209004906000526020600020908101906200100b91906200101d565b5b50565b610cfd80620020df83390190565b5b80821115620010385760008160009055506001016200101e565b5090565b6000620010536200104d8462001bd3565b62001b9f565b905080838252602082019050828560208602820111156200107357600080fd5b60005b85811015620010a757816200108c88826200113d565b84526020840193506020830192505060018101905062001076565b5050509392505050565b6000620010c8620010c28462001c02565b62001b9f565b90508083825260208201905082856020860282011115620010e857600080fd5b60005b858110156200111c57816200110188826200125f565b845260208401935060208301925050600181019050620010eb565b5050509392505050565b600081359050620011378162002076565b92915050565b6000815190506200114e8162002076565b92915050565b60008083601f8401126200116757600080fd5b8235905067ffffffffffffffff8111156200118157600080fd5b6020830191508360208202830111156200119a57600080fd5b9250929050565b600082601f830112620011b357600080fd5b8151620011c58482602086016200103c565b91505092915050565b600082601f830112620011e057600080fd5b8151620011f2848260208601620010b1565b91505092915050565b60008083601f8401126200120e57600080fd5b8235905067ffffffffffffffff8111156200122857600080fd5b6020830191508360208202830111156200124157600080fd5b9250929050565b600081359050620012598162002090565b92915050565b6000815190506200127081620020aa565b92915050565b60008083601f8401126200128957600080fd5b8235905067ffffffffffffffff811115620012a357600080fd5b602083019150836001820283011115620012bc57600080fd5b9250929050565b600081359050620012d481620020c4565b92915050565b600060208284031215620012ed57600080fd5b600082015167ffffffffffffffff8111156200130857600080fd5b6200131684828501620011a1565b91505092915050565b6000602082840312156200133257600080fd5b600082015167ffffffffffffffff8111156200134d57600080fd5b6200135b84828501620011ce565b91505092915050565b6000602082840312156200137757600080fd5b6000620013878482850162001248565b91505092915050565b60008060408385031215620013a457600080fd5b6000620013b48582860162001248565b9250506020620013c78582860162001248565b9150509250929050565b60008060208385031215620013e557600080fd5b600083013567ffffffffffffffff8111156200140057600080fd5b6200140e8582860162001276565b92509250509250929050565b6000806000806000806000806080898b0312156200143757600080fd5b600089013567ffffffffffffffff8111156200145257600080fd5b620014608b828c0162001276565b9850985050602089013567ffffffffffffffff8111156200148057600080fd5b6200148e8b828c0162001276565b9650965050604089013567ffffffffffffffff811115620014ae57600080fd5b620014bc8b828c0162001154565b9450945050606089013567ffffffffffffffff811115620014dc57600080fd5b620014ea8b828c01620011fb565b92509250509295985092959890939650565b6000602082840312156200150f57600080fd5b60006200151f84828501620012c3565b91505092915050565b60006200153683836200158a565b60208301905092915050565b6000620015508383620017ec565b60208301905092915050565b60006200156b84848462001830565b90509392505050565b600062001582838362001896565b905092915050565b620015958162001e31565b82525050565b620015a68162001e31565b82525050565b6000620015ba838562001ce2565b9350620015c78262001c31565b8060005b858110156200160857620015e0828462001d26565b620015ec888262001528565b9750620015f98362001ca1565b925050600181019050620015cb565b5085925050509392505050565b6000620016228262001c75565b6200162e818562001ce2565b93506200163b8362001c3b565b8060005b838110156200167257815162001656888262001528565b9750620016638362001cae565b9250506001810190506200163f565b5085935050505092915050565b60006200168c8262001c80565b62001698818562001ce2565b9350620016a58362001c4b565b8060005b83811015620016dc578151620016c0888262001542565b9750620016cd8362001cbb565b925050600181019050620016a9565b5085935050505092915050565b6000620016f7838562001cf3565b9350836020840285016200170b8462001c5b565b8060005b878110156200175957848403895262001729828462001d3f565b620017368682846200155c565b9550620017438462001cc8565b935060208b019a5050506001810190506200170f565b50829750879450505050509392505050565b6000620017788262001c8b565b62001784818562001cf3565b935083602082028501620017988562001c65565b8060005b85811015620017da5784840389528151620017b8858262001574565b9450620017c58362001cd5565b925060208a019950506001810190506200179c565b50829750879550505050505092915050565b620017f78162001e97565b82525050565b620018088162001e97565b82525050565b620018198162001ebf565b82525050565b6200182a8162001ee7565b82525050565b60006200183e838562001d04565b93506200184d83858462001f0f565b620018588362002065565b840190509392505050565b600062001871838562001d15565b93506200188083858462001f0f565b6200188b8362002065565b840190509392505050565b6000620018a38262001c96565b620018af818562001d04565b9350620018c181856020860162001f1e565b620018cc8162002065565b840191505092915050565b6000620018e48262001c96565b620018f0818562001d15565b93506200190281856020860162001f1e565b6200190d8162002065565b840191505092915050565b620019238162001e8d565b82525050565b60006020820190506200194060008301846200159b565b92915050565b60006040820190506200195d60008301866200159b565b81810360208301526200197281848662001863565b9050949350505050565b60006040820190506200199360008301856200159b565b620019a2602083018462001918565b9392505050565b60006020820190508181036000830152620019c5818462001615565b905092915050565b60006020820190508181036000830152620019e981846200167f565b905092915050565b6000602082019050818103600083015262001a0d81846200176b565b905092915050565b600060208201905062001a2c6000830184620017fd565b92915050565b600060208201905062001a4960008301846200180e565b92915050565b600060208201905062001a6660008301846200181f565b92915050565b6000608082019050818103600083015262001a89818a8c62001863565b9050818103602083015262001aa081888a620015ac565b9050818103604083015262001ab781868862001863565b9050818103606083015262001ace818486620016e9565b90509998505050505050505050565b600060a082019050818103600083015262001afa818b8d62001863565b9050818103602083015262001b1181898b620015ac565b9050818103604083015262001b2881878962001863565b9050818103606083015262001b3f818587620016e9565b905062001b50608083018462001918565b9a9950505050505050505050565b6000602082019050818103600083015262001b7a8184620018d7565b905092915050565b600060208201905062001b99600083018462001918565b92915050565b6000604051905081810181811067ffffffffffffffff8211171562001bc95762001bc862002036565b5b8060405250919050565b600067ffffffffffffffff82111562001bf15762001bf062002036565b5b602082029050602081019050919050565b600067ffffffffffffffff82111562001c205762001c1f62002036565b5b602082029050602081019050919050565b6000819050919050565b6000819050602082019050919050565b6000819050602082019050919050565b6000819050919050565b6000819050602082019050919050565b600081519050919050565b600081519050919050565b600081519050919050565b600081519050919050565b6000602082019050919050565b6000602082019050919050565b6000602082019050919050565b6000602082019050919050565b6000602082019050919050565b600082825260208201905092915050565b600082825260208201905092915050565b600082825260208201905092915050565b600082825260208201905092915050565b600062001d37602084018462001126565b905092915050565b6000808335600160200384360303811262001d5957600080fd5b83810192508235915060208301925067ffffffffffffffff82111562001d7e57600080fd5b60018202360384131562001d9157600080fd5b509250929050565b600062001da68262001e8d565b915062001db38362001e8d565b9250827fffffffffffffffffffffffffffffffffffffffffffffffffffffffffffffffff0382111562001deb5762001dea62001fd8565b5b828201905092915050565b600062001e038262001e8d565b915062001e108362001e8d565b92508282101562001e265762001e2562001fd8565b5b828203905092915050565b600062001e3e8262001e6d565b9050919050565b600062001e528262001e31565b9050919050565b600062001e668262001e31565b9050919050565b600073ffffffffffffffffffffffffffffffffffffffff82169050919050565b6000819050919050565b600062001ea48262001eab565b9050919050565b600062001eb88262001e6d565b9050919050565b600062001ecc8262001ed3565b9050919050565b600062001ee08262001e6d565b9050919050565b600062001ef48262001efb565b9050919050565b600062001f088262001e6d565b9050919050565b82818337600083830152505050565b60005b8381101562001f3e57808201518184015260208101905062001f21565b8381111562001f4e576000848401525b50505050565b6000600282049050600182168062001f6d57607f821691505b6020821081141562001f845762001f8362002007565b5b50919050565b600062001f978262001e8d565b91507fffffffffffffffffffffffffffffffffffffffffffffffffffffffffffffffff82141562001fcd5762001fcc62001fd8565b5b600182019050919050565b7f4e487b7100000000000000000000000000000000000000000000000000000000600052601160045260246000fd5b7f4e487b7100000000000000000000000000000000000000000000000000000000600052602260045260246000fd5b7f4e487b7100000000000000000000000000000000000000000000000000000000600052604160045260246000fd5b6000601f19601f8301169050919050565b620020818162001e31565b81146200208d57600080fd5b50565b6200209b8162001e45565b8114620020a757600080fd5b50565b620020b58162001e59565b8114620020c157600080fd5b50565b620020cf8162001e8d565b8114620020db57600080fd5b5056fe60806040523480156200001157600080fd5b5060405162000cfd38038062000cfd833981810160405281019062000037919062000495565b84600090805190602001906200004f929190620000ad565b508360019080519060200190620000689291906200013e565b50826002908051906020019062000081929190620000ad565b5081600390805190602001906200009a929190620001cd565b508060048190555050505050506200077c565b828054620000bb90620006b4565b90600052602060002090601f016020900481019282620000df57600085556200012b565b82601f10620000fa57805160ff19168380011785556200012b565b828001600101855582156200012b579182015b828111156200012a5782518255916020019190600101906200010d565b5b5090506200013a919062000234565b5090565b828054828255906000526020600020908101928215620001ba579160200282015b82811115620001b95782518260006101000a81548173ffffffffffffffffffffffffffffffffffffffff021916908373ffffffffffffffffffffffffffffffffffffffff160217905550916020019190600101906200015f565b5b509050620001c9919062000234565b5090565b82805482825590600052602060002090810192821562000221579160200282015b82811115620002205782518290805190602001906200020f929190620000ad565b5091602001919060010190620001ee565b5b50905062000230919062000253565b5090565b5b808211156200024f57600081600090555060010162000235565b5090565b5b808211156200027757600081816200026d91906200027b565b5060010162000254565b5090565b5080546200028990620006b4565b6000825580601f106200029d5750620002be565b601f016020900490600052602060002090810190620002bd919062000234565b5b50565b6000620002d8620002d284620005af565b6200057b565b90508083825260208201905082856020860282011115620002f857600080fd5b60005b858110156200032c5781620003118882620003e0565b845260208401935060208301925050600181019050620002fb565b5050509392505050565b60006200034d6200034784620005de565b6200057b565b9050808382526020820190508260005b8581101562000391578151850162000376888262000451565b8452602084019350602083019250506001810190506200035d565b5050509392505050565b6000620003b2620003ac846200060d565b6200057b565b905082815260208101848484011115620003cb57600080fd5b620003d88482856200067e565b509392505050565b600081519050620003f18162000748565b92915050565b600082601f8301126200040957600080fd5b81516200041b848260208601620002c1565b91505092915050565b600082601f8301126200043657600080fd5b81516200044884826020860162000336565b91505092915050565b600082601f8301126200046357600080fd5b8151620004758482602086016200039b565b91505092915050565b6000815190506200048f8162000762565b92915050565b600080600080600060a08688031215620004ae57600080fd5b600086015167ffffffffffffffff811115620004c957600080fd5b620004d78882890162000451565b955050602086015167ffffffffffffffff811115620004f557600080fd5b6200050388828901620003f7565b945050604086015167ffffffffffffffff8111156200052157600080fd5b6200052f8882890162000451565b935050606086015167ffffffffffffffff8111156200054d57600080fd5b6200055b8882890162000424565b92505060806200056e888289016200047e565b9150509295509295909350565b6000604051905081810181811067ffffffffffffffff82111715620005a557620005a462000719565b5b8060405250919050565b600067ffffffffffffffff821115620005cd57620005cc62000719565b5b602082029050602081019050919050565b600067ffffffffffffffff821115620005fc57620005fb62000719565b5b602082029050602081019050919050565b600067ffffffffffffffff8211156200062b576200062a62000719565b5b601f19601f8301169050602081019050919050565b60006200064d8262000654565b9050919050565b600073ffffffffffffffffffffffffffffffffffffffff82169050919050565b6000819050919050565b60005b838110156200069e57808201518184015260208101905062000681565b83811115620006ae576000848401525b50505050565b60006002820490506001821680620006cd57607f821691505b60208210811415620006e457620006e3620006ea565b5b50919050565b7f4e487b7100000000000000000000000000000000000000000000000000000000600052602260045260246000fd5b7f4e487b7100000000000000000000000000000000000000000000000000000000600052604160045260246000fd5b620007538162000640565b81146200075f57600080fd5b50565b6200076d8162000674565b81146200077957600080fd5b50565b610571806200078c6000396000f3fe608060405234801561001057600080fd5b50600436106100625760003560e01c806304a9f8b9146100675780634a79d50c146100715780637284e4161461008f578063c47a6b6a146100ad578063cd53d08e146100dd578063cf09e0d01461010d575b600080fd5b61006f61012b565b005b61007961012d565b60405161008691906103ea565b60405180910390f35b6100976101bb565b6040516100a491906103ea565b60405180910390f35b6100c760048036038101906100c2919061034f565b610249565b6040516100d491906103ea565b60405180910390f35b6100f760048036038101906100f2919061034f565b6102f5565b60405161010491906103cf565b60405180910390f35b610115610334565b604051610122919061040c565b60405180910390f35b565b6000805461013a906104b2565b80601f0160208091040260200160405190810160405280929190818152602001828054610166906104b2565b80156101b35780601f10610188576101008083540402835291602001916101b3565b820191906000526020600020905b81548152906001019060200180831161019657829003601f168201915b505050505081565b600280546101c8906104b2565b80601f01602080910402602001604051908101604052809291908181526020018280546101f4906104b2565b80156102415780601f1061021657610100808354040283529160200191610241565b820191906000526020600020905b81548152906001019060200180831161022457829003601f168201915b505050505081565b6003818154811061025957600080fd5b906000526020600020016000915090508054610274906104b2565b80601f01602080910402602001604051908101604052809291908181526020018280546102a0906104b2565b80156102ed5780601f106102c2576101008083540402835291602001916102ed565b820191906000526020600020905b8154815290600101906020018083116102d057829003601f168201915b505050505081565b6001818154811061030557600080fd5b906000526020600020016000915054906101000a900473ffffffffffffffffffffffffffffffffffffffff1681565b60045481565b60008135905061034981610524565b92915050565b60006020828403121561036157600080fd5b600061036f8482850161033a565b91505092915050565b61038181610443565b82525050565b600061039282610427565b61039c8185610432565b93506103ac81856020860161047f565b6103b581610513565b840191505092915050565b6103c981610475565b82525050565b60006020820190506103e46000830184610378565b92915050565b600060208201905081810360008301526104048184610387565b905092915050565b600060208201905061042160008301846103c0565b92915050565b600081519050919050565b600082825260208201905092915050565b600061044e82610455565b9050919050565b600073ffffffffffffffffffffffffffffffffffffffff82169050919050565b6000819050919050565b60005b8381101561049d578082015181840152602081019050610482565b838111156104ac576000848401525b50505050565b600060028204905060018216806104ca57607f821691505b602082108114156104de576104dd6104e4565b5b50919050565b7f4e487b7100000000000000000000000000000000000000000000000000000000600052602260045260246000fd5b6000601f19601f8301169050919050565b61052d81610475565b811461053857600080fd5b5056fea26469706673582212203d2cefce79a5062b7b7cf4e14b38514297209be0c96c65be27ec61d4caa95a1664736f6c63430008000033a2646970667358221220d393627b3a085214a04fd68eef769e063115ff263ff96611410facffc9d9cc8464736f6c63430008000033",
  "immutableReferences": {},
  "source": "// SPDX-License-Identifier: MIT\npragma solidity ^0.8.0;\n\nimport \"../node_modules/@openzeppelin/contracts/utils/math/SafeMath.sol\";\nimport './Payroll.sol';\nimport './Course.sol';\nimport './Crowdfund.sol';\n\n/**\n * Represents an Agorum object.\n */\ncontract Agorum {\n  using SafeMath for uint;\n  // storage variables...could store in a struct?\n  string public name;\n  address[] public creators;\n  string public description;\n  string[] public categoryTags;\n  uint public createdAt;\n  // array of courses belonging to agorum\n  Course[] public courses;\n  // payroll contract\n  Payroll public payroll;\n  // crowdfund contract\n  Crowdfund public crowdfund;\n\n  // event emitted whenever a new agorum is created\n  event AgorumCreated(address agorumCreator, string title, string description, string[] categoryTags, uint createdAt);\n  event AgorumNameChanged(address changer, string name);\n  event AgorumDescriptionChanged(address changer,string description);\n  event AgorumTagAdded(address changer, string tag);\n  event AgorumTagRemoved(address changer, uint tagIndex);\n  event CourseAdded(string title, address[] creators, string description, string[] categoryTags);\n\n  /**\n   * @dev Checks for message sender is one of the Agorum creators\n   * @param agorumCreators array of addresses of the creators\n   */\n  modifier onlyCreator(address[] memory agorumCreators) {\n    // loop through agorum's creators until one is found\n    bool creator = false;\n    uint index = 0;\n    while (!creator && index < agorumCreators.length) {\n      if (msg.sender == agorumCreators[index]) {\n        creator = true;\n      }\n      index++;\n    }\n\n    // if creator is found, execute the function body\n    if (creator) {\n      _;\n    }\n  }\n\n  // creates a new Agorum contract, stored on the blockchain, as well as 1 Course contract\n  // constructor (\n  //   string memory _name,\n  //   address[] memory _creators,\n  //   string memory _description,\n  //   string[] memory _categoryTags,\n  //   uint _goalAmount,\n  //   uint _deadline\n  // ) {\n  //   name = _name;\n  //   creators = _creators;\n  //   description = _description;\n  //   categoryTags = _categoryTags;\n  //   // sets date to block timestamp\n  //   createdAt = block.timestamp;\n\n  //   // creates a new course and pushes it to array\n  //   // courses.push(new Course(_name, _creators, _description, _categoryTags, createdAt));\n  //   // creates payroll with balance initialized to 0\n  //   // payroll = new Payroll();\n  //   // creates crowdfund contract with amountRaised initialized to 0\n  //   // crowdfund = new Crowdfund(_goalAmount, _deadline);\n\n  //   // emit AgorumCreated event\n  //   emit AgorumCreated(msg.sender, _name, _description, _categoryTags, createdAt);\n  // }\n\n  function editName(string calldata _name) external {\n    name = _name;\n    emit AgorumNameChanged(msg.sender, _name);\n  }\n\n  function editDescription(string calldata _description) external {\n    description = _description;\n    emit AgorumDescriptionChanged(msg.sender, _description);\n  }\n\n  /**\n   * @dev Pushes a new category tag to the Agorum\n   * @param _tag the tag to add\n   */\n  function addCategoryTag(string calldata _tag) external {\n    categoryTags.push(_tag);\n    emit AgorumTagAdded(msg.sender, _tag);\n  }\n\n  function removeCategoryTag(uint tagIndex) external returns(string[] memory) {\n    require(tagIndex >= categoryTags.length);\n\n    for (uint i = tagIndex; i < categoryTags.length - 1; i++) {\n      categoryTags[i] = categoryTags[i + 1];\n    }\n    categoryTags.pop();\n    emit AgorumTagRemoved(msg.sender, tagIndex);\n\n    return categoryTags;\n  }\n\n  /**\n   * @dev Merges two Agorums by adding the course of an agorum to another agorum, and then deleting the previous one\n   * @param agorumMerger the agorum to merge into\n   * @param agorumMergee the agorum to be merged\n   */\n  function mergeAgorums(Agorum agorumMerger, Agorum agorumMergee) public {\n    // add the mergee's courses into the merger\n    Course[] memory mergeeCourses = agorumMergee.getCourses();\n    Course[] memory mergerCourses = agorumMerger.getCourses();\n\n    // for (uint i = 0; i < mergeeCourses.length; i++) {\n    //   mergerCourses.push(mergeeCourses[i]);\n    // }\n\n    deleteAgorum(agorumMergee);\n  }\n\n  function deleteAgorum(Agorum agorum) public onlyCreator(agorum.getCreators()) {\n    selfdestruct(payable(address(agorum)));\n  }\n\n  /**\n   * @dev Returns all the creators of the agorum\n   */\n  function getCreators() public view returns (address[] memory) {\n    return creators;\n  }\n\n  /**\n   * @dev Return the entire array of courses belonging to an Agorum\n   */\n  function getCourses() public view returns (Course[] memory) {\n    return courses;\n  }\n\n  /**\n   * @dev Add a new course to an Agorum\n   */\n  function addCourse(string calldata _title, string calldata _description, address[] calldata _creators, string[] calldata _categoryTags) public {\n    courses.push(new Course(_title, _creators, _description, _categoryTags, block.timestamp));\n    emit CourseAdded(_title, _creators, _description, _categoryTags);\n  }\n}",
  "sourcePath": "/home/victor/agora/blockchain/contracts/Agorum.sol",
  "compiler": {
    "name": "solc",
    "version": "0.8.0+commit.c7dfd78e.Emscripten.clang"
  },
  "schemaVersion": "3.3.4",
  "updatedAt": "2021-05-23T20:31:03.616Z",
  "networkType": "ethereum",
  "devdoc": {
    "kind": "dev",
    "methods": {
      "addCategoryTag(string)": {
        "details": "Pushes a new category tag to the Agorum",
        "params": {
          "_tag": "the tag to add"
        }
      },
      "addCourse(string,string,address[],string[])": {
        "details": "Add a new course to an Agorum"
      },
      "getCourses()": {
        "details": "Return the entire array of courses belonging to an Agorum"
      },
      "getCreators()": {
        "details": "Returns all the creators of the agorum"
      },
      "mergeAgorums(address,address)": {
        "details": "Merges two Agorums by adding the course of an agorum to another agorum, and then deleting the previous one",
        "params": {
          "agorumMergee": "the agorum to be merged",
          "agorumMerger": "the agorum to merge into"
        }
      }
    },
    "version": 1
  },
  "userdoc": {
    "kind": "user",
    "methods": {},
    "notice": "Represents an Agorum object.",
    "version": 1
  }
}