{
  "contractName": "Agorum",
  "abi": [
    {
      "inputs": [
        {
          "internalType": "string",
          "name": "_name",
          "type": "string"
        },
        {
          "internalType": "address[]",
          "name": "_creators",
          "type": "address[]"
        }
      ],
      "stateMutability": "nonpayable",
      "type": "constructor"
    },
    {
      "anonymous": false,
      "inputs": [
        {
          "indexed": false,
          "internalType": "address",
          "name": "agorumCreator",
          "type": "address"
        },
        {
          "indexed": false,
          "internalType": "string",
          "name": "title",
          "type": "string"
        }
      ],
      "name": "AgorumCreated",
      "type": "event"
    },
    {
      "anonymous": false,
      "inputs": [
        {
          "indexed": false,
          "internalType": "address",
          "name": "changer",
          "type": "address"
        },
        {
          "indexed": false,
          "internalType": "string",
          "name": "name",
          "type": "string"
        }
      ],
      "name": "AgorumNameChanged",
      "type": "event"
    },
    {
      "anonymous": false,
      "inputs": [
        {
          "indexed": false,
          "internalType": "string",
          "name": "title",
          "type": "string"
        },
        {
          "indexed": false,
          "internalType": "address[]",
          "name": "creators",
          "type": "address[]"
        },
        {
          "indexed": false,
          "internalType": "string",
          "name": "description",
          "type": "string"
        },
        {
          "indexed": false,
          "internalType": "string[]",
          "name": "categoryTags",
          "type": "string[]"
        }
      ],
      "name": "CourseAdded",
      "type": "event"
    },
    {
      "inputs": [
        {
          "internalType": "uint256",
          "name": "",
          "type": "uint256"
        }
      ],
      "name": "courses",
      "outputs": [
        {
          "internalType": "contract Course",
          "name": "",
          "type": "address"
        }
      ],
      "stateMutability": "view",
      "type": "function"
    },
    {
      "inputs": [
        {
          "internalType": "uint256",
          "name": "",
          "type": "uint256"
        }
      ],
      "name": "creators",
      "outputs": [
        {
          "internalType": "address",
          "name": "",
          "type": "address"
        }
      ],
      "stateMutability": "view",
      "type": "function"
    },
    {
      "inputs": [],
      "name": "crowdfund",
      "outputs": [
        {
          "internalType": "contract Crowdfund",
          "name": "",
          "type": "address"
        }
      ],
      "stateMutability": "view",
      "type": "function"
    },
    {
      "inputs": [],
      "name": "name",
      "outputs": [
        {
          "internalType": "string",
          "name": "",
          "type": "string"
        }
      ],
      "stateMutability": "view",
      "type": "function"
    },
    {
      "inputs": [],
      "name": "payroll",
      "outputs": [
        {
          "internalType": "contract Payroll",
          "name": "",
          "type": "address"
        }
      ],
      "stateMutability": "view",
      "type": "function"
    },
    {
      "inputs": [
        {
          "internalType": "string",
          "name": "_name",
          "type": "string"
        }
      ],
      "name": "editName",
      "outputs": [],
      "stateMutability": "nonpayable",
      "type": "function"
    },
    {
      "inputs": [
        {
          "internalType": "contract Agorum",
          "name": "agorumMerger",
          "type": "address"
        },
        {
          "internalType": "contract Agorum",
          "name": "agorumMergee",
          "type": "address"
        }
      ],
      "name": "mergeAgorums",
      "outputs": [],
      "stateMutability": "nonpayable",
      "type": "function"
    },
    {
      "inputs": [
        {
          "internalType": "contract Agorum",
          "name": "agorum",
          "type": "address"
        }
      ],
      "name": "deleteAgorum",
      "outputs": [],
      "stateMutability": "nonpayable",
      "type": "function"
    },
    {
      "inputs": [],
      "name": "getCreators",
      "outputs": [
        {
          "internalType": "address[]",
          "name": "",
          "type": "address[]"
        }
      ],
      "stateMutability": "view",
      "type": "function"
    },
    {
      "inputs": [],
      "name": "getCourses",
      "outputs": [
        {
          "internalType": "contract Course[]",
          "name": "",
          "type": "address[]"
        }
      ],
      "stateMutability": "view",
      "type": "function"
    },
    {
      "inputs": [
        {
          "internalType": "string",
          "name": "_title",
          "type": "string"
        },
        {
          "internalType": "string",
          "name": "_description",
          "type": "string"
        },
        {
          "internalType": "address[]",
          "name": "_creators",
          "type": "address[]"
        },
        {
          "internalType": "string[]",
          "name": "_categoryTags",
          "type": "string[]"
        }
      ],
      "name": "addCourse",
      "outputs": [],
      "stateMutability": "nonpayable",
      "type": "function"
    }
  ],
  "bytecode": "0x60806040523480156200001157600080fd5b506040516200302538038062003025833981810160405281019062000037919062000390565b81600090805190602001906200004f92919062000118565b50806001908051906020019062000068929190620001a9565b50604051620000779062000238565b604051809103906000f08015801562000094573d6000803e3d6000fd5b50600360006101000a81548173ffffffffffffffffffffffffffffffffffffffff021916908373ffffffffffffffffffffffffffffffffffffffff1602179055507f0df8ae82c778c815030fd768f99700620c93b3fa3f03ae98a85e7df6f4285abc33836040516200010892919062000455565b60405180910390a1505062000664565b8280546200012690620005a5565b90600052602060002090601f0160209004810192826200014a576000855562000196565b82601f106200016557805160ff191683800117855562000196565b8280016001018555821562000196579182015b828111156200019557825182559160200191906001019062000178565b5b509050620001a5919062000246565b5090565b82805482825590600052602060002090810192821562000225579160200282015b82811115620002245782518260006101000a81548173ffffffffffffffffffffffffffffffffffffffff021916908373ffffffffffffffffffffffffffffffffffffffff16021790555091602001919060010190620001ca565b5b50905062000234919062000246565b5090565b6104978062002b8e83390190565b5b808211156200026157600081600090555060010162000247565b5090565b60006200027c6200027684620004bd565b62000489565b905080838252602082019050828560208602820111156200029c57600080fd5b60005b85811015620002d05781620002b588826200031f565b8452602084019350602083019250506001810190506200029f565b5050509392505050565b6000620002f1620002eb84620004ec565b62000489565b9050828152602081018484840111156200030a57600080fd5b620003178482856200056f565b509392505050565b60008151905062000330816200064a565b92915050565b600082601f8301126200034857600080fd5b81516200035a84826020860162000265565b91505092915050565b600082601f8301126200037557600080fd5b815162000387848260208601620002da565b91505092915050565b60008060408385031215620003a457600080fd5b600083015167ffffffffffffffff811115620003bf57600080fd5b620003cd8582860162000363565b925050602083015167ffffffffffffffff811115620003eb57600080fd5b620003f98582860162000336565b9150509250929050565b6200040e816200053b565b82525050565b600062000421826200051f565b6200042d81856200052a565b93506200043f8185602086016200056f565b6200044a8162000639565b840191505092915050565b60006040820190506200046c600083018562000403565b818103602083015262000480818462000414565b90509392505050565b6000604051905081810181811067ffffffffffffffff82111715620004b357620004b26200060a565b5b8060405250919050565b600067ffffffffffffffff821115620004db57620004da6200060a565b5b602082029050602081019050919050565b600067ffffffffffffffff8211156200050a57620005096200060a565b5b601f19601f8301169050602081019050919050565b600081519050919050565b600082825260208201905092915050565b600062000548826200054f565b9050919050565b600073ffffffffffffffffffffffffffffffffffffffff82169050919050565b60005b838110156200058f57808201518184015260208101905062000572565b838111156200059f576000848401525b50505050565b60006002820490506001821680620005be57607f821691505b60208210811415620005d557620005d4620005db565b5b50919050565b7f4e487b7100000000000000000000000000000000000000000000000000000000600052602260045260246000fd5b7f4e487b7100000000000000000000000000000000000000000000000000000000600052604160045260246000fd5b6000601f19601f8301169050919050565b62000655816200053b565b81146200066157600080fd5b50565b61251a80620006746000396000f3fe60806040523480156200001157600080fd5b5060043610620000b85760003560e01c806396f979d2116200007b57806396f979d21462000163578063abb2d04b1462000199578063be29f81214620001b9578063cc12647914620001d9578063cd53d08e14620001fb578063e6adc1ee146200023157620000b8565b806306fdde0314620000bd5780633690be0614620000df578063562a5d0614620000ff57806379f912d414620001215780638342a9d91462000141575b600080fd5b620000c762000253565b604051620000d691906200135b565b60405180910390f35b620000fd6004803603810190620000f7919062000cb6565b620002e9565b005b6200010962000410565b6040516200011891906200124c565b60405180910390f35b6200013f600480360381019062000139919062000c8a565b62000436565b005b6200014b6200058d565b6040516200015a91906200122f565b60405180910390f35b6200018160048036038101906200017b919062000e22565b620005b3565b60405162000190919062001212565b60405180910390f35b620001b76004803603810190620001b1919062000cf7565b620005f3565b005b620001d76004803603810190620001d1919062000d40565b62000648565b005b620001e362000744565b604051620001f29190620011ee565b60405180910390f35b62000219600480360381019062000213919062000e22565b620007d4565b60405162000228919062001177565b60405180910390f35b6200023b62000814565b6040516200024a9190620011ca565b60405180910390f35b60008054620002629062001674565b80601f0160208091040260200160405190810160405280929190818152602001828054620002909062001674565b8015620002e15780601f10620002b557610100808354040283529160200191620002e1565b820191906000526020600020905b815481529060010190602001808311620002c357829003601f168201915b505050505081565b60008173ffffffffffffffffffffffffffffffffffffffff1663cc1264796040518163ffffffff1660e01b815260040160006040518083038186803b1580156200033257600080fd5b505afa15801562000347573d6000803e3d6000fd5b505050506040513d6000823e3d601f19601f8201168201806040525081019062000372919062000c45565b905060008373ffffffffffffffffffffffffffffffffffffffff1663cc1264796040518163ffffffff1660e01b815260040160006040518083038186803b158015620003bd57600080fd5b505afa158015620003d2573d6000803e3d6000fd5b505050506040513d6000823e3d601f19601f82011682018060405250810190620003fd919062000c45565b90506200040a8362000436565b50505050565b600360009054906101000a900473ffffffffffffffffffffffffffffffffffffffff1681565b8073ffffffffffffffffffffffffffffffffffffffff1663e6adc1ee6040518163ffffffff1660e01b815260040160006040518083038186803b1580156200047d57600080fd5b505afa15801562000492573d6000803e3d6000fd5b505050506040513d6000823e3d601f19601f82011682018060405250810190620004bd919062000c00565b6000805b81158015620004d05750825181105b15620005675782818151811062000510577f4e487b7100000000000000000000000000000000000000000000000000000000600052603260045260246000fd5b602002602001015173ffffffffffffffffffffffffffffffffffffffff163373ffffffffffffffffffffffffffffffffffffffff1614156200055157600191505b80806200055e90620016aa565b915050620004c1565b811562000587578373ffffffffffffffffffffffffffffffffffffffff16ff5b50505050565b600460009054906101000a900473ffffffffffffffffffffffffffffffffffffffff1681565b60028181548110620005c457600080fd5b906000526020600020016000915054906101000a900473ffffffffffffffffffffffffffffffffffffffff1681565b81816000919062000606929190620008a4565b507fdb67fd81aa9ff7366926ea254ddb9827183cc43b29351afd727267036cf2d0893383836040516200063c9392919062001194565b60405180910390a15050565b6002888886868a8a888842604051620006619062000935565b6200067599989796959493929190620012da565b604051809103906000f08015801562000692573d6000803e3d6000fd5b509080600181540180825580915050600190039060005260206000200160009091909190916101000a81548173ffffffffffffffffffffffffffffffffffffffff021916908373ffffffffffffffffffffffffffffffffffffffff1602179055507fd5576266f8dd4a78f001397574cc7cbd04903edd94c000e897257d33ccbda86e888886868a8a88886040516200073298979695949392919062001269565b60405180910390a15050505050505050565b60606002805480602002602001604051908101604052809291908181526020018280548015620007ca57602002820191906000526020600020905b8160009054906101000a900473ffffffffffffffffffffffffffffffffffffffff1673ffffffffffffffffffffffffffffffffffffffff16815260200190600101908083116200077f575b5050505050905090565b60018181548110620007e557600080fd5b906000526020600020016000915054906101000a900473ffffffffffffffffffffffffffffffffffffffff1681565b606060018054806020026020016040519081016040528092919081815260200182805480156200089a57602002820191906000526020600020905b8160009054906101000a900473ffffffffffffffffffffffffffffffffffffffff1673ffffffffffffffffffffffffffffffffffffffff16815260200190600101908083116200084f575b5050505050905090565b828054620008b29062001674565b90600052602060002090601f016020900481019282620008d6576000855562000922565b82601f10620008f157803560ff191683800117855562000922565b8280016001018555821562000922579182015b828111156200092157823582559160200191906001019062000904565b5b50905062000931919062000943565b5090565b610ce680620017ff83390190565b5b808211156200095e57600081600090555060010162000944565b5090565b6000620009796200097384620013b3565b6200137f565b905080838252602082019050828560208602820111156200099957600080fd5b60005b85811015620009cd5781620009b2888262000a63565b8452602084019350602083019250506001810190506200099c565b5050509392505050565b6000620009ee620009e884620013e2565b6200137f565b9050808382526020820190508285602086028201111562000a0e57600080fd5b60005b8581101562000a42578162000a27888262000b85565b84526020840193506020830192505060018101905062000a11565b5050509392505050565b60008135905062000a5d8162001796565b92915050565b60008151905062000a748162001796565b92915050565b60008083601f84011262000a8d57600080fd5b8235905067ffffffffffffffff81111562000aa757600080fd5b60208301915083602082028301111562000ac057600080fd5b9250929050565b600082601f83011262000ad957600080fd5b815162000aeb84826020860162000962565b91505092915050565b600082601f83011262000b0657600080fd5b815162000b18848260208601620009d7565b91505092915050565b60008083601f84011262000b3457600080fd5b8235905067ffffffffffffffff81111562000b4e57600080fd5b60208301915083602082028301111562000b6757600080fd5b9250929050565b60008135905062000b7f81620017b0565b92915050565b60008151905062000b9681620017ca565b92915050565b60008083601f84011262000baf57600080fd5b8235905067ffffffffffffffff81111562000bc957600080fd5b60208301915083600182028301111562000be257600080fd5b9250929050565b60008135905062000bfa81620017e4565b92915050565b60006020828403121562000c1357600080fd5b600082015167ffffffffffffffff81111562000c2e57600080fd5b62000c3c8482850162000ac7565b91505092915050565b60006020828403121562000c5857600080fd5b600082015167ffffffffffffffff81111562000c7357600080fd5b62000c818482850162000af4565b91505092915050565b60006020828403121562000c9d57600080fd5b600062000cad8482850162000b6e565b91505092915050565b6000806040838503121562000cca57600080fd5b600062000cda8582860162000b6e565b925050602062000ced8582860162000b6e565b9150509250929050565b6000806020838503121562000d0b57600080fd5b600083013567ffffffffffffffff81111562000d2657600080fd5b62000d348582860162000b9c565b92509250509250929050565b6000806000806000806000806080898b03121562000d5d57600080fd5b600089013567ffffffffffffffff81111562000d7857600080fd5b62000d868b828c0162000b9c565b9850985050602089013567ffffffffffffffff81111562000da657600080fd5b62000db48b828c0162000b9c565b9650965050604089013567ffffffffffffffff81111562000dd457600080fd5b62000de28b828c0162000a7a565b9450945050606089013567ffffffffffffffff81111562000e0257600080fd5b62000e108b828c0162000b21565b92509250509295985092959890939650565b60006020828403121562000e3557600080fd5b600062000e458482850162000be9565b91505092915050565b600062000e5c838362000e9a565b60208301905092915050565b600062000e7683836200107b565b60208301905092915050565b600062000e91848484620010bf565b90509392505050565b62000ea58162001551565b82525050565b62000eb68162001551565b82525050565b600062000eca83856200149a565b935062000ed78262001411565b8060005b8581101562000f185762000ef08284620014de565b62000efc888262000e4e565b975062000f098362001466565b92505060018101905062000edb565b5085925050509392505050565b600062000f328262001445565b62000f3e81856200149a565b935062000f4b836200141b565b8060005b8381101562000f8257815162000f66888262000e4e565b975062000f738362001473565b92505060018101905062000f4f565b5085935050505092915050565b600062000f9c8262001450565b62000fa881856200149a565b935062000fb5836200142b565b8060005b8381101562000fec57815162000fd0888262000e68565b975062000fdd8362001480565b92505060018101905062000fb9565b5085935050505092915050565b6000620010078385620014ab565b9350836020840285016200101b846200143b565b8060005b8781101562001069578484038952620010398284620014f7565b6200104686828462000e82565b955062001053846200148d565b935060208b019a5050506001810190506200101f565b50829750879450505050509392505050565b6200108681620015b7565b82525050565b6200109781620015b7565b82525050565b620010a881620015df565b82525050565b620010b98162001607565b82525050565b6000620010cd8385620014bc565b9350620010dc8385846200162f565b620010e78362001785565b840190509392505050565b6000620011008385620014cd565b93506200110f8385846200162f565b6200111a8362001785565b840190509392505050565b600062001132826200145b565b6200113e8185620014cd565b9350620011508185602086016200163e565b6200115b8162001785565b840191505092915050565b6200117181620015ad565b82525050565b60006020820190506200118e600083018462000eab565b92915050565b6000604082019050620011ab600083018662000eab565b8181036020830152620011c0818486620010f2565b9050949350505050565b60006020820190508181036000830152620011e6818462000f25565b905092915050565b600060208201905081810360008301526200120a818462000f8f565b905092915050565b60006020820190506200122960008301846200108c565b92915050565b60006020820190506200124660008301846200109d565b92915050565b6000602082019050620012636000830184620010ae565b92915050565b6000608082019050818103600083015262001286818a8c620010f2565b905081810360208301526200129d81888a62000ebc565b90508181036040830152620012b4818688620010f2565b90508181036060830152620012cb81848662000ff9565b90509998505050505050505050565b600060a0820190508181036000830152620012f7818b8d620010f2565b905081810360208301526200130e81898b62000ebc565b9050818103604083015262001325818789620010f2565b905081810360608301526200133c81858762000ff9565b90506200134d608083018462001166565b9a9950505050505050505050565b6000602082019050818103600083015262001377818462001125565b905092915050565b6000604051905081810181811067ffffffffffffffff82111715620013a957620013a862001756565b5b8060405250919050565b600067ffffffffffffffff821115620013d157620013d062001756565b5b602082029050602081019050919050565b600067ffffffffffffffff8211156200140057620013ff62001756565b5b602082029050602081019050919050565b6000819050919050565b6000819050602082019050919050565b6000819050602082019050919050565b6000819050919050565b600081519050919050565b600081519050919050565b600081519050919050565b6000602082019050919050565b6000602082019050919050565b6000602082019050919050565b6000602082019050919050565b600082825260208201905092915050565b600082825260208201905092915050565b600082825260208201905092915050565b600082825260208201905092915050565b6000620014ef602084018462000a4c565b905092915050565b600080833560016020038436030381126200151157600080fd5b83810192508235915060208301925067ffffffffffffffff8211156200153657600080fd5b6001820236038413156200154957600080fd5b509250929050565b60006200155e826200158d565b9050919050565b6000620015728262001551565b9050919050565b6000620015868262001551565b9050919050565b600073ffffffffffffffffffffffffffffffffffffffff82169050919050565b6000819050919050565b6000620015c482620015cb565b9050919050565b6000620015d8826200158d565b9050919050565b6000620015ec82620015f3565b9050919050565b600062001600826200158d565b9050919050565b600062001614826200161b565b9050919050565b600062001628826200158d565b9050919050565b82818337600083830152505050565b60005b838110156200165e57808201518184015260208101905062001641565b838111156200166e576000848401525b50505050565b600060028204905060018216806200168d57607f821691505b60208210811415620016a457620016a362001727565b5b50919050565b6000620016b782620015ad565b91507fffffffffffffffffffffffffffffffffffffffffffffffffffffffffffffffff821415620016ed57620016ec620016f8565b5b600182019050919050565b7f4e487b7100000000000000000000000000000000000000000000000000000000600052601160045260246000fd5b7f4e487b7100000000000000000000000000000000000000000000000000000000600052602260045260246000fd5b7f4e487b7100000000000000000000000000000000000000000000000000000000600052604160045260246000fd5b6000601f19601f8301169050919050565b620017a18162001551565b8114620017ad57600080fd5b50565b620017bb8162001565565b8114620017c757600080fd5b50565b620017d58162001579565b8114620017e157600080fd5b50565b620017ef81620015ad565b8114620017fb57600080fd5b5056fe60806040523480156200001157600080fd5b5060405162000ce638038062000ce6833981810160405281019062000037919062000495565b84600090805190602001906200004f929190620000ad565b508360019080519060200190620000689291906200013e565b50826002908051906020019062000081929190620000ad565b5081600390805190602001906200009a929190620001cd565b508060048190555050505050506200077c565b828054620000bb90620006b4565b90600052602060002090601f016020900481019282620000df57600085556200012b565b82601f10620000fa57805160ff19168380011785556200012b565b828001600101855582156200012b579182015b828111156200012a5782518255916020019190600101906200010d565b5b5090506200013a919062000234565b5090565b828054828255906000526020600020908101928215620001ba579160200282015b82811115620001b95782518260006101000a81548173ffffffffffffffffffffffffffffffffffffffff021916908373ffffffffffffffffffffffffffffffffffffffff160217905550916020019190600101906200015f565b5b509050620001c9919062000234565b5090565b82805482825590600052602060002090810192821562000221579160200282015b82811115620002205782518290805190602001906200020f929190620000ad565b5091602001919060010190620001ee565b5b50905062000230919062000253565b5090565b5b808211156200024f57600081600090555060010162000235565b5090565b5b808211156200027757600081816200026d91906200027b565b5060010162000254565b5090565b5080546200028990620006b4565b6000825580601f106200029d5750620002be565b601f016020900490600052602060002090810190620002bd919062000234565b5b50565b6000620002d8620002d284620005af565b6200057b565b90508083825260208201905082856020860282011115620002f857600080fd5b60005b858110156200032c5781620003118882620003e0565b845260208401935060208301925050600181019050620002fb565b5050509392505050565b60006200034d6200034784620005de565b6200057b565b9050808382526020820190508260005b8581101562000391578151850162000376888262000451565b8452602084019350602083019250506001810190506200035d565b5050509392505050565b6000620003b2620003ac846200060d565b6200057b565b905082815260208101848484011115620003cb57600080fd5b620003d88482856200067e565b509392505050565b600081519050620003f18162000748565b92915050565b600082601f8301126200040957600080fd5b81516200041b848260208601620002c1565b91505092915050565b600082601f8301126200043657600080fd5b81516200044884826020860162000336565b91505092915050565b600082601f8301126200046357600080fd5b8151620004758482602086016200039b565b91505092915050565b6000815190506200048f8162000762565b92915050565b600080600080600060a08688031215620004ae57600080fd5b600086015167ffffffffffffffff811115620004c957600080fd5b620004d78882890162000451565b955050602086015167ffffffffffffffff811115620004f557600080fd5b6200050388828901620003f7565b945050604086015167ffffffffffffffff8111156200052157600080fd5b6200052f8882890162000451565b935050606086015167ffffffffffffffff8111156200054d57600080fd5b6200055b8882890162000424565b92505060806200056e888289016200047e565b9150509295509295909350565b6000604051905081810181811067ffffffffffffffff82111715620005a557620005a462000719565b5b8060405250919050565b600067ffffffffffffffff821115620005cd57620005cc62000719565b5b602082029050602081019050919050565b600067ffffffffffffffff821115620005fc57620005fb62000719565b5b602082029050602081019050919050565b600067ffffffffffffffff8211156200062b576200062a62000719565b5b601f19601f8301169050602081019050919050565b60006200064d8262000654565b9050919050565b600073ffffffffffffffffffffffffffffffffffffffff82169050919050565b6000819050919050565b60005b838110156200069e57808201518184015260208101905062000681565b83811115620006ae576000848401525b50505050565b60006002820490506001821680620006cd57607f821691505b60208210811415620006e457620006e3620006ea565b5b50919050565b7f4e487b7100000000000000000000000000000000000000000000000000000000600052602260045260246000fd5b7f4e487b7100000000000000000000000000000000000000000000000000000000600052604160045260246000fd5b620007538162000640565b81146200075f57600080fd5b50565b6200076d8162000674565b81146200077957600080fd5b50565b61055a806200078c6000396000f3fe608060405234801561001057600080fd5b50600436106100575760003560e01c80634a79d50c1461005c5780637284e4161461007a578063c47a6b6a14610098578063cd53d08e146100c8578063cf09e0d0146100f8575b600080fd5b610064610116565b60405161007191906103d3565b60405180910390f35b6100826101a4565b60405161008f91906103d3565b60405180910390f35b6100b260048036038101906100ad9190610338565b610232565b6040516100bf91906103d3565b60405180910390f35b6100e260048036038101906100dd9190610338565b6102de565b6040516100ef91906103b8565b60405180910390f35b61010061031d565b60405161010d91906103f5565b60405180910390f35b600080546101239061049b565b80601f016020809104026020016040519081016040528092919081815260200182805461014f9061049b565b801561019c5780601f106101715761010080835404028352916020019161019c565b820191906000526020600020905b81548152906001019060200180831161017f57829003601f168201915b505050505081565b600280546101b19061049b565b80601f01602080910402602001604051908101604052809291908181526020018280546101dd9061049b565b801561022a5780601f106101ff5761010080835404028352916020019161022a565b820191906000526020600020905b81548152906001019060200180831161020d57829003601f168201915b505050505081565b6003818154811061024257600080fd5b90600052602060002001600091509050805461025d9061049b565b80601f01602080910402602001604051908101604052809291908181526020018280546102899061049b565b80156102d65780601f106102ab576101008083540402835291602001916102d6565b820191906000526020600020905b8154815290600101906020018083116102b957829003601f168201915b505050505081565b600181815481106102ee57600080fd5b906000526020600020016000915054906101000a900473ffffffffffffffffffffffffffffffffffffffff1681565b60045481565b6000813590506103328161050d565b92915050565b60006020828403121561034a57600080fd5b600061035884828501610323565b91505092915050565b61036a8161042c565b82525050565b600061037b82610410565b610385818561041b565b9350610395818560208601610468565b61039e816104fc565b840191505092915050565b6103b28161045e565b82525050565b60006020820190506103cd6000830184610361565b92915050565b600060208201905081810360008301526103ed8184610370565b905092915050565b600060208201905061040a60008301846103a9565b92915050565b600081519050919050565b600082825260208201905092915050565b60006104378261043e565b9050919050565b600073ffffffffffffffffffffffffffffffffffffffff82169050919050565b6000819050919050565b60005b8381101561048657808201518184015260208101905061046b565b83811115610495576000848401525b50505050565b600060028204905060018216806104b357607f821691505b602082108114156104c7576104c66104cd565b5b50919050565b7f4e487b7100000000000000000000000000000000000000000000000000000000600052602260045260246000fd5b6000601f19601f8301169050919050565b6105168161045e565b811461052157600080fd5b5056fea26469706673582212207d2ac43683f8e0d85c85b77a56bd9813c8d11b3239f100ac3dcb6adecffacc0a64736f6c63430008000033a2646970667358221220da8fa851080195b2e780434b35ae4603ab6cc2539e0875128aef3501d989702964736f6c634300080000336080604052600060035534801561001557600080fd5b50610472806100256000396000f3fe608060405234801561001057600080fd5b50600436106100575760003560e01c80631f6d49421461005c578063673e886a1461008c578063b69ef8a8146100bc578063e0bd7d15146100da578063eed4ea8f146100f6575b600080fd5b61007660048036038101906100719190610263565b610126565b6040516100839190610318565b60405180910390f35b6100a660048036038101906100a191906102c8565b61013e565b6040516100b39190610318565b60405180910390f35b6100c461016c565b6040516100d19190610318565b60405180910390f35b6100f460048036038101906100ef919061028c565b610172565b005b610110600480360381019061010b9190610263565b6101b9565b60405161011d9190610318565b60405180910390f35b60006020528060005260406000206000915090505481565b6002818051602081018201805184825260208301602085012081835280955050505050506000915090505481565b60035481565b806000808473ffffffffffffffffffffffffffffffffffffffff1673ffffffffffffffffffffffffffffffffffffffff168152602001908152602001600020819055505050565b60016020528060005260406000206000915090505481565b60006101e46101df84610364565b610333565b9050828152602081018484840111156101fc57600080fd5b6102078482856103d0565b509392505050565b60008135905061021e8161040e565b92915050565b600082601f83011261023557600080fd5b81356102458482602086016101d1565b91505092915050565b60008135905061025d81610425565b92915050565b60006020828403121561027557600080fd5b60006102838482850161020f565b91505092915050565b6000806040838503121561029f57600080fd5b60006102ad8582860161020f565b92505060206102be8582860161024e565b9150509250929050565b6000602082840312156102da57600080fd5b600082013567ffffffffffffffff8111156102f457600080fd5b61030084828501610224565b91505092915050565b610312816103c6565b82525050565b600060208201905061032d6000830184610309565b92915050565b6000604051905081810181811067ffffffffffffffff8211171561035a576103596103df565b5b8060405250919050565b600067ffffffffffffffff82111561037f5761037e6103df565b5b601f19601f8301169050602081019050919050565b600061039f826103a6565b9050919050565b600073ffffffffffffffffffffffffffffffffffffffff82169050919050565b6000819050919050565b82818337600083830152505050565b7f4e487b7100000000000000000000000000000000000000000000000000000000600052604160045260246000fd5b61041781610394565b811461042257600080fd5b50565b61042e816103c6565b811461043957600080fd5b5056fea2646970667358221220f28c25fde48e05be88acd15e8015bbee55bef7eb483ee774e15842af6bbcf03464736f6c63430008000033",
  "immutableReferences": {},
  "source": "// SPDX-License-Identifier: MIT\npragma solidity ^0.8.0;\n\nimport \"../node_modules/@openzeppelin/contracts/utils/math/SafeMath.sol\";\nimport './Payroll.sol';\nimport './Course.sol';\nimport './Crowdfund.sol';\n\ncontract Agorum {\n  using SafeMath for uint;\n  // storage variables...could store in a struct?\n  string public name;\n  address[] public creators;\n  // array of courses belonging to agorum\n  Course[] public courses;\n  // payroll contract\n  Payroll public payroll;\n  // crowdfund contract\n  Crowdfund public crowdfund;\n\n  // event emitted whenever a new agorum is created\n  event AgorumCreated(address agorumCreator, string title);\n  event AgorumNameChanged(address changer, string name);\n  event CourseAdded(string title, address[] creators, string description, string[] categoryTags);\n\n  /**\n   * @dev Checks for message sender is one of the Agorum creators\n   * @param agorumCreators array of addresses of the creators\n   */\n  modifier onlyCreator(address[] memory agorumCreators) {\n    // loop through agorum's creators until one is found\n    bool creator = false;\n    uint index = 0;\n    while (!creator && index < agorumCreators.length) {\n      if (msg.sender == agorumCreators[index]) {\n        creator = true;\n      }\n      index++;\n    }\n\n    // if creator is found, execute the function body\n    if (creator) {\n      _;\n    }\n  }\n\n  // creates a new Agorum contract, stored on the blockchain, as well as 1 Course contract\n  constructor (string memory _name, address[] memory _creators) {\n    name = _name;\n    creators = _creators;\n\n    // creates a new course and pushes it to array\n    // courses.push(new Course(_name, _creators));\n    // creates payroll with balance initialized to 0\n    payroll = new Payroll();\n\n    // emit AgorumCreated event\n    emit AgorumCreated(msg.sender, _name);\n  }\n\n  function editName(string calldata _name) external {\n    name = _name;\n    emit AgorumNameChanged(msg.sender, _name);\n  }\n\n  /**\n   * @dev Merges two Agorums by adding the course of an agorum to another agorum, and then deleting the previous one\n   * @param agorumMerger the agorum to merge into\n   * @param agorumMergee the agorum to be merged\n   */\n  function mergeAgorums(Agorum agorumMerger, Agorum agorumMergee) public {\n    // add the mergee's courses into the merger\n    Course[] memory mergeeCourses = agorumMergee.getCourses();\n    Course[] memory mergerCourses = agorumMerger.getCourses();\n\n    // for (uint i = 0; i < mergeeCourses.length; i++) {\n    //   mergerCourses.push(mergeeCourses[i]);\n    // }\n\n    deleteAgorum(agorumMergee);\n  }\n\n  function deleteAgorum(Agorum agorum) public onlyCreator(agorum.getCreators()) {\n    selfdestruct(payable(address(agorum)));\n  }\n\n  /**\n   * @dev Returns all the creators of the agorum\n   */\n  function getCreators() public view returns (address[] memory) {\n    return creators;\n  }\n\n  /**\n   * @dev Return the entire array of courses belonging to an Agorum\n   */\n  function getCourses() public view returns (Course[] memory) {\n    return courses;\n  }\n\n  /**\n   * @dev Add a new course to an Agorum\n   */\n  function addCourse(string calldata _title, string calldata _description, address[] calldata _creators, string[] calldata _categoryTags) public {\n    courses.push(new Course(_title, _creators, _description, _categoryTags, block.timestamp));\n    emit CourseAdded(_title, _creators, _description, _categoryTags);\n  }\n}",
  "sourcePath": "/home/victor/agora/blockchain/contracts/Agorum.sol",
  "compiler": {
    "name": "solc",
    "version": "0.8.0+commit.c7dfd78e.Emscripten.clang"
  },
  "schemaVersion": "3.3.4",
  "updatedAt": "2021-06-03T20:00:08.853Z",
  "devdoc": {
    "kind": "dev",
    "methods": {
      "addCourse(string,string,address[],string[])": {
        "details": "Add a new course to an Agorum"
      },
      "getCourses()": {
        "details": "Return the entire array of courses belonging to an Agorum"
      },
      "getCreators()": {
        "details": "Returns all the creators of the agorum"
      },
      "mergeAgorums(address,address)": {
        "details": "Merges two Agorums by adding the course of an agorum to another agorum, and then deleting the previous one",
        "params": {
          "agorumMergee": "the agorum to be merged",
          "agorumMerger": "the agorum to merge into"
        }
      }
    },
    "version": 1
  },
  "userdoc": {
    "kind": "user",
    "methods": {},
    "version": 1
  }
}