{
  "contractName": "AgorumFactory",
  "abi": [
    {
      "anonymous": false,
      "inputs": [
        {
          "indexed": false,
          "internalType": "uint256",
          "name": "agorumID",
          "type": "uint256"
        },
        {
          "indexed": false,
          "internalType": "string",
          "name": "name",
          "type": "string"
        },
        {
          "indexed": false,
          "internalType": "address payable[]",
          "name": "agorumCreators",
          "type": "address[]"
        }
      ],
      "name": "AgorumCreated",
      "type": "event"
    },
    {
      "anonymous": false,
      "inputs": [
        {
          "indexed": false,
          "internalType": "uint256",
          "name": "agorumID",
          "type": "uint256"
        },
        {
          "indexed": false,
          "internalType": "string",
          "name": "title",
          "type": "string"
        },
        {
          "indexed": false,
          "internalType": "address payable[]",
          "name": "courseCreators",
          "type": "address[]"
        }
      ],
      "name": "CourseAdded",
      "type": "event"
    },
    {
      "anonymous": false,
      "inputs": [
        {
          "indexed": false,
          "internalType": "uint256",
          "name": "id",
          "type": "uint256"
        },
        {
          "indexed": false,
          "internalType": "uint256",
          "name": "goalAmount",
          "type": "uint256"
        },
        {
          "indexed": false,
          "internalType": "uint256",
          "name": "deadline",
          "type": "uint256"
        }
      ],
      "name": "CrowdfundCreated",
      "type": "event"
    },
    {
      "anonymous": false,
      "inputs": [
        {
          "indexed": false,
          "internalType": "uint256",
          "name": "id",
          "type": "uint256"
        },
        {
          "indexed": false,
          "internalType": "uint256",
          "name": "reputationLevel",
          "type": "uint256"
        },
        {
          "indexed": false,
          "internalType": "uint256",
          "name": "mentorPaymentRate",
          "type": "uint256"
        }
      ],
      "name": "PayrollCreated",
      "type": "event"
    },
    {
      "inputs": [
        {
          "internalType": "uint256",
          "name": "",
          "type": "uint256"
        }
      ],
      "name": "agorums",
      "outputs": [
        {
          "internalType": "string",
          "name": "name",
          "type": "string"
        }
      ],
      "stateMutability": "view",
      "type": "function"
    },
    {
      "inputs": [
        {
          "internalType": "uint256",
          "name": "",
          "type": "uint256"
        }
      ],
      "name": "crowdfunds",
      "outputs": [
        {
          "internalType": "uint256",
          "name": "goalAmount",
          "type": "uint256"
        },
        {
          "internalType": "uint256",
          "name": "deadline",
          "type": "uint256"
        },
        {
          "internalType": "uint256",
          "name": "amountRaised",
          "type": "uint256"
        }
      ],
      "stateMutability": "view",
      "type": "function"
    },
    {
      "inputs": [],
      "name": "numAgorums",
      "outputs": [
        {
          "internalType": "uint256",
          "name": "",
          "type": "uint256"
        }
      ],
      "stateMutability": "view",
      "type": "function"
    },
    {
      "inputs": [
        {
          "internalType": "uint256",
          "name": "",
          "type": "uint256"
        }
      ],
      "name": "payrolls",
      "outputs": [
        {
          "internalType": "uint256",
          "name": "mentorReputationLevel",
          "type": "uint256"
        },
        {
          "internalType": "uint256",
          "name": "mentorPaymentRate",
          "type": "uint256"
        },
        {
          "internalType": "uint256",
          "name": "balance",
          "type": "uint256"
        }
      ],
      "stateMutability": "view",
      "type": "function"
    },
    {
      "inputs": [
        {
          "internalType": "string",
          "name": "_name",
          "type": "string"
        },
        {
          "internalType": "address payable[]",
          "name": "_creators",
          "type": "address[]"
        },
        {
          "internalType": "uint256",
          "name": "_reputationLevel",
          "type": "uint256"
        },
        {
          "internalType": "uint256",
          "name": "_mentorPaymentRate",
          "type": "uint256"
        },
        {
          "internalType": "uint256",
          "name": "_goalAmount",
          "type": "uint256"
        },
        {
          "internalType": "uint256",
          "name": "_deadline",
          "type": "uint256"
        }
      ],
      "name": "createNewAgorum",
      "outputs": [],
      "stateMutability": "nonpayable",
      "type": "function"
    },
    {
      "inputs": [
        {
          "internalType": "uint256",
          "name": "_agorumID",
          "type": "uint256"
        },
        {
          "internalType": "string",
          "name": "_name",
          "type": "string"
        },
        {
          "internalType": "address payable[]",
          "name": "_courseCreators",
          "type": "address[]"
        }
      ],
      "name": "addNewCourse",
      "outputs": [],
      "stateMutability": "nonpayable",
      "type": "function"
    },
    {
      "inputs": [
        {
          "internalType": "uint256",
          "name": "_agorumID",
          "type": "uint256"
        }
      ],
      "name": "getAgorum",
      "outputs": [
        {
          "components": [
            {
              "internalType": "string",
              "name": "name",
              "type": "string"
            },
            {
              "internalType": "address payable[]",
              "name": "agorumCreators",
              "type": "address[]"
            },
            {
              "components": [
                {
                  "internalType": "string",
                  "name": "title",
                  "type": "string"
                },
                {
                  "internalType": "address payable[]",
                  "name": "courseCreators",
                  "type": "address[]"
                }
              ],
              "internalType": "struct AgorumFactory.Course[]",
              "name": "courses",
              "type": "tuple[]"
            }
          ],
          "internalType": "struct AgorumFactory.Agorum",
          "name": "",
          "type": "tuple"
        }
      ],
      "stateMutability": "view",
      "type": "function"
    }
  ],
  "bytecode": "0x6080604052600060035534801561001557600080fd5b506113e8806100256000396000f3fe608060405234801561001057600080fd5b506004361061007d5760003560e01c80635632b1fa1161005b5780635632b1fa14610100578063ac42b1d614610132578063f7e9fd4514610164578063fa4fd95c146101805761007d565b806314690ba814610082578063336ab397146100a05780633840511f146100d0575b600080fd5b61008a61019c565b60405161009791906110a3565b60405180910390f35b6100ba60048036038101906100b59190610cf2565b6101a2565b6040516100c79190611081565b60405180910390f35b6100ea60048036038101906100e59190610cf2565b61046e565b6040516100f7919061105f565b60405180910390f35b61011a60048036038101906101159190610cf2565b610514565b60405161012993929190611107565b60405180910390f35b61014c60048036038101906101479190610cf2565b61053e565b60405161015b93929190611107565b60405180910390f35b61017e60048036038101906101799190610d1b565b610568565b005b61019a60048036038101906101959190610c2f565b61063b565b005b60035481565b6101aa6108e3565b600260008381526020019081526020016000206040518060600160405290816000820180546101d89061129a565b80601f01602080910402602001604051908101604052809291908181526020018280546102049061129a565b80156102515780601f1061022657610100808354040283529160200191610251565b820191906000526020600020905b81548152906001019060200180831161023457829003601f168201915b50505050508152602001600182018054806020026020016040519081016040528092919081815260200182805480156102df57602002820191906000526020600020905b8160009054906101000a900473ffffffffffffffffffffffffffffffffffffffff1673ffffffffffffffffffffffffffffffffffffffff1681526020019060010190808311610295575b5050505050815260200160028201805480602002602001604051908101604052809291908181526020016000905b8282101561045f57838290600052602060002090600202016040518060400160405290816000820180546103409061129a565b80601f016020809104026020016040519081016040528092919081815260200182805461036c9061129a565b80156103b95780601f1061038e576101008083540402835291602001916103b9565b820191906000526020600020905b81548152906001019060200180831161039c57829003601f168201915b505050505081526020016001820180548060200260200160405190810160405280929190818152602001828054801561044757602002820191906000526020600020905b8160009054906101000a900473ffffffffffffffffffffffffffffffffffffffff1673ffffffffffffffffffffffffffffffffffffffff16815260200190600101908083116103fd575b5050505050815250508152602001906001019061030d565b50505050815250509050919050565b60026020528060005260406000206000915090508060000180546104919061129a565b80601f01602080910402602001604051908101604052809291908181526020018280546104bd9061129a565b801561050a5780601f106104df5761010080835404028352916020019161050a565b820191906000526020600020905b8154815290600101906020018083116104ed57829003601f168201915b5050505050905081565b60006020528060005260406000206000915090508060000154908060010154908060020154905083565b60016020528060005260406000206000915090508060000154908060010154908060020154905083565b60006002600087815260200190815260200160002090508060020161058f8686868661070f565b908060018154018082558091505060019003906000526020600020906002020160009091909190915060008201518160000190805190602001906105d4929190610904565b5060208201518160010190805190602001906105f192919061098a565b5050507ffd2460ade19a645be21837aae3f27f9894e25dbc372959960f483e385d9c739a868686868660405161062b9594939291906110be565b60405180910390a1505050505050565b600060036000815480929190610650906112cc565b919050559050888860026000848152602001908152602001600020600001919061067b929190610a14565b5086866002600084815260200190815260200160002060010191906106a1929190610a9a565b506106af818a8a8a8a610568565b6106ba8186866107c2565b6106c5818484610851565b7f63842ce14e9db32f1d6590c10bed8be6950c3d5ba6219cd550a3f3711ec26ba2818a8a8a8a6040516106fc9594939291906110be565b60405180910390a1505050505050505050565b610717610b3a565b61071f610b3a565b85858080601f016020809104026020016040519081016040528093929190818152602001838380828437600081840152601f19601f820116905080830192505050505050508160000181905250838380806020026020016040519081016040528093929190818152602001838360200280828437600081840152601f19601f82011690508083019250505050505050816020018190525080915050949350505050565b816000808581526020019081526020016000206000018190555080600080858152602001908152602001600020600101819055506000806000858152602001908152602001600020600201819055507f49ac77dfe864b99940ef23e5879ce2aa0e5c007e8ac6edd1f9cfef4421171b5a83838360405161084493929190611107565b60405180910390a1505050565b816001600085815260200190815260200160002060000181905550806001600085815260200190815260200160002060010181905550600060016000858152602001908152602001600020600201819055507ff6770204747583255b89dd40c6f63c3e312d0bc558b0ee72452d7012eb9e058a8383836040516108d693929190611107565b60405180910390a1505050565b60405180606001604052806060815260200160608152602001606081525090565b8280546109109061129a565b90600052602060002090601f0160209004810192826109325760008555610979565b82601f1061094b57805160ff1916838001178555610979565b82800160010185558215610979579182015b8281111561097857825182559160200191906001019061095d565b5b5090506109869190610b54565b5090565b828054828255906000526020600020908101928215610a03579160200282015b82811115610a025782518260006101000a81548173ffffffffffffffffffffffffffffffffffffffff021916908373ffffffffffffffffffffffffffffffffffffffff160217905550916020019190600101906109aa565b5b509050610a109190610b54565b5090565b828054610a209061129a565b90600052602060002090601f016020900481019282610a425760008555610a89565b82601f10610a5b57803560ff1916838001178555610a89565b82800160010185558215610a89579182015b82811115610a88578235825591602001919060010190610a6d565b5b509050610a969190610b54565b5090565b828054828255906000526020600020908101928215610b29579160200282015b82811115610b2857823573ffffffffffffffffffffffffffffffffffffffff168260006101000a81548173ffffffffffffffffffffffffffffffffffffffff021916908373ffffffffffffffffffffffffffffffffffffffff16021790555091602001919060010190610aba565b5b509050610b369190610b54565b5090565b604051806040016040528060608152602001606081525090565b5b80821115610b6d576000816000905550600101610b55565b5090565b600081359050610b8081611384565b92915050565b60008083601f840112610b9857600080fd5b8235905067ffffffffffffffff811115610bb157600080fd5b602083019150836020820283011115610bc957600080fd5b9250929050565b60008083601f840112610be257600080fd5b8235905067ffffffffffffffff811115610bfb57600080fd5b602083019150836001820283011115610c1357600080fd5b9250929050565b600081359050610c298161139b565b92915050565b60008060008060008060008060c0898b031215610c4b57600080fd5b600089013567ffffffffffffffff811115610c6557600080fd5b610c718b828c01610bd0565b9850985050602089013567ffffffffffffffff811115610c9057600080fd5b610c9c8b828c01610b86565b96509650506040610caf8b828c01610c1a565b9450506060610cc08b828c01610c1a565b9350506080610cd18b828c01610c1a565b92505060a0610ce28b828c01610c1a565b9150509295985092959890939650565b600060208284031215610d0457600080fd5b6000610d1284828501610c1a565b91505092915050565b600080600080600060608688031215610d3357600080fd5b6000610d4188828901610c1a565b955050602086013567ffffffffffffffff811115610d5e57600080fd5b610d6a88828901610bd0565b9450945050604086013567ffffffffffffffff811115610d8957600080fd5b610d9588828901610b86565b92509250509295509295909350565b6000610db08383610dd0565b60208301905092915050565b6000610dc8838361100c565b905092915050565b610dd98161121c565b82525050565b6000610deb83856111c1565b9350610df68261113e565b8060005b85811015610e2f57610e0c8284611205565b610e168882610da4565b9750610e2183611189565b925050600181019050610dfa565b5085925050509392505050565b6000610e4782611168565b610e5181856111b0565b9350610e5c83611148565b8060005b83811015610e8d578151610e748882610da4565b9750610e7f83611196565b925050600181019050610e60565b5085935050505092915050565b6000610ea582611173565b610eaf81856111d2565b935083602082028501610ec185611158565b8060005b85811015610efd5784840389528151610ede8582610dbc565b9450610ee9836111a3565b925060208a01995050600181019050610ec5565b50829750879550505050505092915050565b6000610f1b83856111f4565b9350610f28838584611258565b610f3183611373565b840190509392505050565b6000610f478261117e565b610f5181856111e3565b9350610f61818560208601611267565b610f6a81611373565b840191505092915050565b6000610f808261117e565b610f8a81856111f4565b9350610f9a818560208601611267565b610fa381611373565b840191505092915050565b60006060830160008301518482036000860152610fcb8282610f3c565b91505060208301518482036020860152610fe58282610e3c565b91505060408301518482036040860152610fff8282610e9a565b9150508091505092915050565b600060408301600083015184820360008601526110298282610f3c565b915050602083015184820360208601526110438282610e3c565b9150508091505092915050565b6110598161124e565b82525050565b600060208201905081810360008301526110798184610f75565b905092915050565b6000602082019050818103600083015261109b8184610fae565b905092915050565b60006020820190506110b86000830184611050565b92915050565b60006060820190506110d36000830188611050565b81810360208301526110e6818688610f0f565b905081810360408301526110fb818486610ddf565b90509695505050505050565b600060608201905061111c6000830186611050565b6111296020830185611050565b6111366040830184611050565b949350505050565b6000819050919050565b6000819050602082019050919050565b6000819050602082019050919050565b600081519050919050565b600081519050919050565b600081519050919050565b6000602082019050919050565b6000602082019050919050565b6000602082019050919050565b600082825260208201905092915050565b600082825260208201905092915050565b600082825260208201905092915050565b600082825260208201905092915050565b600082825260208201905092915050565b60006112146020840184610b71565b905092915050565b60006112278261122e565b9050919050565b600073ffffffffffffffffffffffffffffffffffffffff82169050919050565b6000819050919050565b82818337600083830152505050565b60005b8381101561128557808201518184015260208101905061126a565b83811115611294576000848401525b50505050565b600060028204905060018216806112b257607f821691505b602082108114156112c6576112c5611344565b5b50919050565b60006112d78261124e565b91507fffffffffffffffffffffffffffffffffffffffffffffffffffffffffffffffff82141561130a57611309611315565b5b600182019050919050565b7f4e487b7100000000000000000000000000000000000000000000000000000000600052601160045260246000fd5b7f4e487b7100000000000000000000000000000000000000000000000000000000600052602260045260246000fd5b6000601f19601f8301169050919050565b61138d8161121c565b811461139857600080fd5b50565b6113a48161124e565b81146113af57600080fd5b5056fea2646970667358221220560a843e59a31e70fe119933f7ac054eef0343a35fadd38d5c61797cca48333764736f6c63430008000033",
  "immutableReferences": {},
  "source": "// SPDX-License-Identifier: MIT\npragma solidity ^0.8.0;\n\nimport \"../node_modules/@openzeppelin/contracts/utils/math/SafeCast.sol\";\nimport \"./PayrollFactory.sol\";\nimport \"./CrowdfundFactory.sol\";\n\n/**\n * The main contract of the app\n */\ncontract AgorumFactory is PayrollFactory, CrowdfundFactory {\n  using SafeCast for uint256;\n\n  struct Agorum {\n    string name;\n    address payable[] agorumCreators;\n    Course[] courses;\n  }\n\n  // potentially don't need to store courses, just store in decentralized storage\n  struct Course {\n    string title;\n    address payable[] courseCreators;\n  }\n\n  // tracker of all agorums, mapping AgorumID to Agorum struct\n  mapping (uint => Agorum) public agorums;\n  uint public numAgorums = 0;\n\n  /**\n   * @dev Checks for message sender is one of the Agorum creators\n   * @param agorumCreators array of addresses of the creators\n   */\n  modifier onlyCreator(address payable[] memory agorumCreators) {\n    // loop through agorum's creators until one is found\n    bool creator = false;\n    uint index = 0;\n    while (!creator && index < agorumCreators.length) {\n      if (msg.sender == agorumCreators[index]) {\n        creator = true;\n      }\n      index++;\n    }\n\n    // if creator is found, execute the function body\n    if (creator) {\n      _;\n    }\n  }\n\n  /**\n   * @dev Creates a new agorum with given name and array of creators. Adds new Agorum to the mapping tracker.\n   * @dev Since an Agorum must be composed of at least one course, a course is also created and pushed to Agorum's courses.\n   * @param _name the agorum name\n   * @param _creators address of the creators\n   */\n  function createNewAgorum(string calldata _name, address payable[] calldata _creators, uint _reputationLevel, uint _mentorPaymentRate, uint _goalAmount, uint _deadline) public {\n    // New Agorum receives ID of corresponding number of Agorums\n    uint agorumID = numAgorums++;\n    // Assign agorum to mapping, assigning name and creators\n    agorums[agorumID].name = _name;\n    agorums[agorumID].agorumCreators = _creators;\n\n    // create and add the corresponding course to the Agorum\n    addNewCourse(agorumID, _name, _creators);\n\n    // initialize payroll and crowdfund objects of agorum\n    _createPayroll(agorumID, _reputationLevel, _mentorPaymentRate);\n    _createCrowdfund(agorumID, _goalAmount, _deadline);\n\n    emit AgorumCreated(agorumID, _name, _creators);\n  }\n\n  /**\n   * @dev Adds a new course to an Agorum\n   */\n  function addNewCourse(uint _agorumID, string calldata _name, address payable[] calldata _courseCreators) public {\n    Agorum storage a = agorums[_agorumID];\n    a.courses.push(_createNewCourse(_name, _courseCreators));\n\n    emit CourseAdded(_agorumID, _name, _courseCreators);\n  }\n\n  /**\n   * @dev Add a new course to an Agorum\n   * @param _title the course title\n   * @param _courseCreators the course creators\n   * @return the newly created course\n   */\n  function _createNewCourse(string calldata _title, address payable[] calldata _courseCreators) pure internal returns (Course memory) {\n    Course memory c;\n    c.title = _title;\n    c.courseCreators = _courseCreators;\n    return c;\n  }\n\n  function getAgorum(uint _agorumID) external view returns (Agorum memory) {\n    return agorums[_agorumID];\n  }\n\n  event AgorumCreated(uint agorumID, string name, address payable[] agorumCreators);\n  event CourseAdded(uint agorumID, string title, address payable[] courseCreators);\n}",
  "sourcePath": "/home/victor/agora/backend/contracts/AgorumFactory.sol",
  "compiler": {
    "name": "solc",
    "version": "0.8.0+commit.c7dfd78e.Emscripten.clang"
  },
  "schemaVersion": "3.3.4",
  "updatedAt": "2021-06-29T16:53:38.487Z",
  "devdoc": {
    "kind": "dev",
    "methods": {
      "addNewCourse(uint256,string,address[])": {
        "details": "Adds a new course to an Agorum"
      },
      "createNewAgorum(string,address[],uint256,uint256,uint256,uint256)": {
        "details": "Creates a new agorum with given name and array of creators. Adds new Agorum to the mapping tracker.Since an Agorum must be composed of at least one course, a course is also created and pushed to Agorum's courses.",
        "params": {
          "_creators": "address of the creators",
          "_name": "the agorum name"
        }
      }
    },
    "version": 1
  },
  "userdoc": {
    "kind": "user",
    "methods": {},
    "notice": "The main contract of the app",
    "version": 1
  }
}