{
  "contractName": "AgorumTracker",
  "abi": [
    {
      "inputs": [],
      "stateMutability": "nonpayable",
      "type": "constructor"
    },
    {
      "inputs": [],
      "name": "owner",
      "outputs": [
        {
          "internalType": "address",
          "name": "",
          "type": "address"
        }
      ],
      "stateMutability": "view",
      "type": "function",
      "constant": true
    },
    {
      "inputs": [],
      "name": "getAgorums",
      "outputs": [
        {
          "internalType": "contract Agorum[]",
          "name": "",
          "type": "address[]"
        }
      ],
      "stateMutability": "view",
      "type": "function",
      "constant": true
    }
  ],
  "bytecode": "0x608060405234801561001057600080fd5b5033600160006101000a81548173ffffffffffffffffffffffffffffffffffffffff021916908373ffffffffffffffffffffffffffffffffffffffff1602179055506102c1806100616000396000f3fe608060405234801561001057600080fd5b50600436106100365760003560e01c806325687a1f1461003b5780638da5cb5b14610059575b600080fd5b610043610077565b60405161005091906101da565b60405180910390f35b610061610105565b60405161006e91906101bf565b60405180910390f35b606060008054806020026020016040519081016040528092919081815260200182805480156100fb57602002820191906000526020600020905b8160009054906101000a900473ffffffffffffffffffffffffffffffffffffffff1673ffffffffffffffffffffffffffffffffffffffff16815260200190600101908083116100b1575b5050505050905090565b600160009054906101000a900473ffffffffffffffffffffffffffffffffffffffff1681565b600061013783836101b0565b60208301905092915050565b61014c81610235565b82525050565b600061015d8261020c565b6101678185610224565b9350610172836101fc565b8060005b838110156101a357815161018a888261012b565b975061019583610217565b925050600181019050610176565b5085935050505092915050565b6101b981610267565b82525050565b60006020820190506101d46000830184610143565b92915050565b600060208201905081810360008301526101f48184610152565b905092915050565b6000819050602082019050919050565b600081519050919050565b6000602082019050919050565b600082825260208201905092915050565b600061024082610247565b9050919050565b600073ffffffffffffffffffffffffffffffffffffffff82169050919050565b600061027282610279565b9050919050565b600061028482610247565b905091905056fea2646970667358221220cf1512a2591be1c916640596264d3005219d626f7d3c81a737411b955b0e07ff64736f6c63430008000033",
  "immutableReferences": {},
  "source": "// SPDX-License-Identifier: MIT\npragma solidity ^0.8.0;\n\nimport \"./Agorum.sol\";\n\n/**\n * Keeps track of all the Agorum addresses in the application\n */\ncontract AgorumTracker {\n  Agorum[] agorums;\n  address public owner;\n\n  // owner of contract is the deployer (developers)\n  constructor() {\n    owner = msg.sender;\n  }\n\n  /**\n   * @dev Return the array of agorums on the platform\n   * @return array of Agorums\n   */\n  function getAgorums() public view returns (Agorum[] memory) {\n    return agorums;\n  }\n\n  /**\n   * @dev Add a new Agorum to the tracker. Can only be called internally\n   * @param agorum the agorum to add\n   */\n  function _addAgorum(Agorum agorum) internal {\n    agorums.push(agorum);\n  }\n}",
  "sourcePath": "/home/victor/agora/blockchain/contracts/AgorumTracker.sol",
  "compiler": {
    "name": "solc",
    "version": "0.8.0+commit.c7dfd78e.Emscripten.clang"
  },
  "schemaVersion": "3.3.4",
  "updatedAt": "2021-05-24T23:43:03.117Z",
  "networkType": "ethereum",
  "devdoc": {
    "kind": "dev",
    "methods": {
      "getAgorums()": {
        "details": "Return the array of agorums on the platform",
        "returns": {
          "_0": "array of Agorums"
        }
      }
    },
    "version": 1
  },
  "userdoc": {
    "kind": "user",
    "methods": {},
    "notice": "Keeps track of all the Agorum addresses in the application",
    "version": 1
  }
}