{
  "contractName": "AgorumTracker",
  "abi": [
    {
      "inputs": [],
      "stateMutability": "nonpayable",
      "type": "constructor"
    },
    {
      "anonymous": false,
      "inputs": [
        {
          "indexed": false,
          "internalType": "uint256",
          "name": "agorumID",
          "type": "uint256"
        },
        {
          "indexed": false,
          "internalType": "string",
          "name": "name",
          "type": "string"
        },
        {
          "indexed": false,
          "internalType": "address payable[]",
          "name": "agorumCreators",
          "type": "address[]"
        }
      ],
      "name": "AgorumCreated",
      "type": "event"
    },
    {
      "anonymous": false,
      "inputs": [
        {
          "indexed": false,
          "internalType": "uint256",
          "name": "agorumID",
          "type": "uint256"
        },
        {
          "indexed": false,
          "internalType": "string",
          "name": "title",
          "type": "string"
        },
        {
          "indexed": false,
          "internalType": "address payable[]",
          "name": "courseCreators",
          "type": "address[]"
        }
      ],
      "name": "CourseAdded",
      "type": "event"
    },
    {
      "anonymous": false,
      "inputs": [
        {
          "indexed": false,
          "internalType": "uint256",
          "name": "agorumID",
          "type": "uint256"
        },
        {
          "indexed": false,
          "internalType": "uint256",
          "name": "amount",
          "type": "uint256"
        }
      ],
      "name": "NewPayment",
      "type": "event"
    },
    {
      "inputs": [],
      "name": "numAgorums",
      "outputs": [
        {
          "internalType": "uint256",
          "name": "",
          "type": "uint256"
        }
      ],
      "stateMutability": "view",
      "type": "function",
      "constant": true
    },
    {
      "inputs": [],
      "name": "owner",
      "outputs": [
        {
          "internalType": "address",
          "name": "",
          "type": "address"
        }
      ],
      "stateMutability": "view",
      "type": "function",
      "constant": true
    },
    {
      "inputs": [
        {
          "internalType": "uint256",
          "name": "_agorumID",
          "type": "uint256"
        },
        {
          "internalType": "address payable",
          "name": "_contributorAddress",
          "type": "address"
        },
        {
          "internalType": "uint256",
          "name": "_reward",
          "type": "uint256"
        }
      ],
      "name": "addNewContributor",
      "outputs": [],
      "stateMutability": "nonpayable",
      "type": "function"
    },
    {
      "inputs": [
        {
          "internalType": "uint256",
          "name": "_agorumID",
          "type": "uint256"
        },
        {
          "internalType": "address payable",
          "name": "_mentorAddress",
          "type": "address"
        },
        {
          "internalType": "uint256",
          "name": "_reward",
          "type": "uint256"
        }
      ],
      "name": "addNewMentor",
      "outputs": [],
      "stateMutability": "nonpayable",
      "type": "function"
    },
    {
      "inputs": [
        {
          "internalType": "uint256",
          "name": "_agorumID",
          "type": "uint256"
        },
        {
          "internalType": "uint256",
          "name": "_contributorRate",
          "type": "uint256"
        },
        {
          "internalType": "uint256",
          "name": "_mentorRate",
          "type": "uint256"
        },
        {
          "internalType": "uint256",
          "name": "_creatorRate",
          "type": "uint256"
        }
      ],
      "name": "setDistributionRates",
      "outputs": [],
      "stateMutability": "nonpayable",
      "type": "function"
    },
    {
      "inputs": [
        {
          "internalType": "uint256",
          "name": "_agorumID",
          "type": "uint256"
        }
      ],
      "name": "distributeFunds",
      "outputs": [],
      "stateMutability": "nonpayable",
      "type": "function"
    },
    {
      "inputs": [
        {
          "internalType": "uint256",
          "name": "_agorumID",
          "type": "uint256"
        },
        {
          "internalType": "uint256",
          "name": "_amount",
          "type": "uint256"
        }
      ],
      "name": "acceptPayments",
      "outputs": [],
      "stateMutability": "nonpayable",
      "type": "function"
    },
    {
      "inputs": [
        {
          "internalType": "string",
          "name": "_name",
          "type": "string"
        },
        {
          "internalType": "address payable[]",
          "name": "_creators",
          "type": "address[]"
        }
      ],
      "name": "createNewAgorum",
      "outputs": [
        {
          "internalType": "uint256",
          "name": "",
          "type": "uint256"
        }
      ],
      "stateMutability": "nonpayable",
      "type": "function"
    },
    {
      "inputs": [
        {
          "internalType": "uint256",
          "name": "_agorumID",
          "type": "uint256"
        },
        {
          "internalType": "string",
          "name": "_name",
          "type": "string"
        },
        {
          "internalType": "address payable[]",
          "name": "_courseCreators",
          "type": "address[]"
        }
      ],
      "name": "addNewCourse",
      "outputs": [],
      "stateMutability": "nonpayable",
      "type": "function"
    },
    {
      "inputs": [
        {
          "internalType": "uint256",
          "name": "_agorumID",
          "type": "uint256"
        }
      ],
      "name": "getAgorumMetadata",
      "outputs": [
        {
          "internalType": "string",
          "name": "",
          "type": "string"
        },
        {
          "internalType": "address payable[]",
          "name": "",
          "type": "address[]"
        },
        {
          "components": [
            {
              "internalType": "string",
              "name": "title",
              "type": "string"
            },
            {
              "internalType": "address payable[]",
              "name": "courseCreators",
              "type": "address[]"
            }
          ],
          "internalType": "struct AgorumTracker.Course[]",
          "name": "",
          "type": "tuple[]"
        }
      ],
      "stateMutability": "view",
      "type": "function",
      "constant": true
    }
  ],
  "bytecode": "0x60806040526000805534801561001457600080fd5b5033600260006101000a81548173ffffffffffffffffffffffffffffffffffffffff021916908373ffffffffffffffffffffffffffffffffffffffff16021790555061172d806100656000396000f3fe608060405234801561001057600080fd5b506004361061009e5760003560e01c80638da5cb5b116100665780638da5cb5b14610145578063deb13a8314610163578063f726f7151461017f578063f7e9fd451461019b578063f80dc68e146101b75761009e565b806314690ba8146100a35780631655907d146100c157806374504236146100f1578063797c51a21461010d5780638724b26914610129575b600080fd5b6100ab6101e9565b6040516100b89190611383565b60405180910390f35b6100db60048036038101906100d69190610d3e565b6101ef565b6040516100e89190611383565b60405180910390f35b61010b60048036038101906101069190610ddc565b6102a2565b005b61012760048036038101906101229190610eb4565b610302565b005b610143600480360381019061013e9190610ef0565b61036f565b005b61014d610541565b60405161015a919061131c565b60405180910390f35b61017d60048036038101906101789190610ddc565b610567565b005b61019960048036038101906101949190610db3565b6105c7565b005b6101b560048036038101906101b09190610e2b565b6105ca565b005b6101d160048036038101906101cc9190610db3565b61069d565b6040516101e093929190611337565b60405180910390f35b60005481565b60008060008081548092919061020490611611565b91905055905060006001600083815260200190815260200160002090508686826000019190610234929190610a13565b508484826001019190610248929190610a99565b5061025682888888886105ca565b7f63842ce14e9db32f1d6590c10bed8be6950c3d5ba6219cd550a3f3711ec26ba2828888888860405161028d95949392919061139e565b60405180910390a18192505050949350505050565b806001600085815260200190815260200160002060030160010160008473ffffffffffffffffffffffffffffffffffffffff1673ffffffffffffffffffffffffffffffffffffffff16815260200190815260200160002081905550505050565b8060016000848152602001908152602001600020600301600301600082825461032b91906114f9565b925050819055507fa8e6f9f627e4d2eb0f2887148343c7db7d11e76bdf6b93363126267954a42a5182826040516103639291906113e7565b60405180910390a15050565b6001600085815260200190815260200160002060010180548060200260200160405190810160405280929190818152602001828054801561040557602002820191906000526020600020905b8160009054906101000a900473ffffffffffffffffffffffffffffffffffffffff1673ffffffffffffffffffffffffffffffffffffffff16815260200190600101908083116103bb575b50505050506000805b8115801561041c5750825181105b156104ad5782818151811061045a577f4e487b7100000000000000000000000000000000000000000000000000000000600052603260045260246000fd5b602002602001015173ffffffffffffffffffffffffffffffffffffffff163373ffffffffffffffffffffffffffffffffffffffff16141561049a57600191505b80806104a590611611565b91505061040e565b811561053857600060016000898152602001908152602001600020600301905086816002016040516104de90611307565b9081526020016040518091039020819055508581600201604051610501906112f2565b9081526020016040518091039020819055508481600201604051610524906112dd565b908152602001604051809103902081905550505b50505050505050565b600260009054906101000a900473ffffffffffffffffffffffffffffffffffffffff1681565b806001600085815260200190815260200160002060030160000160008473ffffffffffffffffffffffffffffffffffffffff1673ffffffffffffffffffffffffffffffffffffffff16815260200190815260200160002081905550505050565b50565b6000600160008781526020019081526020016000209050806002016105f186868686610960565b90806001815401808255809150506001900390600052602060002090600202016000909190919091506000820151816000019080519060200190610636929190610b39565b506020820151816001019080519060200190610653929190610bbf565b5050507ffd2460ade19a645be21837aae3f27f9894e25dbc372959960f483e385d9c739a868686868660405161068d95949392919061139e565b60405180910390a1505050505050565b606080606060006001600086815260200190815260200160002090508060000181600101826002018280546106d1906115df565b80601f01602080910402602001604051908101604052809291908181526020018280546106fd906115df565b801561074a5780601f1061071f5761010080835404028352916020019161074a565b820191906000526020600020905b81548152906001019060200180831161072d57829003601f168201915b50505050509250818054806020026020016040519081016040528092919081815260200182805480156107d257602002820191906000526020600020905b8160009054906101000a900473ffffffffffffffffffffffffffffffffffffffff1673ffffffffffffffffffffffffffffffffffffffff1681526020019060010190808311610788575b5050505050915080805480602002602001604051908101604052809291908181526020016000905b8282101561094c578382906000526020600020906002020160405180604001604052908160008201805461082d906115df565b80601f0160208091040260200160405190810160405280929190818152602001828054610859906115df565b80156108a65780601f1061087b576101008083540402835291602001916108a6565b820191906000526020600020905b81548152906001019060200180831161088957829003601f168201915b505050505081526020016001820180548060200260200160405190810160405280929190818152602001828054801561093457602002820191906000526020600020905b8160009054906101000a900473ffffffffffffffffffffffffffffffffffffffff1673ffffffffffffffffffffffffffffffffffffffff16815260200190600101908083116108ea575b505050505081525050815260200190600101906107fa565b505050509050935093509350509193909250565b610968610c49565b610970610c49565b85858080601f016020809104026020016040519081016040528093929190818152602001838380828437600081840152601f19601f820116905080830192505050505050508160000181905250838380806020026020016040519081016040528093929190818152602001838360200280828437600081840152601f19601f82011690508083019250505050505050816020018190525080915050949350505050565b828054610a1f906115df565b90600052602060002090601f016020900481019282610a415760008555610a88565b82601f10610a5a57803560ff1916838001178555610a88565b82800160010185558215610a88579182015b82811115610a87578235825591602001919060010190610a6c565b5b509050610a959190610c63565b5090565b828054828255906000526020600020908101928215610b28579160200282015b82811115610b2757823573ffffffffffffffffffffffffffffffffffffffff168260006101000a81548173ffffffffffffffffffffffffffffffffffffffff021916908373ffffffffffffffffffffffffffffffffffffffff16021790555091602001919060010190610ab9565b5b509050610b359190610c63565b5090565b828054610b45906115df565b90600052602060002090601f016020900481019282610b675760008555610bae565b82601f10610b8057805160ff1916838001178555610bae565b82800160010185558215610bae579182015b82811115610bad578251825591602001919060010190610b92565b5b509050610bbb9190610c63565b5090565b828054828255906000526020600020908101928215610c38579160200282015b82811115610c375782518260006101000a81548173ffffffffffffffffffffffffffffffffffffffff021916908373ffffffffffffffffffffffffffffffffffffffff16021790555091602001919060010190610bdf565b5b509050610c459190610c63565b5090565b604051806040016040528060608152602001606081525090565b5b80821115610c7c576000816000905550600101610c64565b5090565b600081359050610c8f816116c9565b92915050565b60008083601f840112610ca757600080fd5b8235905067ffffffffffffffff811115610cc057600080fd5b602083019150836020820283011115610cd857600080fd5b9250929050565b60008083601f840112610cf157600080fd5b8235905067ffffffffffffffff811115610d0a57600080fd5b602083019150836001820283011115610d2257600080fd5b9250929050565b600081359050610d38816116e0565b92915050565b60008060008060408587031215610d5457600080fd5b600085013567ffffffffffffffff811115610d6e57600080fd5b610d7a87828801610cdf565b9450945050602085013567ffffffffffffffff811115610d9957600080fd5b610da587828801610c95565b925092505092959194509250565b600060208284031215610dc557600080fd5b6000610dd384828501610d29565b91505092915050565b600080600060608486031215610df157600080fd5b6000610dff86828701610d29565b9350506020610e1086828701610c80565b9250506040610e2186828701610d29565b9150509250925092565b600080600080600060608688031215610e4357600080fd5b6000610e5188828901610d29565b955050602086013567ffffffffffffffff811115610e6e57600080fd5b610e7a88828901610cdf565b9450945050604086013567ffffffffffffffff811115610e9957600080fd5b610ea588828901610c95565b92509250509295509295909350565b60008060408385031215610ec757600080fd5b6000610ed585828601610d29565b9250506020610ee685828601610d29565b9150509250929050565b60008060008060808587031215610f0657600080fd5b6000610f1487828801610d29565b9450506020610f2587828801610d29565b9350506040610f3687828801610d29565b9250506060610f4787828801610d29565b91505092959194509250565b6000610f5f8383610f7f565b60208301905092915050565b6000610f77838361128a565b905092915050565b610f8881611561565b82525050565b610f978161154f565b82525050565b6000610fa98385611493565b9350610fb482611410565b8060005b85811015610fed57610fca82846114e2565b610fd48882610f53565b9750610fdf8361145b565b925050600181019050610fb8565b5085925050509392505050565b60006110058261143a565b61100f8185611482565b935061101a8361141a565b8060005b8381101561104b5781516110328882610f53565b975061103d83611468565b92505060018101905061101e565b5085935050505092915050565b60006110638261143a565b61106d8185611493565b93506110788361141a565b8060005b838110156110a95781516110908882610f53565b975061109b83611468565b92505060018101905061107c565b5085935050505092915050565b60006110c182611445565b6110cb81856114a4565b9350836020820285016110dd8561142a565b8060005b8581101561111957848403895281516110fa8582610f6b565b945061110583611475565b925060208a019950506001810190506110e1565b50829750879550505050505092915050565b600061113783856114c6565b935061114483858461159d565b61114d836116b8565b840190509392505050565b600061116382611450565b61116d81856114b5565b935061117d8185602086016115ac565b611186816116b8565b840191505092915050565b600061119c82611450565b6111a681856114c6565b93506111b68185602086016115ac565b6111bf816116b8565b840191505092915050565b60006111d76007836114d7565b91507f63726561746f72000000000000000000000000000000000000000000000000006000830152600782019050919050565b60006112176006836114d7565b91507f6d656e746f7200000000000000000000000000000000000000000000000000006000830152600682019050919050565b6000611257600b836114d7565b91507f636f6e7472696275746f720000000000000000000000000000000000000000006000830152600b82019050919050565b600060408301600083015184820360008601526112a78282611158565b915050602083015184820360208601526112c18282610ffa565b9150508091505092915050565b6112d781611593565b82525050565b60006112e8826111ca565b9150819050919050565b60006112fd8261120a565b9150819050919050565b60006113128261124a565b9150819050919050565b60006020820190506113316000830184610f8e565b92915050565b600060608201905081810360008301526113518186611191565b905081810360208301526113658185611058565b9050818103604083015261137981846110b6565b9050949350505050565b600060208201905061139860008301846112ce565b92915050565b60006060820190506113b360008301886112ce565b81810360208301526113c681868861112b565b905081810360408301526113db818486610f9d565b90509695505050505050565b60006040820190506113fc60008301856112ce565b61140960208301846112ce565b9392505050565b6000819050919050565b6000819050602082019050919050565b6000819050602082019050919050565b600081519050919050565b600081519050919050565b600081519050919050565b6000602082019050919050565b6000602082019050919050565b6000602082019050919050565b600082825260208201905092915050565b600082825260208201905092915050565b600082825260208201905092915050565b600082825260208201905092915050565b600082825260208201905092915050565b600081905092915050565b60006114f16020840184610c80565b905092915050565b600061150482611593565b915061150f83611593565b9250827fffffffffffffffffffffffffffffffffffffffffffffffffffffffffffffffff038211156115445761154361165a565b5b828201905092915050565b600061155a82611573565b9050919050565b600061156c82611573565b9050919050565b600073ffffffffffffffffffffffffffffffffffffffff82169050919050565b6000819050919050565b82818337600083830152505050565b60005b838110156115ca5780820151818401526020810190506115af565b838111156115d9576000848401525b50505050565b600060028204905060018216806115f757607f821691505b6020821081141561160b5761160a611689565b5b50919050565b600061161c82611593565b91507fffffffffffffffffffffffffffffffffffffffffffffffffffffffffffffffff82141561164f5761164e61165a565b5b600182019050919050565b7f4e487b7100000000000000000000000000000000000000000000000000000000600052601160045260246000fd5b7f4e487b7100000000000000000000000000000000000000000000000000000000600052602260045260246000fd5b6000601f19601f8301169050919050565b6116d281611561565b81146116dd57600080fd5b50565b6116e981611593565b81146116f457600080fd5b5056fea26469706673582212202ca67bfdcdc261619b518e16b91003e74e4a10166fbb4fd0b5a6029e838671fa64736f6c63430008000033",
  "immutableReferences": {},
  "source": "// SPDX-License-Identifier: MIT\npragma solidity ^0.8.0;\n\nimport * as AGOToken from \"./AGOToken.sol\";\n\nstruct Crowdfund {\n  uint goalAmount;\n  uint deadline;\n  uint amountRaised;\n  // tracks supporters and their donated amounts\n  mapping (address => uint) supporters;\n}\n\n/**\n * Global Payroll struct\n * Represents the Payroll belonging to each Agorum\n */\nstruct Payroll {\n  // list of contributors/mentors and their respective compensation amount\n  mapping (address => uint) contributors;\n  mapping (address => uint) mentors;\n  // string is (contributor; mentor; creator) and uint is % of a payment they receive\n  mapping (string => uint) distributionRates;\n  uint balance;\n}\n\n/**\n * The main contract of the app\n */\ncontract AgorumTracker {\n  // an Agorum object\n  struct Agorum {\n    string name;\n    address payable[] agorumCreators;\n    Course[] courses;\n    Payroll payroll;\n    Crowdfund crowdfund;\n  }\n\n  // an agorum has at least 1 course\n  struct Course {\n    string title;\n    address payable[] courseCreators;\n  }\n\n  // contract state variables\n  uint public numAgorums = 0;\n  // tracker of all agorums, mapping AgorumID to Agorum struct\n  mapping (uint => Agorum) agorums;\n  address public owner;\n\n  // set the contract owner to be the deployer\n  constructor () {\n    owner = msg.sender;\n  }\n\n  /**\n   * @dev Checks for message sender is one of the Agorum creators\n   * @param agorumCreators array of addresses of the creators\n   */\n  modifier onlyCreator(address payable[] memory agorumCreators) {\n    // loop through agorum's creators until one is found\n    bool creator = false;\n    uint index = 0;\n    while (!creator && index < agorumCreators.length) {\n      if (msg.sender == agorumCreators[index]) {\n        creator = true;\n      }\n      index++;\n    }\n\n    // if creator is found, execute the function body\n    if (creator) {\n      _;\n    }\n  }\n\n  /**\n   * PAYROLL SPECIFIC METHODS\n   */\n  function addNewContributor(uint _agorumID, address payable _contributorAddress, uint _reward) public {\n    agorums[_agorumID].payroll.contributors[_contributorAddress] = _reward;\n  }\n\n  function addNewMentor(uint _agorumID, address payable _mentorAddress, uint _reward) public {\n    agorums[_agorumID].payroll.mentors[_mentorAddress] = _reward;\n  }\n\n  function setDistributionRates(uint _agorumID, uint _contributorRate, uint _mentorRate, uint _creatorRate) public onlyCreator(agorums[_agorumID].agorumCreators) {\n    // storage pointer to the Agorum's payroll\n    Payroll storage p = agorums[_agorumID].payroll;\n    p.distributionRates[\"contributor\"] = _contributorRate;\n    p.distributionRates[\"mentor\"] = _mentorRate;\n    p.distributionRates[\"creator\"] = _creatorRate;\n  }\n\n  // can we make this so it is automatically called at a certain time, say every x blocks?\n  // can maybe automatically call function on some specific event occurrance\n  function distributeFunds(uint _agorumID) public {\n    // AGOToken.mintTokensOnNewLevel();\n  }\n\n  // payable function that accepts token payments to an agorum\n  function acceptPayments(uint _agorumID, uint _amount) public {\n    agorums[_agorumID].payroll.balance += _amount;\n\n    emit NewPayment(_agorumID, _amount);\n  }\n\n  event NewPayment(uint agorumID, uint amount);\n\n  // AGORUM SPECFIC METHODS\n  /**\n   * @dev Creates a new agorum with given name and array of creators. Adds new Agorum to the mapping tracker.\n   * @dev Since an Agorum must be composed of at least one course, a course is also created and pushed to Agorum's courses.\n   * @param _name the agorum name\n   * @param _creators address of the creators\n   * @return the new Agorum's ID\n   */\n  function createNewAgorum(string calldata _name, address payable[] calldata _creators) public returns (uint) {\n    // New Agorum receives ID of corresponding number of Agorums\n    uint agorumID = numAgorums++;\n    // Assign agorum to mapping, assigning name and creators\n    Agorum storage a = agorums[agorumID];\n    a.name = _name;\n    a.agorumCreators = _creators;\n    // create and add the corresponding course to the Agorum\n    addNewCourse(agorumID, _name, _creators);\n\n    emit AgorumCreated(agorumID, _name, _creators);\n    return agorumID;\n  }\n\n  /**\n   * @dev Add a new course to an Agorum\n   * @param _title the course title\n   * @param _courseCreators the course creators\n   * @return the newly created course\n   */\n  function _createNewCourse(string calldata _title, address payable[] calldata _courseCreators) pure internal returns (Course memory) {\n    Course memory c;\n    c.title = _title;\n    c.courseCreators = _courseCreators;\n    return c;\n  }\n\n  /**\n   * @dev Adds a new course to an Agorum\n   */\n  function addNewCourse(uint _agorumID, string calldata _name, address payable[] calldata _courseCreators) public {\n    Agorum storage a = agorums[_agorumID];\n    a.courses.push(_createNewCourse(_name, _courseCreators));\n\n    emit CourseAdded(_agorumID, _name, _courseCreators);\n  }\n\n  /**\n   * @dev Retrieves the metadata of an Agorum, ie, name, creators, and courses\n   * @dev Does not return Crowdfund or Payroll information\n   * @param _agorumID the ID of the Agorum\n   * @return the Agorum name, creators, and courses\n   */\n  function getAgorumMetadata(uint _agorumID) public view returns (string memory, address payable[] memory, Course[] memory) {\n    Agorum storage a = agorums[_agorumID];\n    return (a.name, a.agorumCreators, a.courses);\n  }\n\n  // function getAgorumPayroll(uint _agorumID) internal view returns (Payroll memory) {\n  //   return agorums[_agorumID].payroll;\n  // }\n\n  event AgorumCreated(uint agorumID, string name, address payable[] agorumCreators);\n  event CourseAdded(uint agorumID, string title, address payable[] courseCreators);\n}",
  "sourcePath": "/home/victor/agora/blockchain/contracts/AgorumTracker.sol",
  "compiler": {
    "name": "solc",
    "version": "0.8.0+commit.c7dfd78e.Emscripten.clang"
  },
  "schemaVersion": "3.3.4",
  "updatedAt": "2021-06-06T16:24:54.383Z",
  "networkType": "ethereum",
  "devdoc": {
    "kind": "dev",
    "methods": {
      "addNewCourse(uint256,string,address[])": {
        "details": "Adds a new course to an Agorum"
      },
      "createNewAgorum(string,address[])": {
        "details": "Creates a new agorum with given name and array of creators. Adds new Agorum to the mapping tracker.Since an Agorum must be composed of at least one course, a course is also created and pushed to Agorum's courses.",
        "params": {
          "_creators": "address of the creators",
          "_name": "the agorum name"
        },
        "returns": {
          "_0": "the new Agorum's ID"
        }
      },
      "getAgorumMetadata(uint256)": {
        "details": "Retrieves the metadata of an Agorum, ie, name, creators, and coursesDoes not return Crowdfund or Payroll information",
        "params": {
          "_agorumID": "the ID of the Agorum"
        },
        "returns": {
          "_0": "the Agorum name, creators, and courses"
        }
      }
    },
    "version": 1
  },
  "userdoc": {
    "kind": "user",
    "methods": {
      "addNewContributor(uint256,address,uint256)": {
        "notice": "PAYROLL SPECIFIC METHODS"
      }
    },
    "notice": "The main contract of the app",
    "version": 1
  }
}