{
  "contractName": "AgorumTracker",
  "abi": [
    {
      "inputs": [],
      "stateMutability": "nonpayable",
      "type": "constructor"
    },
    {
      "anonymous": false,
      "inputs": [
        {
          "indexed": false,
          "internalType": "uint256",
          "name": "agorumID",
          "type": "uint256"
        },
        {
          "indexed": false,
          "internalType": "string",
          "name": "name",
          "type": "string"
        },
        {
          "indexed": false,
          "internalType": "address payable[]",
          "name": "agorumCreators",
          "type": "address[]"
        }
      ],
      "name": "AgorumCreated",
      "type": "event"
    },
    {
      "inputs": [],
      "name": "numAgorums",
      "outputs": [
        {
          "internalType": "uint256",
          "name": "",
          "type": "uint256"
        }
      ],
      "stateMutability": "view",
      "type": "function"
    },
    {
      "inputs": [
        {
          "internalType": "string",
          "name": "_name",
          "type": "string"
        },
        {
          "internalType": "address payable[]",
          "name": "_creators",
          "type": "address[]"
        }
      ],
      "name": "createNewAgorum",
      "outputs": [
        {
          "internalType": "uint256",
          "name": "",
          "type": "uint256"
        }
      ],
      "stateMutability": "nonpayable",
      "type": "function"
    },
    {
      "inputs": [
        {
          "internalType": "uint256",
          "name": "_agorumID",
          "type": "uint256"
        },
        {
          "internalType": "string",
          "name": "_name",
          "type": "string"
        },
        {
          "internalType": "address payable[]",
          "name": "_courseCreators",
          "type": "address[]"
        }
      ],
      "name": "addNewCourse",
      "outputs": [],
      "stateMutability": "nonpayable",
      "type": "function"
    },
    {
      "inputs": [
        {
          "internalType": "uint256",
          "name": "_agorumID",
          "type": "uint256"
        }
      ],
      "name": "getAgorumMetadata",
      "outputs": [
        {
          "internalType": "string",
          "name": "",
          "type": "string"
        },
        {
          "internalType": "address payable[]",
          "name": "",
          "type": "address[]"
        },
        {
          "components": [
            {
              "internalType": "string",
              "name": "title",
              "type": "string"
            },
            {
              "internalType": "address payable[]",
              "name": "courseCreators",
              "type": "address[]"
            }
          ],
          "internalType": "struct AgorumTracker.Course[]",
          "name": "",
          "type": "tuple[]"
        }
      ],
      "stateMutability": "view",
      "type": "function"
    }
  ],
  "bytecode": "0x608060405234801561001057600080fd5b5033600260006101000a81548173ffffffffffffffffffffffffffffffffffffffff021916908373ffffffffffffffffffffffffffffffffffffffff160217905550611017806100616000396000f3fe608060405234801561001057600080fd5b506004361061004c5760003560e01c806314690ba8146100515780631655907d1461006f578063f7e9fd451461009f578063f80dc68e146100bb575b600080fd5b6100596100ed565b6040516100669190610d09565b60405180910390f35b610089600480360381019061008491906108db565b6100f3565b6040516100969190610d09565b60405180910390f35b6100b960048036038101906100b49190610979565b6101a6565b005b6100d560048036038101906100d09190610950565b61023a565b6040516100e493929190610cbd565b60405180910390f35b60005481565b60008060008081548092919061010890610efb565b919050559050600060016000838152602001908152602001600020905086868260000191906101389291906105b0565b50848482600101919061014c929190610636565b5061015a82888888886101a6565b7f63842ce14e9db32f1d6590c10bed8be6950c3d5ba6219cd550a3f3711ec26ba28288888888604051610191959493929190610d24565b60405180910390a18192505050949350505050565b6000600160008781526020019081526020016000209050806002016101cd868686866104fd565b908060018154018082558091505060019003906000526020600020906002020160009091909190915060008201518160000190805190602001906102129291906106d6565b50602082015181600101908051906020019061022f92919061075c565b505050505050505050565b6060806060600060016000868152602001908152602001600020905080600001816001018260020182805461026e90610ec9565b80601f016020809104026020016040519081016040528092919081815260200182805461029a90610ec9565b80156102e75780601f106102bc576101008083540402835291602001916102e7565b820191906000526020600020905b8154815290600101906020018083116102ca57829003601f168201915b505050505092508180548060200260200160405190810160405280929190818152602001828054801561036f57602002820191906000526020600020905b8160009054906101000a900473ffffffffffffffffffffffffffffffffffffffff1673ffffffffffffffffffffffffffffffffffffffff1681526020019060010190808311610325575b5050505050915080805480602002602001604051908101604052809291908181526020016000905b828210156104e957838290600052602060002090600202016040518060400160405290816000820180546103ca90610ec9565b80601f01602080910402602001604051908101604052809291908181526020018280546103f690610ec9565b80156104435780601f1061041857610100808354040283529160200191610443565b820191906000526020600020905b81548152906001019060200180831161042657829003601f168201915b50505050508152602001600182018054806020026020016040519081016040528092919081815260200182805480156104d157602002820191906000526020600020905b8160009054906101000a900473ffffffffffffffffffffffffffffffffffffffff1673ffffffffffffffffffffffffffffffffffffffff1681526020019060010190808311610487575b50505050508152505081526020019060010190610397565b505050509050935093509350509193909250565b6105056107e6565b61050d6107e6565b85858080601f016020809104026020016040519081016040528093929190818152602001838380828437600081840152601f19601f820116905080830192505050505050508160000181905250838380806020026020016040519081016040528093929190818152602001838360200280828437600081840152601f19601f82011690508083019250505050505050816020018190525080915050949350505050565b8280546105bc90610ec9565b90600052602060002090601f0160209004810192826105de5760008555610625565b82601f106105f757803560ff1916838001178555610625565b82800160010185558215610625579182015b82811115610624578235825591602001919060010190610609565b5b5090506106329190610800565b5090565b8280548282559060005260206000209081019282156106c5579160200282015b828111156106c457823573ffffffffffffffffffffffffffffffffffffffff168260006101000a81548173ffffffffffffffffffffffffffffffffffffffff021916908373ffffffffffffffffffffffffffffffffffffffff16021790555091602001919060010190610656565b5b5090506106d29190610800565b5090565b8280546106e290610ec9565b90600052602060002090601f016020900481019282610704576000855561074b565b82601f1061071d57805160ff191683800117855561074b565b8280016001018555821561074b579182015b8281111561074a57825182559160200191906001019061072f565b5b5090506107589190610800565b5090565b8280548282559060005260206000209081019282156107d5579160200282015b828111156107d45782518260006101000a81548173ffffffffffffffffffffffffffffffffffffffff021916908373ffffffffffffffffffffffffffffffffffffffff1602179055509160200191906001019061077c565b5b5090506107e29190610800565b5090565b604051806040016040528060608152602001606081525090565b5b80821115610819576000816000905550600101610801565b5090565b60008135905061082c81610fb3565b92915050565b60008083601f84011261084457600080fd5b8235905067ffffffffffffffff81111561085d57600080fd5b60208301915083602082028301111561087557600080fd5b9250929050565b60008083601f84011261088e57600080fd5b8235905067ffffffffffffffff8111156108a757600080fd5b6020830191508360018202830111156108bf57600080fd5b9250929050565b6000813590506108d581610fca565b92915050565b600080600080604085870312156108f157600080fd5b600085013567ffffffffffffffff81111561090b57600080fd5b6109178782880161087c565b9450945050602085013567ffffffffffffffff81111561093657600080fd5b61094287828801610832565b925092505092959194509250565b60006020828403121561096257600080fd5b6000610970848285016108c6565b91505092915050565b60008060008060006060868803121561099157600080fd5b600061099f888289016108c6565b955050602086013567ffffffffffffffff8111156109bc57600080fd5b6109c88882890161087c565b9450945050604086013567ffffffffffffffff8111156109e757600080fd5b6109f388828901610832565b92509250509295509295909350565b6000610a0e8383610a2e565b60208301905092915050565b6000610a268383610c6a565b905092915050565b610a3781610e4b565b82525050565b6000610a498385610df0565b9350610a5482610d6d565b8060005b85811015610a8d57610a6a8284610e34565b610a748882610a02565b9750610a7f83610db8565b925050600181019050610a58565b5085925050509392505050565b6000610aa582610d97565b610aaf8185610ddf565b9350610aba83610d77565b8060005b83811015610aeb578151610ad28882610a02565b9750610add83610dc5565b925050600181019050610abe565b5085935050505092915050565b6000610b0382610d97565b610b0d8185610df0565b9350610b1883610d77565b8060005b83811015610b49578151610b308882610a02565b9750610b3b83610dc5565b925050600181019050610b1c565b5085935050505092915050565b6000610b6182610da2565b610b6b8185610e01565b935083602082028501610b7d85610d87565b8060005b85811015610bb95784840389528151610b9a8582610a1a565b9450610ba583610dd2565b925060208a01995050600181019050610b81565b50829750879550505050505092915050565b6000610bd78385610e23565b9350610be4838584610e87565b610bed83610fa2565b840190509392505050565b6000610c0382610dad565b610c0d8185610e12565b9350610c1d818560208601610e96565b610c2681610fa2565b840191505092915050565b6000610c3c82610dad565b610c468185610e23565b9350610c56818560208601610e96565b610c5f81610fa2565b840191505092915050565b60006040830160008301518482036000860152610c878282610bf8565b91505060208301518482036020860152610ca18282610a9a565b9150508091505092915050565b610cb781610e7d565b82525050565b60006060820190508181036000830152610cd78186610c31565b90508181036020830152610ceb8185610af8565b90508181036040830152610cff8184610b56565b9050949350505050565b6000602082019050610d1e6000830184610cae565b92915050565b6000606082019050610d396000830188610cae565b8181036020830152610d4c818688610bcb565b90508181036040830152610d61818486610a3d565b90509695505050505050565b6000819050919050565b6000819050602082019050919050565b6000819050602082019050919050565b600081519050919050565b600081519050919050565b600081519050919050565b6000602082019050919050565b6000602082019050919050565b6000602082019050919050565b600082825260208201905092915050565b600082825260208201905092915050565b600082825260208201905092915050565b600082825260208201905092915050565b600082825260208201905092915050565b6000610e43602084018461081d565b905092915050565b6000610e5682610e5d565b9050919050565b600073ffffffffffffffffffffffffffffffffffffffff82169050919050565b6000819050919050565b82818337600083830152505050565b60005b83811015610eb4578082015181840152602081019050610e99565b83811115610ec3576000848401525b50505050565b60006002820490506001821680610ee157607f821691505b60208210811415610ef557610ef4610f73565b5b50919050565b6000610f0682610e7d565b91507fffffffffffffffffffffffffffffffffffffffffffffffffffffffffffffffff821415610f3957610f38610f44565b5b600182019050919050565b7f4e487b7100000000000000000000000000000000000000000000000000000000600052601160045260246000fd5b7f4e487b7100000000000000000000000000000000000000000000000000000000600052602260045260246000fd5b6000601f19601f8301169050919050565b610fbc81610e4b565b8114610fc757600080fd5b50565b610fd381610e7d565b8114610fde57600080fd5b5056fea2646970667358221220566ae73efc008152beb2b4e65357bb0ad69bbdba238a9b8fa854a120a27488a364736f6c63430008000033",
  "immutableReferences": {},
  "source": "// SPDX-License-Identifier: MIT\npragma solidity ^0.8.0;\n\nimport \"../node_modules/@openzeppelin/contracts/utils/math/SafeMath.sol\";\n\nstruct Crowdfund {\n  uint goalAmount;\n  uint deadline;\n  uint amountRaised;\n  // tracks supporters and their donated amounts\n  mapping (address => uint) supporters;\n}\n\nstruct Payroll {\n  // uint represents contributor payment amount\n  mapping (address => uint) contributors;\n  // uint represents mentor payment amount\n  mapping (address => uint) mentors;\n  // string is (contributor; mentor; creator) and uint is % of a payment they receive\n  mapping (string => uint) distributionRates;\n  // the balance of the payroll\n  uint balance;\n}\n\n/**\n * The main contract of the app\n */\ncontract AgorumTracker {\n  // an Agorum object\n  struct Agorum {\n    string name;\n    address payable[] agorumCreators;\n    Course[] courses;\n    Payroll payroll;\n    Crowdfund crowdfund;\n  }\n\n  // an agorum has at least 1 course\n  struct Course {\n    string title;\n    address payable[] courseCreators;\n  }\n\n  // contract state variables\n  uint public numAgorums;\n  // tracker of all agorums, mapping AgorumID to Agorum struct\n  mapping (uint => Agorum) agorums;\n  address owner;\n\n  // set the contract owner to be the deployer\n  constructor () {\n    owner = msg.sender;\n  }\n\n  /**\n   * @dev Checks for message sender is one of the Agorum creators\n   * @param agorumCreators array of addresses of the creators\n   */\n  modifier onlyCreator(address payable[] memory agorumCreators) {\n    // loop through agorum's creators until one is found\n    bool creator = false;\n    uint index = 0;\n    while (!creator && index < agorumCreators.length) {\n      if (msg.sender == agorumCreators[index]) {\n        creator = true;\n      }\n      index++;\n    }\n\n    // if creator is found, execute the function body\n    if (creator) {\n      _;\n    }\n  }\n\n  /**\n   * @dev Creates a new agorum with given name and array of creators. Adds new Agorum to the mapping tracker.\n   * @dev Since an Agorum must be composed of at least one course, a course is also created and pushed to Agorum's courses.\n   * @param _name the agorum name\n   * @param _creators address of the creators\n   * @return the new Agorum's ID\n   */\n  function createNewAgorum(string calldata _name, address payable[] calldata _creators) public returns (uint) {\n    // New Agorum receives ID of corresponding number of Agorums\n    uint agorumID = numAgorums++;\n    // Assign agorum to mapping, assigning name and creators\n    Agorum storage a = agorums[agorumID];\n    a.name = _name;\n    a.agorumCreators = _creators;\n    // create and add the corresponding course to the Agorum\n    addNewCourse(agorumID, _name, _creators);\n\n    emit AgorumCreated(agorumID, _name, _creators);\n    return agorumID;\n  }\n\n  /**\n   * @dev Add a new course to an Agorum\n   * @param _title the course title\n   * @param _courseCreators the course creators\n   * @return the newly created course\n   */\n  function _createNewCourse(string calldata _title, address payable[] calldata _courseCreators) pure internal returns (Course memory) {\n    Course memory c;\n    c.title = _title;\n    c.courseCreators = _courseCreators;\n    return c;\n  }\n\n  /**\n   * @dev Adds a new course to an Agorum\n   */\n  function addNewCourse(uint _agorumID, string calldata _name, address payable[] calldata _courseCreators) public {\n    Agorum storage a = agorums[_agorumID];\n    a.courses.push(_createNewCourse(_name, _courseCreators));\n  }\n\n  /**\n   * @dev Retrieves the metadata of an Agorum, ie, name, creators, and courses\n   * @dev Does not return Crowdfund or Payroll information\n   * @param _agorumID the ID of the Agorum\n   * @return the Agorum name, creators, and courses\n   */\n  function getAgorumMetadata(uint _agorumID) public view returns (string memory, address payable[] memory, Course[] memory) {\n    Agorum storage a = agorums[_agorumID];\n    return (a.name, a.agorumCreators, a.courses);\n  }\n\n  event AgorumCreated(uint agorumID, string name, address payable[] agorumCreators);\n}",
  "sourcePath": "/home/victor/agora/blockchain/contracts/AgorumTracker.sol",
  "compiler": {
    "name": "solc",
    "version": "0.8.0+commit.c7dfd78e.Emscripten.clang"
  },
  "schemaVersion": "3.3.4",
  "updatedAt": "2021-06-05T00:22:01.305Z",
  "devdoc": {
    "kind": "dev",
    "methods": {
      "addNewCourse(uint256,string,address[])": {
        "details": "Adds a new course to an Agorum"
      },
      "createNewAgorum(string,address[])": {
        "details": "Creates a new agorum with given name and array of creators. Adds new Agorum to the mapping tracker.Since an Agorum must be composed of at least one course, a course is also created and pushed to Agorum's courses.",
        "params": {
          "_creators": "address of the creators",
          "_name": "the agorum name"
        },
        "returns": {
          "_0": "the new Agorum's ID"
        }
      },
      "getAgorumMetadata(uint256)": {
        "details": "Retrieves the metadata of an Agorum, ie, name, creators, and coursesDoes not return Crowdfund or Payroll information",
        "params": {
          "_agorumID": "the ID of the Agorum"
        },
        "returns": {
          "_0": "the Agorum name, creators, and courses"
        }
      }
    },
    "version": 1
  },
  "userdoc": {
    "kind": "user",
    "methods": {},
    "notice": "The main contract of the app",
    "version": 1
  }
}