{
  "contractName": "Course",
  "abi": [
    {
      "inputs": [
        {
          "internalType": "string",
          "name": "_title",
          "type": "string"
        },
        {
          "internalType": "address[]",
          "name": "_creators",
          "type": "address[]"
        },
        {
          "internalType": "string",
          "name": "_description",
          "type": "string"
        },
        {
          "internalType": "string[]",
          "name": "_categoryTags",
          "type": "string[]"
        },
        {
          "internalType": "uint256",
          "name": "_createdAt",
          "type": "uint256"
        }
      ],
      "stateMutability": "nonpayable",
      "type": "constructor"
    },
    {
      "inputs": [
        {
          "internalType": "uint256",
          "name": "",
          "type": "uint256"
        }
      ],
      "name": "categoryTags",
      "outputs": [
        {
          "internalType": "string",
          "name": "",
          "type": "string"
        }
      ],
      "stateMutability": "view",
      "type": "function"
    },
    {
      "inputs": [],
      "name": "createdAt",
      "outputs": [
        {
          "internalType": "uint256",
          "name": "",
          "type": "uint256"
        }
      ],
      "stateMutability": "view",
      "type": "function"
    },
    {
      "inputs": [
        {
          "internalType": "uint256",
          "name": "",
          "type": "uint256"
        }
      ],
      "name": "creators",
      "outputs": [
        {
          "internalType": "address",
          "name": "",
          "type": "address"
        }
      ],
      "stateMutability": "view",
      "type": "function"
    },
    {
      "inputs": [],
      "name": "description",
      "outputs": [
        {
          "internalType": "string",
          "name": "",
          "type": "string"
        }
      ],
      "stateMutability": "view",
      "type": "function"
    },
    {
      "inputs": [],
      "name": "title",
      "outputs": [
        {
          "internalType": "string",
          "name": "",
          "type": "string"
        }
      ],
      "stateMutability": "view",
      "type": "function"
    },
    {
      "inputs": [],
      "name": "addCourseToAgorum",
      "outputs": [],
      "stateMutability": "nonpayable",
      "type": "function"
    }
  ],
  "bytecode": "0x60806040523480156200001157600080fd5b5060405162000cfd38038062000cfd833981810160405281019062000037919062000495565b84600090805190602001906200004f929190620000ad565b508360019080519060200190620000689291906200013e565b50826002908051906020019062000081929190620000ad565b5081600390805190602001906200009a929190620001cd565b508060048190555050505050506200077c565b828054620000bb90620006b4565b90600052602060002090601f016020900481019282620000df57600085556200012b565b82601f10620000fa57805160ff19168380011785556200012b565b828001600101855582156200012b579182015b828111156200012a5782518255916020019190600101906200010d565b5b5090506200013a919062000234565b5090565b828054828255906000526020600020908101928215620001ba579160200282015b82811115620001b95782518260006101000a81548173ffffffffffffffffffffffffffffffffffffffff021916908373ffffffffffffffffffffffffffffffffffffffff160217905550916020019190600101906200015f565b5b509050620001c9919062000234565b5090565b82805482825590600052602060002090810192821562000221579160200282015b82811115620002205782518290805190602001906200020f929190620000ad565b5091602001919060010190620001ee565b5b50905062000230919062000253565b5090565b5b808211156200024f57600081600090555060010162000235565b5090565b5b808211156200027757600081816200026d91906200027b565b5060010162000254565b5090565b5080546200028990620006b4565b6000825580601f106200029d5750620002be565b601f016020900490600052602060002090810190620002bd919062000234565b5b50565b6000620002d8620002d284620005af565b6200057b565b90508083825260208201905082856020860282011115620002f857600080fd5b60005b858110156200032c5781620003118882620003e0565b845260208401935060208301925050600181019050620002fb565b5050509392505050565b60006200034d6200034784620005de565b6200057b565b9050808382526020820190508260005b8581101562000391578151850162000376888262000451565b8452602084019350602083019250506001810190506200035d565b5050509392505050565b6000620003b2620003ac846200060d565b6200057b565b905082815260208101848484011115620003cb57600080fd5b620003d88482856200067e565b509392505050565b600081519050620003f18162000748565b92915050565b600082601f8301126200040957600080fd5b81516200041b848260208601620002c1565b91505092915050565b600082601f8301126200043657600080fd5b81516200044884826020860162000336565b91505092915050565b600082601f8301126200046357600080fd5b8151620004758482602086016200039b565b91505092915050565b6000815190506200048f8162000762565b92915050565b600080600080600060a08688031215620004ae57600080fd5b600086015167ffffffffffffffff811115620004c957600080fd5b620004d78882890162000451565b955050602086015167ffffffffffffffff811115620004f557600080fd5b6200050388828901620003f7565b945050604086015167ffffffffffffffff8111156200052157600080fd5b6200052f8882890162000451565b935050606086015167ffffffffffffffff8111156200054d57600080fd5b6200055b8882890162000424565b92505060806200056e888289016200047e565b9150509295509295909350565b6000604051905081810181811067ffffffffffffffff82111715620005a557620005a462000719565b5b8060405250919050565b600067ffffffffffffffff821115620005cd57620005cc62000719565b5b602082029050602081019050919050565b600067ffffffffffffffff821115620005fc57620005fb62000719565b5b602082029050602081019050919050565b600067ffffffffffffffff8211156200062b576200062a62000719565b5b601f19601f8301169050602081019050919050565b60006200064d8262000654565b9050919050565b600073ffffffffffffffffffffffffffffffffffffffff82169050919050565b6000819050919050565b60005b838110156200069e57808201518184015260208101905062000681565b83811115620006ae576000848401525b50505050565b60006002820490506001821680620006cd57607f821691505b60208210811415620006e457620006e3620006ea565b5b50919050565b7f4e487b7100000000000000000000000000000000000000000000000000000000600052602260045260246000fd5b7f4e487b7100000000000000000000000000000000000000000000000000000000600052604160045260246000fd5b620007538162000640565b81146200075f57600080fd5b50565b6200076d8162000674565b81146200077957600080fd5b50565b610571806200078c6000396000f3fe608060405234801561001057600080fd5b50600436106100625760003560e01c806304a9f8b9146100675780634a79d50c146100715780637284e4161461008f578063c47a6b6a146100ad578063cd53d08e146100dd578063cf09e0d01461010d575b600080fd5b61006f61012b565b005b61007961012d565b60405161008691906103ea565b60405180910390f35b6100976101bb565b6040516100a491906103ea565b60405180910390f35b6100c760048036038101906100c2919061034f565b610249565b6040516100d491906103ea565b60405180910390f35b6100f760048036038101906100f2919061034f565b6102f5565b60405161010491906103cf565b60405180910390f35b610115610334565b604051610122919061040c565b60405180910390f35b565b6000805461013a906104b2565b80601f0160208091040260200160405190810160405280929190818152602001828054610166906104b2565b80156101b35780601f10610188576101008083540402835291602001916101b3565b820191906000526020600020905b81548152906001019060200180831161019657829003601f168201915b505050505081565b600280546101c8906104b2565b80601f01602080910402602001604051908101604052809291908181526020018280546101f4906104b2565b80156102415780601f1061021657610100808354040283529160200191610241565b820191906000526020600020905b81548152906001019060200180831161022457829003601f168201915b505050505081565b6003818154811061025957600080fd5b906000526020600020016000915090508054610274906104b2565b80601f01602080910402602001604051908101604052809291908181526020018280546102a0906104b2565b80156102ed5780601f106102c2576101008083540402835291602001916102ed565b820191906000526020600020905b8154815290600101906020018083116102d057829003601f168201915b505050505081565b6001818154811061030557600080fd5b906000526020600020016000915054906101000a900473ffffffffffffffffffffffffffffffffffffffff1681565b60045481565b60008135905061034981610524565b92915050565b60006020828403121561036157600080fd5b600061036f8482850161033a565b91505092915050565b61038181610443565b82525050565b600061039282610427565b61039c8185610432565b93506103ac81856020860161047f565b6103b581610513565b840191505092915050565b6103c981610475565b82525050565b60006020820190506103e46000830184610378565b92915050565b600060208201905081810360008301526104048184610387565b905092915050565b600060208201905061042160008301846103c0565b92915050565b600081519050919050565b600082825260208201905092915050565b600061044e82610455565b9050919050565b600073ffffffffffffffffffffffffffffffffffffffff82169050919050565b6000819050919050565b60005b8381101561049d578082015181840152602081019050610482565b838111156104ac576000848401525b50505050565b600060028204905060018216806104ca57607f821691505b602082108114156104de576104dd6104e4565b5b50919050565b7f4e487b7100000000000000000000000000000000000000000000000000000000600052602260045260246000fd5b6000601f19601f8301169050919050565b61052d81610475565b811461053857600080fd5b5056fea26469706673582212203d2cefce79a5062b7b7cf4e14b38514297209be0c96c65be27ec61d4caa95a1664736f6c63430008000033",
  "immutableReferences": {},
  "source": "// SPDX-License-Identifier: GPL-3.0\npragma solidity ^0.8.0;\n\ncontract Course {\n  // state variables\n  string public title;\n  address[] public creators;\n  string public description;\n  string[] public categoryTags;\n  uint public createdAt;\n\n  constructor (\n    string memory _title, \n    address[] memory _creators, \n    string memory _description, \n    string[] memory _categoryTags, \n    uint _createdAt) {\n      title = _title;\n      creators = _creators;\n      description = _description;\n      categoryTags = _categoryTags;\n      createdAt = _createdAt;\n  }\n\n  function addCourseToAgorum() public {\n    \n  }\n}",
  "sourcePath": "/home/victor/agora/blockchain/contracts/Course.sol",
  "compiler": {
    "name": "solc",
    "version": "0.8.0+commit.c7dfd78e.Emscripten.clang"
  },
  "schemaVersion": "3.3.4",
  "updatedAt": "2021-06-05T00:22:01.314Z",
  "devdoc": {
    "kind": "dev",
    "methods": {},
    "version": 1
  },
  "userdoc": {
    "kind": "user",
    "methods": {},
    "version": 1
  }
}