{
  "contractName": "CrowdfundManager",
  "abi": [
    {
      "anonymous": false,
      "inputs": [
        {
          "indexed": false,
          "internalType": "uint256",
          "name": "agorumID",
          "type": "uint256"
        },
        {
          "indexed": false,
          "internalType": "string",
          "name": "name",
          "type": "string"
        },
        {
          "indexed": false,
          "internalType": "address payable[]",
          "name": "agorumCreators",
          "type": "address[]"
        }
      ],
      "name": "AgorumCreated",
      "type": "event"
    },
    {
      "anonymous": false,
      "inputs": [
        {
          "indexed": true,
          "internalType": "address",
          "name": "owner",
          "type": "address"
        },
        {
          "indexed": true,
          "internalType": "address",
          "name": "spender",
          "type": "address"
        },
        {
          "indexed": false,
          "internalType": "uint256",
          "name": "value",
          "type": "uint256"
        }
      ],
      "name": "Approval",
      "type": "event"
    },
    {
      "anonymous": false,
      "inputs": [
        {
          "indexed": false,
          "internalType": "uint256",
          "name": "agorumID",
          "type": "uint256"
        },
        {
          "indexed": false,
          "internalType": "string",
          "name": "title",
          "type": "string"
        },
        {
          "indexed": false,
          "internalType": "address payable[]",
          "name": "courseCreators",
          "type": "address[]"
        }
      ],
      "name": "CourseAdded",
      "type": "event"
    },
    {
      "anonymous": false,
      "inputs": [
        {
          "indexed": false,
          "internalType": "uint256",
          "name": "id",
          "type": "uint256"
        },
        {
          "indexed": false,
          "internalType": "uint256",
          "name": "goalAmount",
          "type": "uint256"
        },
        {
          "indexed": false,
          "internalType": "uint256",
          "name": "deadline",
          "type": "uint256"
        }
      ],
      "name": "CrowdfundCreated",
      "type": "event"
    },
    {
      "anonymous": false,
      "inputs": [
        {
          "indexed": false,
          "internalType": "uint256",
          "name": "id",
          "type": "uint256"
        },
        {
          "indexed": false,
          "internalType": "uint256",
          "name": "reputationLevel",
          "type": "uint256"
        },
        {
          "indexed": false,
          "internalType": "uint256",
          "name": "mentorPaymentRate",
          "type": "uint256"
        }
      ],
      "name": "PayrollCreated",
      "type": "event"
    },
    {
      "anonymous": false,
      "inputs": [
        {
          "indexed": false,
          "internalType": "address",
          "name": "supporter",
          "type": "address"
        },
        {
          "indexed": false,
          "internalType": "uint256",
          "name": "id",
          "type": "uint256"
        },
        {
          "indexed": false,
          "internalType": "uint256",
          "name": "amount",
          "type": "uint256"
        }
      ],
      "name": "TokensDonated",
      "type": "event"
    },
    {
      "anonymous": false,
      "inputs": [
        {
          "indexed": false,
          "internalType": "uint256",
          "name": "id",
          "type": "uint256"
        },
        {
          "indexed": false,
          "internalType": "uint256",
          "name": "amount",
          "type": "uint256"
        }
      ],
      "name": "TokensReleased",
      "type": "event"
    },
    {
      "anonymous": false,
      "inputs": [
        {
          "indexed": true,
          "internalType": "address",
          "name": "from",
          "type": "address"
        },
        {
          "indexed": true,
          "internalType": "address",
          "name": "to",
          "type": "address"
        },
        {
          "indexed": false,
          "internalType": "uint256",
          "name": "value",
          "type": "uint256"
        }
      ],
      "name": "Transfer",
      "type": "event"
    },
    {
      "inputs": [
        {
          "internalType": "uint256",
          "name": "_agorumID",
          "type": "uint256"
        },
        {
          "internalType": "string",
          "name": "_name",
          "type": "string"
        },
        {
          "internalType": "address payable[]",
          "name": "_courseCreators",
          "type": "address[]"
        }
      ],
      "name": "addNewCourse",
      "outputs": [],
      "stateMutability": "nonpayable",
      "type": "function"
    },
    {
      "inputs": [
        {
          "internalType": "uint256",
          "name": "",
          "type": "uint256"
        }
      ],
      "name": "agorums",
      "outputs": [
        {
          "internalType": "string",
          "name": "name",
          "type": "string"
        }
      ],
      "stateMutability": "view",
      "type": "function",
      "constant": true
    },
    {
      "inputs": [
        {
          "internalType": "address",
          "name": "owner",
          "type": "address"
        },
        {
          "internalType": "address",
          "name": "spender",
          "type": "address"
        }
      ],
      "name": "allowance",
      "outputs": [
        {
          "internalType": "uint256",
          "name": "",
          "type": "uint256"
        }
      ],
      "stateMutability": "view",
      "type": "function",
      "constant": true
    },
    {
      "inputs": [
        {
          "internalType": "address",
          "name": "spender",
          "type": "address"
        },
        {
          "internalType": "uint256",
          "name": "amount",
          "type": "uint256"
        }
      ],
      "name": "approve",
      "outputs": [
        {
          "internalType": "bool",
          "name": "",
          "type": "bool"
        }
      ],
      "stateMutability": "nonpayable",
      "type": "function"
    },
    {
      "inputs": [
        {
          "internalType": "address",
          "name": "account",
          "type": "address"
        }
      ],
      "name": "balanceOf",
      "outputs": [
        {
          "internalType": "uint256",
          "name": "",
          "type": "uint256"
        }
      ],
      "stateMutability": "view",
      "type": "function",
      "constant": true
    },
    {
      "inputs": [
        {
          "internalType": "string",
          "name": "_name",
          "type": "string"
        },
        {
          "internalType": "address payable[]",
          "name": "_creators",
          "type": "address[]"
        },
        {
          "internalType": "uint256",
          "name": "_reputationLevel",
          "type": "uint256"
        },
        {
          "internalType": "uint256",
          "name": "_mentorPaymentRate",
          "type": "uint256"
        },
        {
          "internalType": "uint256",
          "name": "_goalAmount",
          "type": "uint256"
        },
        {
          "internalType": "uint256",
          "name": "_deadline",
          "type": "uint256"
        }
      ],
      "name": "createNewAgorum",
      "outputs": [],
      "stateMutability": "nonpayable",
      "type": "function"
    },
    {
      "inputs": [
        {
          "internalType": "uint256",
          "name": "",
          "type": "uint256"
        }
      ],
      "name": "crowdfunds",
      "outputs": [
        {
          "internalType": "uint256",
          "name": "goalAmount",
          "type": "uint256"
        },
        {
          "internalType": "uint256",
          "name": "deadline",
          "type": "uint256"
        },
        {
          "internalType": "uint256",
          "name": "createdAt",
          "type": "uint256"
        },
        {
          "internalType": "uint256",
          "name": "amountRaised",
          "type": "uint256"
        }
      ],
      "stateMutability": "view",
      "type": "function",
      "constant": true
    },
    {
      "inputs": [],
      "name": "decimals",
      "outputs": [
        {
          "internalType": "uint8",
          "name": "",
          "type": "uint8"
        }
      ],
      "stateMutability": "pure",
      "type": "function",
      "constant": true
    },
    {
      "inputs": [
        {
          "internalType": "address",
          "name": "spender",
          "type": "address"
        },
        {
          "internalType": "uint256",
          "name": "subtractedValue",
          "type": "uint256"
        }
      ],
      "name": "decreaseAllowance",
      "outputs": [
        {
          "internalType": "bool",
          "name": "",
          "type": "bool"
        }
      ],
      "stateMutability": "nonpayable",
      "type": "function"
    },
    {
      "inputs": [
        {
          "internalType": "uint256",
          "name": "_agorumID",
          "type": "uint256"
        }
      ],
      "name": "getAgorum",
      "outputs": [
        {
          "components": [
            {
              "internalType": "string",
              "name": "name",
              "type": "string"
            },
            {
              "internalType": "address payable[]",
              "name": "agorumCreators",
              "type": "address[]"
            },
            {
              "components": [
                {
                  "internalType": "string",
                  "name": "title",
                  "type": "string"
                },
                {
                  "internalType": "address payable[]",
                  "name": "courseCreators",
                  "type": "address[]"
                }
              ],
              "internalType": "struct AgorumFactory.Course[]",
              "name": "courses",
              "type": "tuple[]"
            }
          ],
          "internalType": "struct AgorumFactory.Agorum",
          "name": "",
          "type": "tuple"
        }
      ],
      "stateMutability": "view",
      "type": "function",
      "constant": true
    },
    {
      "inputs": [
        {
          "internalType": "address",
          "name": "spender",
          "type": "address"
        },
        {
          "internalType": "uint256",
          "name": "addedValue",
          "type": "uint256"
        }
      ],
      "name": "increaseAllowance",
      "outputs": [
        {
          "internalType": "bool",
          "name": "",
          "type": "bool"
        }
      ],
      "stateMutability": "nonpayable",
      "type": "function"
    },
    {
      "inputs": [],
      "name": "mintTokensOnIntroCourseCompletion",
      "outputs": [],
      "stateMutability": "nonpayable",
      "type": "function"
    },
    {
      "inputs": [],
      "name": "mintTokensOnNewLevel",
      "outputs": [],
      "stateMutability": "nonpayable",
      "type": "function"
    },
    {
      "inputs": [],
      "name": "name",
      "outputs": [
        {
          "internalType": "string",
          "name": "",
          "type": "string"
        }
      ],
      "stateMutability": "view",
      "type": "function",
      "constant": true
    },
    {
      "inputs": [],
      "name": "numAgorums",
      "outputs": [
        {
          "internalType": "uint256",
          "name": "",
          "type": "uint256"
        }
      ],
      "stateMutability": "view",
      "type": "function",
      "constant": true
    },
    {
      "inputs": [
        {
          "internalType": "uint256",
          "name": "",
          "type": "uint256"
        }
      ],
      "name": "payrolls",
      "outputs": [
        {
          "internalType": "uint256",
          "name": "mentorReputationLevel",
          "type": "uint256"
        },
        {
          "internalType": "uint256",
          "name": "mentorPaymentRate",
          "type": "uint256"
        },
        {
          "internalType": "uint256",
          "name": "balance",
          "type": "uint256"
        }
      ],
      "stateMutability": "view",
      "type": "function",
      "constant": true
    },
    {
      "inputs": [],
      "name": "symbol",
      "outputs": [
        {
          "internalType": "string",
          "name": "",
          "type": "string"
        }
      ],
      "stateMutability": "view",
      "type": "function",
      "constant": true
    },
    {
      "inputs": [],
      "name": "totalSupply",
      "outputs": [
        {
          "internalType": "uint256",
          "name": "",
          "type": "uint256"
        }
      ],
      "stateMutability": "view",
      "type": "function",
      "constant": true
    },
    {
      "inputs": [
        {
          "internalType": "address",
          "name": "recipient",
          "type": "address"
        },
        {
          "internalType": "uint256",
          "name": "amount",
          "type": "uint256"
        }
      ],
      "name": "transfer",
      "outputs": [
        {
          "internalType": "bool",
          "name": "",
          "type": "bool"
        }
      ],
      "stateMutability": "nonpayable",
      "type": "function"
    },
    {
      "inputs": [
        {
          "internalType": "address",
          "name": "sender",
          "type": "address"
        },
        {
          "internalType": "address",
          "name": "recipient",
          "type": "address"
        },
        {
          "internalType": "uint256",
          "name": "amount",
          "type": "uint256"
        }
      ],
      "name": "transferFrom",
      "outputs": [
        {
          "internalType": "bool",
          "name": "",
          "type": "bool"
        }
      ],
      "stateMutability": "nonpayable",
      "type": "function"
    },
    {
      "inputs": [
        {
          "internalType": "uint256",
          "name": "_id",
          "type": "uint256"
        },
        {
          "internalType": "uint256",
          "name": "_amount",
          "type": "uint256"
        }
      ],
      "name": "contributeTokens",
      "outputs": [],
      "stateMutability": "nonpayable",
      "type": "function"
    },
    {
      "inputs": [
        {
          "internalType": "uint256",
          "name": "_id",
          "type": "uint256"
        }
      ],
      "name": "releaseTokensToCreators",
      "outputs": [],
      "stateMutability": "nonpayable",
      "type": "function"
    },
    {
      "inputs": [
        {
          "internalType": "uint256",
          "name": "_id",
          "type": "uint256"
        }
      ],
      "name": "getDeadline",
      "outputs": [
        {
          "internalType": "uint256",
          "name": "",
          "type": "uint256"
        }
      ],
      "stateMutability": "view",
      "type": "function",
      "constant": true
    },
    {
      "inputs": [
        {
          "internalType": "uint256",
          "name": "_id",
          "type": "uint256"
        }
      ],
      "name": "getAmountRaised",
      "outputs": [
        {
          "internalType": "uint256",
          "name": "",
          "type": "uint256"
        }
      ],
      "stateMutability": "view",
      "type": "function",
      "constant": true
    },
    {
      "inputs": [
        {
          "internalType": "uint256",
          "name": "_id",
          "type": "uint256"
        }
      ],
      "name": "getGoalAmount",
      "outputs": [
        {
          "internalType": "uint256",
          "name": "",
          "type": "uint256"
        }
      ],
      "stateMutability": "view",
      "type": "function",
      "constant": true
    }
  ],
  "bytecode": "0x608060405260006008553480156200001657600080fd5b506040518060400160405280600a81526020017f41676f7261546f6b656e000000000000000000000000000000000000000000008152506040518060400160405280600381526020017f41474f000000000000000000000000000000000000000000000000000000000081525081600390805190602001906200009b929190620000bd565b508060049080519060200190620000b4929190620000bd565b505050620001d2565b828054620000cb906200016d565b90600052602060002090601f016020900481019282620000ef57600085556200013b565b82601f106200010a57805160ff19168380011785556200013b565b828001600101855582156200013b579182015b828111156200013a5782518255916020019190600101906200011d565b5b5090506200014a91906200014e565b5090565b5b80821115620001695760008160009055506001016200014f565b5090565b600060028204905060018216806200018657607f821691505b602082108114156200019d576200019c620001a3565b5b50919050565b7f4e487b7100000000000000000000000000000000000000000000000000000000600052602260045260246000fd5b612d0c80620001e26000396000f3fe608060405234801561001057600080fd5b50600436106101735760003560e01c8063641805ff116100de578063a9059cbb11610097578063dd62ed3e11610071578063dd62ed3e146104b3578063eb8216cb146104e3578063f7e9fd45146104ff578063fa4fd95c1461051b57610173565b8063a9059cbb14610446578063ac42b1d614610476578063d7b6f489146104a957610173565b8063641805ff1461033857806370a08231146103685780637f8ec4b21461039857806382862275146103c857806395d89b41146103f8578063a457c2d71461041657610173565b8063313ce56711610130578063313ce5671461023c578063336ab3971461025a5780633840511f1461028a57806339509351146102ba5780635632b1fa146102ea5780635b8cd8cf1461031c57610173565b806306fdde0314610178578063095ea7b3146101965780630c86254a146101c657806314690ba8146101d057806318160ddd146101ee57806323b872dd1461020c575b600080fd5b610180610537565b60405161018d919061270e565b60405180910390f35b6101b060048036038101906101ab9190611e77565b6105c9565b6040516101bd91906126f3565b60405180910390f35b6101ce6105e7565b005b6101d86105f4565b6040516101e59190612872565b60405180910390f35b6101f66105fa565b6040516102039190612872565b60405180910390f35b61022660048036038101906102219190611e28565b610604565b60405161023391906126f3565b60405180910390f35b610244610705565b604051610251919061297b565b60405180910390f35b610274600480360381019061026f9190611f76565b61070e565b6040516102819190612850565b60405180910390f35b6102a4600480360381019061029f9190611f76565b6109da565b6040516102b1919061270e565b60405180910390f35b6102d460048036038101906102cf9190611e77565b610a80565b6040516102e191906126f3565b60405180910390f35b61030460048036038101906102ff9190611f76565b610b2c565b604051610313939291906128ff565b60405180910390f35b61033660048036038101906103319190612028565b610b56565b005b610352600480360381019061034d9190611f76565b610c0a565b60405161035f9190612872565b60405180910390f35b610382600480360381019061037d9190611dc3565b610c2a565b60405161038f9190612872565b60405180910390f35b6103b260048036038101906103ad9190611f76565b610c72565b6040516103bf9190612872565b60405180910390f35b6103e260048036038101906103dd9190611f76565b610c92565b6040516103ef9190612872565b60405180910390f35b610400610cb2565b60405161040d919061270e565b60405180910390f35b610430600480360381019061042b9190611e77565b610d44565b60405161043d91906126f3565b60405180910390f35b610460600480360381019061045b9190611e77565b610e38565b60405161046d91906126f3565b60405180910390f35b610490600480360381019061048b9190611f76565b610e56565b6040516104a09493929190612936565b60405180910390f35b6104b1610e86565b005b6104cd60048036038101906104c89190611dec565b610e93565b6040516104da9190612872565b60405180910390f35b6104fd60048036038101906104f89190611f76565b610f1a565b005b61051960048036038101906105149190611f9f565b61111e565b005b61053560048036038101906105309190611eb3565b6111f1565b005b60606003805461054690612ba7565b80601f016020809104026020016040519081016040528092919081815260200182805461057290612ba7565b80156105bf5780601f10610594576101008083540402835291602001916105bf565b820191906000526020600020905b8154815290600101906020018083116105a257829003601f168201915b5050505050905090565b60006105dd6105d66112c5565b84846112cd565b6001905092915050565b6105f2336064611498565b565b60085481565b6000600254905090565b60006106118484846115ec565b6000600160008673ffffffffffffffffffffffffffffffffffffffff1673ffffffffffffffffffffffffffffffffffffffff168152602001908152602001600020600061065c6112c5565b73ffffffffffffffffffffffffffffffffffffffff1673ffffffffffffffffffffffffffffffffffffffff168152602001908152602001600020549050828110156106dc576040517f08c379a00000000000000000000000000000000000000000000000000000000081526004016106d3906127b0565b60405180910390fd5b6106f9856106e86112c5565b85846106f49190612aca565b6112cd565b60019150509392505050565b60006002905090565b610716611a62565b6007600083815260200190815260200160002060405180606001604052908160008201805461074490612ba7565b80601f016020809104026020016040519081016040528092919081815260200182805461077090612ba7565b80156107bd5780601f10610792576101008083540402835291602001916107bd565b820191906000526020600020905b8154815290600101906020018083116107a057829003601f168201915b505050505081526020016001820180548060200260200160405190810160405280929190818152602001828054801561084b57602002820191906000526020600020905b8160009054906101000a900473ffffffffffffffffffffffffffffffffffffffff1673ffffffffffffffffffffffffffffffffffffffff1681526020019060010190808311610801575b5050505050815260200160028201805480602002602001604051908101604052809291908181526020016000905b828210156109cb57838290600052602060002090600202016040518060400160405290816000820180546108ac90612ba7565b80601f01602080910402602001604051908101604052809291908181526020018280546108d890612ba7565b80156109255780601f106108fa57610100808354040283529160200191610925565b820191906000526020600020905b81548152906001019060200180831161090857829003601f168201915b50505050508152602001600182018054806020026020016040519081016040528092919081815260200182805480156109b357602002820191906000526020600020905b8160009054906101000a900473ffffffffffffffffffffffffffffffffffffffff1673ffffffffffffffffffffffffffffffffffffffff1681526020019060010190808311610969575b50505050508152505081526020019060010190610879565b50505050815250509050919050565b60076020528060005260406000206000915090508060000180546109fd90612ba7565b80601f0160208091040260200160405190810160405280929190818152602001828054610a2990612ba7565b8015610a765780601f10610a4b57610100808354040283529160200191610a76565b820191906000526020600020905b815481529060010190602001808311610a5957829003601f168201915b5050505050905081565b6000610b22610a8d6112c5565b848460016000610a9b6112c5565b73ffffffffffffffffffffffffffffffffffffffff1673ffffffffffffffffffffffffffffffffffffffff16815260200190815260200160002060008873ffffffffffffffffffffffffffffffffffffffff1673ffffffffffffffffffffffffffffffffffffffff16815260200190815260200160002054610b1d9190612a74565b6112cd565b6001905092915050565b60056020528060005260406000206000915090508060000154908060010154908060020154905083565b610b603082610e38565b5080600660008481526020019081526020016000206003016000828254610b879190612a74565b925050819055506006600083815260200190815260200160002060000154600660008481526020019081526020016000206003015410610bcb57610bca82610f1a565b5b7f0cabbaf4cbd324538c5a7b7333e1b354e0cbdad357129fffdc4c22e49d7e9f3b338383604051610bfe939291906126bc565b60405180910390a15050565b600060066000838152602001908152602001600020600301549050919050565b60008060008373ffffffffffffffffffffffffffffffffffffffff1673ffffffffffffffffffffffffffffffffffffffff168152602001908152602001600020549050919050565b600060066000838152602001908152602001600020600001549050919050565b600060066000838152602001908152602001600020600101549050919050565b606060048054610cc190612ba7565b80601f0160208091040260200160405190810160405280929190818152602001828054610ced90612ba7565b8015610d3a5780601f10610d0f57610100808354040283529160200191610d3a565b820191906000526020600020905b815481529060010190602001808311610d1d57829003601f168201915b5050505050905090565b60008060016000610d536112c5565b73ffffffffffffffffffffffffffffffffffffffff1673ffffffffffffffffffffffffffffffffffffffff16815260200190815260200160002060008573ffffffffffffffffffffffffffffffffffffffff1673ffffffffffffffffffffffffffffffffffffffff16815260200190815260200160002054905082811015610e10576040517f08c379a0000000000000000000000000000000000000000000000000000000008152600401610e0790612810565b60405180910390fd5b610e2d610e1b6112c5565b858584610e289190612aca565b6112cd565b600191505092915050565b6000610e4c610e456112c5565b84846115ec565b6001905092915050565b60066020528060005260406000206000915090508060000154908060010154908060020154908060030154905084565b610e9133600a611498565b565b6000600160008473ffffffffffffffffffffffffffffffffffffffff1673ffffffffffffffffffffffffffffffffffffffff16815260200190815260200160002060008373ffffffffffffffffffffffffffffffffffffffff1673ffffffffffffffffffffffffffffffffffffffff16815260200190815260200160002054905092915050565b60076000828152602001908152602001600020600101805480602002602001604051908101604052809291908181526020018280548015610fb057602002820191906000526020600020905b8160009054906101000a900473ffffffffffffffffffffffffffffffffffffffff1673ffffffffffffffffffffffffffffffffffffffff1681526020019060010190808311610f66575b50505050506000805b81158015610fc75750825181105b1561105857828181518110611005577f4e487b7100000000000000000000000000000000000000000000000000000000600052603260045260246000fd5b602002602001015173ffffffffffffffffffffffffffffffffffffffff163373ffffffffffffffffffffffffffffffffffffffff16141561104557600191505b808061105090612bd9565b915050610fb9565b8115611118576000600660008681526020019081526020016000209050806001015481600201544261108a9190612aca565b116110ca576040517f08c379a00000000000000000000000000000000000000000000000000000000081526004016110c190612770565b60405180910390fd5b6110d8308260030154610e38565b507f06bfc9e66ca14afa6b27c5211d92e2453d2007b51cd69146f7d2b2b5654cf2b985826003015460405161110e9291906128d6565b60405180910390a1505b50505050565b6000600760008781526020019081526020016000209050806002016111458686868661186b565b9080600181540180825580915050600190039060005260206000209060020201600090919091909150600082015181600001908051906020019061118a929190611a83565b5060208201518160010190805190602001906111a7929190611b09565b5050507ffd2460ade19a645be21837aae3f27f9894e25dbc372959960f483e385d9c739a86868686866040516111e195949392919061288d565b60405180910390a1505050505050565b60006008600081548092919061120690612bd9565b9190505590508888600760008481526020019081526020016000206000019190611231929190611b93565b508686600760008481526020019081526020016000206001019190611257929190611c19565b50611265818a8a8a8a61111e565b61127081868661191e565b61127b8184846119b0565b7f63842ce14e9db32f1d6590c10bed8be6950c3d5ba6219cd550a3f3711ec26ba2818a8a8a8a6040516112b295949392919061288d565b60405180910390a1505050505050505050565b600033905090565b600073ffffffffffffffffffffffffffffffffffffffff168373ffffffffffffffffffffffffffffffffffffffff16141561133d576040517f08c379a0000000000000000000000000000000000000000000000000000000008152600401611334906127f0565b60405180910390fd5b600073ffffffffffffffffffffffffffffffffffffffff168273ffffffffffffffffffffffffffffffffffffffff1614156113ad576040517f08c379a00000000000000000000000000000000000000000000000000000000081526004016113a490612750565b60405180910390fd5b80600160008573ffffffffffffffffffffffffffffffffffffffff1673ffffffffffffffffffffffffffffffffffffffff16815260200190815260200160002060008473ffffffffffffffffffffffffffffffffffffffff1673ffffffffffffffffffffffffffffffffffffffff168152602001908152602001600020819055508173ffffffffffffffffffffffffffffffffffffffff168373ffffffffffffffffffffffffffffffffffffffff167f8c5be1e5ebec7d5bd14f71427d1e84f3dd0314c0f7b2291e5b200ac8c7c3b9258360405161148b9190612872565b60405180910390a3505050565b600073ffffffffffffffffffffffffffffffffffffffff168273ffffffffffffffffffffffffffffffffffffffff161415611508576040517f08c379a00000000000000000000000000000000000000000000000000000000081526004016114ff90612830565b60405180910390fd5b61151460008383611a5d565b80600260008282546115269190612a74565b92505081905550806000808473ffffffffffffffffffffffffffffffffffffffff1673ffffffffffffffffffffffffffffffffffffffff168152602001908152602001600020600082825461157b9190612a74565b925050819055508173ffffffffffffffffffffffffffffffffffffffff16600073ffffffffffffffffffffffffffffffffffffffff167fddf252ad1be2c89b69c2b068fc378daa952ba7f163c4a11628f55a4df523b3ef836040516115e09190612872565b60405180910390a35050565b600073ffffffffffffffffffffffffffffffffffffffff168373ffffffffffffffffffffffffffffffffffffffff16141561165c576040517f08c379a0000000000000000000000000000000000000000000000000000000008152600401611653906127d0565b60405180910390fd5b600073ffffffffffffffffffffffffffffffffffffffff168273ffffffffffffffffffffffffffffffffffffffff1614156116cc576040517f08c379a00000000000000000000000000000000000000000000000000000000081526004016116c390612730565b60405180910390fd5b6116d7838383611a5d565b60008060008573ffffffffffffffffffffffffffffffffffffffff1673ffffffffffffffffffffffffffffffffffffffff1681526020019081526020016000205490508181101561175d576040517f08c379a000000000000000000000000000000000000000000000000000000000815260040161175490612790565b60405180910390fd5b81816117699190612aca565b6000808673ffffffffffffffffffffffffffffffffffffffff1673ffffffffffffffffffffffffffffffffffffffff16815260200190815260200160002081905550816000808573ffffffffffffffffffffffffffffffffffffffff1673ffffffffffffffffffffffffffffffffffffffff16815260200190815260200160002060008282546117f99190612a74565b925050819055508273ffffffffffffffffffffffffffffffffffffffff168473ffffffffffffffffffffffffffffffffffffffff167fddf252ad1be2c89b69c2b068fc378daa952ba7f163c4a11628f55a4df523b3ef8460405161185d9190612872565b60405180910390a350505050565b611873611cb9565b61187b611cb9565b85858080601f016020809104026020016040519081016040528093929190818152602001838380828437600081840152601f19601f820116905080830192505050505050508160000181905250838380806020026020016040519081016040528093929190818152602001838360200280828437600081840152601f19601f82011690508083019250505050505050816020018190525080915050949350505050565b816005600085815260200190815260200160002060000181905550806005600085815260200190815260200160002060010181905550600060056000858152602001908152602001600020600201819055507f49ac77dfe864b99940ef23e5879ce2aa0e5c007e8ac6edd1f9cfef4421171b5a8383836040516119a3939291906128ff565b60405180910390a1505050565b816006600085815260200190815260200160002060000181905550806006600085815260200190815260200160002060010181905550600060066000858152602001908152602001600020600301819055504260066000858152602001908152602001600020600201819055507ff6770204747583255b89dd40c6f63c3e312d0bc558b0ee72452d7012eb9e058a838383604051611a50939291906128ff565b60405180910390a1505050565b505050565b60405180606001604052806060815260200160608152602001606081525090565b828054611a8f90612ba7565b90600052602060002090601f016020900481019282611ab15760008555611af8565b82601f10611aca57805160ff1916838001178555611af8565b82800160010185558215611af8579182015b82811115611af7578251825591602001919060010190611adc565b5b509050611b059190611cd3565b5090565b828054828255906000526020600020908101928215611b82579160200282015b82811115611b815782518260006101000a81548173ffffffffffffffffffffffffffffffffffffffff021916908373ffffffffffffffffffffffffffffffffffffffff16021790555091602001919060010190611b29565b5b509050611b8f9190611cd3565b5090565b828054611b9f90612ba7565b90600052602060002090601f016020900481019282611bc15760008555611c08565b82601f10611bda57803560ff1916838001178555611c08565b82800160010185558215611c08579182015b82811115611c07578235825591602001919060010190611bec565b5b509050611c159190611cd3565b5090565b828054828255906000526020600020908101928215611ca8579160200282015b82811115611ca757823573ffffffffffffffffffffffffffffffffffffffff168260006101000a81548173ffffffffffffffffffffffffffffffffffffffff021916908373ffffffffffffffffffffffffffffffffffffffff16021790555091602001919060010190611c39565b5b509050611cb59190611cd3565b5090565b604051806040016040528060608152602001606081525090565b5b80821115611cec576000816000905550600101611cd4565b5090565b600081359050611cff81612c91565b92915050565b600081359050611d1481612ca8565b92915050565b60008083601f840112611d2c57600080fd5b8235905067ffffffffffffffff811115611d4557600080fd5b602083019150836020820283011115611d5d57600080fd5b9250929050565b60008083601f840112611d7657600080fd5b8235905067ffffffffffffffff811115611d8f57600080fd5b602083019150836001820283011115611da757600080fd5b9250929050565b600081359050611dbd81612cbf565b92915050565b600060208284031215611dd557600080fd5b6000611de384828501611cf0565b91505092915050565b60008060408385031215611dff57600080fd5b6000611e0d85828601611cf0565b9250506020611e1e85828601611cf0565b9150509250929050565b600080600060608486031215611e3d57600080fd5b6000611e4b86828701611cf0565b9350506020611e5c86828701611cf0565b9250506040611e6d86828701611dae565b9150509250925092565b60008060408385031215611e8a57600080fd5b6000611e9885828601611cf0565b9250506020611ea985828601611dae565b9150509250929050565b60008060008060008060008060c0898b031215611ecf57600080fd5b600089013567ffffffffffffffff811115611ee957600080fd5b611ef58b828c01611d64565b9850985050602089013567ffffffffffffffff811115611f1457600080fd5b611f208b828c01611d1a565b96509650506040611f338b828c01611dae565b9450506060611f448b828c01611dae565b9350506080611f558b828c01611dae565b92505060a0611f668b828c01611dae565b9150509295985092959890939650565b600060208284031215611f8857600080fd5b6000611f9684828501611dae565b91505092915050565b600080600080600060608688031215611fb757600080fd5b6000611fc588828901611dae565b955050602086013567ffffffffffffffff811115611fe257600080fd5b611fee88828901611d64565b9450945050604086013567ffffffffffffffff81111561200d57600080fd5b61201988828901611d1a565b92509250509295509295909350565b6000806040838503121561203b57600080fd5b600061204985828601611dae565b925050602061205a85828601611dae565b9150509250929050565b60006120708383612090565b60208301905092915050565b6000612088838361265a565b905092915050565b61209981612b10565b82525050565b6120a881612afe565b82525050565b60006120ba8385612a19565b93506120c582612996565b8060005b858110156120fe576120db8284612a5d565b6120e58882612064565b97506120f0836129e1565b9250506001810190506120c9565b5085925050509392505050565b6000612116826129c0565b6121208185612a08565b935061212b836129a0565b8060005b8381101561215c5781516121438882612064565b975061214e836129ee565b92505060018101905061212f565b5085935050505092915050565b6000612174826129cb565b61217e8185612a2a565b935083602082028501612190856129b0565b8060005b858110156121cc57848403895281516121ad858261207c565b94506121b8836129fb565b925060208a01995050600181019050612194565b50829750879550505050505092915050565b6121e781612b22565b82525050565b60006121f98385612a4c565b9350612206838584612b65565b61220f83612c80565b840190509392505050565b6000612225826129d6565b61222f8185612a3b565b935061223f818560208601612b74565b61224881612c80565b840191505092915050565b600061225e826129d6565b6122688185612a4c565b9350612278818560208601612b74565b61228181612c80565b840191505092915050565b6000612299602383612a4c565b91507f45524332303a207472616e7366657220746f20746865207a65726f206164647260008301527f65737300000000000000000000000000000000000000000000000000000000006020830152604082019050919050565b60006122ff602283612a4c565b91507f45524332303a20617070726f766520746f20746865207a65726f20616464726560008301527f73730000000000000000000000000000000000000000000000000000000000006020830152604082019050919050565b6000612365602683612a4c565b91507f43726f776466756e6420646561646c696e6520686173206e6f7420657870697260008301527f65642079657400000000000000000000000000000000000000000000000000006020830152604082019050919050565b60006123cb602683612a4c565b91507f45524332303a207472616e7366657220616d6f756e742065786365656473206260008301527f616c616e636500000000000000000000000000000000000000000000000000006020830152604082019050919050565b6000612431602883612a4c565b91507f45524332303a207472616e7366657220616d6f756e742065786365656473206160008301527f6c6c6f77616e63650000000000000000000000000000000000000000000000006020830152604082019050919050565b6000612497602583612a4c565b91507f45524332303a207472616e736665722066726f6d20746865207a65726f20616460008301527f64726573730000000000000000000000000000000000000000000000000000006020830152604082019050919050565b60006124fd602483612a4c565b91507f45524332303a20617070726f76652066726f6d20746865207a65726f2061646460008301527f72657373000000000000000000000000000000000000000000000000000000006020830152604082019050919050565b6000612563602583612a4c565b91507f45524332303a2064656372656173656420616c6c6f77616e63652062656c6f7760008301527f207a65726f0000000000000000000000000000000000000000000000000000006020830152604082019050919050565b60006125c9601f83612a4c565b91507f45524332303a206d696e7420746f20746865207a65726f2061646472657373006000830152602082019050919050565b60006060830160008301518482036000860152612619828261221a565b91505060208301518482036020860152612633828261210b565b9150506040830151848203604086015261264d8282612169565b9150508091505092915050565b60006040830160008301518482036000860152612677828261221a565b91505060208301518482036020860152612691828261210b565b9150508091505092915050565b6126a781612b4e565b82525050565b6126b681612b58565b82525050565b60006060820190506126d1600083018661209f565b6126de602083018561269e565b6126eb604083018461269e565b949350505050565b600060208201905061270860008301846121de565b92915050565b600060208201905081810360008301526127288184612253565b905092915050565b600060208201905081810360008301526127498161228c565b9050919050565b60006020820190508181036000830152612769816122f2565b9050919050565b6000602082019050818103600083015261278981612358565b9050919050565b600060208201905081810360008301526127a9816123be565b9050919050565b600060208201905081810360008301526127c981612424565b9050919050565b600060208201905081810360008301526127e98161248a565b9050919050565b60006020820190508181036000830152612809816124f0565b9050919050565b6000602082019050818103600083015261282981612556565b9050919050565b60006020820190508181036000830152612849816125bc565b9050919050565b6000602082019050818103600083015261286a81846125fc565b905092915050565b6000602082019050612887600083018461269e565b92915050565b60006060820190506128a2600083018861269e565b81810360208301526128b58186886121ed565b905081810360408301526128ca8184866120ae565b90509695505050505050565b60006040820190506128eb600083018561269e565b6128f8602083018461269e565b9392505050565b6000606082019050612914600083018661269e565b612921602083018561269e565b61292e604083018461269e565b949350505050565b600060808201905061294b600083018761269e565b612958602083018661269e565b612965604083018561269e565b612972606083018461269e565b95945050505050565b600060208201905061299060008301846126ad565b92915050565b6000819050919050565b6000819050602082019050919050565b6000819050602082019050919050565b600081519050919050565b600081519050919050565b600081519050919050565b6000602082019050919050565b6000602082019050919050565b6000602082019050919050565b600082825260208201905092915050565b600082825260208201905092915050565b600082825260208201905092915050565b600082825260208201905092915050565b600082825260208201905092915050565b6000612a6c6020840184611d05565b905092915050565b6000612a7f82612b4e565b9150612a8a83612b4e565b9250827fffffffffffffffffffffffffffffffffffffffffffffffffffffffffffffffff03821115612abf57612abe612c22565b5b828201905092915050565b6000612ad582612b4e565b9150612ae083612b4e565b925082821015612af357612af2612c22565b5b828203905092915050565b6000612b0982612b2e565b9050919050565b6000612b1b82612b2e565b9050919050565b60008115159050919050565b600073ffffffffffffffffffffffffffffffffffffffff82169050919050565b6000819050919050565b600060ff82169050919050565b82818337600083830152505050565b60005b83811015612b92578082015181840152602081019050612b77565b83811115612ba1576000848401525b50505050565b60006002820490506001821680612bbf57607f821691505b60208210811415612bd357612bd2612c51565b5b50919050565b6000612be482612b4e565b91507fffffffffffffffffffffffffffffffffffffffffffffffffffffffffffffffff821415612c1757612c16612c22565b5b600182019050919050565b7f4e487b7100000000000000000000000000000000000000000000000000000000600052601160045260246000fd5b7f4e487b7100000000000000000000000000000000000000000000000000000000600052602260045260246000fd5b6000601f19601f8301169050919050565b612c9a81612afe565b8114612ca557600080fd5b50565b612cb181612b10565b8114612cbc57600080fd5b50565b612cc881612b4e565b8114612cd357600080fd5b5056fea26469706673582212208856e18c5eb02d6a443401cceeb348fc2200c18f0ed94347df018c39a8a43c1964736f6c63430008000033",
  "immutableReferences": {},
  "source": "// SPDX-License-Identifier: GPL-3.0\npragma solidity ^0.8.0;\n\nimport \"./AGOToken.sol\";\nimport \"./AgorumFactory.sol\";\n\n// REFUND is not a feature currently, but may be added later\ncontract CrowdfundManager is AGOToken, AgorumFactory {\n\n  // donates tokens from user to the crowdfund\n  function contributeTokens(uint _id, uint _amount) public {\n    // transfer tokens from user to crowdfundmanager contract\n    transfer(address(this), _amount);\n    // add tokens to nominal balance\n    crowdfunds[_id].amountRaised += _amount;\n\n    // if goalAmount is reached, automatically release funds (may remove this functionality)\n    if (crowdfunds[_id].amountRaised >= crowdfunds[_id].goalAmount) {\n      releaseTokensToCreators(_id);\n    }\n\n    emit TokensDonated(msg.sender, _id, _amount);\n  }\n\n  // releases the tokens to the creators once deadline has passed\n  function releaseTokensToCreators(uint _id) public onlyCreator(agorums[_id].agorumCreators) {\n    Crowdfund storage crowdfund = crowdfunds[_id];\n    // require deadline to have passed\n    require(block.timestamp - crowdfund.createdAt > crowdfund.deadline, \"Crowdfund deadline has not expired yet\");\n    \n    // transfer tokens from CrowdfundManager contract to msg.sender\n    transfer(address(this), crowdfund.amountRaised);\n\n    emit TokensReleased(_id, crowdfund.amountRaised);\n  }\n\n  // get the deadline\n  function getDeadline(uint _id) public view returns (uint) {\n    return crowdfunds[_id].deadline;\n  }\n\n  // get the current amount raised\n  function getAmountRaised(uint _id) public view returns (uint) {\n    return crowdfunds[_id].amountRaised;\n  }\n\n  // get the goal amount\n  function getGoalAmount(uint _id) public view returns (uint) {\n    return crowdfunds[_id].goalAmount;\n  }\n\n  event TokensDonated(address supporter, uint id, uint amount);\n  event TokensReleased(uint id, uint amount);\n}",
  "sourcePath": "/home/victor/agora/backend/contracts/CrowdfundManager.sol",
  "compiler": {
    "name": "solc",
    "version": "0.8.0+commit.c7dfd78e.Emscripten.clang"
  },
  "schemaVersion": "3.3.4",
  "updatedAt": "2021-07-02T13:51:03.894Z",
  "networkType": "ethereum",
  "devdoc": {
    "kind": "dev",
    "methods": {
      "addNewCourse(uint256,string,address[])": {
        "details": "Adds a new course to an Agorum"
      },
      "allowance(address,address)": {
        "details": "See {IERC20-allowance}."
      },
      "approve(address,uint256)": {
        "details": "See {IERC20-approve}. Requirements: - `spender` cannot be the zero address."
      },
      "balanceOf(address)": {
        "details": "See {IERC20-balanceOf}."
      },
      "createNewAgorum(string,address[],uint256,uint256,uint256,uint256)": {
        "details": "Creates a new agorum with given name and array of creators. Adds new Agorum to the mapping tracker.Since an Agorum must be composed of at least one course, a course is also created and pushed to Agorum's courses.",
        "params": {
          "_creators": "address of the creators",
          "_name": "the agorum name"
        }
      },
      "decimals()": {
        "details": "Sets the decimals to 2 such that token balances are displayed as (balance / 10 ** 2)"
      },
      "decreaseAllowance(address,uint256)": {
        "details": "Atomically decreases the allowance granted to `spender` by the caller. This is an alternative to {approve} that can be used as a mitigation for problems described in {IERC20-approve}. Emits an {Approval} event indicating the updated allowance. Requirements: - `spender` cannot be the zero address. - `spender` must have allowance for the caller of at least `subtractedValue`."
      },
      "increaseAllowance(address,uint256)": {
        "details": "Atomically increases the allowance granted to `spender` by the caller. This is an alternative to {approve} that can be used as a mitigation for problems described in {IERC20-approve}. Emits an {Approval} event indicating the updated allowance. Requirements: - `spender` cannot be the zero address."
      },
      "mintTokensOnIntroCourseCompletion()": {
        "details": "Mints tokens when user has complete the introductory course"
      },
      "mintTokensOnNewLevel()": {
        "details": "Mints tokens when user has reached a new level"
      },
      "name()": {
        "details": "Returns the name of the token."
      },
      "symbol()": {
        "details": "Returns the symbol of the token, usually a shorter version of the name."
      },
      "totalSupply()": {
        "details": "See {IERC20-totalSupply}."
      },
      "transfer(address,uint256)": {
        "details": "See {IERC20-transfer}. Requirements: - `recipient` cannot be the zero address. - the caller must have a balance of at least `amount`."
      },
      "transferFrom(address,address,uint256)": {
        "details": "See {IERC20-transferFrom}. Emits an {Approval} event indicating the updated allowance. This is not required by the EIP. See the note at the beginning of {ERC20}. Requirements: - `sender` and `recipient` cannot be the zero address. - `sender` must have a balance of at least `amount`. - the caller must have allowance for ``sender``'s tokens of at least `amount`."
      }
    },
    "version": 1
  },
  "userdoc": {
    "kind": "user",
    "methods": {},
    "version": 1
  }
}