{
  "contractName": "CrowdfundFactory",
  "abi": [
    {
      "anonymous": false,
      "inputs": [
        {
          "indexed": false,
          "internalType": "uint256",
          "name": "id",
          "type": "uint256"
        },
        {
          "indexed": false,
          "internalType": "uint256",
          "name": "goalAmount",
          "type": "uint256"
        },
        {
          "indexed": false,
          "internalType": "uint256",
          "name": "deadline",
          "type": "uint256"
        }
      ],
      "name": "CrowdfundCreated",
      "type": "event"
    },
    {
      "inputs": [
        {
          "internalType": "uint256",
          "name": "",
          "type": "uint256"
        }
      ],
      "name": "crowdfunds",
      "outputs": [
        {
          "internalType": "uint256",
          "name": "goalAmount",
          "type": "uint256"
        },
        {
          "internalType": "uint256",
          "name": "deadline",
          "type": "uint256"
        },
        {
          "internalType": "uint256",
          "name": "amountRaised",
          "type": "uint256"
        }
      ],
      "stateMutability": "view",
      "type": "function"
    }
  ],
  "bytecode": "0x608060405234801561001057600080fd5b50610167806100206000396000f3fe608060405234801561001057600080fd5b506004361061002b5760003560e01c8063ac42b1d614610030575b600080fd5b61004a600480360381019061004591906100a1565b610062565b604051610059939291906100d9565b60405180910390f35b60006020528060005260406000206000915090508060000154908060010154908060020154905083565b60008135905061009b8161011a565b92915050565b6000602082840312156100b357600080fd5b60006100c18482850161008c565b91505092915050565b6100d381610110565b82525050565b60006060820190506100ee60008301866100ca565b6100fb60208301856100ca565b61010860408301846100ca565b949350505050565b6000819050919050565b61012381610110565b811461012e57600080fd5b5056fea26469706673582212208b3d77f1e0b7e73571e461dd70eb5032d8efcaab8c1ae997435e04d900e71a3a64736f6c63430008000033",
  "immutableReferences": {},
  "source": "// SPDX-License-Identifier: GPL-3.0\npragma solidity ^0.8.0;\n\ncontract CrowdfundFactory {\n\n  struct Crowdfund {\n    uint goalAmount;\n    uint deadline;\n    uint amountRaised;\n    // tracks supporters and their donated amounts\n    mapping (address => uint) supporters;\n  }\n\n  mapping (uint => Crowdfund) public crowdfunds;\n\n  function _createCrowdfund(uint _agorumID, uint _goalAmount, uint _deadline) internal {\n    crowdfunds[_agorumID].goalAmount = _goalAmount;\n    crowdfunds[_agorumID].deadline = _deadline;\n    crowdfunds[_agorumID].amountRaised = 0;\n\n    emit CrowdfundCreated(_agorumID, _goalAmount, _deadline);\n  }\n\n  event CrowdfundCreated(uint id, uint goalAmount, uint deadline);\n}",
  "sourcePath": "/home/victor/agora/backend/contracts/CrowdfundFactory.sol",
  "compiler": {
    "name": "solc",
    "version": "0.8.0+commit.c7dfd78e.Emscripten.clang"
  },
  "schemaVersion": "3.3.4",
  "updatedAt": "2021-06-29T16:53:38.495Z",
  "devdoc": {
    "kind": "dev",
    "methods": {},
    "version": 1
  },
  "userdoc": {
    "kind": "user",
    "methods": {},
    "version": 1
  }
}