{
  "contractName": "CrowdfundFactory",
  "abi": [
    {
      "anonymous": false,
      "inputs": [
        {
          "indexed": false,
          "internalType": "uint256",
          "name": "id",
          "type": "uint256"
        },
        {
          "indexed": false,
          "internalType": "uint256",
          "name": "goalAmount",
          "type": "uint256"
        },
        {
          "indexed": false,
          "internalType": "uint256",
          "name": "deadline",
          "type": "uint256"
        }
      ],
      "name": "CrowdfundCreated",
      "type": "event"
    },
    {
      "inputs": [
        {
          "internalType": "uint256",
          "name": "",
          "type": "uint256"
        }
      ],
      "name": "crowdfunds",
      "outputs": [
        {
          "internalType": "uint256",
          "name": "goalAmount",
          "type": "uint256"
        },
        {
          "internalType": "uint256",
          "name": "deadline",
          "type": "uint256"
        },
        {
          "internalType": "uint256",
          "name": "createdAt",
          "type": "uint256"
        },
        {
          "internalType": "uint256",
          "name": "amountRaised",
          "type": "uint256"
        }
      ],
      "stateMutability": "view",
      "type": "function"
    }
  ],
  "bytecode": "0x608060405234801561001057600080fd5b5061017c806100206000396000f3fe608060405234801561001057600080fd5b506004361061002b5760003560e01c8063ac42b1d614610030575b600080fd5b61004a600480360381019061004591906100a8565b610063565b60405161005a94939291906100e0565b60405180910390f35b60006020528060005260406000206000915090508060000154908060010154908060020154908060030154905084565b6000813590506100a28161012f565b92915050565b6000602082840312156100ba57600080fd5b60006100c884828501610093565b91505092915050565b6100da81610125565b82525050565b60006080820190506100f560008301876100d1565b61010260208301866100d1565b61010f60408301856100d1565b61011c60608301846100d1565b95945050505050565b6000819050919050565b61013881610125565b811461014357600080fd5b5056fea2646970667358221220f9c895cae115951d2d356f679b2e52b88060a352b60be34893cce7c2c406c51a64736f6c63430008000033",
  "immutableReferences": {},
  "source": "// SPDX-License-Identifier: GPL-3.0\npragma solidity ^0.8.0;\n\ncontract CrowdfundFactory {\n\n  struct Crowdfund {\n    uint goalAmount;\n    uint deadline;\n    uint createdAt;\n    uint amountRaised;\n  }\n\n  mapping (uint => Crowdfund) public crowdfunds;\n\n  function _createCrowdfund(uint _agorumID, uint _goalAmount, uint _deadline) internal {\n    crowdfunds[_agorumID].goalAmount = _goalAmount;\n    crowdfunds[_agorumID].deadline = _deadline;\n    crowdfunds[_agorumID].amountRaised = 0;\n    crowdfunds[_agorumID].createdAt = block.timestamp;\n\n    emit CrowdfundCreated(_agorumID, _goalAmount, _deadline);\n  }\n\n  event CrowdfundCreated(uint id, uint goalAmount, uint deadline);\n}",
  "sourcePath": "/home/victor/agora/backend/contracts/CrowdfundFactory.sol",
  "compiler": {
    "name": "solc",
    "version": "0.8.0+commit.c7dfd78e.Emscripten.clang"
  },
  "schemaVersion": "3.3.4",
  "updatedAt": "2021-07-02T13:46:02.581Z",
  "devdoc": {
    "kind": "dev",
    "methods": {},
    "version": 1
  },
  "userdoc": {
    "kind": "user",
    "methods": {},
    "version": 1
  }
}