{
  "contractName": "Crowdfund",
  "abi": [
    {
      "inputs": [
        {
          "internalType": "uint256",
          "name": "_goalAmount",
          "type": "uint256"
        },
        {
          "internalType": "uint256",
          "name": "_deadline",
          "type": "uint256"
        }
      ],
      "stateMutability": "nonpayable",
      "type": "constructor"
    },
    {
      "inputs": [],
      "name": "amountRaised",
      "outputs": [
        {
          "internalType": "uint256",
          "name": "",
          "type": "uint256"
        }
      ],
      "stateMutability": "view",
      "type": "function"
    },
    {
      "inputs": [],
      "name": "deadline",
      "outputs": [
        {
          "internalType": "uint256",
          "name": "",
          "type": "uint256"
        }
      ],
      "stateMutability": "view",
      "type": "function"
    },
    {
      "inputs": [],
      "name": "goalAmount",
      "outputs": [
        {
          "internalType": "uint256",
          "name": "",
          "type": "uint256"
        }
      ],
      "stateMutability": "view",
      "type": "function"
    },
    {
      "inputs": [
        {
          "internalType": "address",
          "name": "",
          "type": "address"
        }
      ],
      "name": "supporters",
      "outputs": [
        {
          "internalType": "uint256",
          "name": "",
          "type": "uint256"
        }
      ],
      "stateMutability": "view",
      "type": "function"
    }
  ],
  "bytecode": "0x6080604052600060025534801561001557600080fd5b506040516102c33803806102c383398181016040528101906100379190610061565b816000819055508060018190555050506100be565b60008151905061005b816100a7565b92915050565b6000806040838503121561007457600080fd5b60006100828582860161004c565b92505060206100938582860161004c565b9150509250929050565b6000819050919050565b6100b08161009d565b81146100bb57600080fd5b50565b6101f6806100cd6000396000f3fe608060405234801561001057600080fd5b506004361061004c5760003560e01c80632636b9451461005157806329dcb0cf1461006f578063647c75e21461008d5780637b3e5e7b146100bd575b600080fd5b6100596100db565b6040516100669190610152565b60405180910390f35b6100776100e1565b6040516100849190610152565b60405180910390f35b6100a760048036038101906100a2919061011a565b6100e7565b6040516100b49190610152565b60405180910390f35b6100c56100ff565b6040516100d29190610152565b60405180910390f35b60005481565b60015481565b60036020528060005260406000206000915090505481565b60025481565b600081359050610114816101a9565b92915050565b60006020828403121561012c57600080fd5b600061013a84828501610105565b91505092915050565b61014c8161019f565b82525050565b60006020820190506101676000830184610143565b92915050565b60006101788261017f565b9050919050565b600073ffffffffffffffffffffffffffffffffffffffff82169050919050565b6000819050919050565b6101b28161016d565b81146101bd57600080fd5b5056fea2646970667358221220fc37dffbf9411b5ab601ac1626adde191ebc9c971280cf5a5054d276fae947a564736f6c63430008000033",
  "immutableReferences": {},
  "source": "// SPDX-License-Identifier: GPL-3.0\npragma solidity ^0.8.0;\n\ncontract Crowdfund {\n  uint public goalAmount;\n  uint public deadline;\n  uint public amountRaised = 0;\n  // tracks supporters and their donated amounts\n  mapping (address => uint) public supporters;\n\n  constructor(uint _goalAmount, uint _deadline) {\n    goalAmount = _goalAmount;\n    deadline = _deadline;\n  }\n}",
  "sourcePath": "/home/victor/agora/blockchain/contracts/Crowdfund.sol",
  "compiler": {
    "name": "solc",
    "version": "0.8.0+commit.c7dfd78e.Emscripten.clang"
  },
  "schemaVersion": "3.3.4",
  "updatedAt": "2021-05-21T02:36:50.296Z",
  "devdoc": {
    "kind": "dev",
    "methods": {},
    "version": 1
  },
  "userdoc": {
    "kind": "user",
    "methods": {},
    "version": 1
  }
}