{
  "contractName": "PayrollContributor",
  "abi": [
    {
      "anonymous": false,
      "inputs": [
        {
          "indexed": false,
          "internalType": "uint256",
          "name": "agorumID",
          "type": "uint256"
        },
        {
          "indexed": false,
          "internalType": "string",
          "name": "name",
          "type": "string"
        },
        {
          "indexed": false,
          "internalType": "address payable[]",
          "name": "agorumCreators",
          "type": "address[]"
        }
      ],
      "name": "AgorumCreated",
      "type": "event"
    },
    {
      "anonymous": false,
      "inputs": [
        {
          "indexed": true,
          "internalType": "address",
          "name": "owner",
          "type": "address"
        },
        {
          "indexed": true,
          "internalType": "address",
          "name": "spender",
          "type": "address"
        },
        {
          "indexed": false,
          "internalType": "uint256",
          "name": "value",
          "type": "uint256"
        }
      ],
      "name": "Approval",
      "type": "event"
    },
    {
      "anonymous": false,
      "inputs": [
        {
          "indexed": false,
          "internalType": "uint256",
          "name": "agorumID",
          "type": "uint256"
        },
        {
          "indexed": false,
          "internalType": "address payable",
          "name": "mentorAddress",
          "type": "address"
        },
        {
          "indexed": false,
          "internalType": "uint256",
          "name": "numStudents",
          "type": "uint256"
        }
      ],
      "name": "CohortAssigned",
      "type": "event"
    },
    {
      "anonymous": false,
      "inputs": [
        {
          "indexed": false,
          "internalType": "uint256",
          "name": "agorumID",
          "type": "uint256"
        },
        {
          "indexed": false,
          "internalType": "string",
          "name": "title",
          "type": "string"
        },
        {
          "indexed": false,
          "internalType": "address payable[]",
          "name": "courseCreators",
          "type": "address[]"
        }
      ],
      "name": "CourseAdded",
      "type": "event"
    },
    {
      "anonymous": false,
      "inputs": [
        {
          "indexed": false,
          "internalType": "uint256",
          "name": "id",
          "type": "uint256"
        },
        {
          "indexed": false,
          "internalType": "uint256",
          "name": "goalAmount",
          "type": "uint256"
        },
        {
          "indexed": false,
          "internalType": "uint256",
          "name": "deadline",
          "type": "uint256"
        }
      ],
      "name": "CrowdfundCreated",
      "type": "event"
    },
    {
      "anonymous": false,
      "inputs": [
        {
          "indexed": false,
          "internalType": "address payable",
          "name": "contributorAddress",
          "type": "address"
        },
        {
          "indexed": false,
          "internalType": "uint256",
          "name": "reward",
          "type": "uint256"
        }
      ],
      "name": "NewContributor",
      "type": "event"
    },
    {
      "anonymous": false,
      "inputs": [
        {
          "indexed": false,
          "internalType": "uint256",
          "name": "agorumID",
          "type": "uint256"
        },
        {
          "indexed": false,
          "internalType": "address payable",
          "name": "mentorAddress",
          "type": "address"
        }
      ],
      "name": "NewMentor",
      "type": "event"
    },
    {
      "anonymous": false,
      "inputs": [
        {
          "indexed": false,
          "internalType": "uint256",
          "name": "agorumID",
          "type": "uint256"
        },
        {
          "indexed": false,
          "internalType": "uint256",
          "name": "amount",
          "type": "uint256"
        }
      ],
      "name": "NewPayment",
      "type": "event"
    },
    {
      "anonymous": false,
      "inputs": [
        {
          "indexed": false,
          "internalType": "uint256",
          "name": "id",
          "type": "uint256"
        },
        {
          "indexed": false,
          "internalType": "uint256",
          "name": "reputationLevel",
          "type": "uint256"
        },
        {
          "indexed": false,
          "internalType": "uint256",
          "name": "mentorPaymentRate",
          "type": "uint256"
        }
      ],
      "name": "PayrollCreated",
      "type": "event"
    },
    {
      "anonymous": false,
      "inputs": [
        {
          "indexed": true,
          "internalType": "address",
          "name": "from",
          "type": "address"
        },
        {
          "indexed": true,
          "internalType": "address",
          "name": "to",
          "type": "address"
        },
        {
          "indexed": false,
          "internalType": "uint256",
          "name": "value",
          "type": "uint256"
        }
      ],
      "name": "Transfer",
      "type": "event"
    },
    {
      "inputs": [
        {
          "internalType": "uint256",
          "name": "_agorumID",
          "type": "uint256"
        },
        {
          "internalType": "uint256",
          "name": "_amount",
          "type": "uint256"
        }
      ],
      "name": "acceptPayments",
      "outputs": [],
      "stateMutability": "payable",
      "type": "function"
    },
    {
      "inputs": [
        {
          "internalType": "uint256",
          "name": "_agorumID",
          "type": "uint256"
        },
        {
          "internalType": "address payable",
          "name": "_mentorAddress",
          "type": "address"
        }
      ],
      "name": "addMentor",
      "outputs": [],
      "stateMutability": "nonpayable",
      "type": "function"
    },
    {
      "inputs": [
        {
          "internalType": "uint256",
          "name": "_agorumID",
          "type": "uint256"
        },
        {
          "internalType": "string",
          "name": "_name",
          "type": "string"
        },
        {
          "internalType": "address payable[]",
          "name": "_courseCreators",
          "type": "address[]"
        }
      ],
      "name": "addNewCourse",
      "outputs": [],
      "stateMutability": "nonpayable",
      "type": "function"
    },
    {
      "inputs": [
        {
          "internalType": "uint256",
          "name": "",
          "type": "uint256"
        }
      ],
      "name": "agorums",
      "outputs": [
        {
          "internalType": "string",
          "name": "name",
          "type": "string"
        }
      ],
      "stateMutability": "view",
      "type": "function"
    },
    {
      "inputs": [
        {
          "internalType": "address",
          "name": "owner",
          "type": "address"
        },
        {
          "internalType": "address",
          "name": "spender",
          "type": "address"
        }
      ],
      "name": "allowance",
      "outputs": [
        {
          "internalType": "uint256",
          "name": "",
          "type": "uint256"
        }
      ],
      "stateMutability": "view",
      "type": "function"
    },
    {
      "inputs": [
        {
          "internalType": "address",
          "name": "spender",
          "type": "address"
        },
        {
          "internalType": "uint256",
          "name": "amount",
          "type": "uint256"
        }
      ],
      "name": "approve",
      "outputs": [
        {
          "internalType": "bool",
          "name": "",
          "type": "bool"
        }
      ],
      "stateMutability": "nonpayable",
      "type": "function"
    },
    {
      "inputs": [
        {
          "internalType": "uint256",
          "name": "_agorumID",
          "type": "uint256"
        },
        {
          "internalType": "address payable",
          "name": "_mentorAddress",
          "type": "address"
        },
        {
          "internalType": "uint256",
          "name": "_numStudents",
          "type": "uint256"
        },
        {
          "internalType": "uint256",
          "name": "endingDate",
          "type": "uint256"
        }
      ],
      "name": "assignCohort",
      "outputs": [],
      "stateMutability": "nonpayable",
      "type": "function"
    },
    {
      "inputs": [
        {
          "internalType": "address",
          "name": "account",
          "type": "address"
        }
      ],
      "name": "balanceOf",
      "outputs": [
        {
          "internalType": "uint256",
          "name": "",
          "type": "uint256"
        }
      ],
      "stateMutability": "view",
      "type": "function"
    },
    {
      "inputs": [
        {
          "internalType": "uint256",
          "name": "_agorumID",
          "type": "uint256"
        },
        {
          "internalType": "uint256",
          "name": "_mentorPaymentRate",
          "type": "uint256"
        }
      ],
      "name": "changeMentorPaymentRate",
      "outputs": [],
      "stateMutability": "nonpayable",
      "type": "function"
    },
    {
      "inputs": [
        {
          "internalType": "uint256",
          "name": "_agorumID",
          "type": "uint256"
        },
        {
          "internalType": "uint256",
          "name": "_reputationPoints",
          "type": "uint256"
        }
      ],
      "name": "changeMentorRequirements",
      "outputs": [],
      "stateMutability": "nonpayable",
      "type": "function"
    },
    {
      "inputs": [
        {
          "internalType": "string",
          "name": "_name",
          "type": "string"
        },
        {
          "internalType": "address payable[]",
          "name": "_creators",
          "type": "address[]"
        },
        {
          "internalType": "uint256",
          "name": "_reputationLevel",
          "type": "uint256"
        },
        {
          "internalType": "uint256",
          "name": "_mentorPaymentRate",
          "type": "uint256"
        },
        {
          "internalType": "uint256",
          "name": "_goalAmount",
          "type": "uint256"
        },
        {
          "internalType": "uint256",
          "name": "_deadline",
          "type": "uint256"
        }
      ],
      "name": "createNewAgorum",
      "outputs": [],
      "stateMutability": "nonpayable",
      "type": "function"
    },
    {
      "inputs": [
        {
          "internalType": "uint256",
          "name": "",
          "type": "uint256"
        }
      ],
      "name": "crowdfunds",
      "outputs": [
        {
          "internalType": "uint256",
          "name": "goalAmount",
          "type": "uint256"
        },
        {
          "internalType": "uint256",
          "name": "deadline",
          "type": "uint256"
        },
        {
          "internalType": "uint256",
          "name": "amountRaised",
          "type": "uint256"
        }
      ],
      "stateMutability": "view",
      "type": "function"
    },
    {
      "inputs": [],
      "name": "decimals",
      "outputs": [
        {
          "internalType": "uint8",
          "name": "",
          "type": "uint8"
        }
      ],
      "stateMutability": "pure",
      "type": "function"
    },
    {
      "inputs": [
        {
          "internalType": "address",
          "name": "spender",
          "type": "address"
        },
        {
          "internalType": "uint256",
          "name": "subtractedValue",
          "type": "uint256"
        }
      ],
      "name": "decreaseAllowance",
      "outputs": [
        {
          "internalType": "bool",
          "name": "",
          "type": "bool"
        }
      ],
      "stateMutability": "nonpayable",
      "type": "function"
    },
    {
      "inputs": [
        {
          "internalType": "uint256",
          "name": "_agorumID",
          "type": "uint256"
        }
      ],
      "name": "getAgorum",
      "outputs": [
        {
          "components": [
            {
              "internalType": "string",
              "name": "name",
              "type": "string"
            },
            {
              "internalType": "address payable[]",
              "name": "agorumCreators",
              "type": "address[]"
            },
            {
              "components": [
                {
                  "internalType": "string",
                  "name": "title",
                  "type": "string"
                },
                {
                  "internalType": "address payable[]",
                  "name": "courseCreators",
                  "type": "address[]"
                }
              ],
              "internalType": "struct AgorumFactory.Course[]",
              "name": "courses",
              "type": "tuple[]"
            }
          ],
          "internalType": "struct AgorumFactory.Agorum",
          "name": "",
          "type": "tuple"
        }
      ],
      "stateMutability": "view",
      "type": "function"
    },
    {
      "inputs": [
        {
          "internalType": "address",
          "name": "spender",
          "type": "address"
        },
        {
          "internalType": "uint256",
          "name": "addedValue",
          "type": "uint256"
        }
      ],
      "name": "increaseAllowance",
      "outputs": [
        {
          "internalType": "bool",
          "name": "",
          "type": "bool"
        }
      ],
      "stateMutability": "nonpayable",
      "type": "function"
    },
    {
      "inputs": [],
      "name": "mintTokensOnIntroCourseCompletion",
      "outputs": [],
      "stateMutability": "nonpayable",
      "type": "function"
    },
    {
      "inputs": [],
      "name": "mintTokensOnNewLevel",
      "outputs": [],
      "stateMutability": "nonpayable",
      "type": "function"
    },
    {
      "inputs": [],
      "name": "name",
      "outputs": [
        {
          "internalType": "string",
          "name": "",
          "type": "string"
        }
      ],
      "stateMutability": "view",
      "type": "function"
    },
    {
      "inputs": [],
      "name": "numAgorums",
      "outputs": [
        {
          "internalType": "uint256",
          "name": "",
          "type": "uint256"
        }
      ],
      "stateMutability": "view",
      "type": "function"
    },
    {
      "inputs": [
        {
          "internalType": "uint256",
          "name": "_agorumID",
          "type": "uint256"
        },
        {
          "internalType": "address payable",
          "name": "_mentorAddress",
          "type": "address"
        }
      ],
      "name": "payMentor",
      "outputs": [],
      "stateMutability": "nonpayable",
      "type": "function"
    },
    {
      "inputs": [
        {
          "internalType": "uint256",
          "name": "",
          "type": "uint256"
        }
      ],
      "name": "payrolls",
      "outputs": [
        {
          "internalType": "uint256",
          "name": "mentorReputationLevel",
          "type": "uint256"
        },
        {
          "internalType": "uint256",
          "name": "mentorPaymentRate",
          "type": "uint256"
        },
        {
          "internalType": "uint256",
          "name": "balance",
          "type": "uint256"
        }
      ],
      "stateMutability": "view",
      "type": "function"
    },
    {
      "inputs": [],
      "name": "symbol",
      "outputs": [
        {
          "internalType": "string",
          "name": "",
          "type": "string"
        }
      ],
      "stateMutability": "view",
      "type": "function"
    },
    {
      "inputs": [],
      "name": "totalSupply",
      "outputs": [
        {
          "internalType": "uint256",
          "name": "",
          "type": "uint256"
        }
      ],
      "stateMutability": "view",
      "type": "function"
    },
    {
      "inputs": [
        {
          "internalType": "address",
          "name": "recipient",
          "type": "address"
        },
        {
          "internalType": "uint256",
          "name": "amount",
          "type": "uint256"
        }
      ],
      "name": "transfer",
      "outputs": [
        {
          "internalType": "bool",
          "name": "",
          "type": "bool"
        }
      ],
      "stateMutability": "nonpayable",
      "type": "function"
    },
    {
      "inputs": [
        {
          "internalType": "address",
          "name": "sender",
          "type": "address"
        },
        {
          "internalType": "address",
          "name": "recipient",
          "type": "address"
        },
        {
          "internalType": "uint256",
          "name": "amount",
          "type": "uint256"
        }
      ],
      "name": "transferFrom",
      "outputs": [
        {
          "internalType": "bool",
          "name": "",
          "type": "bool"
        }
      ],
      "stateMutability": "nonpayable",
      "type": "function"
    },
    {
      "inputs": [
        {
          "internalType": "uint256",
          "name": "_agorumID",
          "type": "uint256"
        },
        {
          "internalType": "address payable",
          "name": "_contributorAddress",
          "type": "address"
        },
        {
          "internalType": "uint256",
          "name": "_reward",
          "type": "uint256"
        }
      ],
      "name": "addNewContributor",
      "outputs": [],
      "stateMutability": "nonpayable",
      "type": "function"
    }
  ],
  "bytecode": "0x608060405260006003553480156200001657600080fd5b506040518060400160405280600a81526020017f41676f7261546f6b656e000000000000000000000000000000000000000000008152506040518060400160405280600381526020017f41474f000000000000000000000000000000000000000000000000000000000081525081600790805190602001906200009b929190620000bd565b508060089080519060200190620000b4929190620000bd565b505050620001d2565b828054620000cb906200016d565b90600052602060002090601f016020900481019282620000ef57600085556200013b565b82601f106200010a57805160ff19168380011785556200013b565b828001600101855582156200013b579182015b828111156200013a5782518255916020019190600101906200011d565b5b5090506200014a91906200014e565b5090565b5b80821115620001695760008160009055506001016200014f565b5090565b600060028204905060018216806200018657607f821691505b602082108114156200019d576200019c620001a3565b5b50919050565b7f4e487b7100000000000000000000000000000000000000000000000000000000600052602260045260246000fd5b61363480620001e26000396000f3fe60806040526004361061019c5760003560e01c8063797c51a2116100ec578063d7b6f4891161008a578063e0aae53111610064578063e0aae53114610609578063f2659c5b14610632578063f7e9fd451461065b578063fa4fd95c146106845761019c565b8063d7b6f4891461058c578063dd62ed3e146105a3578063deb13a83146105e05761019c565b8063a457c2d7116100c6578063a457c2d7146104aa578063a9059cbb146104e7578063ac42b1d614610524578063b0a128b4146105635761019c565b8063797c51a21461043a5780637ac4f9b31461045657806395d89b411461047f5761019c565b8063313ce56711610159578063395093511161013357806339509351146103585780635632b1fa146103955780636371628e146103d457806370a08231146103fd5761019c565b8063313ce567146102b3578063336ab397146102de5780633840511f1461031b5761019c565b806306fdde03146101a1578063095ea7b3146101cc5780630c86254a1461020957806314690ba81461022057806318160ddd1461024b57806323b872dd14610276575b600080fd5b3480156101ad57600080fd5b506101b66106ad565b6040516101c39190612ee4565b60405180910390f35b3480156101d857600080fd5b506101f360048036038101906101ee9190612593565b61073f565b6040516102009190612ec9565b60405180910390f35b34801561021557600080fd5b5061021e61075d565b005b34801561022c57600080fd5b5061023561076a565b6040516102429190613048565b60405180910390f35b34801561025757600080fd5b50610260610770565b60405161026d9190613048565b60405180910390f35b34801561028257600080fd5b5061029d60048036038101906102989190612544565b61077a565b6040516102aa9190612ec9565b60405180910390f35b3480156102bf57600080fd5b506102c861087b565b6040516102d5919061316c565b60405180910390f35b3480156102ea57600080fd5b5061030560048036038101906103009190612692565b610884565b6040516103129190613026565b60405180910390f35b34801561032757600080fd5b50610342600480360381019061033d9190612692565b610b50565b60405161034f9190612ee4565b60405180910390f35b34801561036457600080fd5b5061037f600480360381019061037a9190612593565b610bf6565b60405161038c9190612ec9565b60405180910390f35b3480156103a157600080fd5b506103bc60048036038101906103b79190612692565b610ca2565b6040516103cb93929190613135565b60405180910390f35b3480156103e057600080fd5b506103fb60048036038101906103f69190612746565b610ccc565b005b34801561040957600080fd5b50610424600480360381019061041f91906124df565b610e32565b6040516104319190613048565b60405180910390f35b610454600480360381019061044f9190612832565b610e7b565b005b34801561046257600080fd5b5061047d600480360381019061047891906126bb565b610eef565b005b34801561048b57600080fd5b50610494610fa6565b6040516104a19190612ee4565b60405180910390f35b3480156104b657600080fd5b506104d160048036038101906104cc9190612593565b611038565b6040516104de9190612ec9565b60405180910390f35b3480156104f357600080fd5b5061050e60048036038101906105099190612593565b61112c565b60405161051b9190612ec9565b60405180910390f35b34801561053057600080fd5b5061054b60048036038101906105469190612692565b61114a565b60405161055a93929190613135565b60405180910390f35b34801561056f57600080fd5b5061058a600480360381019061058591906126bb565b611174565b005b34801561059857600080fd5b506105a1611295565b005b3480156105af57600080fd5b506105ca60048036038101906105c59190612508565b6112a2565b6040516105d79190613048565b60405180910390f35b3480156105ec57600080fd5b50610607600480360381019061060291906126f7565b611329565b005b34801561061557600080fd5b50610630600480360381019061062b9190612832565b6113be565b005b34801561063e57600080fd5b5061065960048036038101906106549190612832565b611524565b005b34801561066757600080fd5b50610682600480360381019061067d91906127a9565b61168a565b005b34801561069057600080fd5b506106ab60048036038101906106a691906125cf565b61175d565b005b6060600780546106bc906134a0565b80601f01602080910402602001604051908101604052809291908181526020018280546106e8906134a0565b80156107355780601f1061070a57610100808354040283529160200191610735565b820191906000526020600020905b81548152906001019060200180831161071857829003601f168201915b5050505050905090565b600061075361074c611831565b8484611839565b6001905092915050565b610768336064611a04565b565b60035481565b6000600654905090565b6000610787848484611b59565b6000600560008673ffffffffffffffffffffffffffffffffffffffff1673ffffffffffffffffffffffffffffffffffffffff16815260200190815260200160002060006107d2611831565b73ffffffffffffffffffffffffffffffffffffffff1673ffffffffffffffffffffffffffffffffffffffff16815260200190815260200160002054905082811015610852576040517f08c379a000000000000000000000000000000000000000000000000000000000815260040161084990612f66565b60405180910390fd5b61086f8561085e611831565b858461086a91906133b9565b611839565b60019150509392505050565b60006002905090565b61088c612114565b600260008381526020019081526020016000206040518060600160405290816000820180546108ba906134a0565b80601f01602080910402602001604051908101604052809291908181526020018280546108e6906134a0565b80156109335780601f1061090857610100808354040283529160200191610933565b820191906000526020600020905b81548152906001019060200180831161091657829003601f168201915b50505050508152602001600182018054806020026020016040519081016040528092919081815260200182805480156109c157602002820191906000526020600020905b8160009054906101000a900473ffffffffffffffffffffffffffffffffffffffff1673ffffffffffffffffffffffffffffffffffffffff1681526020019060010190808311610977575b5050505050815260200160028201805480602002602001604051908101604052809291908181526020016000905b82821015610b415783829060005260206000209060020201604051806040016040529081600082018054610a22906134a0565b80601f0160208091040260200160405190810160405280929190818152602001828054610a4e906134a0565b8015610a9b5780601f10610a7057610100808354040283529160200191610a9b565b820191906000526020600020905b815481529060010190602001808311610a7e57829003601f168201915b5050505050815260200160018201805480602002602001604051908101604052809291908181526020018280548015610b2957602002820191906000526020600020905b8160009054906101000a900473ffffffffffffffffffffffffffffffffffffffff1673ffffffffffffffffffffffffffffffffffffffff1681526020019060010190808311610adf575b505050505081525050815260200190600101906109ef565b50505050815250509050919050565b6002602052806000526040600020600091509050806000018054610b73906134a0565b80601f0160208091040260200160405190810160405280929190818152602001828054610b9f906134a0565b8015610bec5780601f10610bc157610100808354040283529160200191610bec565b820191906000526020600020905b815481529060010190602001808311610bcf57829003601f168201915b5050505050905081565b6000610c98610c03611831565b848460056000610c11611831565b73ffffffffffffffffffffffffffffffffffffffff1673ffffffffffffffffffffffffffffffffffffffff16815260200190815260200160002060008873ffffffffffffffffffffffffffffffffffffffff1673ffffffffffffffffffffffffffffffffffffffff16815260200190815260200160002054610c9391906132f9565b611839565b6001905092915050565b60006020528060005260406000206000915090508060000154908060010154908060020154905083565b60008267ffffffffffffffff811115610d0e577f4e487b7100000000000000000000000000000000000000000000000000000000600052604160045260246000fd5b604051908082528060200260200182016040528015610d3c5781602001602082028036833780820191505090505b50905060405180608001604052808481526020018281526020014281526020018381525060008087815260200190815260200160002060040160008673ffffffffffffffffffffffffffffffffffffffff1673ffffffffffffffffffffffffffffffffffffffff168152602001908152602001600020600082015181600001556020820151816001019080519060200190610dd8929190612135565b5060408201518160020155606082015181600301559050507fbefb36b8371ab9a87866986863c6b6ba43f74b39647cb18a52b83540f6733c6c858585604051610e239392919061308c565b60405180910390a15050505050565b6000600460008373ffffffffffffffffffffffffffffffffffffffff1673ffffffffffffffffffffffffffffffffffffffff168152602001908152602001600020549050919050565b806000808481526020019081526020016000206002016000828254610ea091906132f9565b92505081905550610eb1308261112c565b507fa8e6f9f627e4d2eb0f2887148343c7db7d11e76bdf6b93363126267954a42a518282604051610ee392919061310c565b60405180910390a15050565b8082600080858152602001908152602001600020600501839080600181540180825580915050600190039060005260206000200160009091909190916101000a81548173ffffffffffffffffffffffffffffffffffffffff021916908373ffffffffffffffffffffffffffffffffffffffff1602179055507fc52a3b2461c51f7093109e25810c135e7f5fc419f9a002af1bc71033818588118484604051610f98929190613063565b60405180910390a150505050565b606060088054610fb5906134a0565b80601f0160208091040260200160405190810160405280929190818152602001828054610fe1906134a0565b801561102e5780601f106110035761010080835404028352916020019161102e565b820191906000526020600020905b81548152906001019060200180831161101157829003601f168201915b5050505050905090565b60008060056000611047611831565b73ffffffffffffffffffffffffffffffffffffffff1673ffffffffffffffffffffffffffffffffffffffff16815260200190815260200160002060008573ffffffffffffffffffffffffffffffffffffffff1673ffffffffffffffffffffffffffffffffffffffff16815260200190815260200160002054905082811015611104576040517f08c379a00000000000000000000000000000000000000000000000000000000081526004016110fb90612fe6565b60405180910390fd5b61112161110f611831565b85858461111c91906133b9565b611839565b600191505092915050565b6000611140611139611831565b8484611b59565b6001905092915050565b60016020528060005260406000206000915090508060000154908060010154908060020154905083565b600080600084815260200190815260200160002060040160008373ffffffffffffffffffffffffffffffffffffffff1673ffffffffffffffffffffffffffffffffffffffff168152602001908152602001600020600201549050600080600085815260200190815260200160002060040160008473ffffffffffffffffffffffffffffffffffffffff1673ffffffffffffffffffffffffffffffffffffffff16815260200190815260200160002060030154905080824261123591906133b9565b11611275576040517f08c379a000000000000000000000000000000000000000000000000000000000815260040161126c90612f86565b60405180910390fd5b60006112818585611ddb565b905061128d848261112c565b505050505050565b6112a033600a611a04565b565b6000600560008473ffffffffffffffffffffffffffffffffffffffff1673ffffffffffffffffffffffffffffffffffffffff16815260200190815260200160002060008373ffffffffffffffffffffffffffffffffffffffff1673ffffffffffffffffffffffffffffffffffffffff16815260200190815260200160002054905092915050565b8060008085815260200190815260200160002060030160008473ffffffffffffffffffffffffffffffffffffffff1673ffffffffffffffffffffffffffffffffffffffff168152602001908152602001600020819055507f80f8a8834707e8354b741b30bf6902630c62f9a409323711bf0f361f48f032da82826040516113b1929190612ea0565b60405180910390a1505050565b6002600083815260200190815260200160002060010180548060200260200160405190810160405280929190818152602001828054801561145457602002820191906000526020600020905b8160009054906101000a900473ffffffffffffffffffffffffffffffffffffffff1673ffffffffffffffffffffffffffffffffffffffff168152602001906001019080831161140a575b50505050506000805b8115801561146b5750825181105b156114fc578281815181106114a9577f4e487b7100000000000000000000000000000000000000000000000000000000600052603260045260246000fd5b602002602001015173ffffffffffffffffffffffffffffffffffffffff163373ffffffffffffffffffffffffffffffffffffffff1614156114e957600191505b80806114f4906134d2565b91505061145d565b811561151d5783600080878152602001908152602001600020600101819055505b5050505050565b600260008381526020019081526020016000206001018054806020026020016040519081016040528092919081815260200182805480156115ba57602002820191906000526020600020905b8160009054906101000a900473ffffffffffffffffffffffffffffffffffffffff1673ffffffffffffffffffffffffffffffffffffffff1681526020019060010190808311611570575b50505050506000805b811580156115d15750825181105b156116625782818151811061160f577f4e487b7100000000000000000000000000000000000000000000000000000000600052603260045260246000fd5b602002602001015173ffffffffffffffffffffffffffffffffffffffff163373ffffffffffffffffffffffffffffffffffffffff16141561164f57600191505b808061165a906134d2565b9150506115c3565b81156116835783600080878152602001908152602001600020600001819055505b5050505050565b6000600260008781526020019081526020016000209050806002016116b186868686611f3b565b908060018154018082558091505060019003906000526020600020906002020160009091909190915060008201518160000190805190602001906116f6929190612182565b506020820151816001019080519060200190611713929190612208565b5050507ffd2460ade19a645be21837aae3f27f9894e25dbc372959960f483e385d9c739a868686868660405161174d9594939291906130c3565b60405180910390a1505050505050565b600060036000815480929190611772906134d2565b919050559050888860026000848152602001908152602001600020600001919061179d929190612292565b5086866002600084815260200190815260200160002060010191906117c3929190612318565b506117d1818a8a8a8a61168a565b6117dc818686611fee565b6117e781848461207d565b7f63842ce14e9db32f1d6590c10bed8be6950c3d5ba6219cd550a3f3711ec26ba2818a8a8a8a60405161181e9594939291906130c3565b60405180910390a1505050505050505050565b600033905090565b600073ffffffffffffffffffffffffffffffffffffffff168373ffffffffffffffffffffffffffffffffffffffff1614156118a9576040517f08c379a00000000000000000000000000000000000000000000000000000000081526004016118a090612fc6565b60405180910390fd5b600073ffffffffffffffffffffffffffffffffffffffff168273ffffffffffffffffffffffffffffffffffffffff161415611919576040517f08c379a000000000000000000000000000000000000000000000000000000000815260040161191090612f26565b60405180910390fd5b80600560008573ffffffffffffffffffffffffffffffffffffffff1673ffffffffffffffffffffffffffffffffffffffff16815260200190815260200160002060008473ffffffffffffffffffffffffffffffffffffffff1673ffffffffffffffffffffffffffffffffffffffff168152602001908152602001600020819055508173ffffffffffffffffffffffffffffffffffffffff168373ffffffffffffffffffffffffffffffffffffffff167f8c5be1e5ebec7d5bd14f71427d1e84f3dd0314c0f7b2291e5b200ac8c7c3b925836040516119f79190613048565b60405180910390a3505050565b600073ffffffffffffffffffffffffffffffffffffffff168273ffffffffffffffffffffffffffffffffffffffff161415611a74576040517f08c379a0000000000000000000000000000000000000000000000000000000008152600401611a6b90613006565b60405180910390fd5b611a806000838361210f565b8060066000828254611a9291906132f9565b9250508190555080600460008473ffffffffffffffffffffffffffffffffffffffff1673ffffffffffffffffffffffffffffffffffffffff1681526020019081526020016000206000828254611ae891906132f9565b925050819055508173ffffffffffffffffffffffffffffffffffffffff16600073ffffffffffffffffffffffffffffffffffffffff167fddf252ad1be2c89b69c2b068fc378daa952ba7f163c4a11628f55a4df523b3ef83604051611b4d9190613048565b60405180910390a35050565b600073ffffffffffffffffffffffffffffffffffffffff168373ffffffffffffffffffffffffffffffffffffffff161415611bc9576040517f08c379a0000000000000000000000000000000000000000000000000000000008152600401611bc090612fa6565b60405180910390fd5b600073ffffffffffffffffffffffffffffffffffffffff168273ffffffffffffffffffffffffffffffffffffffff161415611c39576040517f08c379a0000000000000000000000000000000000000000000000000000000008152600401611c3090612f06565b60405180910390fd5b611c4483838361210f565b6000600460008573ffffffffffffffffffffffffffffffffffffffff1673ffffffffffffffffffffffffffffffffffffffff16815260200190815260200160002054905081811015611ccb576040517f08c379a0000000000000000000000000000000000000000000000000000000008152600401611cc290612f46565b60405180910390fd5b8181611cd791906133b9565b600460008673ffffffffffffffffffffffffffffffffffffffff1673ffffffffffffffffffffffffffffffffffffffff1681526020019081526020016000208190555081600460008573ffffffffffffffffffffffffffffffffffffffff1673ffffffffffffffffffffffffffffffffffffffff1681526020019081526020016000206000828254611d6991906132f9565b925050819055508273ffffffffffffffffffffffffffffffffffffffff168473ffffffffffffffffffffffffffffffffffffffff167fddf252ad1be2c89b69c2b068fc378daa952ba7f163c4a11628f55a4df523b3ef84604051611dcd9190613048565b60405180910390a350505050565b600080600090506000806000868152602001908152602001600020600101549050600080600087815260200190815260200160002060040160008673ffffffffffffffffffffffffffffffffffffffff1673ffffffffffffffffffffffffffffffffffffffff168152602001908152602001600020600101805480602002602001604051908101604052809291908181526020018280548015611e9d57602002820191906000526020600020905b815481526020019060010190808311611e89575b5050505050905060005b8151811015611f1157818181518110611ee9577f4e487b7100000000000000000000000000000000000000000000000000000000600052603260045260246000fd5b602002602001015184611efc9190613265565b93508080611f09906134d2565b915050611ea7565b506000815184611f21919061334f565b90508083611f2f91906132f9565b94505050505092915050565b611f436123b8565b611f4b6123b8565b85858080601f016020809104026020016040519081016040528093929190818152602001838380828437600081840152601f19601f820116905080830192505050505050508160000181905250838380806020026020016040519081016040528093929190818152602001838360200280828437600081840152601f19601f82011690508083019250505050505050816020018190525080915050949350505050565b816000808581526020019081526020016000206000018190555080600080858152602001908152602001600020600101819055506000806000858152602001908152602001600020600201819055507f49ac77dfe864b99940ef23e5879ce2aa0e5c007e8ac6edd1f9cfef4421171b5a83838360405161207093929190613135565b60405180910390a1505050565b816001600085815260200190815260200160002060000181905550806001600085815260200190815260200160002060010181905550600060016000858152602001908152602001600020600201819055507ff6770204747583255b89dd40c6f63c3e312d0bc558b0ee72452d7012eb9e058a83838360405161210293929190613135565b60405180910390a1505050565b505050565b60405180606001604052806060815260200160608152602001606081525090565b828054828255906000526020600020908101928215612171579160200282015b82811115612170578251825591602001919060010190612155565b5b50905061217e91906123d2565b5090565b82805461218e906134a0565b90600052602060002090601f0160209004810192826121b057600085556121f7565b82601f106121c957805160ff19168380011785556121f7565b828001600101855582156121f7579182015b828111156121f65782518255916020019190600101906121db565b5b50905061220491906123ef565b5090565b828054828255906000526020600020908101928215612281579160200282015b828111156122805782518260006101000a81548173ffffffffffffffffffffffffffffffffffffffff021916908373ffffffffffffffffffffffffffffffffffffffff16021790555091602001919060010190612228565b5b50905061228e91906123ef565b5090565b82805461229e906134a0565b90600052602060002090601f0160209004810192826122c05760008555612307565b82601f106122d957803560ff1916838001178555612307565b82800160010185558215612307579182015b828111156123065782358255916020019190600101906122eb565b5b50905061231491906123ef565b5090565b8280548282559060005260206000209081019282156123a7579160200282015b828111156123a657823573ffffffffffffffffffffffffffffffffffffffff168260006101000a81548173ffffffffffffffffffffffffffffffffffffffff021916908373ffffffffffffffffffffffffffffffffffffffff16021790555091602001919060010190612338565b5b5090506123b491906123ef565b5090565b604051806040016040528060608152602001606081525090565b5b808211156123eb5760008160009055506001016123d3565b5090565b5b808211156124085760008160009055506001016123f0565b5090565b60008135905061241b816135b9565b92915050565b600081359050612430816135d0565b92915050565b60008083601f84011261244857600080fd5b8235905067ffffffffffffffff81111561246157600080fd5b60208301915083602082028301111561247957600080fd5b9250929050565b60008083601f84011261249257600080fd5b8235905067ffffffffffffffff8111156124ab57600080fd5b6020830191508360018202830111156124c357600080fd5b9250929050565b6000813590506124d9816135e7565b92915050565b6000602082840312156124f157600080fd5b60006124ff8482850161240c565b91505092915050565b6000806040838503121561251b57600080fd5b60006125298582860161240c565b925050602061253a8582860161240c565b9150509250929050565b60008060006060848603121561255957600080fd5b60006125678682870161240c565b93505060206125788682870161240c565b9250506040612589868287016124ca565b9150509250925092565b600080604083850312156125a657600080fd5b60006125b48582860161240c565b92505060206125c5858286016124ca565b9150509250929050565b60008060008060008060008060c0898b0312156125eb57600080fd5b600089013567ffffffffffffffff81111561260557600080fd5b6126118b828c01612480565b9850985050602089013567ffffffffffffffff81111561263057600080fd5b61263c8b828c01612436565b9650965050604061264f8b828c016124ca565b94505060606126608b828c016124ca565b93505060806126718b828c016124ca565b92505060a06126828b828c016124ca565b9150509295985092959890939650565b6000602082840312156126a457600080fd5b60006126b2848285016124ca565b91505092915050565b600080604083850312156126ce57600080fd5b60006126dc858286016124ca565b92505060206126ed85828601612421565b9150509250929050565b60008060006060848603121561270c57600080fd5b600061271a868287016124ca565b935050602061272b86828701612421565b925050604061273c868287016124ca565b9150509250925092565b6000806000806080858703121561275c57600080fd5b600061276a878288016124ca565b945050602061277b87828801612421565b935050604061278c878288016124ca565b925050606061279d878288016124ca565b91505092959194509250565b6000806000806000606086880312156127c157600080fd5b60006127cf888289016124ca565b955050602086013567ffffffffffffffff8111156127ec57600080fd5b6127f888828901612480565b9450945050604086013567ffffffffffffffff81111561281757600080fd5b61282388828901612436565b92509250509295509295909350565b6000806040838503121561284557600080fd5b6000612853858286016124ca565b9250506020612864858286016124ca565b9150509250929050565b600061287a838361289a565b60208301905092915050565b60006128928383612e3e565b905092915050565b6128a3816133ff565b82525050565b6128b2816133ff565b82525050565b60006128c4838561320a565b93506128cf82613187565b8060005b85811015612908576128e5828461324e565b6128ef888261286e565b97506128fa836131d2565b9250506001810190506128d3565b5085925050509392505050565b6000612920826131b1565b61292a81856131f9565b935061293583613191565b8060005b8381101561296657815161294d888261286e565b9750612958836131df565b925050600181019050612939565b5085935050505092915050565b600061297e826131bc565b612988818561321b565b93508360208202850161299a856131a1565b8060005b858110156129d657848403895281516129b78582612886565b94506129c2836131ec565b925060208a0199505060018101905061299e565b50829750879550505050505092915050565b6129f181613411565b82525050565b6000612a03838561323d565b9350612a1083858461345e565b612a19836135a8565b840190509392505050565b6000612a2f826131c7565b612a39818561322c565b9350612a4981856020860161346d565b612a52816135a8565b840191505092915050565b6000612a68826131c7565b612a72818561323d565b9350612a8281856020860161346d565b612a8b816135a8565b840191505092915050565b6000612aa360238361323d565b91507f45524332303a207472616e7366657220746f20746865207a65726f206164647260008301527f65737300000000000000000000000000000000000000000000000000000000006020830152604082019050919050565b6000612b0960228361323d565b91507f45524332303a20617070726f766520746f20746865207a65726f20616464726560008301527f73730000000000000000000000000000000000000000000000000000000000006020830152604082019050919050565b6000612b6f60268361323d565b91507f45524332303a207472616e7366657220616d6f756e742065786365656473206260008301527f616c616e636500000000000000000000000000000000000000000000000000006020830152604082019050919050565b6000612bd560288361323d565b91507f45524332303a207472616e7366657220616d6f756e742065786365656473206160008301527f6c6c6f77616e63650000000000000000000000000000000000000000000000006020830152604082019050919050565b6000612c3b601b8361323d565b91507f436f686f727420686173206e6f742066696e69736865642079657400000000006000830152602082019050919050565b6000612c7b60258361323d565b91507f45524332303a207472616e736665722066726f6d20746865207a65726f20616460008301527f64726573730000000000000000000000000000000000000000000000000000006020830152604082019050919050565b6000612ce160248361323d565b91507f45524332303a20617070726f76652066726f6d20746865207a65726f2061646460008301527f72657373000000000000000000000000000000000000000000000000000000006020830152604082019050919050565b6000612d4760258361323d565b91507f45524332303a2064656372656173656420616c6c6f77616e63652062656c6f7760008301527f207a65726f0000000000000000000000000000000000000000000000000000006020830152604082019050919050565b6000612dad601f8361323d565b91507f45524332303a206d696e7420746f20746865207a65726f2061646472657373006000830152602082019050919050565b60006060830160008301518482036000860152612dfd8282612a24565b91505060208301518482036020860152612e178282612915565b91505060408301518482036040860152612e318282612973565b9150508091505092915050565b60006040830160008301518482036000860152612e5b8282612a24565b91505060208301518482036020860152612e758282612915565b9150508091505092915050565b612e8b81613447565b82525050565b612e9a81613451565b82525050565b6000604082019050612eb560008301856128a9565b612ec26020830184612e82565b9392505050565b6000602082019050612ede60008301846129e8565b92915050565b60006020820190508181036000830152612efe8184612a5d565b905092915050565b60006020820190508181036000830152612f1f81612a96565b9050919050565b60006020820190508181036000830152612f3f81612afc565b9050919050565b60006020820190508181036000830152612f5f81612b62565b9050919050565b60006020820190508181036000830152612f7f81612bc8565b9050919050565b60006020820190508181036000830152612f9f81612c2e565b9050919050565b60006020820190508181036000830152612fbf81612c6e565b9050919050565b60006020820190508181036000830152612fdf81612cd4565b9050919050565b60006020820190508181036000830152612fff81612d3a565b9050919050565b6000602082019050818103600083015261301f81612da0565b9050919050565b600060208201905081810360008301526130408184612de0565b905092915050565b600060208201905061305d6000830184612e82565b92915050565b60006040820190506130786000830185612e82565b61308560208301846128a9565b9392505050565b60006060820190506130a16000830186612e82565b6130ae60208301856128a9565b6130bb6040830184612e82565b949350505050565b60006060820190506130d86000830188612e82565b81810360208301526130eb8186886129f7565b905081810360408301526131008184866128b8565b90509695505050505050565b60006040820190506131216000830185612e82565b61312e6020830184612e82565b9392505050565b600060608201905061314a6000830186612e82565b6131576020830185612e82565b6131646040830184612e82565b949350505050565b60006020820190506131816000830184612e91565b92915050565b6000819050919050565b6000819050602082019050919050565b6000819050602082019050919050565b600081519050919050565b600081519050919050565b600081519050919050565b6000602082019050919050565b6000602082019050919050565b6000602082019050919050565b600082825260208201905092915050565b600082825260208201905092915050565b600082825260208201905092915050565b600082825260208201905092915050565b600082825260208201905092915050565b600061325d6020840184612421565b905092915050565b60006132708261341d565b915061327b8361341d565b9250817f7fffffffffffffffffffffffffffffffffffffffffffffffffffffffffffffff038313600083121516156132b6576132b561351b565b5b817f80000000000000000000000000000000000000000000000000000000000000000383126000831216156132ee576132ed61351b565b5b828201905092915050565b600061330482613447565b915061330f83613447565b9250827fffffffffffffffffffffffffffffffffffffffffffffffffffffffffffffffff038211156133445761334361351b565b5b828201905092915050565b600061335a8261341d565b91506133658361341d565b9250826133755761337461354a565b5b600160000383147f8000000000000000000000000000000000000000000000000000000000000000831416156133ae576133ad61351b565b5b828205905092915050565b60006133c482613447565b91506133cf83613447565b9250828210156133e2576133e161351b565b5b828203905092915050565b60006133f882613427565b9050919050565b600061340a82613427565b9050919050565b60008115159050919050565b6000819050919050565b600073ffffffffffffffffffffffffffffffffffffffff82169050919050565b6000819050919050565b600060ff82169050919050565b82818337600083830152505050565b60005b8381101561348b578082015181840152602081019050613470565b8381111561349a576000848401525b50505050565b600060028204905060018216806134b857607f821691505b602082108114156134cc576134cb613579565b5b50919050565b60006134dd82613447565b91507fffffffffffffffffffffffffffffffffffffffffffffffffffffffffffffffff8214156135105761350f61351b565b5b600182019050919050565b7f4e487b7100000000000000000000000000000000000000000000000000000000600052601160045260246000fd5b7f4e487b7100000000000000000000000000000000000000000000000000000000600052601260045260246000fd5b7f4e487b7100000000000000000000000000000000000000000000000000000000600052602260045260246000fd5b6000601f19601f8301169050919050565b6135c2816133ed565b81146135cd57600080fd5b50565b6135d9816133ff565b81146135e457600080fd5b50565b6135f081613447565b81146135fb57600080fd5b5056fea2646970667358221220b1fb1ce3508046b4ab3e8a295be79cc84b179085a5419d1a70e974bd96ad0cb564736f6c63430008000033",
  "immutableReferences": {},
  "source": "// SPDX-License-Identifier: GPL-3.0\npragma solidity ^0.8.0;\n\nimport \"./PayrollManager.sol\";\n\ncontract PayrollContributor is PayrollManager {\n\n  function addNewContributor(uint _agorumID, address payable _contributorAddress, uint _reward) public {\n    payrolls[_agorumID].contributors[_contributorAddress] = _reward;\n\n    emit NewContributor(_contributorAddress, _reward);\n  }\n\n  function payContributor(uint _agorumID, address payable _contributorAddress) internal {\n    uint payment = payrolls[_agorumID].contributors[_contributorAddress];\n\n    transfer(_contributorAddress, payment);\n  }\n\n  event NewContributor(address payable contributorAddress, uint reward);\n}\n\n// TODO:\n// 1. Test gas cost of functions for deployment, to get an estimate\n//    of the costs",
  "sourcePath": "/home/victor/agora/backend/contracts/PayrollContributor.sol",
  "compiler": {
    "name": "solc",
    "version": "0.8.0+commit.c7dfd78e.Emscripten.clang"
  },
  "schemaVersion": "3.3.4",
  "updatedAt": "2021-06-29T16:53:38.500Z",
  "devdoc": {
    "kind": "dev",
    "methods": {
      "addNewCourse(uint256,string,address[])": {
        "details": "Adds a new course to an Agorum"
      },
      "allowance(address,address)": {
        "details": "See {IERC20-allowance}."
      },
      "approve(address,uint256)": {
        "details": "See {IERC20-approve}. Requirements: - `spender` cannot be the zero address."
      },
      "balanceOf(address)": {
        "details": "See {IERC20-balanceOf}."
      },
      "changeMentorPaymentRate(uint256,uint256)": {
        "details": "Set the Agorum mentor payment rate. The rate is x tokens per cohort.",
        "params": {
          "_agorumID": "ID of Agorum",
          "_mentorPaymentRate": "the mentor payment rate"
        }
      },
      "changeMentorRequirements(uint256,uint256)": {
        "details": "Set the Agorum mentor requirements. At this time, the only supported requirement is a level of reputation.",
        "params": {
          "_agorumID": "ID of Agorum",
          "_reputationPoints": "the required level of points"
        }
      },
      "createNewAgorum(string,address[],uint256,uint256,uint256,uint256)": {
        "details": "Creates a new agorum with given name and array of creators. Adds new Agorum to the mapping tracker.Since an Agorum must be composed of at least one course, a course is also created and pushed to Agorum's courses.",
        "params": {
          "_creators": "address of the creators",
          "_name": "the agorum name"
        }
      },
      "decimals()": {
        "details": "Sets the decimals to 2 such that token balances are displayed as (balance / 10 ** 2)"
      },
      "decreaseAllowance(address,uint256)": {
        "details": "Atomically decreases the allowance granted to `spender` by the caller. This is an alternative to {approve} that can be used as a mitigation for problems described in {IERC20-approve}. Emits an {Approval} event indicating the updated allowance. Requirements: - `spender` cannot be the zero address. - `spender` must have allowance for the caller of at least `subtractedValue`."
      },
      "increaseAllowance(address,uint256)": {
        "details": "Atomically increases the allowance granted to `spender` by the caller. This is an alternative to {approve} that can be used as a mitigation for problems described in {IERC20-approve}. Emits an {Approval} event indicating the updated allowance. Requirements: - `spender` cannot be the zero address."
      },
      "mintTokensOnIntroCourseCompletion()": {
        "details": "Mints tokens when user has complete the introductory course"
      },
      "mintTokensOnNewLevel()": {
        "details": "Mints tokens when user has reached a new level"
      },
      "name()": {
        "details": "Returns the name of the token."
      },
      "symbol()": {
        "details": "Returns the symbol of the token, usually a shorter version of the name."
      },
      "totalSupply()": {
        "details": "See {IERC20-totalSupply}."
      },
      "transfer(address,uint256)": {
        "details": "See {IERC20-transfer}. Requirements: - `recipient` cannot be the zero address. - the caller must have a balance of at least `amount`."
      },
      "transferFrom(address,address,uint256)": {
        "details": "See {IERC20-transferFrom}. Emits an {Approval} event indicating the updated allowance. This is not required by the EIP. See the note at the beginning of {ERC20}. Requirements: - `sender` and `recipient` cannot be the zero address. - `sender` must have a balance of at least `amount`. - the caller must have allowance for ``sender``'s tokens of at least `amount`."
      }
    },
    "version": 1
  },
  "userdoc": {
    "kind": "user",
    "methods": {},
    "version": 1
  }
}