{
  "contractName": "PayrollManager",
  "abi": [
    {
      "anonymous": false,
      "inputs": [
        {
          "indexed": false,
          "internalType": "uint256",
          "name": "agorumID",
          "type": "uint256"
        },
        {
          "indexed": false,
          "internalType": "string",
          "name": "name",
          "type": "string"
        },
        {
          "indexed": false,
          "internalType": "address payable[]",
          "name": "agorumCreators",
          "type": "address[]"
        }
      ],
      "name": "AgorumCreated",
      "type": "event"
    },
    {
      "anonymous": false,
      "inputs": [
        {
          "indexed": true,
          "internalType": "address",
          "name": "owner",
          "type": "address"
        },
        {
          "indexed": true,
          "internalType": "address",
          "name": "spender",
          "type": "address"
        },
        {
          "indexed": false,
          "internalType": "uint256",
          "name": "value",
          "type": "uint256"
        }
      ],
      "name": "Approval",
      "type": "event"
    },
    {
      "anonymous": false,
      "inputs": [
        {
          "indexed": false,
          "internalType": "uint256",
          "name": "agorumID",
          "type": "uint256"
        },
        {
          "indexed": false,
          "internalType": "string",
          "name": "title",
          "type": "string"
        },
        {
          "indexed": false,
          "internalType": "address payable[]",
          "name": "courseCreators",
          "type": "address[]"
        }
      ],
      "name": "CourseAdded",
      "type": "event"
    },
    {
      "anonymous": false,
      "inputs": [
        {
          "indexed": false,
          "internalType": "address payable",
          "name": "contributorAddress",
          "type": "address"
        },
        {
          "indexed": false,
          "internalType": "uint256",
          "name": "reward",
          "type": "uint256"
        }
      ],
      "name": "NewContributor",
      "type": "event"
    },
    {
      "anonymous": false,
      "inputs": [
        {
          "indexed": false,
          "internalType": "uint256",
          "name": "agoruMID",
          "type": "uint256"
        },
        {
          "indexed": false,
          "internalType": "address payable",
          "name": "mentorAddress",
          "type": "address"
        }
      ],
      "name": "NewMentor",
      "type": "event"
    },
    {
      "anonymous": false,
      "inputs": [
        {
          "indexed": false,
          "internalType": "uint256",
          "name": "agorumID",
          "type": "uint256"
        },
        {
          "indexed": false,
          "internalType": "uint256",
          "name": "amount",
          "type": "uint256"
        }
      ],
      "name": "NewPayment",
      "type": "event"
    },
    {
      "anonymous": false,
      "inputs": [
        {
          "indexed": true,
          "internalType": "address",
          "name": "from",
          "type": "address"
        },
        {
          "indexed": true,
          "internalType": "address",
          "name": "to",
          "type": "address"
        },
        {
          "indexed": false,
          "internalType": "uint256",
          "name": "value",
          "type": "uint256"
        }
      ],
      "name": "Transfer",
      "type": "event"
    },
    {
      "inputs": [
        {
          "internalType": "uint256",
          "name": "_agorumID",
          "type": "uint256"
        },
        {
          "internalType": "string",
          "name": "_name",
          "type": "string"
        },
        {
          "internalType": "address payable[]",
          "name": "_courseCreators",
          "type": "address[]"
        }
      ],
      "name": "addNewCourse",
      "outputs": [],
      "stateMutability": "nonpayable",
      "type": "function"
    },
    {
      "inputs": [
        {
          "internalType": "uint256",
          "name": "",
          "type": "uint256"
        }
      ],
      "name": "agorums",
      "outputs": [
        {
          "internalType": "string",
          "name": "name",
          "type": "string"
        }
      ],
      "stateMutability": "view",
      "type": "function"
    },
    {
      "inputs": [
        {
          "internalType": "address",
          "name": "owner",
          "type": "address"
        },
        {
          "internalType": "address",
          "name": "spender",
          "type": "address"
        }
      ],
      "name": "allowance",
      "outputs": [
        {
          "internalType": "uint256",
          "name": "",
          "type": "uint256"
        }
      ],
      "stateMutability": "view",
      "type": "function"
    },
    {
      "inputs": [
        {
          "internalType": "address",
          "name": "spender",
          "type": "address"
        },
        {
          "internalType": "uint256",
          "name": "amount",
          "type": "uint256"
        }
      ],
      "name": "approve",
      "outputs": [
        {
          "internalType": "bool",
          "name": "",
          "type": "bool"
        }
      ],
      "stateMutability": "nonpayable",
      "type": "function"
    },
    {
      "inputs": [
        {
          "internalType": "address",
          "name": "account",
          "type": "address"
        }
      ],
      "name": "balanceOf",
      "outputs": [
        {
          "internalType": "uint256",
          "name": "",
          "type": "uint256"
        }
      ],
      "stateMutability": "view",
      "type": "function"
    },
    {
      "inputs": [
        {
          "internalType": "string",
          "name": "_name",
          "type": "string"
        },
        {
          "internalType": "address payable[]",
          "name": "_creators",
          "type": "address[]"
        }
      ],
      "name": "createNewAgorum",
      "outputs": [],
      "stateMutability": "nonpayable",
      "type": "function"
    },
    {
      "inputs": [],
      "name": "decimals",
      "outputs": [
        {
          "internalType": "uint8",
          "name": "",
          "type": "uint8"
        }
      ],
      "stateMutability": "pure",
      "type": "function"
    },
    {
      "inputs": [
        {
          "internalType": "address",
          "name": "spender",
          "type": "address"
        },
        {
          "internalType": "uint256",
          "name": "subtractedValue",
          "type": "uint256"
        }
      ],
      "name": "decreaseAllowance",
      "outputs": [
        {
          "internalType": "bool",
          "name": "",
          "type": "bool"
        }
      ],
      "stateMutability": "nonpayable",
      "type": "function"
    },
    {
      "inputs": [
        {
          "internalType": "uint256",
          "name": "_agorumID",
          "type": "uint256"
        }
      ],
      "name": "getAgorumMetadata",
      "outputs": [
        {
          "internalType": "string",
          "name": "",
          "type": "string"
        },
        {
          "internalType": "address payable[]",
          "name": "",
          "type": "address[]"
        },
        {
          "components": [
            {
              "internalType": "string",
              "name": "title",
              "type": "string"
            },
            {
              "internalType": "address payable[]",
              "name": "courseCreators",
              "type": "address[]"
            }
          ],
          "internalType": "struct AgorumFactory.Course[]",
          "name": "",
          "type": "tuple[]"
        }
      ],
      "stateMutability": "view",
      "type": "function"
    },
    {
      "inputs": [
        {
          "internalType": "address",
          "name": "spender",
          "type": "address"
        },
        {
          "internalType": "uint256",
          "name": "addedValue",
          "type": "uint256"
        }
      ],
      "name": "increaseAllowance",
      "outputs": [
        {
          "internalType": "bool",
          "name": "",
          "type": "bool"
        }
      ],
      "stateMutability": "nonpayable",
      "type": "function"
    },
    {
      "inputs": [],
      "name": "mintTokensOnIntroCourseCompletion",
      "outputs": [],
      "stateMutability": "nonpayable",
      "type": "function"
    },
    {
      "inputs": [],
      "name": "mintTokensOnNewLevel",
      "outputs": [],
      "stateMutability": "nonpayable",
      "type": "function"
    },
    {
      "inputs": [],
      "name": "name",
      "outputs": [
        {
          "internalType": "string",
          "name": "",
          "type": "string"
        }
      ],
      "stateMutability": "view",
      "type": "function"
    },
    {
      "inputs": [],
      "name": "numAgorums",
      "outputs": [
        {
          "internalType": "uint256",
          "name": "",
          "type": "uint256"
        }
      ],
      "stateMutability": "view",
      "type": "function"
    },
    {
      "inputs": [
        {
          "internalType": "uint256",
          "name": "",
          "type": "uint256"
        }
      ],
      "name": "payrolls",
      "outputs": [
        {
          "internalType": "uint256",
          "name": "mentorReputationLevel",
          "type": "uint256"
        },
        {
          "internalType": "uint256",
          "name": "mentorPaymentRate",
          "type": "uint256"
        },
        {
          "internalType": "uint256",
          "name": "balance",
          "type": "uint256"
        }
      ],
      "stateMutability": "view",
      "type": "function"
    },
    {
      "inputs": [
        {
          "internalType": "uint256",
          "name": "",
          "type": "uint256"
        }
      ],
      "name": "payrollse",
      "outputs": [
        {
          "internalType": "uint256",
          "name": "mentorReputationLevel",
          "type": "uint256"
        },
        {
          "internalType": "uint256",
          "name": "mentorPaymentRate",
          "type": "uint256"
        },
        {
          "internalType": "uint256",
          "name": "balance",
          "type": "uint256"
        }
      ],
      "stateMutability": "view",
      "type": "function"
    },
    {
      "inputs": [],
      "name": "symbol",
      "outputs": [
        {
          "internalType": "string",
          "name": "",
          "type": "string"
        }
      ],
      "stateMutability": "view",
      "type": "function"
    },
    {
      "inputs": [],
      "name": "totalSupply",
      "outputs": [
        {
          "internalType": "uint256",
          "name": "",
          "type": "uint256"
        }
      ],
      "stateMutability": "view",
      "type": "function"
    },
    {
      "inputs": [
        {
          "internalType": "address",
          "name": "recipient",
          "type": "address"
        },
        {
          "internalType": "uint256",
          "name": "amount",
          "type": "uint256"
        }
      ],
      "name": "transfer",
      "outputs": [
        {
          "internalType": "bool",
          "name": "",
          "type": "bool"
        }
      ],
      "stateMutability": "nonpayable",
      "type": "function"
    },
    {
      "inputs": [
        {
          "internalType": "address",
          "name": "sender",
          "type": "address"
        },
        {
          "internalType": "address",
          "name": "recipient",
          "type": "address"
        },
        {
          "internalType": "uint256",
          "name": "amount",
          "type": "uint256"
        }
      ],
      "name": "transferFrom",
      "outputs": [
        {
          "internalType": "bool",
          "name": "",
          "type": "bool"
        }
      ],
      "stateMutability": "nonpayable",
      "type": "function"
    },
    {
      "inputs": [
        {
          "internalType": "uint256",
          "name": "_agorumID",
          "type": "uint256"
        },
        {
          "internalType": "uint256",
          "name": "_reputationLevel",
          "type": "uint256"
        },
        {
          "internalType": "uint256",
          "name": "_mentorPaymentRate",
          "type": "uint256"
        }
      ],
      "name": "createPayroll",
      "outputs": [],
      "stateMutability": "nonpayable",
      "type": "function"
    },
    {
      "inputs": [
        {
          "internalType": "uint256",
          "name": "_agorumID",
          "type": "uint256"
        },
        {
          "internalType": "uint256",
          "name": "_reputationPoints",
          "type": "uint256"
        }
      ],
      "name": "setMentorRequirements",
      "outputs": [],
      "stateMutability": "nonpayable",
      "type": "function"
    },
    {
      "inputs": [
        {
          "internalType": "uint256",
          "name": "_agorumID",
          "type": "uint256"
        },
        {
          "internalType": "uint256",
          "name": "_mentorPaymentRate",
          "type": "uint256"
        }
      ],
      "name": "setMentorPaymentRate",
      "outputs": [],
      "stateMutability": "nonpayable",
      "type": "function"
    },
    {
      "inputs": [
        {
          "internalType": "uint256",
          "name": "_agorumID",
          "type": "uint256"
        },
        {
          "internalType": "address payable",
          "name": "_mentorAddress",
          "type": "address"
        }
      ],
      "name": "addNewMentor",
      "outputs": [],
      "stateMutability": "nonpayable",
      "type": "function"
    },
    {
      "inputs": [
        {
          "internalType": "uint256",
          "name": "_agorumID",
          "type": "uint256"
        },
        {
          "internalType": "uint256",
          "name": "_amount",
          "type": "uint256"
        }
      ],
      "name": "acceptPayments",
      "outputs": [],
      "stateMutability": "nonpayable",
      "type": "function"
    },
    {
      "inputs": [
        {
          "internalType": "uint256",
          "name": "_agorumID",
          "type": "uint256"
        },
        {
          "internalType": "address payable",
          "name": "_contributorAddress",
          "type": "address"
        },
        {
          "internalType": "uint256",
          "name": "_reward",
          "type": "uint256"
        }
      ],
      "name": "addNewContributor",
      "outputs": [],
      "stateMutability": "nonpayable",
      "type": "function"
    }
  ],
  "bytecode": "0x608060405260006006553480156200001657600080fd5b506040518060400160405280600a81526020017f41676f7261546f6b656e000000000000000000000000000000000000000000008152506040518060400160405280600381526020017f41474f000000000000000000000000000000000000000000000000000000000081525081600390805190602001906200009b929190620000bd565b508060049080519060200190620000b4929190620000bd565b505050620001d2565b828054620000cb906200016d565b90600052602060002090601f016020900481019282620000ef57600085556200013b565b82601f106200010a57805160ff19168380011785556200013b565b828001600101855582156200013b579182015b828111156200013a5782518255916020019190600101906200011d565b5b5090506200014a91906200014e565b5090565b5b80821115620001695760008160009055506001016200014f565b5090565b600060028204905060018216806200018657607f821691505b602082108114156200019d576200019c620001a3565b5b50919050565b7f4e487b7100000000000000000000000000000000000000000000000000000000600052602260045260246000fd5b612d1d80620001e26000396000f3fe608060405234801561001057600080fd5b506004361061018e5760003560e01c8063797c51a2116100de578063a9059cbb11610097578063dd62ed3e11610071578063dd62ed3e14610499578063deb13a83146104c9578063f7e9fd45146104e5578063f80dc68e146105015761018e565b8063a9059cbb1461042d578063afb749161461045d578063d7b6f4891461048f5761018e565b8063797c51a21461036f5780637de7ae831461038b57806386d654a3146103a757806395d89b41146103c3578063a457c2d7146103e1578063a5179800146104115761018e565b806323b872dd1161014b578063395093511161012557806339509351146102c15780635632b1fa146102f15780635bbc82471461032357806370a082311461033f5761018e565b806323b872dd14610243578063313ce567146102735780633840511f146102915761018e565b806306fdde0314610193578063095ea7b3146101b15780630c86254a146101e157806314690ba8146101eb5780631655907d1461020957806318160ddd14610225575b600080fd5b61019b610533565b6040516101a89190612731565b60405180910390f35b6101cb60048036038101906101c69190611e82565b6105c5565b6040516101d89190612716565b60405180910390f35b6101e96105e3565b005b6101f36105f0565b604051610200919061289f565b60405180910390f35b610223600480360381019061021e9190611ebe565b6105f6565b005b61022d6106b0565b60405161023a919061289f565b60405180910390f35b61025d60048036038101906102589190611e33565b6106ba565b60405161026a9190612716565b60405180910390f35b61027b6107bb565b604051610288919061298c565b60405180910390f35b6102ab60048036038101906102a69190611f33565b6107c4565b6040516102b89190612731565b60405180910390f35b6102db60048036038101906102d69190611e82565b61086a565b6040516102e89190612716565b60405180910390f35b61030b60048036038101906103069190611f33565b610916565b60405161031a93929190612955565b60405180910390f35b61033d60048036038101906103389190612070565b610940565b005b61035960048036038101906103549190611dce565b610aa7565b604051610366919061289f565b60405180910390f35b61038960048036038101906103849190612070565b610aef565b005b6103a560048036038101906103a09190612070565b610b59565b005b6103c160048036038101906103bc91906120ac565b610cc0565b005b6103cb610ce0565b6040516103d89190612731565b60405180910390f35b6103fb60048036038101906103f69190611e82565b610d72565b6040516104089190612716565b60405180910390f35b61042b60048036038101906104269190611f5c565b610e66565b005b61044760048036038101906104429190611e82565b610f18565b6040516104549190612716565b60405180910390f35b61047760048036038101906104729190611f33565b610f36565b60405161048693929190612955565b60405180910390f35b610497610f70565b005b6104b360048036038101906104ae9190611df7565b610f7d565b6040516104c0919061289f565b60405180910390f35b6104e360048036038101906104de9190611f98565b611004565b005b6104ff60048036038101906104fa9190611fe7565b61109a565b005b61051b60048036038101906105169190611f33565b61116d565b60405161052a93929190612753565b60405180910390f35b60606003805461054290612bb8565b80601f016020809104026020016040519081016040528092919081815260200182805461056e90612bb8565b80156105bb5780601f10610590576101008083540402835291602001916105bb565b820191906000526020600020905b81548152906001019060200180831161059e57829003601f168201915b5050505050905090565b60006105d96105d2611430565b8484611438565b6001905092915050565b6105ee336064611603565b565b60065481565b60006006600081548092919061060b90612bea565b9190505590508484600560008481526020019081526020016000206000019190610636929190611a8e565b50828260056000848152602001908152602001600020600101919061065c929190611b14565b5061066a818686868661109a565b7f63842ce14e9db32f1d6590c10bed8be6950c3d5ba6219cd550a3f3711ec26ba281868686866040516106a19594939291906128e3565b60405180910390a15050505050565b6000600254905090565b60006106c7848484611757565b6000600160008673ffffffffffffffffffffffffffffffffffffffff1673ffffffffffffffffffffffffffffffffffffffff1681526020019081526020016000206000610712611430565b73ffffffffffffffffffffffffffffffffffffffff1673ffffffffffffffffffffffffffffffffffffffff16815260200190815260200160002054905082811015610792576040517f08c379a0000000000000000000000000000000000000000000000000000000008152600401610789906127ff565b60405180910390fd5b6107af8561079e611430565b85846107aa9190612adb565b611438565b60019150509392505050565b60006002905090565b60056020528060005260406000206000915090508060000180546107e790612bb8565b80601f016020809104026020016040519081016040528092919081815260200182805461081390612bb8565b80156108605780601f1061083557610100808354040283529160200191610860565b820191906000526020600020905b81548152906001019060200180831161084357829003601f168201915b5050505050905081565b600061090c610877611430565b848460016000610885611430565b73ffffffffffffffffffffffffffffffffffffffff1673ffffffffffffffffffffffffffffffffffffffff16815260200190815260200160002060008873ffffffffffffffffffffffffffffffffffffffff1673ffffffffffffffffffffffffffffffffffffffff168152602001908152602001600020546109079190612a85565b611438565b6001905092915050565b60086020528060005260406000206000915090508060020154908060030154908060040154905083565b600560008381526020019081526020016000206001018054806020026020016040519081016040528092919081815260200182805480156109d657602002820191906000526020600020905b8160009054906101000a900473ffffffffffffffffffffffffffffffffffffffff1673ffffffffffffffffffffffffffffffffffffffff168152602001906001019080831161098c575b50505050506000805b811580156109ed5750825181105b15610a7e57828181518110610a2b577f4e487b7100000000000000000000000000000000000000000000000000000000600052603260045260246000fd5b602002602001015173ffffffffffffffffffffffffffffffffffffffff163373ffffffffffffffffffffffffffffffffffffffff161415610a6b57600191505b8080610a7690612bea565b9150506109df565b8115610aa0578360086000878152602001908152602001600020600301819055505b5050505050565b60008060008373ffffffffffffffffffffffffffffffffffffffff1673ffffffffffffffffffffffffffffffffffffffff168152602001908152602001600020549050919050565b80600860008481526020019081526020016000206004016000828254610b159190612a85565b925050819055507fa8e6f9f627e4d2eb0f2887148343c7db7d11e76bdf6b93363126267954a42a518282604051610b4d92919061292c565b60405180910390a15050565b60056000838152602001908152602001600020600101805480602002602001604051908101604052809291908181526020018280548015610bef57602002820191906000526020600020905b8160009054906101000a900473ffffffffffffffffffffffffffffffffffffffff1673ffffffffffffffffffffffffffffffffffffffff1681526020019060010190808311610ba5575b50505050506000805b81158015610c065750825181105b15610c9757828181518110610c44577f4e487b7100000000000000000000000000000000000000000000000000000000600052603260045260246000fd5b602002602001015173ffffffffffffffffffffffffffffffffffffffff163373ffffffffffffffffffffffffffffffffffffffff161415610c8457600191505b8080610c8f90612bea565b915050610bf8565b8115610cb9578360086000878152602001908152602001600020600201819055505b5050505050565b816008600085815260200190815260200160002060020181905550505050565b606060048054610cef90612bb8565b80601f0160208091040260200160405190810160405280929190818152602001828054610d1b90612bb8565b8015610d685780601f10610d3d57610100808354040283529160200191610d68565b820191906000526020600020905b815481529060010190602001808311610d4b57829003601f168201915b5050505050905090565b60008060016000610d81611430565b73ffffffffffffffffffffffffffffffffffffffff1673ffffffffffffffffffffffffffffffffffffffff16815260200190815260200160002060008573ffffffffffffffffffffffffffffffffffffffff1673ffffffffffffffffffffffffffffffffffffffff16815260200190815260200160002054905082811015610e3e576040517f08c379a0000000000000000000000000000000000000000000000000000000008152600401610e359061285f565b60405180910390fd5b610e5b610e49611430565b858584610e569190612adb565b611438565b600191505092915050565b808260086000858152602001908152602001600020600301546008600086815260200190815260200160002060010160008573ffffffffffffffffffffffffffffffffffffffff1673ffffffffffffffffffffffffffffffffffffffff168152602001908152602001600020600001819055507fc52a3b2461c51f7093109e25810c135e7f5fc419f9a002af1bc71033818588118484604051610f0a9291906128ba565b60405180910390a150505050565b6000610f2c610f25611430565b8484611757565b6001905092915050565b60078181548110610f4657600080fd5b90600052602060002090600502016000915090508060020154908060030154908060040154905083565b610f7b33600a611603565b565b6000600160008473ffffffffffffffffffffffffffffffffffffffff1673ffffffffffffffffffffffffffffffffffffffff16815260200190815260200160002060008373ffffffffffffffffffffffffffffffffffffffff1673ffffffffffffffffffffffffffffffffffffffff16815260200190815260200160002054905092915050565b806008600085815260200190815260200160002060000160008473ffffffffffffffffffffffffffffffffffffffff1673ffffffffffffffffffffffffffffffffffffffff168152602001908152602001600020819055507f80f8a8834707e8354b741b30bf6902630c62f9a409323711bf0f361f48f032da828260405161108d9291906126ed565b60405180910390a1505050565b6000600560008781526020019081526020016000209050806002016110c1868686866119d6565b90806001815401808255809150506001900390600052602060002090600202016000909190919091506000820151816000019080519060200190611106929190611bb4565b506020820151816001019080519060200190611123929190611c3a565b5050507ffd2460ade19a645be21837aae3f27f9894e25dbc372959960f483e385d9c739a868686868660405161115d9594939291906128e3565b60405180910390a1505050505050565b606080606060006005600086815260200190815260200160002090508060000181600101826002018280546111a190612bb8565b80601f01602080910402602001604051908101604052809291908181526020018280546111cd90612bb8565b801561121a5780601f106111ef5761010080835404028352916020019161121a565b820191906000526020600020905b8154815290600101906020018083116111fd57829003601f168201915b50505050509250818054806020026020016040519081016040528092919081815260200182805480156112a257602002820191906000526020600020905b8160009054906101000a900473ffffffffffffffffffffffffffffffffffffffff1673ffffffffffffffffffffffffffffffffffffffff1681526020019060010190808311611258575b5050505050915080805480602002602001604051908101604052809291908181526020016000905b8282101561141c57838290600052602060002090600202016040518060400160405290816000820180546112fd90612bb8565b80601f016020809104026020016040519081016040528092919081815260200182805461132990612bb8565b80156113765780601f1061134b57610100808354040283529160200191611376565b820191906000526020600020905b81548152906001019060200180831161135957829003601f168201915b505050505081526020016001820180548060200260200160405190810160405280929190818152602001828054801561140457602002820191906000526020600020905b8160009054906101000a900473ffffffffffffffffffffffffffffffffffffffff1673ffffffffffffffffffffffffffffffffffffffff16815260200190600101908083116113ba575b505050505081525050815260200190600101906112ca565b505050509050935093509350509193909250565b600033905090565b600073ffffffffffffffffffffffffffffffffffffffff168373ffffffffffffffffffffffffffffffffffffffff1614156114a8576040517f08c379a000000000000000000000000000000000000000000000000000000000815260040161149f9061283f565b60405180910390fd5b600073ffffffffffffffffffffffffffffffffffffffff168273ffffffffffffffffffffffffffffffffffffffff161415611518576040517f08c379a000000000000000000000000000000000000000000000000000000000815260040161150f906127bf565b60405180910390fd5b80600160008573ffffffffffffffffffffffffffffffffffffffff1673ffffffffffffffffffffffffffffffffffffffff16815260200190815260200160002060008473ffffffffffffffffffffffffffffffffffffffff1673ffffffffffffffffffffffffffffffffffffffff168152602001908152602001600020819055508173ffffffffffffffffffffffffffffffffffffffff168373ffffffffffffffffffffffffffffffffffffffff167f8c5be1e5ebec7d5bd14f71427d1e84f3dd0314c0f7b2291e5b200ac8c7c3b925836040516115f6919061289f565b60405180910390a3505050565b600073ffffffffffffffffffffffffffffffffffffffff168273ffffffffffffffffffffffffffffffffffffffff161415611673576040517f08c379a000000000000000000000000000000000000000000000000000000000815260040161166a9061287f565b60405180910390fd5b61167f60008383611a89565b80600260008282546116919190612a85565b92505081905550806000808473ffffffffffffffffffffffffffffffffffffffff1673ffffffffffffffffffffffffffffffffffffffff16815260200190815260200160002060008282546116e69190612a85565b925050819055508173ffffffffffffffffffffffffffffffffffffffff16600073ffffffffffffffffffffffffffffffffffffffff167fddf252ad1be2c89b69c2b068fc378daa952ba7f163c4a11628f55a4df523b3ef8360405161174b919061289f565b60405180910390a35050565b600073ffffffffffffffffffffffffffffffffffffffff168373ffffffffffffffffffffffffffffffffffffffff1614156117c7576040517f08c379a00000000000000000000000000000000000000000000000000000000081526004016117be9061281f565b60405180910390fd5b600073ffffffffffffffffffffffffffffffffffffffff168273ffffffffffffffffffffffffffffffffffffffff161415611837576040517f08c379a000000000000000000000000000000000000000000000000000000000815260040161182e9061279f565b60405180910390fd5b611842838383611a89565b60008060008573ffffffffffffffffffffffffffffffffffffffff1673ffffffffffffffffffffffffffffffffffffffff168152602001908152602001600020549050818110156118c8576040517f08c379a00000000000000000000000000000000000000000000000000000000081526004016118bf906127df565b60405180910390fd5b81816118d49190612adb565b6000808673ffffffffffffffffffffffffffffffffffffffff1673ffffffffffffffffffffffffffffffffffffffff16815260200190815260200160002081905550816000808573ffffffffffffffffffffffffffffffffffffffff1673ffffffffffffffffffffffffffffffffffffffff16815260200190815260200160002060008282546119649190612a85565b925050819055508273ffffffffffffffffffffffffffffffffffffffff168473ffffffffffffffffffffffffffffffffffffffff167fddf252ad1be2c89b69c2b068fc378daa952ba7f163c4a11628f55a4df523b3ef846040516119c8919061289f565b60405180910390a350505050565b6119de611cc4565b6119e6611cc4565b85858080601f016020809104026020016040519081016040528093929190818152602001838380828437600081840152601f19601f820116905080830192505050505050508160000181905250838380806020026020016040519081016040528093929190818152602001838360200280828437600081840152601f19601f82011690508083019250505050505050816020018190525080915050949350505050565b505050565b828054611a9a90612bb8565b90600052602060002090601f016020900481019282611abc5760008555611b03565b82601f10611ad557803560ff1916838001178555611b03565b82800160010185558215611b03579182015b82811115611b02578235825591602001919060010190611ae7565b5b509050611b109190611cde565b5090565b828054828255906000526020600020908101928215611ba3579160200282015b82811115611ba257823573ffffffffffffffffffffffffffffffffffffffff168260006101000a81548173ffffffffffffffffffffffffffffffffffffffff021916908373ffffffffffffffffffffffffffffffffffffffff16021790555091602001919060010190611b34565b5b509050611bb09190611cde565b5090565b828054611bc090612bb8565b90600052602060002090601f016020900481019282611be25760008555611c29565b82601f10611bfb57805160ff1916838001178555611c29565b82800160010185558215611c29579182015b82811115611c28578251825591602001919060010190611c0d565b5b509050611c369190611cde565b5090565b828054828255906000526020600020908101928215611cb3579160200282015b82811115611cb25782518260006101000a81548173ffffffffffffffffffffffffffffffffffffffff021916908373ffffffffffffffffffffffffffffffffffffffff16021790555091602001919060010190611c5a565b5b509050611cc09190611cde565b5090565b604051806040016040528060608152602001606081525090565b5b80821115611cf7576000816000905550600101611cdf565b5090565b600081359050611d0a81612ca2565b92915050565b600081359050611d1f81612cb9565b92915050565b60008083601f840112611d3757600080fd5b8235905067ffffffffffffffff811115611d5057600080fd5b602083019150836020820283011115611d6857600080fd5b9250929050565b60008083601f840112611d8157600080fd5b8235905067ffffffffffffffff811115611d9a57600080fd5b602083019150836001820283011115611db257600080fd5b9250929050565b600081359050611dc881612cd0565b92915050565b600060208284031215611de057600080fd5b6000611dee84828501611cfb565b91505092915050565b60008060408385031215611e0a57600080fd5b6000611e1885828601611cfb565b9250506020611e2985828601611cfb565b9150509250929050565b600080600060608486031215611e4857600080fd5b6000611e5686828701611cfb565b9350506020611e6786828701611cfb565b9250506040611e7886828701611db9565b9150509250925092565b60008060408385031215611e9557600080fd5b6000611ea385828601611cfb565b9250506020611eb485828601611db9565b9150509250929050565b60008060008060408587031215611ed457600080fd5b600085013567ffffffffffffffff811115611eee57600080fd5b611efa87828801611d6f565b9450945050602085013567ffffffffffffffff811115611f1957600080fd5b611f2587828801611d25565b925092505092959194509250565b600060208284031215611f4557600080fd5b6000611f5384828501611db9565b91505092915050565b60008060408385031215611f6f57600080fd5b6000611f7d85828601611db9565b9250506020611f8e85828601611d10565b9150509250929050565b600080600060608486031215611fad57600080fd5b6000611fbb86828701611db9565b9350506020611fcc86828701611d10565b9250506040611fdd86828701611db9565b9150509250925092565b600080600080600060608688031215611fff57600080fd5b600061200d88828901611db9565b955050602086013567ffffffffffffffff81111561202a57600080fd5b61203688828901611d6f565b9450945050604086013567ffffffffffffffff81111561205557600080fd5b61206188828901611d25565b92509250509295509295909350565b6000806040838503121561208357600080fd5b600061209185828601611db9565b92505060206120a285828601611db9565b9150509250929050565b6000806000606084860312156120c157600080fd5b60006120cf86828701611db9565b93505060206120e086828701611db9565b92505060406120f186828701611db9565b9150509250925092565b60006121078383612127565b60208301905092915050565b600061211f838361268b565b905092915050565b61213081612b21565b82525050565b61213f81612b21565b82525050565b60006121518385612a2a565b935061215c826129a7565b8060005b85811015612195576121728284612a6e565b61217c88826120fb565b9750612187836129f2565b925050600181019050612160565b5085925050509392505050565b60006121ad826129d1565b6121b78185612a19565b93506121c2836129b1565b8060005b838110156121f35781516121da88826120fb565b97506121e5836129ff565b9250506001810190506121c6565b5085935050505092915050565b600061220b826129d1565b6122158185612a2a565b9350612220836129b1565b8060005b8381101561225157815161223888826120fb565b9750612243836129ff565b925050600181019050612224565b5085935050505092915050565b6000612269826129dc565b6122738185612a3b565b935083602082028501612285856129c1565b8060005b858110156122c157848403895281516122a28582612113565b94506122ad83612a0c565b925060208a01995050600181019050612289565b50829750879550505050505092915050565b6122dc81612b33565b82525050565b60006122ee8385612a5d565b93506122fb838584612b76565b61230483612c91565b840190509392505050565b600061231a826129e7565b6123248185612a4c565b9350612334818560208601612b85565b61233d81612c91565b840191505092915050565b6000612353826129e7565b61235d8185612a5d565b935061236d818560208601612b85565b61237681612c91565b840191505092915050565b600061238e602383612a5d565b91507f45524332303a207472616e7366657220746f20746865207a65726f206164647260008301527f65737300000000000000000000000000000000000000000000000000000000006020830152604082019050919050565b60006123f4602283612a5d565b91507f45524332303a20617070726f766520746f20746865207a65726f20616464726560008301527f73730000000000000000000000000000000000000000000000000000000000006020830152604082019050919050565b600061245a602683612a5d565b91507f45524332303a207472616e7366657220616d6f756e742065786365656473206260008301527f616c616e636500000000000000000000000000000000000000000000000000006020830152604082019050919050565b60006124c0602883612a5d565b91507f45524332303a207472616e7366657220616d6f756e742065786365656473206160008301527f6c6c6f77616e63650000000000000000000000000000000000000000000000006020830152604082019050919050565b6000612526602583612a5d565b91507f45524332303a207472616e736665722066726f6d20746865207a65726f20616460008301527f64726573730000000000000000000000000000000000000000000000000000006020830152604082019050919050565b600061258c602483612a5d565b91507f45524332303a20617070726f76652066726f6d20746865207a65726f2061646460008301527f72657373000000000000000000000000000000000000000000000000000000006020830152604082019050919050565b60006125f2602583612a5d565b91507f45524332303a2064656372656173656420616c6c6f77616e63652062656c6f7760008301527f207a65726f0000000000000000000000000000000000000000000000000000006020830152604082019050919050565b6000612658601f83612a5d565b91507f45524332303a206d696e7420746f20746865207a65726f2061646472657373006000830152602082019050919050565b600060408301600083015184820360008601526126a8828261230f565b915050602083015184820360208601526126c282826121a2565b9150508091505092915050565b6126d881612b5f565b82525050565b6126e781612b69565b82525050565b60006040820190506127026000830185612136565b61270f60208301846126cf565b9392505050565b600060208201905061272b60008301846122d3565b92915050565b6000602082019050818103600083015261274b8184612348565b905092915050565b6000606082019050818103600083015261276d8186612348565b905081810360208301526127818185612200565b90508181036040830152612795818461225e565b9050949350505050565b600060208201905081810360008301526127b881612381565b9050919050565b600060208201905081810360008301526127d8816123e7565b9050919050565b600060208201905081810360008301526127f88161244d565b9050919050565b60006020820190508181036000830152612818816124b3565b9050919050565b6000602082019050818103600083015261283881612519565b9050919050565b600060208201905081810360008301526128588161257f565b9050919050565b60006020820190508181036000830152612878816125e5565b9050919050565b600060208201905081810360008301526128988161264b565b9050919050565b60006020820190506128b460008301846126cf565b92915050565b60006040820190506128cf60008301856126cf565b6128dc6020830184612136565b9392505050565b60006060820190506128f860008301886126cf565b818103602083015261290b8186886122e2565b90508181036040830152612920818486612145565b90509695505050505050565b600060408201905061294160008301856126cf565b61294e60208301846126cf565b9392505050565b600060608201905061296a60008301866126cf565b61297760208301856126cf565b61298460408301846126cf565b949350505050565b60006020820190506129a160008301846126de565b92915050565b6000819050919050565b6000819050602082019050919050565b6000819050602082019050919050565b600081519050919050565b600081519050919050565b600081519050919050565b6000602082019050919050565b6000602082019050919050565b6000602082019050919050565b600082825260208201905092915050565b600082825260208201905092915050565b600082825260208201905092915050565b600082825260208201905092915050565b600082825260208201905092915050565b6000612a7d6020840184611d10565b905092915050565b6000612a9082612b5f565b9150612a9b83612b5f565b9250827fffffffffffffffffffffffffffffffffffffffffffffffffffffffffffffffff03821115612ad057612acf612c33565b5b828201905092915050565b6000612ae682612b5f565b9150612af183612b5f565b925082821015612b0457612b03612c33565b5b828203905092915050565b6000612b1a82612b3f565b9050919050565b6000612b2c82612b3f565b9050919050565b60008115159050919050565b600073ffffffffffffffffffffffffffffffffffffffff82169050919050565b6000819050919050565b600060ff82169050919050565b82818337600083830152505050565b60005b83811015612ba3578082015181840152602081019050612b88565b83811115612bb2576000848401525b50505050565b60006002820490506001821680612bd057607f821691505b60208210811415612be457612be3612c62565b5b50919050565b6000612bf582612b5f565b91507fffffffffffffffffffffffffffffffffffffffffffffffffffffffffffffffff821415612c2857612c27612c33565b5b600182019050919050565b7f4e487b7100000000000000000000000000000000000000000000000000000000600052601160045260246000fd5b7f4e487b7100000000000000000000000000000000000000000000000000000000600052602260045260246000fd5b6000601f19601f8301169050919050565b612cab81612b0f565b8114612cb657600080fd5b50565b612cc281612b21565b8114612ccd57600080fd5b50565b612cd981612b5f565b8114612ce457600080fd5b5056fea26469706673582212202be6720e20ec403944ca60a49b1a86b0442a040a517570e2022d562d3ec6c0cd64736f6c63430008000033",
  "immutableReferences": {},
  "source": "// SPDX-License-Identifier: GPL-3.0\npragma solidity ^0.8.0;\n\nimport \"../node_modules/@openzeppelin/contracts/utils/math/SafeMath.sol\";\nimport \"./Structs.sol\";\nimport \"./AGOToken.sol\";\n\nimport \"./AgorumFactory.sol\";\n\n/**\n  * Mentors are responsible for guiding cohorts. For compensation, they are paid x tokens from the Agorum fund. This fund\n  * is supplied by tokens of course takers. In order for a mentor to be added as an official mentor of the Agorum, they\n  * must meet the requirements set by the agorum. For now, this simply means that they have a certain level of repuation.\n  * Once added to the mentor list, this makes them eligible to be assigned to cohorts and be paid tokens. A simple\n  * average is calculated from learners scores of the mentor. This aggregate rating is used to determine an added bonus\n  * to the mentor's compensation. The mentor is immediately paid x(base) + y(bonus) = total tokens.\n  * In summary:\n\n  * 1. Mentors register to be an Agorum mentor. They must met Agorum mentor reputation requirements. If met, then they\n  *    are added to the official mentor list and eligible for compensation.\n  * 2. Mentors are assigned to a cohort. After the cohort finishes, mentors get paid.\n  */\ncontract PayrollManager is AGOToken, AgorumFactory {\n  using SafeMath for uint256;\n\n  struct Payroll {\n    // list of contributors/mentors and their respective compensation amount\n    mapping (address => uint) contributors;\n    mapping (address => Cohort) mentors;\n    uint mentorReputationLevel;\n    uint mentorPaymentRate;\n    uint balance;\n  }\n\n  Payroll[] public payrollse;\n  mapping (uint => Payroll) public payrolls;\n\n  // checks to see if the mentor has a reputation greater than the agorum requirement\n  // is there a way we can query off-chain data to retrieve the reputation from user account (stored in IDX)??\n  modifier mentorRequirements(address payable _mentorAddress, uint _agorumID) {\n    // if (_mentorAddress.reputation > agorums[_agorumID].mentorReputationLevel) {\n      _;\n    // }\n  }\n\n  function createPayroll(uint _agorumID, uint _reputationLevel, uint _mentorPaymentRate) public {\n\n    payrolls[_agorumID].mentorReputationLevel = _reputationLevel;\n    // payrolls[_agorumID];\n  }\n\n  /**\n   * @dev Set the Agorum mentor requirements. At this time, the only supported requirement is a level of reputation.\n   * @param _agorumID ID of Agorum\n   * @param _reputationPoints the required level of points\n   */\n  function setMentorRequirements(uint _agorumID, uint _reputationPoints) external onlyCreator(agorums[_agorumID].agorumCreators) {\n    payrolls[_agorumID].mentorReputationLevel = _reputationPoints;\n  }\n\n  /**\n   * @dev Set the Agorum mentor payment rate. The rate is x tokens per cohort.\n   * @param _agorumID ID of Agorum\n   * @param _mentorPaymentRate the mentor payment rate\n   */\n  function setMentorPaymentRate(uint _agorumID, uint _mentorPaymentRate) external onlyCreator(agorums[_agorumID].agorumCreators) {\n    payrolls[_agorumID].mentorPaymentRate = _mentorPaymentRate;\n  }\n\n  /**\n   * @dev Adds a new mentor to an Agorum mentor list if they meet the Agorum mentor requirements\n   * @param _agorumID the ID of the Agorum mentor wishes to join\n   * @param _mentorAddress the mentor's address\n   */\n  function addNewMentor(uint _agorumID, address payable _mentorAddress) public mentorRequirements(_mentorAddress, _agorumID) {\n    // add mentor to payroll mentors tracker and preliminarily set the payment to base payment\n    payrolls[_agorumID].mentors[_mentorAddress].mentorPayment = payrolls[_agorumID].mentorPaymentRate;\n\n    emit NewMentor(_agorumID, _mentorAddress);\n  }\n\n  /**\n   * @dev Calculates the final mentor payment, based on an average of cohort taker ratings.\n   */\n  function _calculateFinalMentorPayment(uint _agorumID, address payable _mentorAddress) internal {\n    int totalRating = 0;\n    // cohorts is not available in this scope\n    int[] memory ratings = payrolls[_agorumID].mentors[_mentorAddress].learnerRatings;\n\n    // ratings can only be -2, -1, 0, 1, 2\n    // negative numbers decrease the mentor payment; positive increase payment bonus\n    for (uint i = 0; i < ratings.length; i++) {\n      totalRating += ratings[i];\n    }\n    // take average of ratings\n    int bonus = totalRating / int256(ratings.length);\n\n    // for now, dox a simple adding of bonus to base rate. Later, will create a sliding bonus based on max and min payments possible.\n    payrolls[_agorumID].mentors[_mentorAddress].mentorPayment += uint256(bonus);\n  }\n\n  function payMentor(uint _agorumID, address payable _mentorAddress) internal {\n    _calculateFinalMentorPayment(_agorumID, _mentorAddress);\n    uint mentorPayment = payrolls[_agorumID].mentors[_mentorAddress].mentorPayment;\n\n    // transfer ERC20 tokens using ERC20 transfer function\n    transfer(_mentorAddress, mentorPayment);\n  }\n\n  // PAYMENT FUNCTION\n  // payable function that accepts token payments to an agorum\n  function acceptPayments(uint _agorumID, uint _amount) public {\n    // should increase the token balance\n    payrolls[_agorumID].balance += _amount;\n\n    emit NewPayment(_agorumID, _amount);\n  }\n\n  // CONTRIBUTOR METHODS\n  function addNewContributor(uint _agorumID, address payable _contributorAddress, uint _reward) public {\n    payrolls[_agorumID].contributors[_contributorAddress] = _reward;\n\n    emit NewContributor(_contributorAddress, _reward);\n  }\n\n  function payContributor(uint _agorumID, address payable _contributorAddress) internal {\n    uint payment = payrolls[_agorumID].contributors[_contributorAddress];\n\n    transfer(_contributorAddress, payment);\n  }\n\n  event NewContributor(address payable contributorAddress, uint reward);\n  event NewMentor(uint agoruMID, address payable mentorAddress);\n  event NewPayment(uint agorumID, uint amount);\n}\n\n// TODO\n// 1. Make setter functions onlyCreator\n// 2. Make sure transfer method pays from the Payroll balance\n// 3. Subtract mentorPayment from the cohort struct\n// 4. Work on contributor methods",
  "sourcePath": "/home/victor/agora/blockchain/contracts/Payroll.sol",
  "compiler": {
    "name": "solc",
    "version": "0.8.0+commit.c7dfd78e.Emscripten.clang"
  },
  "schemaVersion": "3.3.4",
  "updatedAt": "2021-06-22T13:53:53.703Z",
  "devdoc": {
    "kind": "dev",
    "methods": {
      "addNewCourse(uint256,string,address[])": {
        "details": "Adds a new course to an Agorum"
      },
      "addNewMentor(uint256,address)": {
        "details": "Adds a new mentor to an Agorum mentor list if they meet the Agorum mentor requirements",
        "params": {
          "_agorumID": "the ID of the Agorum mentor wishes to join",
          "_mentorAddress": "the mentor's address"
        }
      },
      "allowance(address,address)": {
        "details": "See {IERC20-allowance}."
      },
      "approve(address,uint256)": {
        "details": "See {IERC20-approve}. Requirements: - `spender` cannot be the zero address."
      },
      "balanceOf(address)": {
        "details": "See {IERC20-balanceOf}."
      },
      "createNewAgorum(string,address[])": {
        "details": "Creates a new agorum with given name and array of creators. Adds new Agorum to the mapping tracker.Since an Agorum must be composed of at least one course, a course is also created and pushed to Agorum's courses.",
        "params": {
          "_creators": "address of the creators",
          "_name": "the agorum name"
        }
      },
      "decimals()": {
        "details": "Sets the decimals to 2 such that token balances are displayed as (balance / 10 ** 2)"
      },
      "decreaseAllowance(address,uint256)": {
        "details": "Atomically decreases the allowance granted to `spender` by the caller. This is an alternative to {approve} that can be used as a mitigation for problems described in {IERC20-approve}. Emits an {Approval} event indicating the updated allowance. Requirements: - `spender` cannot be the zero address. - `spender` must have allowance for the caller of at least `subtractedValue`."
      },
      "getAgorumMetadata(uint256)": {
        "details": "Retrieves the metadata of an Agorum, ie, name, creators, and coursesDoes not return Crowdfund or Payroll information",
        "params": {
          "_agorumID": "the ID of the Agorum"
        },
        "returns": {
          "_0": "the Agorum name, creators, and courses"
        }
      },
      "increaseAllowance(address,uint256)": {
        "details": "Atomically increases the allowance granted to `spender` by the caller. This is an alternative to {approve} that can be used as a mitigation for problems described in {IERC20-approve}. Emits an {Approval} event indicating the updated allowance. Requirements: - `spender` cannot be the zero address."
      },
      "mintTokensOnIntroCourseCompletion()": {
        "details": "Mints tokens when user has complete the introductory course"
      },
      "mintTokensOnNewLevel()": {
        "details": "Mints tokens when user has reached a new level"
      },
      "name()": {
        "details": "Returns the name of the token."
      },
      "setMentorPaymentRate(uint256,uint256)": {
        "details": "Set the Agorum mentor payment rate. The rate is x tokens per cohort.",
        "params": {
          "_agorumID": "ID of Agorum",
          "_mentorPaymentRate": "the mentor payment rate"
        }
      },
      "setMentorRequirements(uint256,uint256)": {
        "details": "Set the Agorum mentor requirements. At this time, the only supported requirement is a level of reputation.",
        "params": {
          "_agorumID": "ID of Agorum",
          "_reputationPoints": "the required level of points"
        }
      },
      "symbol()": {
        "details": "Returns the symbol of the token, usually a shorter version of the name."
      },
      "totalSupply()": {
        "details": "See {IERC20-totalSupply}."
      },
      "transfer(address,uint256)": {
        "details": "See {IERC20-transfer}. Requirements: - `recipient` cannot be the zero address. - the caller must have a balance of at least `amount`."
      },
      "transferFrom(address,address,uint256)": {
        "details": "See {IERC20-transferFrom}. Emits an {Approval} event indicating the updated allowance. This is not required by the EIP. See the note at the beginning of {ERC20}. Requirements: - `sender` and `recipient` cannot be the zero address. - `sender` must have a balance of at least `amount`. - the caller must have allowance for ``sender``'s tokens of at least `amount`."
      }
    },
    "version": 1
  },
  "userdoc": {
    "kind": "user",
    "methods": {},
    "notice": "Mentors are responsible for guiding cohorts. For compensation, they are paid x tokens from the Agorum fund. This fund is supplied by tokens of course takers. In order for a mentor to be added as an official mentor of the Agorum, they must meet the requirements set by the agorum. For now, this simply means that they have a certain level of repuation. Once added to the mentor list, this makes them eligible to be assigned to cohorts and be paid tokens. A simple average is calculated from learners scores of the mentor. This aggregate rating is used to determine an added bonus to the mentor's compensation. The mentor is immediately paid x(base) + y(bonus) = total tokens. In summary: 1. Mentors register to be an Agorum mentor. They must met Agorum mentor reputation requirements. If met, then they    are added to the official mentor list and eligible for compensation. 2. Mentors are assigned to a cohort. After the cohort finishes, mentors get paid.",
    "version": 1
  }
}