{
  "contractName": "PayrollFactory",
  "abi": [
    {
      "anonymous": false,
      "inputs": [
        {
          "indexed": false,
          "internalType": "uint256",
          "name": "id",
          "type": "uint256"
        },
        {
          "indexed": false,
          "internalType": "uint256",
          "name": "reputationLevel",
          "type": "uint256"
        },
        {
          "indexed": false,
          "internalType": "uint256",
          "name": "mentorPaymentRate",
          "type": "uint256"
        }
      ],
      "name": "PayrollCreated",
      "type": "event"
    },
    {
      "inputs": [
        {
          "internalType": "uint256",
          "name": "",
          "type": "uint256"
        }
      ],
      "name": "payrolls",
      "outputs": [
        {
          "internalType": "uint256",
          "name": "mentorReputationLevel",
          "type": "uint256"
        },
        {
          "internalType": "uint256",
          "name": "mentorPaymentRate",
          "type": "uint256"
        },
        {
          "internalType": "uint256",
          "name": "balance",
          "type": "uint256"
        }
      ],
      "stateMutability": "view",
      "type": "function"
    }
  ],
  "bytecode": "0x608060405234801561001057600080fd5b50610167806100206000396000f3fe608060405234801561001057600080fd5b506004361061002b5760003560e01c80635632b1fa14610030575b600080fd5b61004a600480360381019061004591906100a1565b610062565b604051610059939291906100d9565b60405180910390f35b60006020528060005260406000206000915090508060000154908060010154908060020154905083565b60008135905061009b8161011a565b92915050565b6000602082840312156100b357600080fd5b60006100c18482850161008c565b91505092915050565b6100d381610110565b82525050565b60006060820190506100ee60008301866100ca565b6100fb60208301856100ca565b61010860408301846100ca565b949350505050565b6000819050919050565b61012381610110565b811461012e57600080fd5b5056fea264697066735822122075ec679aa1976f31887ed6cdeb5668215fce01f7cf299d4513314fbf861b6d1964736f6c63430008000033",
  "immutableReferences": {},
  "source": "// SPDX-License-Identifier: GPL-3.0\npragma solidity ^0.8.0;\n\ncontract PayrollFactory {\n\n  struct Payroll {\n    uint mentorReputationLevel;\n    uint mentorPaymentRate;\n    uint balance;\n    mapping (address => uint) contributors;\n    mapping (address => Cohort) mentorToCohort;\n    address payable[] mentors;\n  }\n\n  struct Cohort {\n    uint numStudents;\n    int[] learnerRatings;\n    uint createdAt;\n    uint endingDate;\n  }\n\n  // payroll's ID is the same as the ID of the agorum it is associated with\n  mapping (uint => Payroll) public payrolls;\n\n  function _createPayroll(uint _agorumID, uint _reputationLevel, uint _mentorPaymentRate) internal {\n    payrolls[_agorumID].mentorReputationLevel = _reputationLevel;\n    payrolls[_agorumID].mentorPaymentRate = _mentorPaymentRate;\n    payrolls[_agorumID].balance = 0;\n\n    emit PayrollCreated(_agorumID, _reputationLevel, _mentorPaymentRate);\n  }\n\n  event PayrollCreated(uint id, uint reputationLevel, uint mentorPaymentRate);\n}",
  "sourcePath": "/home/victor/agora/backend/contracts/PayrollFactory.sol",
  "compiler": {
    "name": "solc",
    "version": "0.8.0+commit.c7dfd78e.Emscripten.clang"
  },
  "schemaVersion": "3.3.4",
  "updatedAt": "2021-06-29T16:53:38.512Z",
  "devdoc": {
    "kind": "dev",
    "methods": {},
    "version": 1
  },
  "userdoc": {
    "kind": "user",
    "methods": {},
    "version": 1
  }
}