{
  "contractName": "PayrollManager",
  "abi": [
    {
      "anonymous": false,
      "inputs": [
        {
          "indexed": false,
          "internalType": "uint256",
          "name": "agorumID",
          "type": "uint256"
        },
        {
          "indexed": false,
          "internalType": "string",
          "name": "name",
          "type": "string"
        },
        {
          "indexed": false,
          "internalType": "address payable[]",
          "name": "agorumCreators",
          "type": "address[]"
        }
      ],
      "name": "AgorumCreated",
      "type": "event"
    },
    {
      "anonymous": false,
      "inputs": [
        {
          "indexed": true,
          "internalType": "address",
          "name": "owner",
          "type": "address"
        },
        {
          "indexed": true,
          "internalType": "address",
          "name": "spender",
          "type": "address"
        },
        {
          "indexed": false,
          "internalType": "uint256",
          "name": "value",
          "type": "uint256"
        }
      ],
      "name": "Approval",
      "type": "event"
    },
    {
      "anonymous": false,
      "inputs": [
        {
          "indexed": false,
          "internalType": "uint256",
          "name": "agorumID",
          "type": "uint256"
        },
        {
          "indexed": false,
          "internalType": "address payable",
          "name": "mentorAddress",
          "type": "address"
        },
        {
          "indexed": false,
          "internalType": "uint256",
          "name": "numStudents",
          "type": "uint256"
        }
      ],
      "name": "CohortAssigned",
      "type": "event"
    },
    {
      "anonymous": false,
      "inputs": [
        {
          "indexed": false,
          "internalType": "uint256",
          "name": "agorumID",
          "type": "uint256"
        },
        {
          "indexed": false,
          "internalType": "string",
          "name": "title",
          "type": "string"
        },
        {
          "indexed": false,
          "internalType": "address payable[]",
          "name": "courseCreators",
          "type": "address[]"
        }
      ],
      "name": "CourseAdded",
      "type": "event"
    },
    {
      "anonymous": false,
      "inputs": [
        {
          "indexed": false,
          "internalType": "uint256",
          "name": "id",
          "type": "uint256"
        },
        {
          "indexed": false,
          "internalType": "uint256",
          "name": "goalAmount",
          "type": "uint256"
        },
        {
          "indexed": false,
          "internalType": "uint256",
          "name": "deadline",
          "type": "uint256"
        }
      ],
      "name": "CrowdfundCreated",
      "type": "event"
    },
    {
      "anonymous": false,
      "inputs": [
        {
          "indexed": false,
          "internalType": "uint256",
          "name": "agorumID",
          "type": "uint256"
        },
        {
          "indexed": false,
          "internalType": "address payable",
          "name": "mentorAddress",
          "type": "address"
        }
      ],
      "name": "NewMentor",
      "type": "event"
    },
    {
      "anonymous": false,
      "inputs": [
        {
          "indexed": false,
          "internalType": "uint256",
          "name": "agorumID",
          "type": "uint256"
        },
        {
          "indexed": false,
          "internalType": "uint256",
          "name": "amount",
          "type": "uint256"
        }
      ],
      "name": "NewPayment",
      "type": "event"
    },
    {
      "anonymous": false,
      "inputs": [
        {
          "indexed": false,
          "internalType": "uint256",
          "name": "id",
          "type": "uint256"
        },
        {
          "indexed": false,
          "internalType": "uint256",
          "name": "reputationLevel",
          "type": "uint256"
        },
        {
          "indexed": false,
          "internalType": "uint256",
          "name": "mentorPaymentRate",
          "type": "uint256"
        }
      ],
      "name": "PayrollCreated",
      "type": "event"
    },
    {
      "anonymous": false,
      "inputs": [
        {
          "indexed": true,
          "internalType": "address",
          "name": "from",
          "type": "address"
        },
        {
          "indexed": true,
          "internalType": "address",
          "name": "to",
          "type": "address"
        },
        {
          "indexed": false,
          "internalType": "uint256",
          "name": "value",
          "type": "uint256"
        }
      ],
      "name": "Transfer",
      "type": "event"
    },
    {
      "inputs": [
        {
          "internalType": "uint256",
          "name": "_agorumID",
          "type": "uint256"
        },
        {
          "internalType": "string",
          "name": "_name",
          "type": "string"
        },
        {
          "internalType": "address payable[]",
          "name": "_courseCreators",
          "type": "address[]"
        }
      ],
      "name": "addNewCourse",
      "outputs": [],
      "stateMutability": "nonpayable",
      "type": "function"
    },
    {
      "inputs": [
        {
          "internalType": "uint256",
          "name": "",
          "type": "uint256"
        }
      ],
      "name": "agorums",
      "outputs": [
        {
          "internalType": "string",
          "name": "name",
          "type": "string"
        }
      ],
      "stateMutability": "view",
      "type": "function",
      "constant": true
    },
    {
      "inputs": [
        {
          "internalType": "address",
          "name": "owner",
          "type": "address"
        },
        {
          "internalType": "address",
          "name": "spender",
          "type": "address"
        }
      ],
      "name": "allowance",
      "outputs": [
        {
          "internalType": "uint256",
          "name": "",
          "type": "uint256"
        }
      ],
      "stateMutability": "view",
      "type": "function",
      "constant": true
    },
    {
      "inputs": [
        {
          "internalType": "address",
          "name": "spender",
          "type": "address"
        },
        {
          "internalType": "uint256",
          "name": "amount",
          "type": "uint256"
        }
      ],
      "name": "approve",
      "outputs": [
        {
          "internalType": "bool",
          "name": "",
          "type": "bool"
        }
      ],
      "stateMutability": "nonpayable",
      "type": "function"
    },
    {
      "inputs": [
        {
          "internalType": "address",
          "name": "account",
          "type": "address"
        }
      ],
      "name": "balanceOf",
      "outputs": [
        {
          "internalType": "uint256",
          "name": "",
          "type": "uint256"
        }
      ],
      "stateMutability": "view",
      "type": "function",
      "constant": true
    },
    {
      "inputs": [
        {
          "internalType": "string",
          "name": "_name",
          "type": "string"
        },
        {
          "internalType": "address payable[]",
          "name": "_creators",
          "type": "address[]"
        },
        {
          "internalType": "uint256",
          "name": "_reputationLevel",
          "type": "uint256"
        },
        {
          "internalType": "uint256",
          "name": "_mentorPaymentRate",
          "type": "uint256"
        },
        {
          "internalType": "uint256",
          "name": "_goalAmount",
          "type": "uint256"
        },
        {
          "internalType": "uint256",
          "name": "_deadline",
          "type": "uint256"
        }
      ],
      "name": "createNewAgorum",
      "outputs": [],
      "stateMutability": "nonpayable",
      "type": "function"
    },
    {
      "inputs": [
        {
          "internalType": "uint256",
          "name": "",
          "type": "uint256"
        }
      ],
      "name": "crowdfunds",
      "outputs": [
        {
          "internalType": "uint256",
          "name": "goalAmount",
          "type": "uint256"
        },
        {
          "internalType": "uint256",
          "name": "deadline",
          "type": "uint256"
        },
        {
          "internalType": "uint256",
          "name": "createdAt",
          "type": "uint256"
        },
        {
          "internalType": "uint256",
          "name": "amountRaised",
          "type": "uint256"
        }
      ],
      "stateMutability": "view",
      "type": "function",
      "constant": true
    },
    {
      "inputs": [],
      "name": "decimals",
      "outputs": [
        {
          "internalType": "uint8",
          "name": "",
          "type": "uint8"
        }
      ],
      "stateMutability": "pure",
      "type": "function",
      "constant": true
    },
    {
      "inputs": [
        {
          "internalType": "address",
          "name": "spender",
          "type": "address"
        },
        {
          "internalType": "uint256",
          "name": "subtractedValue",
          "type": "uint256"
        }
      ],
      "name": "decreaseAllowance",
      "outputs": [
        {
          "internalType": "bool",
          "name": "",
          "type": "bool"
        }
      ],
      "stateMutability": "nonpayable",
      "type": "function"
    },
    {
      "inputs": [
        {
          "internalType": "uint256",
          "name": "_agorumID",
          "type": "uint256"
        }
      ],
      "name": "getAgorum",
      "outputs": [
        {
          "components": [
            {
              "internalType": "string",
              "name": "name",
              "type": "string"
            },
            {
              "internalType": "address payable[]",
              "name": "agorumCreators",
              "type": "address[]"
            },
            {
              "components": [
                {
                  "internalType": "string",
                  "name": "title",
                  "type": "string"
                },
                {
                  "internalType": "address payable[]",
                  "name": "courseCreators",
                  "type": "address[]"
                }
              ],
              "internalType": "struct AgorumFactory.Course[]",
              "name": "courses",
              "type": "tuple[]"
            }
          ],
          "internalType": "struct AgorumFactory.Agorum",
          "name": "",
          "type": "tuple"
        }
      ],
      "stateMutability": "view",
      "type": "function",
      "constant": true
    },
    {
      "inputs": [
        {
          "internalType": "address",
          "name": "spender",
          "type": "address"
        },
        {
          "internalType": "uint256",
          "name": "addedValue",
          "type": "uint256"
        }
      ],
      "name": "increaseAllowance",
      "outputs": [
        {
          "internalType": "bool",
          "name": "",
          "type": "bool"
        }
      ],
      "stateMutability": "nonpayable",
      "type": "function"
    },
    {
      "inputs": [],
      "name": "mintTokensOnIntroCourseCompletion",
      "outputs": [],
      "stateMutability": "nonpayable",
      "type": "function"
    },
    {
      "inputs": [],
      "name": "mintTokensOnNewLevel",
      "outputs": [],
      "stateMutability": "nonpayable",
      "type": "function"
    },
    {
      "inputs": [],
      "name": "name",
      "outputs": [
        {
          "internalType": "string",
          "name": "",
          "type": "string"
        }
      ],
      "stateMutability": "view",
      "type": "function",
      "constant": true
    },
    {
      "inputs": [],
      "name": "numAgorums",
      "outputs": [
        {
          "internalType": "uint256",
          "name": "",
          "type": "uint256"
        }
      ],
      "stateMutability": "view",
      "type": "function",
      "constant": true
    },
    {
      "inputs": [
        {
          "internalType": "uint256",
          "name": "",
          "type": "uint256"
        }
      ],
      "name": "payrolls",
      "outputs": [
        {
          "internalType": "uint256",
          "name": "mentorReputationLevel",
          "type": "uint256"
        },
        {
          "internalType": "uint256",
          "name": "mentorPaymentRate",
          "type": "uint256"
        },
        {
          "internalType": "uint256",
          "name": "balance",
          "type": "uint256"
        }
      ],
      "stateMutability": "view",
      "type": "function",
      "constant": true
    },
    {
      "inputs": [],
      "name": "symbol",
      "outputs": [
        {
          "internalType": "string",
          "name": "",
          "type": "string"
        }
      ],
      "stateMutability": "view",
      "type": "function",
      "constant": true
    },
    {
      "inputs": [],
      "name": "totalSupply",
      "outputs": [
        {
          "internalType": "uint256",
          "name": "",
          "type": "uint256"
        }
      ],
      "stateMutability": "view",
      "type": "function",
      "constant": true
    },
    {
      "inputs": [
        {
          "internalType": "address",
          "name": "recipient",
          "type": "address"
        },
        {
          "internalType": "uint256",
          "name": "amount",
          "type": "uint256"
        }
      ],
      "name": "transfer",
      "outputs": [
        {
          "internalType": "bool",
          "name": "",
          "type": "bool"
        }
      ],
      "stateMutability": "nonpayable",
      "type": "function"
    },
    {
      "inputs": [
        {
          "internalType": "address",
          "name": "sender",
          "type": "address"
        },
        {
          "internalType": "address",
          "name": "recipient",
          "type": "address"
        },
        {
          "internalType": "uint256",
          "name": "amount",
          "type": "uint256"
        }
      ],
      "name": "transferFrom",
      "outputs": [
        {
          "internalType": "bool",
          "name": "",
          "type": "bool"
        }
      ],
      "stateMutability": "nonpayable",
      "type": "function"
    },
    {
      "inputs": [
        {
          "internalType": "uint256",
          "name": "_agorumID",
          "type": "uint256"
        },
        {
          "internalType": "uint256",
          "name": "_reputationPoints",
          "type": "uint256"
        }
      ],
      "name": "changeMentorRequirements",
      "outputs": [],
      "stateMutability": "nonpayable",
      "type": "function"
    },
    {
      "inputs": [
        {
          "internalType": "uint256",
          "name": "_agorumID",
          "type": "uint256"
        },
        {
          "internalType": "uint256",
          "name": "_mentorPaymentRate",
          "type": "uint256"
        }
      ],
      "name": "changeMentorPaymentRate",
      "outputs": [],
      "stateMutability": "nonpayable",
      "type": "function"
    },
    {
      "inputs": [
        {
          "internalType": "uint256",
          "name": "_agorumID",
          "type": "uint256"
        },
        {
          "internalType": "address payable",
          "name": "_mentorAddress",
          "type": "address"
        }
      ],
      "name": "addMentor",
      "outputs": [],
      "stateMutability": "nonpayable",
      "type": "function"
    },
    {
      "inputs": [
        {
          "internalType": "uint256",
          "name": "_agorumID",
          "type": "uint256"
        },
        {
          "internalType": "address payable",
          "name": "_mentorAddress",
          "type": "address"
        },
        {
          "internalType": "uint256",
          "name": "_numStudents",
          "type": "uint256"
        },
        {
          "internalType": "uint256",
          "name": "endingDate",
          "type": "uint256"
        }
      ],
      "name": "assignCohort",
      "outputs": [],
      "stateMutability": "nonpayable",
      "type": "function"
    },
    {
      "inputs": [
        {
          "internalType": "uint256",
          "name": "_agorumID",
          "type": "uint256"
        },
        {
          "internalType": "address payable",
          "name": "_mentorAddress",
          "type": "address"
        }
      ],
      "name": "payMentor",
      "outputs": [],
      "stateMutability": "nonpayable",
      "type": "function"
    },
    {
      "inputs": [
        {
          "internalType": "uint256",
          "name": "_agorumID",
          "type": "uint256"
        },
        {
          "internalType": "uint256",
          "name": "_amount",
          "type": "uint256"
        }
      ],
      "name": "acceptPayments",
      "outputs": [],
      "stateMutability": "nonpayable",
      "type": "function"
    }
  ],
  "bytecode": "0x608060405260006003553480156200001657600080fd5b506040518060400160405280600a81526020017f41676f7261546f6b656e000000000000000000000000000000000000000000008152506040518060400160405280600381526020017f41474f000000000000000000000000000000000000000000000000000000000081525081600790805190602001906200009b929190620000bd565b508060089080519060200190620000b4929190620000bd565b505050620001d2565b828054620000cb906200016d565b90600052602060002090601f016020900481019282620000ef57600085556200013b565b82601f106200010a57805160ff19168380011785556200013b565b828001600101855582156200013b579182015b828111156200013a5782518255916020019190600101906200011d565b5b5090506200014a91906200014e565b5090565b5b80821115620001695760008160009055506001016200014f565b5090565b600060028204905060018216806200018657607f821691505b602082108114156200019d576200019c620001a3565b5b50919050565b7f4e487b7100000000000000000000000000000000000000000000000000000000600052602260045260246000fd5b61342080620001e26000396000f3fe608060405234801561001057600080fd5b506004361061018e5760003560e01c8063797c51a2116100de578063b0a128b411610097578063e0aae53111610071578063e0aae531146104c2578063f2659c5b146104de578063f7e9fd45146104fa578063fa4fd95c146105165761018e565b8063b0a128b41461046c578063d7b6f48914610488578063dd62ed3e146104925761018e565b8063797c51a2146103835780637ac4f9b31461039f57806395d89b41146103bb578063a457c2d7146103d9578063a9059cbb14610409578063ac42b1d6146104395761018e565b8063313ce5671161014b578063395093511161012557806339509351146102d55780635632b1fa146103055780636371628e1461033757806370a08231146103535761018e565b8063313ce56714610257578063336ab397146102755780633840511f146102a55761018e565b806306fdde0314610193578063095ea7b3146101b15780630c86254a146101e157806314690ba8146101eb57806318160ddd1461020957806323b872dd14610227575b600080fd5b61019b610532565b6040516101a89190612c8b565b60405180910390f35b6101cb60048036038101906101c691906123b2565b6105c4565b6040516101d89190612c70565b60405180910390f35b6101e96105e2565b005b6101f36105ef565b6040516102009190612def565b60405180910390f35b6102116105f5565b60405161021e9190612def565b60405180910390f35b610241600480360381019061023c9190612363565b6105ff565b60405161024e9190612c70565b60405180910390f35b61025f610700565b60405161026c9190612f58565b60405180910390f35b61028f600480360381019061028a91906124b1565b610709565b60405161029c9190612dcd565b60405180910390f35b6102bf60048036038101906102ba91906124b1565b6109d5565b6040516102cc9190612c8b565b60405180910390f35b6102ef60048036038101906102ea91906123b2565b610a7b565b6040516102fc9190612c70565b60405180910390f35b61031f600480360381019061031a91906124b1565b610b27565b60405161032e93929190612edc565b60405180910390f35b610351600480360381019061034c9190612516565b610b51565b005b61036d600480360381019061036891906122fe565b610cb7565b60405161037a9190612def565b60405180910390f35b61039d60048036038101906103989190612602565b610d00565b005b6103b960048036038101906103b491906124da565b610d74565b005b6103c3610e2b565b6040516103d09190612c8b565b60405180910390f35b6103f360048036038101906103ee91906123b2565b610ebd565b6040516104009190612c70565b60405180910390f35b610423600480360381019061041e91906123b2565b610fb1565b6040516104309190612c70565b60405180910390f35b610453600480360381019061044e91906124b1565b610fcf565b6040516104639493929190612f13565b60405180910390f35b610486600480360381019061048191906124da565b610fff565b005b61049061111f565b005b6104ac60048036038101906104a79190612327565b61112c565b6040516104b99190612def565b60405180910390f35b6104dc60048036038101906104d79190612602565b6111b3565b005b6104f860048036038101906104f39190612602565b611319565b005b610514600480360381019061050f9190612579565b61147f565b005b610530600480360381019061052b91906123ee565b611552565b005b6060600780546105419061328c565b80601f016020809104026020016040519081016040528092919081815260200182805461056d9061328c565b80156105ba5780601f1061058f576101008083540402835291602001916105ba565b820191906000526020600020905b81548152906001019060200180831161059d57829003601f168201915b5050505050905090565b60006105d86105d1611626565b848461162e565b6001905092915050565b6105ed3360646117f9565b565b60035481565b6000600654905090565b600061060c84848461194e565b6000600560008673ffffffffffffffffffffffffffffffffffffffff1673ffffffffffffffffffffffffffffffffffffffff1681526020019081526020016000206000610657611626565b73ffffffffffffffffffffffffffffffffffffffff1673ffffffffffffffffffffffffffffffffffffffff168152602001908152602001600020549050828110156106d7576040517f08c379a00000000000000000000000000000000000000000000000000000000081526004016106ce90612d0d565b60405180910390fd5b6106f4856106e3611626565b85846106ef91906131a5565b61162e565b60019150509392505050565b60006002905090565b610711611f33565b6002600083815260200190815260200160002060405180606001604052908160008201805461073f9061328c565b80601f016020809104026020016040519081016040528092919081815260200182805461076b9061328c565b80156107b85780601f1061078d576101008083540402835291602001916107b8565b820191906000526020600020905b81548152906001019060200180831161079b57829003601f168201915b505050505081526020016001820180548060200260200160405190810160405280929190818152602001828054801561084657602002820191906000526020600020905b8160009054906101000a900473ffffffffffffffffffffffffffffffffffffffff1673ffffffffffffffffffffffffffffffffffffffff16815260200190600101908083116107fc575b5050505050815260200160028201805480602002602001604051908101604052809291908181526020016000905b828210156109c657838290600052602060002090600202016040518060400160405290816000820180546108a79061328c565b80601f01602080910402602001604051908101604052809291908181526020018280546108d39061328c565b80156109205780601f106108f557610100808354040283529160200191610920565b820191906000526020600020905b81548152906001019060200180831161090357829003601f168201915b50505050508152602001600182018054806020026020016040519081016040528092919081815260200182805480156109ae57602002820191906000526020600020905b8160009054906101000a900473ffffffffffffffffffffffffffffffffffffffff1673ffffffffffffffffffffffffffffffffffffffff1681526020019060010190808311610964575b50505050508152505081526020019060010190610874565b50505050815250509050919050565b60026020528060005260406000206000915090508060000180546109f89061328c565b80601f0160208091040260200160405190810160405280929190818152602001828054610a249061328c565b8015610a715780601f10610a4657610100808354040283529160200191610a71565b820191906000526020600020905b815481529060010190602001808311610a5457829003601f168201915b5050505050905081565b6000610b1d610a88611626565b848460056000610a96611626565b73ffffffffffffffffffffffffffffffffffffffff1673ffffffffffffffffffffffffffffffffffffffff16815260200190815260200160002060008873ffffffffffffffffffffffffffffffffffffffff1673ffffffffffffffffffffffffffffffffffffffff16815260200190815260200160002054610b1891906130e5565b61162e565b6001905092915050565b60006020528060005260406000206000915090508060000154908060010154908060020154905083565b60008267ffffffffffffffff811115610b93577f4e487b7100000000000000000000000000000000000000000000000000000000600052604160045260246000fd5b604051908082528060200260200182016040528015610bc15781602001602082028036833780820191505090505b50905060405180608001604052808481526020018281526020014281526020018381525060008087815260200190815260200160002060040160008673ffffffffffffffffffffffffffffffffffffffff1673ffffffffffffffffffffffffffffffffffffffff168152602001908152602001600020600082015181600001556020820151816001019080519060200190610c5d929190611f54565b5060408201518160020155606082015181600301559050507fbefb36b8371ab9a87866986863c6b6ba43f74b39647cb18a52b83540f6733c6c858585604051610ca893929190612e33565b60405180910390a15050505050565b6000600460008373ffffffffffffffffffffffffffffffffffffffff1673ffffffffffffffffffffffffffffffffffffffff168152602001908152602001600020549050919050565b806000808481526020019081526020016000206002016000828254610d2591906130e5565b92505081905550610d363082610fb1565b507fa8e6f9f627e4d2eb0f2887148343c7db7d11e76bdf6b93363126267954a42a518282604051610d68929190612eb3565b60405180910390a15050565b8082600080858152602001908152602001600020600501839080600181540180825580915050600190039060005260206000200160009091909190916101000a81548173ffffffffffffffffffffffffffffffffffffffff021916908373ffffffffffffffffffffffffffffffffffffffff1602179055507fc52a3b2461c51f7093109e25810c135e7f5fc419f9a002af1bc71033818588118484604051610e1d929190612e0a565b60405180910390a150505050565b606060088054610e3a9061328c565b80601f0160208091040260200160405190810160405280929190818152602001828054610e669061328c565b8015610eb35780601f10610e8857610100808354040283529160200191610eb3565b820191906000526020600020905b815481529060010190602001808311610e9657829003601f168201915b5050505050905090565b60008060056000610ecc611626565b73ffffffffffffffffffffffffffffffffffffffff1673ffffffffffffffffffffffffffffffffffffffff16815260200190815260200160002060008573ffffffffffffffffffffffffffffffffffffffff1673ffffffffffffffffffffffffffffffffffffffff16815260200190815260200160002054905082811015610f89576040517f08c379a0000000000000000000000000000000000000000000000000000000008152600401610f8090612d8d565b60405180910390fd5b610fa6610f94611626565b858584610fa191906131a5565b61162e565b600191505092915050565b6000610fc5610fbe611626565b848461194e565b6001905092915050565b60016020528060005260406000206000915090508060000154908060010154908060020154908060030154905084565b600080600084815260200190815260200160002060040160008373ffffffffffffffffffffffffffffffffffffffff1673ffffffffffffffffffffffffffffffffffffffff168152602001908152602001600020600201549050600080600085815260200190815260200160002060040160008473ffffffffffffffffffffffffffffffffffffffff1673ffffffffffffffffffffffffffffffffffffffff1681526020019081526020016000206003015490508082426110c091906131a5565b11611100576040517f08c379a00000000000000000000000000000000000000000000000000000000081526004016110f790612d2d565b60405180910390fd5b600061110c8585611bd0565b90506111188482611d30565b5050505050565b61112a33600a6117f9565b565b6000600560008473ffffffffffffffffffffffffffffffffffffffff1673ffffffffffffffffffffffffffffffffffffffff16815260200190815260200160002060008373ffffffffffffffffffffffffffffffffffffffff1673ffffffffffffffffffffffffffffffffffffffff16815260200190815260200160002054905092915050565b6002600083815260200190815260200160002060010180548060200260200160405190810160405280929190818152602001828054801561124957602002820191906000526020600020905b8160009054906101000a900473ffffffffffffffffffffffffffffffffffffffff1673ffffffffffffffffffffffffffffffffffffffff16815260200190600101908083116111ff575b50505050506000805b811580156112605750825181105b156112f15782818151811061129e577f4e487b7100000000000000000000000000000000000000000000000000000000600052603260045260246000fd5b602002602001015173ffffffffffffffffffffffffffffffffffffffff163373ffffffffffffffffffffffffffffffffffffffff1614156112de57600191505b80806112e9906132be565b915050611252565b81156113125783600080878152602001908152602001600020600101819055505b5050505050565b600260008381526020019081526020016000206001018054806020026020016040519081016040528092919081815260200182805480156113af57602002820191906000526020600020905b8160009054906101000a900473ffffffffffffffffffffffffffffffffffffffff1673ffffffffffffffffffffffffffffffffffffffff1681526020019060010190808311611365575b50505050506000805b811580156113c65750825181105b1561145757828181518110611404577f4e487b7100000000000000000000000000000000000000000000000000000000600052603260045260246000fd5b602002602001015173ffffffffffffffffffffffffffffffffffffffff163373ffffffffffffffffffffffffffffffffffffffff16141561144457600191505b808061144f906132be565b9150506113b8565b81156114785783600080878152602001908152602001600020600001819055505b5050505050565b6000600260008781526020019081526020016000209050806002016114a686868686611d3f565b908060018154018082558091505060019003906000526020600020906002020160009091909190915060008201518160000190805190602001906114eb929190611fa1565b506020820151816001019080519060200190611508929190612027565b5050507ffd2460ade19a645be21837aae3f27f9894e25dbc372959960f483e385d9c739a8686868686604051611542959493929190612e6a565b60405180910390a1505050505050565b600060036000815480929190611567906132be565b91905055905088886002600084815260200190815260200160002060000191906115929291906120b1565b5086866002600084815260200190815260200160002060010191906115b8929190612137565b506115c6818a8a8a8a61147f565b6115d1818686611df2565b6115dc818484611e81565b7f63842ce14e9db32f1d6590c10bed8be6950c3d5ba6219cd550a3f3711ec26ba2818a8a8a8a604051611613959493929190612e6a565b60405180910390a1505050505050505050565b600033905090565b600073ffffffffffffffffffffffffffffffffffffffff168373ffffffffffffffffffffffffffffffffffffffff16141561169e576040517f08c379a000000000000000000000000000000000000000000000000000000000815260040161169590612d6d565b60405180910390fd5b600073ffffffffffffffffffffffffffffffffffffffff168273ffffffffffffffffffffffffffffffffffffffff16141561170e576040517f08c379a000000000000000000000000000000000000000000000000000000000815260040161170590612ccd565b60405180910390fd5b80600560008573ffffffffffffffffffffffffffffffffffffffff1673ffffffffffffffffffffffffffffffffffffffff16815260200190815260200160002060008473ffffffffffffffffffffffffffffffffffffffff1673ffffffffffffffffffffffffffffffffffffffff168152602001908152602001600020819055508173ffffffffffffffffffffffffffffffffffffffff168373ffffffffffffffffffffffffffffffffffffffff167f8c5be1e5ebec7d5bd14f71427d1e84f3dd0314c0f7b2291e5b200ac8c7c3b925836040516117ec9190612def565b60405180910390a3505050565b600073ffffffffffffffffffffffffffffffffffffffff168273ffffffffffffffffffffffffffffffffffffffff161415611869576040517f08c379a000000000000000000000000000000000000000000000000000000000815260040161186090612dad565b60405180910390fd5b61187560008383611f2e565b806006600082825461188791906130e5565b9250508190555080600460008473ffffffffffffffffffffffffffffffffffffffff1673ffffffffffffffffffffffffffffffffffffffff16815260200190815260200160002060008282546118dd91906130e5565b925050819055508173ffffffffffffffffffffffffffffffffffffffff16600073ffffffffffffffffffffffffffffffffffffffff167fddf252ad1be2c89b69c2b068fc378daa952ba7f163c4a11628f55a4df523b3ef836040516119429190612def565b60405180910390a35050565b600073ffffffffffffffffffffffffffffffffffffffff168373ffffffffffffffffffffffffffffffffffffffff1614156119be576040517f08c379a00000000000000000000000000000000000000000000000000000000081526004016119b590612d4d565b60405180910390fd5b600073ffffffffffffffffffffffffffffffffffffffff168273ffffffffffffffffffffffffffffffffffffffff161415611a2e576040517f08c379a0000000000000000000000000000000000000000000000000000000008152600401611a2590612cad565b60405180910390fd5b611a39838383611f2e565b6000600460008573ffffffffffffffffffffffffffffffffffffffff1673ffffffffffffffffffffffffffffffffffffffff16815260200190815260200160002054905081811015611ac0576040517f08c379a0000000000000000000000000000000000000000000000000000000008152600401611ab790612ced565b60405180910390fd5b8181611acc91906131a5565b600460008673ffffffffffffffffffffffffffffffffffffffff1673ffffffffffffffffffffffffffffffffffffffff1681526020019081526020016000208190555081600460008573ffffffffffffffffffffffffffffffffffffffff1673ffffffffffffffffffffffffffffffffffffffff1681526020019081526020016000206000828254611b5e91906130e5565b925050819055508273ffffffffffffffffffffffffffffffffffffffff168473ffffffffffffffffffffffffffffffffffffffff167fddf252ad1be2c89b69c2b068fc378daa952ba7f163c4a11628f55a4df523b3ef84604051611bc29190612def565b60405180910390a350505050565b600080600090506000806000868152602001908152602001600020600101549050600080600087815260200190815260200160002060040160008673ffffffffffffffffffffffffffffffffffffffff1673ffffffffffffffffffffffffffffffffffffffff168152602001908152602001600020600101805480602002602001604051908101604052809291908181526020018280548015611c9257602002820191906000526020600020905b815481526020019060010190808311611c7e575b5050505050905060005b8151811015611d0657818181518110611cde577f4e487b7100000000000000000000000000000000000000000000000000000000600052603260045260246000fd5b602002602001015184611cf19190613051565b93508080611cfe906132be565b915050611c9c565b506000815184611d16919061313b565b90508083611d2491906130e5565b94505050505092915050565b611d3a8282610fb1565b505050565b611d476121d7565b611d4f6121d7565b85858080601f016020809104026020016040519081016040528093929190818152602001838380828437600081840152601f19601f820116905080830192505050505050508160000181905250838380806020026020016040519081016040528093929190818152602001838360200280828437600081840152601f19601f82011690508083019250505050505050816020018190525080915050949350505050565b816000808581526020019081526020016000206000018190555080600080858152602001908152602001600020600101819055506000806000858152602001908152602001600020600201819055507f49ac77dfe864b99940ef23e5879ce2aa0e5c007e8ac6edd1f9cfef4421171b5a838383604051611e7493929190612edc565b60405180910390a1505050565b816001600085815260200190815260200160002060000181905550806001600085815260200190815260200160002060010181905550600060016000858152602001908152602001600020600301819055504260016000858152602001908152602001600020600201819055507ff6770204747583255b89dd40c6f63c3e312d0bc558b0ee72452d7012eb9e058a838383604051611f2193929190612edc565b60405180910390a1505050565b505050565b60405180606001604052806060815260200160608152602001606081525090565b828054828255906000526020600020908101928215611f90579160200282015b82811115611f8f578251825591602001919060010190611f74565b5b509050611f9d91906121f1565b5090565b828054611fad9061328c565b90600052602060002090601f016020900481019282611fcf5760008555612016565b82601f10611fe857805160ff1916838001178555612016565b82800160010185558215612016579182015b82811115612015578251825591602001919060010190611ffa565b5b509050612023919061220e565b5090565b8280548282559060005260206000209081019282156120a0579160200282015b8281111561209f5782518260006101000a81548173ffffffffffffffffffffffffffffffffffffffff021916908373ffffffffffffffffffffffffffffffffffffffff16021790555091602001919060010190612047565b5b5090506120ad919061220e565b5090565b8280546120bd9061328c565b90600052602060002090601f0160209004810192826120df5760008555612126565b82601f106120f857803560ff1916838001178555612126565b82800160010185558215612126579182015b8281111561212557823582559160200191906001019061210a565b5b509050612133919061220e565b5090565b8280548282559060005260206000209081019282156121c6579160200282015b828111156121c557823573ffffffffffffffffffffffffffffffffffffffff168260006101000a81548173ffffffffffffffffffffffffffffffffffffffff021916908373ffffffffffffffffffffffffffffffffffffffff16021790555091602001919060010190612157565b5b5090506121d3919061220e565b5090565b604051806040016040528060608152602001606081525090565b5b8082111561220a5760008160009055506001016121f2565b5090565b5b8082111561222757600081600090555060010161220f565b5090565b60008135905061223a816133a5565b92915050565b60008135905061224f816133bc565b92915050565b60008083601f84011261226757600080fd5b8235905067ffffffffffffffff81111561228057600080fd5b60208301915083602082028301111561229857600080fd5b9250929050565b60008083601f8401126122b157600080fd5b8235905067ffffffffffffffff8111156122ca57600080fd5b6020830191508360018202830111156122e257600080fd5b9250929050565b6000813590506122f8816133d3565b92915050565b60006020828403121561231057600080fd5b600061231e8482850161222b565b91505092915050565b6000806040838503121561233a57600080fd5b60006123488582860161222b565b92505060206123598582860161222b565b9150509250929050565b60008060006060848603121561237857600080fd5b60006123868682870161222b565b93505060206123978682870161222b565b92505060406123a8868287016122e9565b9150509250925092565b600080604083850312156123c557600080fd5b60006123d38582860161222b565b92505060206123e4858286016122e9565b9150509250929050565b60008060008060008060008060c0898b03121561240a57600080fd5b600089013567ffffffffffffffff81111561242457600080fd5b6124308b828c0161229f565b9850985050602089013567ffffffffffffffff81111561244f57600080fd5b61245b8b828c01612255565b9650965050604061246e8b828c016122e9565b945050606061247f8b828c016122e9565b93505060806124908b828c016122e9565b92505060a06124a18b828c016122e9565b9150509295985092959890939650565b6000602082840312156124c357600080fd5b60006124d1848285016122e9565b91505092915050565b600080604083850312156124ed57600080fd5b60006124fb858286016122e9565b925050602061250c85828601612240565b9150509250929050565b6000806000806080858703121561252c57600080fd5b600061253a878288016122e9565b945050602061254b87828801612240565b935050604061255c878288016122e9565b925050606061256d878288016122e9565b91505092959194509250565b60008060008060006060868803121561259157600080fd5b600061259f888289016122e9565b955050602086013567ffffffffffffffff8111156125bc57600080fd5b6125c88882890161229f565b9450945050604086013567ffffffffffffffff8111156125e757600080fd5b6125f388828901612255565b92509250509295509295909350565b6000806040838503121561261557600080fd5b6000612623858286016122e9565b9250506020612634858286016122e9565b9150509250929050565b600061264a838361266a565b60208301905092915050565b60006126628383612c0e565b905092915050565b612673816131eb565b82525050565b612682816131eb565b82525050565b60006126948385612ff6565b935061269f82612f73565b8060005b858110156126d8576126b5828461303a565b6126bf888261263e565b97506126ca83612fbe565b9250506001810190506126a3565b5085925050509392505050565b60006126f082612f9d565b6126fa8185612fe5565b935061270583612f7d565b8060005b8381101561273657815161271d888261263e565b975061272883612fcb565b925050600181019050612709565b5085935050505092915050565b600061274e82612fa8565b6127588185613007565b93508360208202850161276a85612f8d565b8060005b858110156127a657848403895281516127878582612656565b945061279283612fd8565b925060208a0199505060018101905061276e565b50829750879550505050505092915050565b6127c1816131fd565b82525050565b60006127d38385613029565b93506127e083858461324a565b6127e983613394565b840190509392505050565b60006127ff82612fb3565b6128098185613018565b9350612819818560208601613259565b61282281613394565b840191505092915050565b600061283882612fb3565b6128428185613029565b9350612852818560208601613259565b61285b81613394565b840191505092915050565b6000612873602383613029565b91507f45524332303a207472616e7366657220746f20746865207a65726f206164647260008301527f65737300000000000000000000000000000000000000000000000000000000006020830152604082019050919050565b60006128d9602283613029565b91507f45524332303a20617070726f766520746f20746865207a65726f20616464726560008301527f73730000000000000000000000000000000000000000000000000000000000006020830152604082019050919050565b600061293f602683613029565b91507f45524332303a207472616e7366657220616d6f756e742065786365656473206260008301527f616c616e636500000000000000000000000000000000000000000000000000006020830152604082019050919050565b60006129a5602883613029565b91507f45524332303a207472616e7366657220616d6f756e742065786365656473206160008301527f6c6c6f77616e63650000000000000000000000000000000000000000000000006020830152604082019050919050565b6000612a0b601b83613029565b91507f436f686f727420686173206e6f742066696e69736865642079657400000000006000830152602082019050919050565b6000612a4b602583613029565b91507f45524332303a207472616e736665722066726f6d20746865207a65726f20616460008301527f64726573730000000000000000000000000000000000000000000000000000006020830152604082019050919050565b6000612ab1602483613029565b91507f45524332303a20617070726f76652066726f6d20746865207a65726f2061646460008301527f72657373000000000000000000000000000000000000000000000000000000006020830152604082019050919050565b6000612b17602583613029565b91507f45524332303a2064656372656173656420616c6c6f77616e63652062656c6f7760008301527f207a65726f0000000000000000000000000000000000000000000000000000006020830152604082019050919050565b6000612b7d601f83613029565b91507f45524332303a206d696e7420746f20746865207a65726f2061646472657373006000830152602082019050919050565b60006060830160008301518482036000860152612bcd82826127f4565b91505060208301518482036020860152612be782826126e5565b91505060408301518482036040860152612c018282612743565b9150508091505092915050565b60006040830160008301518482036000860152612c2b82826127f4565b91505060208301518482036020860152612c4582826126e5565b9150508091505092915050565b612c5b81613233565b82525050565b612c6a8161323d565b82525050565b6000602082019050612c8560008301846127b8565b92915050565b60006020820190508181036000830152612ca5818461282d565b905092915050565b60006020820190508181036000830152612cc681612866565b9050919050565b60006020820190508181036000830152612ce6816128cc565b9050919050565b60006020820190508181036000830152612d0681612932565b9050919050565b60006020820190508181036000830152612d2681612998565b9050919050565b60006020820190508181036000830152612d46816129fe565b9050919050565b60006020820190508181036000830152612d6681612a3e565b9050919050565b60006020820190508181036000830152612d8681612aa4565b9050919050565b60006020820190508181036000830152612da681612b0a565b9050919050565b60006020820190508181036000830152612dc681612b70565b9050919050565b60006020820190508181036000830152612de78184612bb0565b905092915050565b6000602082019050612e046000830184612c52565b92915050565b6000604082019050612e1f6000830185612c52565b612e2c6020830184612679565b9392505050565b6000606082019050612e486000830186612c52565b612e556020830185612679565b612e626040830184612c52565b949350505050565b6000606082019050612e7f6000830188612c52565b8181036020830152612e928186886127c7565b90508181036040830152612ea7818486612688565b90509695505050505050565b6000604082019050612ec86000830185612c52565b612ed56020830184612c52565b9392505050565b6000606082019050612ef16000830186612c52565b612efe6020830185612c52565b612f0b6040830184612c52565b949350505050565b6000608082019050612f286000830187612c52565b612f356020830186612c52565b612f426040830185612c52565b612f4f6060830184612c52565b95945050505050565b6000602082019050612f6d6000830184612c61565b92915050565b6000819050919050565b6000819050602082019050919050565b6000819050602082019050919050565b600081519050919050565b600081519050919050565b600081519050919050565b6000602082019050919050565b6000602082019050919050565b6000602082019050919050565b600082825260208201905092915050565b600082825260208201905092915050565b600082825260208201905092915050565b600082825260208201905092915050565b600082825260208201905092915050565b60006130496020840184612240565b905092915050565b600061305c82613209565b915061306783613209565b9250817f7fffffffffffffffffffffffffffffffffffffffffffffffffffffffffffffff038313600083121516156130a2576130a1613307565b5b817f80000000000000000000000000000000000000000000000000000000000000000383126000831216156130da576130d9613307565b5b828201905092915050565b60006130f082613233565b91506130fb83613233565b9250827fffffffffffffffffffffffffffffffffffffffffffffffffffffffffffffffff038211156131305761312f613307565b5b828201905092915050565b600061314682613209565b915061315183613209565b92508261316157613160613336565b5b600160000383147f80000000000000000000000000000000000000000000000000000000000000008314161561319a57613199613307565b5b828205905092915050565b60006131b082613233565b91506131bb83613233565b9250828210156131ce576131cd613307565b5b828203905092915050565b60006131e482613213565b9050919050565b60006131f682613213565b9050919050565b60008115159050919050565b6000819050919050565b600073ffffffffffffffffffffffffffffffffffffffff82169050919050565b6000819050919050565b600060ff82169050919050565b82818337600083830152505050565b60005b8381101561327757808201518184015260208101905061325c565b83811115613286576000848401525b50505050565b600060028204905060018216806132a457607f821691505b602082108114156132b8576132b7613365565b5b50919050565b60006132c982613233565b91507fffffffffffffffffffffffffffffffffffffffffffffffffffffffffffffffff8214156132fc576132fb613307565b5b600182019050919050565b7f4e487b7100000000000000000000000000000000000000000000000000000000600052601160045260246000fd5b7f4e487b7100000000000000000000000000000000000000000000000000000000600052601260045260246000fd5b7f4e487b7100000000000000000000000000000000000000000000000000000000600052602260045260246000fd5b6000601f19601f8301169050919050565b6133ae816131d9565b81146133b957600080fd5b50565b6133c5816131eb565b81146133d057600080fd5b50565b6133dc81613233565b81146133e757600080fd5b5056fea26469706673582212201bfcc79a4804c44e9bbcfdf5a3a9df321c116099611dc5691ce8f268802077c664736f6c63430008000033",
  "immutableReferences": {},
  "source": "// SPDX-License-Identifier: GPL-3.0\npragma solidity ^0.8.0;\n\nimport \"../node_modules/@openzeppelin/contracts/utils/math/SafeMath.sol\";\nimport \"./AGOToken.sol\";\nimport \"./AgorumFactory.sol\";\nimport \"./PayrollFactory.sol\";\n\n/**\n  * Mentors are responsible for guiding cohorts. For compensation, they are paid x tokens from the Agorum fund. This fund\n  * is supplied by tokens of course takers. In order for a mentor to be added as an official mentor of the Agorum, they\n  * must meet the requirements set by the agorum. For now, this simply means that they have a certain level of repuation.\n  * Once added to the mentor list, this makes them eligible to be assigned to cohorts and be paid tokens. A simple\n  * average is calculated from learners scores of the mentor. This aggregate rating is used to determine an added bonus\n  * to the mentor's compensation. The mentor is immediately paid x(base) + y(bonus) = total tokens.\n  * In summary:\n\n  * 1. Mentors register to be an Agorum mentor. They must met Agorum mentor reputation requirements. If met, then they\n  *    are added to the official mentor list and eligible for compensation.\n  * 2. Mentors are assigned to a cohort. After the cohort finishes, mentors get paid.\n  */\ncontract PayrollManager is AgorumFactory, AGOToken {\n  using SafeMath for uint256;\n\n  // checks to see if the mentor has a reputation greater than the agorum requirement\n  // is there a way we can query off-chain data to retrieve the reputation from user account (stored in IDX)??\n  modifier mentorRequirements(address payable _mentorAddress, uint _agorumID) {\n    // if (_mentorAddress.reputation > agorums[_agorumID].mentorReputationLevel) {\n      _;\n    // }\n  }\n\n  /**\n   * @dev Set the Agorum mentor requirements. At this time, the only supported requirement is a level of reputation.\n   * @param _agorumID ID of Agorum\n   * @param _reputationPoints the required level of points\n   */\n  function changeMentorRequirements(uint _agorumID, uint _reputationPoints) external onlyCreator(agorums[_agorumID].agorumCreators) {\n    payrolls[_agorumID].mentorReputationLevel = _reputationPoints;\n  }\n\n  /**\n   * @dev Set the Agorum mentor payment rate. The rate is x tokens per cohort.\n   * @param _agorumID ID of Agorum\n   * @param _mentorPaymentRate the mentor payment rate\n   */\n  function changeMentorPaymentRate(uint _agorumID, uint _mentorPaymentRate) external onlyCreator(agorums[_agorumID].agorumCreators) {\n    payrolls[_agorumID].mentorPaymentRate = _mentorPaymentRate;\n  }\n\n  // adds a new mentor to the mentors array of the payroll\n  function addMentor(uint _agorumID, address payable _mentorAddress) public mentorRequirements(_mentorAddress, _agorumID) {\n    payrolls[_agorumID].mentors.push(_mentorAddress);\n    emit NewMentor(_agorumID, _mentorAddress);\n  }\n\n  // assigns the given mentor in the mentors array to a newly created cohort, with ratings of length _numStudents,\n  // but all spots initialized to null\n  function assignCohort(uint _agorumID, address payable _mentorAddress, uint _numStudents, uint endingDate) public {\n    int[] memory ratings = new int[](_numStudents);\n    payrolls[_agorumID].mentorToCohort[_mentorAddress] = Cohort(_numStudents, ratings, block.timestamp, endingDate);\n\n    emit CohortAssigned(_agorumID, _mentorAddress, _numStudents);\n  }\n\n  // release funds to the mentor\n  // the reason for this proxy function is because when calling _payMentor, the msg.sender should be the PayrollManager\n  // contract, not the EOA account; hopefully it works in the context executed, not the originator\n  function payMentor(uint _agorumID, address payable _mentorAddress) external {\n    uint createdAt = payrolls[_agorumID].mentorToCohort[_mentorAddress].createdAt;\n    uint endingDate = payrolls[_agorumID].mentorToCohort[_mentorAddress].endingDate;\n    \n    require(block.timestamp - createdAt > endingDate, \"Cohort has not finished yet\");\n    uint totalPayment = _calculateFinalMentorPayment(_agorumID, _mentorAddress);\n\n    _releaseFunds(_mentorAddress, totalPayment);\n  }\n\n  function _releaseFunds(address payable _recipient, uint _totalPayment) internal {\n    // transfer ERC20 tokens from PayrollManager to mentor\n    // problem is that mentor has to pay ether (gas) to receive their tokens\n    // but the gas can just be considered a % transaction fee, like most platforms have anyways!\n    transfer(_recipient, _totalPayment);\n  }\n\n  /**\n   * @dev Calculates the final mentor payment, based on an average of cohort taker ratings.\n   * @dev Need to do a bunch of math checks (overflow, conversions, prevent negative compensatino amounts)\n   */\n  function _calculateFinalMentorPayment(uint _agorumID, address payable _mentorAddress) view internal returns (uint256) {\n    int totalRating = 0;\n    uint basePayment = payrolls[_agorumID].mentorPaymentRate;\n    int[] memory ratings = payrolls[_agorumID].mentorToCohort[_mentorAddress].learnerRatings;\n\n    // ratings can only be -2, -1, 0, 1, 2\n    // negative numbers decrease the mentor payment; positive increase payment bonus\n    for (uint i = 0; i < ratings.length; i++) {\n      totalRating += ratings[i];\n    }\n    // take average of ratings\n    int bonus = totalRating / int256(ratings.length);\n\n        // for now, do a simple adding of bonus to base rate. Later, will create a sliding bonus based on max and min payments possible.\n    return (basePayment + uint256(bonus));\n  }\n\n  // PAYMENT FUNCTION\n  // payable function that accepts token payments to an agorum\n  function acceptPayments(uint _agorumID, uint _amount) external {\n    // should increase the token balance - this isn't really balance of token, just a number\n    // the real balance is managed by ERC20 contract\n    payrolls[_agorumID].balance += _amount;\n\n    // the problem with this, is that it transfers to PAYROLLMANAGER contract, not the specific payroll struct\n    // however, the PAYROLLMANAGER can HOLD all tokens, while the struct balances keep track of the specific amount\n    // that the PAYROLLMANAGER owes them\n    // in this scheme, the PAYROLLMANAGER is like a centralized bank, and the structs are customers\n    // however, no entity controls the payrollmanager, it strictly adheres to the payroll struct balances\n\n    // transfer tokens from msg.sender to PayrollManager\n    transfer(address(this), _amount);\n\n    emit NewPayment(_agorumID, _amount);\n  }\n  \n  event NewMentor(uint agorumID, address payable mentorAddress);\n  event NewPayment(uint agorumID, uint amount);\n  event CohortAssigned(uint agorumID, address payable mentorAddress, uint numStudents);\n}\n\n// TODO\n// 2. Make sure transfer method pays from the Payroll balance\n// 3. Subtract mentorPayment from the cohort struct\n// 4. Work on contributor methods",
  "sourcePath": "/home/victor/agora/backend/contracts/PayrollManager.sol",
  "compiler": {
    "name": "solc",
    "version": "0.8.0+commit.c7dfd78e.Emscripten.clang"
  },
  "schemaVersion": "3.3.4",
  "updatedAt": "2021-07-02T13:51:03.166Z",
  "networkType": "ethereum",
  "devdoc": {
    "kind": "dev",
    "methods": {
      "addNewCourse(uint256,string,address[])": {
        "details": "Adds a new course to an Agorum"
      },
      "allowance(address,address)": {
        "details": "See {IERC20-allowance}."
      },
      "approve(address,uint256)": {
        "details": "See {IERC20-approve}. Requirements: - `spender` cannot be the zero address."
      },
      "balanceOf(address)": {
        "details": "See {IERC20-balanceOf}."
      },
      "changeMentorPaymentRate(uint256,uint256)": {
        "details": "Set the Agorum mentor payment rate. The rate is x tokens per cohort.",
        "params": {
          "_agorumID": "ID of Agorum",
          "_mentorPaymentRate": "the mentor payment rate"
        }
      },
      "changeMentorRequirements(uint256,uint256)": {
        "details": "Set the Agorum mentor requirements. At this time, the only supported requirement is a level of reputation.",
        "params": {
          "_agorumID": "ID of Agorum",
          "_reputationPoints": "the required level of points"
        }
      },
      "createNewAgorum(string,address[],uint256,uint256,uint256,uint256)": {
        "details": "Creates a new agorum with given name and array of creators. Adds new Agorum to the mapping tracker.Since an Agorum must be composed of at least one course, a course is also created and pushed to Agorum's courses.",
        "params": {
          "_creators": "address of the creators",
          "_name": "the agorum name"
        }
      },
      "decimals()": {
        "details": "Sets the decimals to 2 such that token balances are displayed as (balance / 10 ** 2)"
      },
      "decreaseAllowance(address,uint256)": {
        "details": "Atomically decreases the allowance granted to `spender` by the caller. This is an alternative to {approve} that can be used as a mitigation for problems described in {IERC20-approve}. Emits an {Approval} event indicating the updated allowance. Requirements: - `spender` cannot be the zero address. - `spender` must have allowance for the caller of at least `subtractedValue`."
      },
      "increaseAllowance(address,uint256)": {
        "details": "Atomically increases the allowance granted to `spender` by the caller. This is an alternative to {approve} that can be used as a mitigation for problems described in {IERC20-approve}. Emits an {Approval} event indicating the updated allowance. Requirements: - `spender` cannot be the zero address."
      },
      "mintTokensOnIntroCourseCompletion()": {
        "details": "Mints tokens when user has complete the introductory course"
      },
      "mintTokensOnNewLevel()": {
        "details": "Mints tokens when user has reached a new level"
      },
      "name()": {
        "details": "Returns the name of the token."
      },
      "symbol()": {
        "details": "Returns the symbol of the token, usually a shorter version of the name."
      },
      "totalSupply()": {
        "details": "See {IERC20-totalSupply}."
      },
      "transfer(address,uint256)": {
        "details": "See {IERC20-transfer}. Requirements: - `recipient` cannot be the zero address. - the caller must have a balance of at least `amount`."
      },
      "transferFrom(address,address,uint256)": {
        "details": "See {IERC20-transferFrom}. Emits an {Approval} event indicating the updated allowance. This is not required by the EIP. See the note at the beginning of {ERC20}. Requirements: - `sender` and `recipient` cannot be the zero address. - `sender` must have a balance of at least `amount`. - the caller must have allowance for ``sender``'s tokens of at least `amount`."
      }
    },
    "version": 1
  },
  "userdoc": {
    "kind": "user",
    "methods": {},
    "notice": "Mentors are responsible for guiding cohorts. For compensation, they are paid x tokens from the Agorum fund. This fund is supplied by tokens of course takers. In order for a mentor to be added as an official mentor of the Agorum, they must meet the requirements set by the agorum. For now, this simply means that they have a certain level of repuation. Once added to the mentor list, this makes them eligible to be assigned to cohorts and be paid tokens. A simple average is calculated from learners scores of the mentor. This aggregate rating is used to determine an added bonus to the mentor's compensation. The mentor is immediately paid x(base) + y(bonus) = total tokens. In summary: 1. Mentors register to be an Agorum mentor. They must met Agorum mentor reputation requirements. If met, then they    are added to the official mentor list and eligible for compensation. 2. Mentors are assigned to a cohort. After the cohort finishes, mentors get paid.",
    "version": 1
  }
}