{
  "contractName": "PayrollContributor",
  "abi": [
    {
      "anonymous": false,
      "inputs": [
        {
          "indexed": false,
          "internalType": "uint256",
          "name": "agorumID",
          "type": "uint256"
        },
        {
          "indexed": false,
          "internalType": "string",
          "name": "name",
          "type": "string"
        },
        {
          "indexed": false,
          "internalType": "address payable[]",
          "name": "agorumCreators",
          "type": "address[]"
        }
      ],
      "name": "AgorumCreated",
      "type": "event"
    },
    {
      "anonymous": false,
      "inputs": [
        {
          "indexed": true,
          "internalType": "address",
          "name": "owner",
          "type": "address"
        },
        {
          "indexed": true,
          "internalType": "address",
          "name": "spender",
          "type": "address"
        },
        {
          "indexed": false,
          "internalType": "uint256",
          "name": "value",
          "type": "uint256"
        }
      ],
      "name": "Approval",
      "type": "event"
    },
    {
      "anonymous": false,
      "inputs": [
        {
          "indexed": false,
          "internalType": "uint256",
          "name": "agorumID",
          "type": "uint256"
        },
        {
          "indexed": false,
          "internalType": "address payable",
          "name": "mentorAddress",
          "type": "address"
        },
        {
          "indexed": false,
          "internalType": "uint256",
          "name": "numStudents",
          "type": "uint256"
        }
      ],
      "name": "CohortAssigned",
      "type": "event"
    },
    {
      "anonymous": false,
      "inputs": [
        {
          "indexed": false,
          "internalType": "uint256",
          "name": "agorumID",
          "type": "uint256"
        },
        {
          "indexed": false,
          "internalType": "string",
          "name": "title",
          "type": "string"
        },
        {
          "indexed": false,
          "internalType": "address payable[]",
          "name": "courseCreators",
          "type": "address[]"
        }
      ],
      "name": "CourseAdded",
      "type": "event"
    },
    {
      "anonymous": false,
      "inputs": [
        {
          "indexed": false,
          "internalType": "uint256",
          "name": "id",
          "type": "uint256"
        },
        {
          "indexed": false,
          "internalType": "uint256",
          "name": "goalAmount",
          "type": "uint256"
        },
        {
          "indexed": false,
          "internalType": "uint256",
          "name": "deadline",
          "type": "uint256"
        }
      ],
      "name": "CrowdfundCreated",
      "type": "event"
    },
    {
      "anonymous": false,
      "inputs": [
        {
          "indexed": false,
          "internalType": "address payable",
          "name": "contributorAddress",
          "type": "address"
        },
        {
          "indexed": false,
          "internalType": "uint256",
          "name": "reward",
          "type": "uint256"
        }
      ],
      "name": "NewContributor",
      "type": "event"
    },
    {
      "anonymous": false,
      "inputs": [
        {
          "indexed": false,
          "internalType": "uint256",
          "name": "agorumID",
          "type": "uint256"
        },
        {
          "indexed": false,
          "internalType": "address payable",
          "name": "mentorAddress",
          "type": "address"
        }
      ],
      "name": "NewMentor",
      "type": "event"
    },
    {
      "anonymous": false,
      "inputs": [
        {
          "indexed": false,
          "internalType": "uint256",
          "name": "agorumID",
          "type": "uint256"
        },
        {
          "indexed": false,
          "internalType": "uint256",
          "name": "amount",
          "type": "uint256"
        }
      ],
      "name": "NewPayment",
      "type": "event"
    },
    {
      "anonymous": false,
      "inputs": [
        {
          "indexed": false,
          "internalType": "uint256",
          "name": "id",
          "type": "uint256"
        },
        {
          "indexed": false,
          "internalType": "uint256",
          "name": "reputationLevel",
          "type": "uint256"
        },
        {
          "indexed": false,
          "internalType": "uint256",
          "name": "mentorPaymentRate",
          "type": "uint256"
        }
      ],
      "name": "PayrollCreated",
      "type": "event"
    },
    {
      "anonymous": false,
      "inputs": [
        {
          "indexed": true,
          "internalType": "address",
          "name": "from",
          "type": "address"
        },
        {
          "indexed": true,
          "internalType": "address",
          "name": "to",
          "type": "address"
        },
        {
          "indexed": false,
          "internalType": "uint256",
          "name": "value",
          "type": "uint256"
        }
      ],
      "name": "Transfer",
      "type": "event"
    },
    {
      "inputs": [
        {
          "internalType": "uint256",
          "name": "_agorumID",
          "type": "uint256"
        },
        {
          "internalType": "uint256",
          "name": "_amount",
          "type": "uint256"
        }
      ],
      "name": "acceptPayments",
      "outputs": [],
      "stateMutability": "nonpayable",
      "type": "function"
    },
    {
      "inputs": [
        {
          "internalType": "uint256",
          "name": "_agorumID",
          "type": "uint256"
        },
        {
          "internalType": "address payable",
          "name": "_mentorAddress",
          "type": "address"
        }
      ],
      "name": "addMentor",
      "outputs": [],
      "stateMutability": "nonpayable",
      "type": "function"
    },
    {
      "inputs": [
        {
          "internalType": "uint256",
          "name": "_agorumID",
          "type": "uint256"
        },
        {
          "internalType": "string",
          "name": "_name",
          "type": "string"
        },
        {
          "internalType": "address payable[]",
          "name": "_courseCreators",
          "type": "address[]"
        }
      ],
      "name": "addNewCourse",
      "outputs": [],
      "stateMutability": "nonpayable",
      "type": "function"
    },
    {
      "inputs": [
        {
          "internalType": "uint256",
          "name": "",
          "type": "uint256"
        }
      ],
      "name": "agorums",
      "outputs": [
        {
          "internalType": "string",
          "name": "name",
          "type": "string"
        }
      ],
      "stateMutability": "view",
      "type": "function",
      "constant": true
    },
    {
      "inputs": [
        {
          "internalType": "address",
          "name": "owner",
          "type": "address"
        },
        {
          "internalType": "address",
          "name": "spender",
          "type": "address"
        }
      ],
      "name": "allowance",
      "outputs": [
        {
          "internalType": "uint256",
          "name": "",
          "type": "uint256"
        }
      ],
      "stateMutability": "view",
      "type": "function",
      "constant": true
    },
    {
      "inputs": [
        {
          "internalType": "address",
          "name": "spender",
          "type": "address"
        },
        {
          "internalType": "uint256",
          "name": "amount",
          "type": "uint256"
        }
      ],
      "name": "approve",
      "outputs": [
        {
          "internalType": "bool",
          "name": "",
          "type": "bool"
        }
      ],
      "stateMutability": "nonpayable",
      "type": "function"
    },
    {
      "inputs": [
        {
          "internalType": "uint256",
          "name": "_agorumID",
          "type": "uint256"
        },
        {
          "internalType": "address payable",
          "name": "_mentorAddress",
          "type": "address"
        },
        {
          "internalType": "uint256",
          "name": "_numStudents",
          "type": "uint256"
        },
        {
          "internalType": "uint256",
          "name": "endingDate",
          "type": "uint256"
        }
      ],
      "name": "assignCohort",
      "outputs": [],
      "stateMutability": "nonpayable",
      "type": "function"
    },
    {
      "inputs": [
        {
          "internalType": "address",
          "name": "account",
          "type": "address"
        }
      ],
      "name": "balanceOf",
      "outputs": [
        {
          "internalType": "uint256",
          "name": "",
          "type": "uint256"
        }
      ],
      "stateMutability": "view",
      "type": "function",
      "constant": true
    },
    {
      "inputs": [
        {
          "internalType": "uint256",
          "name": "_agorumID",
          "type": "uint256"
        },
        {
          "internalType": "uint256",
          "name": "_mentorPaymentRate",
          "type": "uint256"
        }
      ],
      "name": "changeMentorPaymentRate",
      "outputs": [],
      "stateMutability": "nonpayable",
      "type": "function"
    },
    {
      "inputs": [
        {
          "internalType": "uint256",
          "name": "_agorumID",
          "type": "uint256"
        },
        {
          "internalType": "uint256",
          "name": "_reputationPoints",
          "type": "uint256"
        }
      ],
      "name": "changeMentorRequirements",
      "outputs": [],
      "stateMutability": "nonpayable",
      "type": "function"
    },
    {
      "inputs": [
        {
          "internalType": "string",
          "name": "_name",
          "type": "string"
        },
        {
          "internalType": "address payable[]",
          "name": "_creators",
          "type": "address[]"
        },
        {
          "internalType": "uint256",
          "name": "_reputationLevel",
          "type": "uint256"
        },
        {
          "internalType": "uint256",
          "name": "_mentorPaymentRate",
          "type": "uint256"
        },
        {
          "internalType": "uint256",
          "name": "_goalAmount",
          "type": "uint256"
        },
        {
          "internalType": "uint256",
          "name": "_deadline",
          "type": "uint256"
        }
      ],
      "name": "createNewAgorum",
      "outputs": [],
      "stateMutability": "nonpayable",
      "type": "function"
    },
    {
      "inputs": [
        {
          "internalType": "uint256",
          "name": "",
          "type": "uint256"
        }
      ],
      "name": "crowdfunds",
      "outputs": [
        {
          "internalType": "uint256",
          "name": "goalAmount",
          "type": "uint256"
        },
        {
          "internalType": "uint256",
          "name": "deadline",
          "type": "uint256"
        },
        {
          "internalType": "uint256",
          "name": "createdAt",
          "type": "uint256"
        },
        {
          "internalType": "uint256",
          "name": "amountRaised",
          "type": "uint256"
        }
      ],
      "stateMutability": "view",
      "type": "function",
      "constant": true
    },
    {
      "inputs": [],
      "name": "decimals",
      "outputs": [
        {
          "internalType": "uint8",
          "name": "",
          "type": "uint8"
        }
      ],
      "stateMutability": "pure",
      "type": "function",
      "constant": true
    },
    {
      "inputs": [
        {
          "internalType": "address",
          "name": "spender",
          "type": "address"
        },
        {
          "internalType": "uint256",
          "name": "subtractedValue",
          "type": "uint256"
        }
      ],
      "name": "decreaseAllowance",
      "outputs": [
        {
          "internalType": "bool",
          "name": "",
          "type": "bool"
        }
      ],
      "stateMutability": "nonpayable",
      "type": "function"
    },
    {
      "inputs": [
        {
          "internalType": "uint256",
          "name": "_agorumID",
          "type": "uint256"
        }
      ],
      "name": "getAgorum",
      "outputs": [
        {
          "components": [
            {
              "internalType": "string",
              "name": "name",
              "type": "string"
            },
            {
              "internalType": "address payable[]",
              "name": "agorumCreators",
              "type": "address[]"
            },
            {
              "components": [
                {
                  "internalType": "string",
                  "name": "title",
                  "type": "string"
                },
                {
                  "internalType": "address payable[]",
                  "name": "courseCreators",
                  "type": "address[]"
                }
              ],
              "internalType": "struct AgorumFactory.Course[]",
              "name": "courses",
              "type": "tuple[]"
            }
          ],
          "internalType": "struct AgorumFactory.Agorum",
          "name": "",
          "type": "tuple"
        }
      ],
      "stateMutability": "view",
      "type": "function",
      "constant": true
    },
    {
      "inputs": [
        {
          "internalType": "address",
          "name": "spender",
          "type": "address"
        },
        {
          "internalType": "uint256",
          "name": "addedValue",
          "type": "uint256"
        }
      ],
      "name": "increaseAllowance",
      "outputs": [
        {
          "internalType": "bool",
          "name": "",
          "type": "bool"
        }
      ],
      "stateMutability": "nonpayable",
      "type": "function"
    },
    {
      "inputs": [],
      "name": "mintTokensOnIntroCourseCompletion",
      "outputs": [],
      "stateMutability": "nonpayable",
      "type": "function"
    },
    {
      "inputs": [],
      "name": "mintTokensOnNewLevel",
      "outputs": [],
      "stateMutability": "nonpayable",
      "type": "function"
    },
    {
      "inputs": [],
      "name": "name",
      "outputs": [
        {
          "internalType": "string",
          "name": "",
          "type": "string"
        }
      ],
      "stateMutability": "view",
      "type": "function",
      "constant": true
    },
    {
      "inputs": [],
      "name": "numAgorums",
      "outputs": [
        {
          "internalType": "uint256",
          "name": "",
          "type": "uint256"
        }
      ],
      "stateMutability": "view",
      "type": "function",
      "constant": true
    },
    {
      "inputs": [
        {
          "internalType": "uint256",
          "name": "_agorumID",
          "type": "uint256"
        },
        {
          "internalType": "address payable",
          "name": "_mentorAddress",
          "type": "address"
        }
      ],
      "name": "payMentor",
      "outputs": [],
      "stateMutability": "nonpayable",
      "type": "function"
    },
    {
      "inputs": [
        {
          "internalType": "uint256",
          "name": "",
          "type": "uint256"
        }
      ],
      "name": "payrolls",
      "outputs": [
        {
          "internalType": "uint256",
          "name": "mentorReputationLevel",
          "type": "uint256"
        },
        {
          "internalType": "uint256",
          "name": "mentorPaymentRate",
          "type": "uint256"
        },
        {
          "internalType": "uint256",
          "name": "balance",
          "type": "uint256"
        }
      ],
      "stateMutability": "view",
      "type": "function",
      "constant": true
    },
    {
      "inputs": [],
      "name": "symbol",
      "outputs": [
        {
          "internalType": "string",
          "name": "",
          "type": "string"
        }
      ],
      "stateMutability": "view",
      "type": "function",
      "constant": true
    },
    {
      "inputs": [],
      "name": "totalSupply",
      "outputs": [
        {
          "internalType": "uint256",
          "name": "",
          "type": "uint256"
        }
      ],
      "stateMutability": "view",
      "type": "function",
      "constant": true
    },
    {
      "inputs": [
        {
          "internalType": "address",
          "name": "recipient",
          "type": "address"
        },
        {
          "internalType": "uint256",
          "name": "amount",
          "type": "uint256"
        }
      ],
      "name": "transfer",
      "outputs": [
        {
          "internalType": "bool",
          "name": "",
          "type": "bool"
        }
      ],
      "stateMutability": "nonpayable",
      "type": "function"
    },
    {
      "inputs": [
        {
          "internalType": "address",
          "name": "sender",
          "type": "address"
        },
        {
          "internalType": "address",
          "name": "recipient",
          "type": "address"
        },
        {
          "internalType": "uint256",
          "name": "amount",
          "type": "uint256"
        }
      ],
      "name": "transferFrom",
      "outputs": [
        {
          "internalType": "bool",
          "name": "",
          "type": "bool"
        }
      ],
      "stateMutability": "nonpayable",
      "type": "function"
    },
    {
      "inputs": [
        {
          "internalType": "uint256",
          "name": "_agorumID",
          "type": "uint256"
        },
        {
          "internalType": "address payable",
          "name": "_contributorAddress",
          "type": "address"
        },
        {
          "internalType": "uint256",
          "name": "_reward",
          "type": "uint256"
        }
      ],
      "name": "addNewContributor",
      "outputs": [],
      "stateMutability": "nonpayable",
      "type": "function"
    },
    {
      "inputs": [
        {
          "internalType": "uint256",
          "name": "_agorumID",
          "type": "uint256"
        },
        {
          "internalType": "address payable",
          "name": "_contributorAddress",
          "type": "address"
        }
      ],
      "name": "payContributor",
      "outputs": [],
      "stateMutability": "nonpayable",
      "type": "function"
    }
  ],
  "bytecode": "0x608060405260006003553480156200001657600080fd5b506040518060400160405280600a81526020017f41676f7261546f6b656e000000000000000000000000000000000000000000008152506040518060400160405280600381526020017f41474f000000000000000000000000000000000000000000000000000000000081525081600790805190602001906200009b929190620000bd565b508060089080519060200190620000b4929190620000bd565b505050620001d2565b828054620000cb906200016d565b90600052602060002090601f016020900481019282620000ef57600085556200013b565b82601f106200010a57805160ff19168380011785556200013b565b828001600101855582156200013b579182015b828111156200013a5782518255916020019190600101906200011d565b5b5090506200014a91906200014e565b5090565b5b80821115620001695760008160009055506001016200014f565b5090565b600060028204905060018216806200018657607f821691505b602082108114156200019d576200019c620001a3565b5b50919050565b7f4e487b7100000000000000000000000000000000000000000000000000000000600052602260045260246000fd5b61360180620001e26000396000f3fe608060405234801561001057600080fd5b50600436106101c45760003560e01c80637ac4f9b3116100f9578063dd62ed3e11610097578063e7f9e63611610071578063e7f9e63614610530578063f2659c5b1461054c578063f7e9fd4514610568578063fa4fd95c14610584576101c4565b8063dd62ed3e146104c8578063deb13a83146104f8578063e0aae53114610514576101c4565b8063a9059cbb116100d3578063a9059cbb1461043f578063ac42b1d61461046f578063b0a128b4146104a2578063d7b6f489146104be576101c4565b80637ac4f9b3146103d557806395d89b41146103f1578063a457c2d71461040f576101c4565b8063336ab397116101665780635632b1fa116101405780635632b1fa1461033b5780636371628e1461036d57806370a0823114610389578063797c51a2146103b9576101c4565b8063336ab397146102ab5780633840511f146102db578063395093511461030b576101c4565b806314690ba8116101a257806314690ba81461022157806318160ddd1461023f57806323b872dd1461025d578063313ce5671461028d576101c4565b806306fdde03146101c9578063095ea7b3146101e75780630c86254a14610217575b600080fd5b6101d16105a0565b6040516101de9190612e6c565b60405180910390f35b61020160048036038101906101fc919061251b565b610632565b60405161020e9190612e51565b60405180910390f35b61021f610650565b005b61022961065d565b6040516102369190612fd0565b60405180910390f35b610247610663565b6040516102549190612fd0565b60405180910390f35b610277600480360381019061027291906124cc565b61066d565b6040516102849190612e51565b60405180910390f35b61029561076e565b6040516102a29190613139565b60405180910390f35b6102c560048036038101906102c0919061261a565b610777565b6040516102d29190612fae565b60405180910390f35b6102f560048036038101906102f0919061261a565b610a43565b6040516103029190612e6c565b60405180910390f35b6103256004803603810190610320919061251b565b610ae9565b6040516103329190612e51565b60405180910390f35b6103556004803603810190610350919061261a565b610b95565b604051610364939291906130bd565b60405180910390f35b610387600480360381019061038291906126ce565b610bbf565b005b6103a3600480360381019061039e9190612467565b610d25565b6040516103b09190612fd0565b60405180910390f35b6103d360048036038101906103ce91906127ba565b610d6e565b005b6103ef60048036038101906103ea9190612643565b610de2565b005b6103f9610e99565b6040516104069190612e6c565b60405180910390f35b6104296004803603810190610424919061251b565b610f2b565b6040516104369190612e51565b60405180910390f35b6104596004803603810190610454919061251b565b61101f565b6040516104669190612e51565b60405180910390f35b6104896004803603810190610484919061261a565b61103d565b60405161049994939291906130f4565b60405180910390f35b6104bc60048036038101906104b79190612643565b61106d565b005b6104c661118d565b005b6104e260048036038101906104dd9190612490565b61119a565b6040516104ef9190612fd0565b60405180910390f35b610512600480360381019061050d919061267f565b611221565b005b61052e600480360381019061052991906127ba565b6112b6565b005b61054a60048036038101906105459190612643565b61141c565b005b610566600480360381019061056191906127ba565b611482565b005b610582600480360381019061057d9190612731565b6115e8565b005b61059e60048036038101906105999190612557565b6116bb565b005b6060600780546105af9061346d565b80601f01602080910402602001604051908101604052809291908181526020018280546105db9061346d565b80156106285780601f106105fd57610100808354040283529160200191610628565b820191906000526020600020905b81548152906001019060200180831161060b57829003601f168201915b5050505050905090565b600061064661063f61178f565b8484611797565b6001905092915050565b61065b336064611962565b565b60035481565b6000600654905090565b600061067a848484611ab7565b6000600560008673ffffffffffffffffffffffffffffffffffffffff1673ffffffffffffffffffffffffffffffffffffffff16815260200190815260200160002060006106c561178f565b73ffffffffffffffffffffffffffffffffffffffff1673ffffffffffffffffffffffffffffffffffffffff16815260200190815260200160002054905082811015610745576040517f08c379a000000000000000000000000000000000000000000000000000000000815260040161073c90612eee565b60405180910390fd5b6107628561075161178f565b858461075d9190613386565b611797565b60019150509392505050565b60006002905090565b61077f61209c565b600260008381526020019081526020016000206040518060600160405290816000820180546107ad9061346d565b80601f01602080910402602001604051908101604052809291908181526020018280546107d99061346d565b80156108265780601f106107fb57610100808354040283529160200191610826565b820191906000526020600020905b81548152906001019060200180831161080957829003601f168201915b50505050508152602001600182018054806020026020016040519081016040528092919081815260200182805480156108b457602002820191906000526020600020905b8160009054906101000a900473ffffffffffffffffffffffffffffffffffffffff1673ffffffffffffffffffffffffffffffffffffffff168152602001906001019080831161086a575b5050505050815260200160028201805480602002602001604051908101604052809291908181526020016000905b82821015610a3457838290600052602060002090600202016040518060400160405290816000820180546109159061346d565b80601f01602080910402602001604051908101604052809291908181526020018280546109419061346d565b801561098e5780601f106109635761010080835404028352916020019161098e565b820191906000526020600020905b81548152906001019060200180831161097157829003601f168201915b5050505050815260200160018201805480602002602001604051908101604052809291908181526020018280548015610a1c57602002820191906000526020600020905b8160009054906101000a900473ffffffffffffffffffffffffffffffffffffffff1673ffffffffffffffffffffffffffffffffffffffff16815260200190600101908083116109d2575b505050505081525050815260200190600101906108e2565b50505050815250509050919050565b6002602052806000526040600020600091509050806000018054610a669061346d565b80601f0160208091040260200160405190810160405280929190818152602001828054610a929061346d565b8015610adf5780601f10610ab457610100808354040283529160200191610adf565b820191906000526020600020905b815481529060010190602001808311610ac257829003601f168201915b5050505050905081565b6000610b8b610af661178f565b848460056000610b0461178f565b73ffffffffffffffffffffffffffffffffffffffff1673ffffffffffffffffffffffffffffffffffffffff16815260200190815260200160002060008873ffffffffffffffffffffffffffffffffffffffff1673ffffffffffffffffffffffffffffffffffffffff16815260200190815260200160002054610b8691906132c6565b611797565b6001905092915050565b60006020528060005260406000206000915090508060000154908060010154908060020154905083565b60008267ffffffffffffffff811115610c01577f4e487b7100000000000000000000000000000000000000000000000000000000600052604160045260246000fd5b604051908082528060200260200182016040528015610c2f5781602001602082028036833780820191505090505b50905060405180608001604052808481526020018281526020014281526020018381525060008087815260200190815260200160002060040160008673ffffffffffffffffffffffffffffffffffffffff1673ffffffffffffffffffffffffffffffffffffffff168152602001908152602001600020600082015181600001556020820151816001019080519060200190610ccb9291906120bd565b5060408201518160020155606082015181600301559050507fbefb36b8371ab9a87866986863c6b6ba43f74b39647cb18a52b83540f6733c6c858585604051610d1693929190613014565b60405180910390a15050505050565b6000600460008373ffffffffffffffffffffffffffffffffffffffff1673ffffffffffffffffffffffffffffffffffffffff168152602001908152602001600020549050919050565b806000808481526020019081526020016000206002016000828254610d9391906132c6565b92505081905550610da4308261101f565b507fa8e6f9f627e4d2eb0f2887148343c7db7d11e76bdf6b93363126267954a42a518282604051610dd6929190613094565b60405180910390a15050565b8082600080858152602001908152602001600020600501839080600181540180825580915050600190039060005260206000200160009091909190916101000a81548173ffffffffffffffffffffffffffffffffffffffff021916908373ffffffffffffffffffffffffffffffffffffffff1602179055507fc52a3b2461c51f7093109e25810c135e7f5fc419f9a002af1bc71033818588118484604051610e8b929190612feb565b60405180910390a150505050565b606060088054610ea89061346d565b80601f0160208091040260200160405190810160405280929190818152602001828054610ed49061346d565b8015610f215780601f10610ef657610100808354040283529160200191610f21565b820191906000526020600020905b815481529060010190602001808311610f0457829003601f168201915b5050505050905090565b60008060056000610f3a61178f565b73ffffffffffffffffffffffffffffffffffffffff1673ffffffffffffffffffffffffffffffffffffffff16815260200190815260200160002060008573ffffffffffffffffffffffffffffffffffffffff1673ffffffffffffffffffffffffffffffffffffffff16815260200190815260200160002054905082811015610ff7576040517f08c379a0000000000000000000000000000000000000000000000000000000008152600401610fee90612f6e565b60405180910390fd5b61101461100261178f565b85858461100f9190613386565b611797565b600191505092915050565b600061103361102c61178f565b8484611ab7565b6001905092915050565b60016020528060005260406000206000915090508060000154908060010154908060020154908060030154905084565b600080600084815260200190815260200160002060040160008373ffffffffffffffffffffffffffffffffffffffff1673ffffffffffffffffffffffffffffffffffffffff168152602001908152602001600020600201549050600080600085815260200190815260200160002060040160008473ffffffffffffffffffffffffffffffffffffffff1673ffffffffffffffffffffffffffffffffffffffff16815260200190815260200160002060030154905080824261112e9190613386565b1161116e576040517f08c379a000000000000000000000000000000000000000000000000000000000815260040161116590612f0e565b60405180910390fd5b600061117a8585611d39565b90506111868482611e99565b5050505050565b61119833600a611962565b565b6000600560008473ffffffffffffffffffffffffffffffffffffffff1673ffffffffffffffffffffffffffffffffffffffff16815260200190815260200160002060008373ffffffffffffffffffffffffffffffffffffffff1673ffffffffffffffffffffffffffffffffffffffff16815260200190815260200160002054905092915050565b8060008085815260200190815260200160002060030160008473ffffffffffffffffffffffffffffffffffffffff1673ffffffffffffffffffffffffffffffffffffffff168152602001908152602001600020819055507f80f8a8834707e8354b741b30bf6902630c62f9a409323711bf0f361f48f032da82826040516112a9929190612e28565b60405180910390a1505050565b6002600083815260200190815260200160002060010180548060200260200160405190810160405280929190818152602001828054801561134c57602002820191906000526020600020905b8160009054906101000a900473ffffffffffffffffffffffffffffffffffffffff1673ffffffffffffffffffffffffffffffffffffffff1681526020019060010190808311611302575b50505050506000805b811580156113635750825181105b156113f4578281815181106113a1577f4e487b7100000000000000000000000000000000000000000000000000000000600052603260045260246000fd5b602002602001015173ffffffffffffffffffffffffffffffffffffffff163373ffffffffffffffffffffffffffffffffffffffff1614156113e157600191505b80806113ec9061349f565b915050611355565b81156114155783600080878152602001908152602001600020600101819055505b5050505050565b600080600084815260200190815260200160002060030160008373ffffffffffffffffffffffffffffffffffffffff1673ffffffffffffffffffffffffffffffffffffffff16815260200190815260200160002054905061147d8282611e99565b505050565b6002600083815260200190815260200160002060010180548060200260200160405190810160405280929190818152602001828054801561151857602002820191906000526020600020905b8160009054906101000a900473ffffffffffffffffffffffffffffffffffffffff1673ffffffffffffffffffffffffffffffffffffffff16815260200190600101908083116114ce575b50505050506000805b8115801561152f5750825181105b156115c05782818151811061156d577f4e487b7100000000000000000000000000000000000000000000000000000000600052603260045260246000fd5b602002602001015173ffffffffffffffffffffffffffffffffffffffff163373ffffffffffffffffffffffffffffffffffffffff1614156115ad57600191505b80806115b89061349f565b915050611521565b81156115e15783600080878152602001908152602001600020600001819055505b5050505050565b60006002600087815260200190815260200160002090508060020161160f86868686611ea8565b9080600181540180825580915050600190039060005260206000209060020201600090919091909150600082015181600001908051906020019061165492919061210a565b506020820151816001019080519060200190611671929190612190565b5050507ffd2460ade19a645be21837aae3f27f9894e25dbc372959960f483e385d9c739a86868686866040516116ab95949392919061304b565b60405180910390a1505050505050565b6000600360008154809291906116d09061349f565b91905055905088886002600084815260200190815260200160002060000191906116fb92919061221a565b5086866002600084815260200190815260200160002060010191906117219291906122a0565b5061172f818a8a8a8a6115e8565b61173a818686611f5b565b611745818484611fea565b7f63842ce14e9db32f1d6590c10bed8be6950c3d5ba6219cd550a3f3711ec26ba2818a8a8a8a60405161177c95949392919061304b565b60405180910390a1505050505050505050565b600033905090565b600073ffffffffffffffffffffffffffffffffffffffff168373ffffffffffffffffffffffffffffffffffffffff161415611807576040517f08c379a00000000000000000000000000000000000000000000000000000000081526004016117fe90612f4e565b60405180910390fd5b600073ffffffffffffffffffffffffffffffffffffffff168273ffffffffffffffffffffffffffffffffffffffff161415611877576040517f08c379a000000000000000000000000000000000000000000000000000000000815260040161186e90612eae565b60405180910390fd5b80600560008573ffffffffffffffffffffffffffffffffffffffff1673ffffffffffffffffffffffffffffffffffffffff16815260200190815260200160002060008473ffffffffffffffffffffffffffffffffffffffff1673ffffffffffffffffffffffffffffffffffffffff168152602001908152602001600020819055508173ffffffffffffffffffffffffffffffffffffffff168373ffffffffffffffffffffffffffffffffffffffff167f8c5be1e5ebec7d5bd14f71427d1e84f3dd0314c0f7b2291e5b200ac8c7c3b925836040516119559190612fd0565b60405180910390a3505050565b600073ffffffffffffffffffffffffffffffffffffffff168273ffffffffffffffffffffffffffffffffffffffff1614156119d2576040517f08c379a00000000000000000000000000000000000000000000000000000000081526004016119c990612f8e565b60405180910390fd5b6119de60008383612097565b80600660008282546119f091906132c6565b9250508190555080600460008473ffffffffffffffffffffffffffffffffffffffff1673ffffffffffffffffffffffffffffffffffffffff1681526020019081526020016000206000828254611a4691906132c6565b925050819055508173ffffffffffffffffffffffffffffffffffffffff16600073ffffffffffffffffffffffffffffffffffffffff167fddf252ad1be2c89b69c2b068fc378daa952ba7f163c4a11628f55a4df523b3ef83604051611aab9190612fd0565b60405180910390a35050565b600073ffffffffffffffffffffffffffffffffffffffff168373ffffffffffffffffffffffffffffffffffffffff161415611b27576040517f08c379a0000000000000000000000000000000000000000000000000000000008152600401611b1e90612f2e565b60405180910390fd5b600073ffffffffffffffffffffffffffffffffffffffff168273ffffffffffffffffffffffffffffffffffffffff161415611b97576040517f08c379a0000000000000000000000000000000000000000000000000000000008152600401611b8e90612e8e565b60405180910390fd5b611ba2838383612097565b6000600460008573ffffffffffffffffffffffffffffffffffffffff1673ffffffffffffffffffffffffffffffffffffffff16815260200190815260200160002054905081811015611c29576040517f08c379a0000000000000000000000000000000000000000000000000000000008152600401611c2090612ece565b60405180910390fd5b8181611c359190613386565b600460008673ffffffffffffffffffffffffffffffffffffffff1673ffffffffffffffffffffffffffffffffffffffff1681526020019081526020016000208190555081600460008573ffffffffffffffffffffffffffffffffffffffff1673ffffffffffffffffffffffffffffffffffffffff1681526020019081526020016000206000828254611cc791906132c6565b925050819055508273ffffffffffffffffffffffffffffffffffffffff168473ffffffffffffffffffffffffffffffffffffffff167fddf252ad1be2c89b69c2b068fc378daa952ba7f163c4a11628f55a4df523b3ef84604051611d2b9190612fd0565b60405180910390a350505050565b600080600090506000806000868152602001908152602001600020600101549050600080600087815260200190815260200160002060040160008673ffffffffffffffffffffffffffffffffffffffff1673ffffffffffffffffffffffffffffffffffffffff168152602001908152602001600020600101805480602002602001604051908101604052809291908181526020018280548015611dfb57602002820191906000526020600020905b815481526020019060010190808311611de7575b5050505050905060005b8151811015611e6f57818181518110611e47577f4e487b7100000000000000000000000000000000000000000000000000000000600052603260045260246000fd5b602002602001015184611e5a9190613232565b93508080611e679061349f565b915050611e05565b506000815184611e7f919061331c565b90508083611e8d91906132c6565b94505050505092915050565b611ea3828261101f565b505050565b611eb0612340565b611eb8612340565b85858080601f016020809104026020016040519081016040528093929190818152602001838380828437600081840152601f19601f820116905080830192505050505050508160000181905250838380806020026020016040519081016040528093929190818152602001838360200280828437600081840152601f19601f82011690508083019250505050505050816020018190525080915050949350505050565b816000808581526020019081526020016000206000018190555080600080858152602001908152602001600020600101819055506000806000858152602001908152602001600020600201819055507f49ac77dfe864b99940ef23e5879ce2aa0e5c007e8ac6edd1f9cfef4421171b5a838383604051611fdd939291906130bd565b60405180910390a1505050565b816001600085815260200190815260200160002060000181905550806001600085815260200190815260200160002060010181905550600060016000858152602001908152602001600020600301819055504260016000858152602001908152602001600020600201819055507ff6770204747583255b89dd40c6f63c3e312d0bc558b0ee72452d7012eb9e058a83838360405161208a939291906130bd565b60405180910390a1505050565b505050565b60405180606001604052806060815260200160608152602001606081525090565b8280548282559060005260206000209081019282156120f9579160200282015b828111156120f85782518255916020019190600101906120dd565b5b509050612106919061235a565b5090565b8280546121169061346d565b90600052602060002090601f016020900481019282612138576000855561217f565b82601f1061215157805160ff191683800117855561217f565b8280016001018555821561217f579182015b8281111561217e578251825591602001919060010190612163565b5b50905061218c9190612377565b5090565b828054828255906000526020600020908101928215612209579160200282015b828111156122085782518260006101000a81548173ffffffffffffffffffffffffffffffffffffffff021916908373ffffffffffffffffffffffffffffffffffffffff160217905550916020019190600101906121b0565b5b5090506122169190612377565b5090565b8280546122269061346d565b90600052602060002090601f016020900481019282612248576000855561228f565b82601f1061226157803560ff191683800117855561228f565b8280016001018555821561228f579182015b8281111561228e578235825591602001919060010190612273565b5b50905061229c9190612377565b5090565b82805482825590600052602060002090810192821561232f579160200282015b8281111561232e57823573ffffffffffffffffffffffffffffffffffffffff168260006101000a81548173ffffffffffffffffffffffffffffffffffffffff021916908373ffffffffffffffffffffffffffffffffffffffff160217905550916020019190600101906122c0565b5b50905061233c9190612377565b5090565b604051806040016040528060608152602001606081525090565b5b8082111561237357600081600090555060010161235b565b5090565b5b80821115612390576000816000905550600101612378565b5090565b6000813590506123a381613586565b92915050565b6000813590506123b88161359d565b92915050565b60008083601f8401126123d057600080fd5b8235905067ffffffffffffffff8111156123e957600080fd5b60208301915083602082028301111561240157600080fd5b9250929050565b60008083601f84011261241a57600080fd5b8235905067ffffffffffffffff81111561243357600080fd5b60208301915083600182028301111561244b57600080fd5b9250929050565b600081359050612461816135b4565b92915050565b60006020828403121561247957600080fd5b600061248784828501612394565b91505092915050565b600080604083850312156124a357600080fd5b60006124b185828601612394565b92505060206124c285828601612394565b9150509250929050565b6000806000606084860312156124e157600080fd5b60006124ef86828701612394565b935050602061250086828701612394565b925050604061251186828701612452565b9150509250925092565b6000806040838503121561252e57600080fd5b600061253c85828601612394565b925050602061254d85828601612452565b9150509250929050565b60008060008060008060008060c0898b03121561257357600080fd5b600089013567ffffffffffffffff81111561258d57600080fd5b6125998b828c01612408565b9850985050602089013567ffffffffffffffff8111156125b857600080fd5b6125c48b828c016123be565b965096505060406125d78b828c01612452565b94505060606125e88b828c01612452565b93505060806125f98b828c01612452565b92505060a061260a8b828c01612452565b9150509295985092959890939650565b60006020828403121561262c57600080fd5b600061263a84828501612452565b91505092915050565b6000806040838503121561265657600080fd5b600061266485828601612452565b9250506020612675858286016123a9565b9150509250929050565b60008060006060848603121561269457600080fd5b60006126a286828701612452565b93505060206126b3868287016123a9565b92505060406126c486828701612452565b9150509250925092565b600080600080608085870312156126e457600080fd5b60006126f287828801612452565b9450506020612703878288016123a9565b935050604061271487828801612452565b925050606061272587828801612452565b91505092959194509250565b60008060008060006060868803121561274957600080fd5b600061275788828901612452565b955050602086013567ffffffffffffffff81111561277457600080fd5b61278088828901612408565b9450945050604086013567ffffffffffffffff81111561279f57600080fd5b6127ab888289016123be565b92509250509295509295909350565b600080604083850312156127cd57600080fd5b60006127db85828601612452565b92505060206127ec85828601612452565b9150509250929050565b60006128028383612822565b60208301905092915050565b600061281a8383612dc6565b905092915050565b61282b816133cc565b82525050565b61283a816133cc565b82525050565b600061284c83856131d7565b935061285782613154565b8060005b858110156128905761286d828461321b565b61287788826127f6565b97506128828361319f565b92505060018101905061285b565b5085925050509392505050565b60006128a88261317e565b6128b281856131c6565b93506128bd8361315e565b8060005b838110156128ee5781516128d588826127f6565b97506128e0836131ac565b9250506001810190506128c1565b5085935050505092915050565b600061290682613189565b61291081856131e8565b9350836020820285016129228561316e565b8060005b8581101561295e578484038952815161293f858261280e565b945061294a836131b9565b925060208a01995050600181019050612926565b50829750879550505050505092915050565b612979816133de565b82525050565b600061298b838561320a565b935061299883858461342b565b6129a183613575565b840190509392505050565b60006129b782613194565b6129c181856131f9565b93506129d181856020860161343a565b6129da81613575565b840191505092915050565b60006129f082613194565b6129fa818561320a565b9350612a0a81856020860161343a565b612a1381613575565b840191505092915050565b6000612a2b60238361320a565b91507f45524332303a207472616e7366657220746f20746865207a65726f206164647260008301527f65737300000000000000000000000000000000000000000000000000000000006020830152604082019050919050565b6000612a9160228361320a565b91507f45524332303a20617070726f766520746f20746865207a65726f20616464726560008301527f73730000000000000000000000000000000000000000000000000000000000006020830152604082019050919050565b6000612af760268361320a565b91507f45524332303a207472616e7366657220616d6f756e742065786365656473206260008301527f616c616e636500000000000000000000000000000000000000000000000000006020830152604082019050919050565b6000612b5d60288361320a565b91507f45524332303a207472616e7366657220616d6f756e742065786365656473206160008301527f6c6c6f77616e63650000000000000000000000000000000000000000000000006020830152604082019050919050565b6000612bc3601b8361320a565b91507f436f686f727420686173206e6f742066696e69736865642079657400000000006000830152602082019050919050565b6000612c0360258361320a565b91507f45524332303a207472616e736665722066726f6d20746865207a65726f20616460008301527f64726573730000000000000000000000000000000000000000000000000000006020830152604082019050919050565b6000612c6960248361320a565b91507f45524332303a20617070726f76652066726f6d20746865207a65726f2061646460008301527f72657373000000000000000000000000000000000000000000000000000000006020830152604082019050919050565b6000612ccf60258361320a565b91507f45524332303a2064656372656173656420616c6c6f77616e63652062656c6f7760008301527f207a65726f0000000000000000000000000000000000000000000000000000006020830152604082019050919050565b6000612d35601f8361320a565b91507f45524332303a206d696e7420746f20746865207a65726f2061646472657373006000830152602082019050919050565b60006060830160008301518482036000860152612d8582826129ac565b91505060208301518482036020860152612d9f828261289d565b91505060408301518482036040860152612db982826128fb565b9150508091505092915050565b60006040830160008301518482036000860152612de382826129ac565b91505060208301518482036020860152612dfd828261289d565b9150508091505092915050565b612e1381613414565b82525050565b612e228161341e565b82525050565b6000604082019050612e3d6000830185612831565b612e4a6020830184612e0a565b9392505050565b6000602082019050612e666000830184612970565b92915050565b60006020820190508181036000830152612e8681846129e5565b905092915050565b60006020820190508181036000830152612ea781612a1e565b9050919050565b60006020820190508181036000830152612ec781612a84565b9050919050565b60006020820190508181036000830152612ee781612aea565b9050919050565b60006020820190508181036000830152612f0781612b50565b9050919050565b60006020820190508181036000830152612f2781612bb6565b9050919050565b60006020820190508181036000830152612f4781612bf6565b9050919050565b60006020820190508181036000830152612f6781612c5c565b9050919050565b60006020820190508181036000830152612f8781612cc2565b9050919050565b60006020820190508181036000830152612fa781612d28565b9050919050565b60006020820190508181036000830152612fc88184612d68565b905092915050565b6000602082019050612fe56000830184612e0a565b92915050565b60006040820190506130006000830185612e0a565b61300d6020830184612831565b9392505050565b60006060820190506130296000830186612e0a565b6130366020830185612831565b6130436040830184612e0a565b949350505050565b60006060820190506130606000830188612e0a565b818103602083015261307381868861297f565b90508181036040830152613088818486612840565b90509695505050505050565b60006040820190506130a96000830185612e0a565b6130b66020830184612e0a565b9392505050565b60006060820190506130d26000830186612e0a565b6130df6020830185612e0a565b6130ec6040830184612e0a565b949350505050565b60006080820190506131096000830187612e0a565b6131166020830186612e0a565b6131236040830185612e0a565b6131306060830184612e0a565b95945050505050565b600060208201905061314e6000830184612e19565b92915050565b6000819050919050565b6000819050602082019050919050565b6000819050602082019050919050565b600081519050919050565b600081519050919050565b600081519050919050565b6000602082019050919050565b6000602082019050919050565b6000602082019050919050565b600082825260208201905092915050565b600082825260208201905092915050565b600082825260208201905092915050565b600082825260208201905092915050565b600082825260208201905092915050565b600061322a60208401846123a9565b905092915050565b600061323d826133ea565b9150613248836133ea565b9250817f7fffffffffffffffffffffffffffffffffffffffffffffffffffffffffffffff03831360008312151615613283576132826134e8565b5b817f80000000000000000000000000000000000000000000000000000000000000000383126000831216156132bb576132ba6134e8565b5b828201905092915050565b60006132d182613414565b91506132dc83613414565b9250827fffffffffffffffffffffffffffffffffffffffffffffffffffffffffffffffff03821115613311576133106134e8565b5b828201905092915050565b6000613327826133ea565b9150613332836133ea565b92508261334257613341613517565b5b600160000383147f80000000000000000000000000000000000000000000000000000000000000008314161561337b5761337a6134e8565b5b828205905092915050565b600061339182613414565b915061339c83613414565b9250828210156133af576133ae6134e8565b5b828203905092915050565b60006133c5826133f4565b9050919050565b60006133d7826133f4565b9050919050565b60008115159050919050565b6000819050919050565b600073ffffffffffffffffffffffffffffffffffffffff82169050919050565b6000819050919050565b600060ff82169050919050565b82818337600083830152505050565b60005b8381101561345857808201518184015260208101905061343d565b83811115613467576000848401525b50505050565b6000600282049050600182168061348557607f821691505b6020821081141561349957613498613546565b5b50919050565b60006134aa82613414565b91507fffffffffffffffffffffffffffffffffffffffffffffffffffffffffffffffff8214156134dd576134dc6134e8565b5b600182019050919050565b7f4e487b7100000000000000000000000000000000000000000000000000000000600052601160045260246000fd5b7f4e487b7100000000000000000000000000000000000000000000000000000000600052601260045260246000fd5b7f4e487b7100000000000000000000000000000000000000000000000000000000600052602260045260246000fd5b6000601f19601f8301169050919050565b61358f816133ba565b811461359a57600080fd5b50565b6135a6816133cc565b81146135b157600080fd5b50565b6135bd81613414565b81146135c857600080fd5b5056fea26469706673582212201ee41d7ed6f4c6e335619a0a6c01ecb2466a88175c996d0bd2b1d7e6b30bf76564736f6c63430008000033",
  "immutableReferences": {},
  "source": "// SPDX-License-Identifier: GPL-3.0\npragma solidity ^0.8.0;\n\nimport \"./PayrollManager.sol\";\n\ncontract PayrollContributor is PayrollManager {\n\n  // this should only be called based on some restrictions, such as if their proposal has enough votes or some other metric\n  function addNewContributor(uint _agorumID, address payable _contributorAddress, uint _reward) public {\n    payrolls[_agorumID].contributors[_contributorAddress] = _reward;\n\n    emit NewContributor(_contributorAddress, _reward);\n  }\n\n  // pay contributor\n  function payContributor(uint _agorumID, address payable _contributorAddress) public {\n    uint payment = payrolls[_agorumID].contributors[_contributorAddress];\n    _releaseFunds(_contributorAddress, payment);\n  }\n\n  event NewContributor(address payable contributorAddress, uint reward);\n}",
  "sourcePath": "/home/victor/agora/backend/contracts/PayrollContributor.sol",
  "compiler": {
    "name": "solc",
    "version": "0.8.0+commit.c7dfd78e.Emscripten.clang"
  },
  "schemaVersion": "3.3.4",
  "updatedAt": "2021-07-02T13:51:04.687Z",
  "networkType": "ethereum",
  "devdoc": {
    "kind": "dev",
    "methods": {
      "addNewCourse(uint256,string,address[])": {
        "details": "Adds a new course to an Agorum"
      },
      "allowance(address,address)": {
        "details": "See {IERC20-allowance}."
      },
      "approve(address,uint256)": {
        "details": "See {IERC20-approve}. Requirements: - `spender` cannot be the zero address."
      },
      "balanceOf(address)": {
        "details": "See {IERC20-balanceOf}."
      },
      "changeMentorPaymentRate(uint256,uint256)": {
        "details": "Set the Agorum mentor payment rate. The rate is x tokens per cohort.",
        "params": {
          "_agorumID": "ID of Agorum",
          "_mentorPaymentRate": "the mentor payment rate"
        }
      },
      "changeMentorRequirements(uint256,uint256)": {
        "details": "Set the Agorum mentor requirements. At this time, the only supported requirement is a level of reputation.",
        "params": {
          "_agorumID": "ID of Agorum",
          "_reputationPoints": "the required level of points"
        }
      },
      "createNewAgorum(string,address[],uint256,uint256,uint256,uint256)": {
        "details": "Creates a new agorum with given name and array of creators. Adds new Agorum to the mapping tracker.Since an Agorum must be composed of at least one course, a course is also created and pushed to Agorum's courses.",
        "params": {
          "_creators": "address of the creators",
          "_name": "the agorum name"
        }
      },
      "decimals()": {
        "details": "Sets the decimals to 2 such that token balances are displayed as (balance / 10 ** 2)"
      },
      "decreaseAllowance(address,uint256)": {
        "details": "Atomically decreases the allowance granted to `spender` by the caller. This is an alternative to {approve} that can be used as a mitigation for problems described in {IERC20-approve}. Emits an {Approval} event indicating the updated allowance. Requirements: - `spender` cannot be the zero address. - `spender` must have allowance for the caller of at least `subtractedValue`."
      },
      "increaseAllowance(address,uint256)": {
        "details": "Atomically increases the allowance granted to `spender` by the caller. This is an alternative to {approve} that can be used as a mitigation for problems described in {IERC20-approve}. Emits an {Approval} event indicating the updated allowance. Requirements: - `spender` cannot be the zero address."
      },
      "mintTokensOnIntroCourseCompletion()": {
        "details": "Mints tokens when user has complete the introductory course"
      },
      "mintTokensOnNewLevel()": {
        "details": "Mints tokens when user has reached a new level"
      },
      "name()": {
        "details": "Returns the name of the token."
      },
      "symbol()": {
        "details": "Returns the symbol of the token, usually a shorter version of the name."
      },
      "totalSupply()": {
        "details": "See {IERC20-totalSupply}."
      },
      "transfer(address,uint256)": {
        "details": "See {IERC20-transfer}. Requirements: - `recipient` cannot be the zero address. - the caller must have a balance of at least `amount`."
      },
      "transferFrom(address,address,uint256)": {
        "details": "See {IERC20-transferFrom}. Emits an {Approval} event indicating the updated allowance. This is not required by the EIP. See the note at the beginning of {ERC20}. Requirements: - `sender` and `recipient` cannot be the zero address. - `sender` must have a balance of at least `amount`. - the caller must have allowance for ``sender``'s tokens of at least `amount`."
      }
    },
    "version": 1
  },
  "userdoc": {
    "kind": "user",
    "methods": {},
    "version": 1
  }
}