{
  "contractName": "Payroll",
  "abi": [
    {
      "inputs": [],
      "name": "balance",
      "outputs": [
        {
          "internalType": "uint256",
          "name": "",
          "type": "uint256"
        }
      ],
      "stateMutability": "view",
      "type": "function"
    },
    {
      "inputs": [
        {
          "internalType": "address",
          "name": "",
          "type": "address"
        }
      ],
      "name": "contributors",
      "outputs": [
        {
          "internalType": "uint256",
          "name": "",
          "type": "uint256"
        }
      ],
      "stateMutability": "view",
      "type": "function"
    },
    {
      "inputs": [
        {
          "internalType": "string",
          "name": "",
          "type": "string"
        }
      ],
      "name": "distributionRates",
      "outputs": [
        {
          "internalType": "uint256",
          "name": "",
          "type": "uint256"
        }
      ],
      "stateMutability": "view",
      "type": "function"
    },
    {
      "inputs": [
        {
          "internalType": "address",
          "name": "",
          "type": "address"
        }
      ],
      "name": "mentors",
      "outputs": [
        {
          "internalType": "uint256",
          "name": "",
          "type": "uint256"
        }
      ],
      "stateMutability": "view",
      "type": "function"
    },
    {
      "inputs": [
        {
          "internalType": "address",
          "name": "_contributorAddress",
          "type": "address"
        },
        {
          "internalType": "uint256",
          "name": "_reward",
          "type": "uint256"
        }
      ],
      "name": "addContributor",
      "outputs": [],
      "stateMutability": "nonpayable",
      "type": "function"
    }
  ],
  "bytecode": "0x6080604052600060035534801561001557600080fd5b50610472806100256000396000f3fe608060405234801561001057600080fd5b50600436106100575760003560e01c80631f6d49421461005c578063673e886a1461008c578063b69ef8a8146100bc578063e0bd7d15146100da578063eed4ea8f146100f6575b600080fd5b61007660048036038101906100719190610263565b610126565b6040516100839190610318565b60405180910390f35b6100a660048036038101906100a191906102c8565b61013e565b6040516100b39190610318565b60405180910390f35b6100c461016c565b6040516100d19190610318565b60405180910390f35b6100f460048036038101906100ef919061028c565b610172565b005b610110600480360381019061010b9190610263565b6101b9565b60405161011d9190610318565b60405180910390f35b60006020528060005260406000206000915090505481565b6002818051602081018201805184825260208301602085012081835280955050505050506000915090505481565b60035481565b806000808473ffffffffffffffffffffffffffffffffffffffff1673ffffffffffffffffffffffffffffffffffffffff168152602001908152602001600020819055505050565b60016020528060005260406000206000915090505481565b60006101e46101df84610364565b610333565b9050828152602081018484840111156101fc57600080fd5b6102078482856103d0565b509392505050565b60008135905061021e8161040e565b92915050565b600082601f83011261023557600080fd5b81356102458482602086016101d1565b91505092915050565b60008135905061025d81610425565b92915050565b60006020828403121561027557600080fd5b60006102838482850161020f565b91505092915050565b6000806040838503121561029f57600080fd5b60006102ad8582860161020f565b92505060206102be8582860161024e565b9150509250929050565b6000602082840312156102da57600080fd5b600082013567ffffffffffffffff8111156102f457600080fd5b61030084828501610224565b91505092915050565b610312816103c6565b82525050565b600060208201905061032d6000830184610309565b92915050565b6000604051905081810181811067ffffffffffffffff8211171561035a576103596103df565b5b8060405250919050565b600067ffffffffffffffff82111561037f5761037e6103df565b5b601f19601f8301169050602081019050919050565b600061039f826103a6565b9050919050565b600073ffffffffffffffffffffffffffffffffffffffff82169050919050565b6000819050919050565b82818337600083830152505050565b7f4e487b7100000000000000000000000000000000000000000000000000000000600052604160045260246000fd5b61041781610394565b811461042257600080fd5b50565b61042e816103c6565b811461043957600080fd5b5056fea2646970667358221220861a012a2aecdceec930132524b548464d159da15d2fd4b416c94c1284c5930464736f6c63430008000033",
  "immutableReferences": {},
  "source": "// SPDX-License-Identifier: GPL-3.0\npragma solidity ^0.8.0;\n\nimport \"../node_modules/@openzeppelin/contracts/utils/math/SafeMath.sol\";\n\ncontract Payroll {\n  using SafeMath for uint256;\n\n  // uint represents contributor payment amount\n  mapping (address => uint) public contributors;\n  // uint represents mentor payment amount\n  mapping (address => uint) public mentors;\n  // string is (contributor; mentor; creator) and uint is % of a payment they receive\n  mapping (string => uint) public distributionRates;\n  // the balance of the payroll\n  uint public balance = 0;\n\n  /** @dev Adds a new contributor to payroll along with their reward\n   * @param _contributorAddress the address of the contributor to add\n   * @param _reward the reward set by community standard\n   */\n  function addContributor(address _contributorAddress,  uint _reward) external {\n    contributors[_contributorAddress] = _reward;\n  }\n}",
  "sourcePath": "/home/victor/agora/blockchain/contracts/Payroll.sol",
  "compiler": {
    "name": "solc",
    "version": "0.8.0+commit.c7dfd78e.Emscripten.clang"
  },
  "schemaVersion": "3.3.4",
  "updatedAt": "2021-06-05T00:22:01.318Z",
  "devdoc": {
    "kind": "dev",
    "methods": {
      "addContributor(address,uint256)": {
        "details": "Adds a new contributor to payroll along with their reward",
        "params": {
          "_contributorAddress": "the address of the contributor to add",
          "_reward": "the reward set by community standard"
        }
      }
    },
    "version": 1
  },
  "userdoc": {
    "kind": "user",
    "methods": {},
    "version": 1
  }
}